:20000000C03F0020617C000001CA011001CA011001CA011001CA011001CA011001CA0110BC
:1C00200001CA011001CA011001CA011001CA011001CA011001CA01103FCA011082
:20003C002DE9F843044640F2B010C1F20000006843F284470D460126C2F2000741693E607F
:20005C002720884744F20008C4F20208C8F880674FF00309C8F88497D8F8000720F00100BB
:20007C00C8F80007D8F8000740F00100C8F80007C8F88897D8F8080420F00300C8F8080434
:20009C00D8F8080440F00100C8F8080406FA05F5C8F80054D8F8000040F00100C8F800009C
:2000BC00C8F804401020C8F80C0030460AF013F8D8F890074008F8D3D8F8900710F0404F39
:2000DC000BD1C8F888970020C8F80007D8F804148D421CBF3860301C01D100203860BDE8BD
:0400FC00F8837047CE
:200100003C000000000000000000000034010000000000000000000001000000000000006D
:1C01200000000000000000000000000001000000000000000800000000000000BA
:20013C00340000000000000000000000680100000000000000000000010000000000000005
:14015C00010000000000000000000000080000000000000086
:2001700030000000000000000000000098010000040000000000000001000000FFFFFFFFA5
:10019000FF00000001000000080000000000000057
:2001A0002C0000000000000000000000C4010000040000000000000001000000FFFFFFFF4D
:0C01C000FFFFFFFF08000000000000002F
:2001CC0034050000E401000099A1011095A70110A5C2011009B2011045B80110000000000B
:0801EC00000000002F000000DC
:2001F400280000000000000000000000140200000000000000000000FFFFFFFF00000000B1
:080214000800000000000000DA
:20021C00300500003002000069C201106DC101101FC2011095BA011000000000000000008E
:04023C00310000008D
:20024000300500005402000075C20110A9B601109DBF011049B601100000000000000000DE
:040260003200000068
:200264002400000000000000000000008002000000000000000000000000000008000000CC
:040284000000000076
:20028800240000000000000000000000A40200000000000000000000000000000800000084
:0402A8000000000052
:2002AC00240000000000000000000000C8020000000000000100000000000000080000003B
:0402CC00000000002E
:2002D0000000000054320020040000000000000000000000200000007001000030000000A3
:2002F0001C020000683200200400000000000000000000000C0000003004000018000000BA
:20031000400200007432002004000000000000000000000024000000480400001800000039
:20033000000000007C32002004000000000000000000000010000000A00100002C000000FE
:20035000CC010000843200200400000000000000000000002000000064020000240000003C
:20037000FFFFFFFFA4320020040000000000000000000000280000008802000024000000A1
:20039000FFFFFFFFB4320020040000000000000000000000580000003C010000340000007E
:2003B000FFFFFFFFBC32002004000000000000000000000010000000600400001800000093
:2003D000FFFFFFFFC43200200400000000000000000000001C000000AC0200002400000009
:2003F000FFFFFFFFE032002004000000000000000000000038000000F40100002800000066
:20041000FFFFFFFFE832002004000000000000000000000054000000000100003C00000001
:1804300018000000000000000000000040040000080000000000000050
:1804480018000000000000000000000058040000080000000000000020
:18046000180000000000000000000000700400000800000000000000F0
:08047800010000009CA6000039
:040480000170704750
:040484000100000073
:0404880000000C0064
:04048C0000000D005F
:040490003200000036
:040494000200000062
:04049800A03500206B
:04049C00000200005A
:0404A0000000000058
:0404A40001CA011078
:0404A8000000000050
:0404AC00000000004C
:0404B0000800000040
:0404B4000000200024
:0404B800D03400201C
:0404BC00010000003B
:0404C0008C3200205A
:0404C400080000002C
:0404C8000000000030
:0404CC00000000002C
:0404D0000000000028
:0404D4000000000024
:0404D8000000000020
:0404DC00010000001B
:0404E00000360020C2
:0404E400060000000E
:0404E800010000000F
:0404EC003834002080
:0404F0000000000008
:0404F4000000000004
:0404F80000020000FE
:0404FC0000000000FC
:02050000704742
:020502002B00CC
:020504000100F4
:020506002600CD
:020508003100C0
:02050A003200BD
:02050C002F00BE
:02050E000100EA
:0105100001E9
:08051400030000005CA60000DA
:08051C000000000000000000D7
:0405240000000100D2
:0405280000000300CC
:04052C0087C401106F
:04053000380500008A
:040534003805000086
:0405380000000000BF
:04053C00800000003B
:040540008000000037
:0405440000000000B3
:040548008C320020D1
:04054C000F9E0000FE
:040550002000000087
:04055400EAA5000014
:04055800ECA400000F
:04055C000DC30110BA
:04056000F34B000059
:0405640047500000FC
:0405680099C801101D
:04056C009BC8011017
:040570000000000087
:04057400E9A50000F5
:040578002CA40000AF
:04057C0044A4000093
:0405800014A40000BF
:0205840008006D
:0205860009006A
:02058800010070
:02058A0000006F
:01058C00016D
:040590000000000067
:040594000000000063
:04059800000000005F
:04059C00000000005B
:0405A000899B000033
:0405A4009180000042
:0405A800C9930000F3
:0405AC00357D000099
:0405B000AD71000029
:0405B400AD8700000F
:0405B800A963000033
:0405BC00959700000F
:0405C000C9720000FC
:0405C400B5970000E7
:0405C8002DA0000062
:0405CC000800000023
:0405D0002400000003
:0405D400180000000B
:0405D80028000000F7
:0405DC0020000000FB
:0405E0003C000000DB
:0405E4000C00000007
:0405E80034000000DB
:2005EC002DE9F04F064640F29421012541F22D00ADF10C0DC4F22231C4F2090040F81D5CB1
:20060C0008680028FCD043F6AC7E46F2440AC020C5F2000EC4F20C0AF4464AF8440CDEF86E
:20062C000890DCF8041046F25620C4F20800890807D271460A686FF00F0E4EEA12410170B7
:20064C0001E07221017041F28C38C5F2000858F8D41CC1F304611629A8BF203962469268F9
:20066C0012175118491C11F10A0FB8BF6FF0090100232C4625EAD96201F01F01C4F2203383
:20068C0041F4F851018324EA996E1A60002EC3F808E073D058F83C1CC1F38360C1F38F2700
:2006AC005FEA994167D249F3072CBCF1000F29D549F307214A42B1F1FF3F4FEA620215DA4D
:2006CC007F0805D1400806BF281C2F1C4FF6FF777F080CF1010C05D1400806BF281C2F1C57
:2006EC004FF6FF77521E0CF1010CE9D1490809D37F0805D1400806BF281C2F1C4FF6FF771E
:20070C000CF1010CBCF1000F35DDBCF1020F4FEA6C020CF001031DDB4FF6FF717F0047F02D
:20072C000107B94207D2400040F001000F2892BF2F1C0F200F1C7F0047F00107B94207D2A1
:20074C00400040F001000F2892BF2F1C0F200F1C521EE3D1002B0EDD7F004FF6FF7147F04A
:20076C000107B94207D2400040F001000F2892BF2F1C0F200F1C47EA004703E040F6FF77EC
:20078C00C0F20F0709F0FAFB39460022002808BF2A1C48F20007C4F20C0738680028FCD023
:2007AC004AF20800C4F20C0001613D600AB109F0EBFB002E08BFD82109D058F83C1C58F8CF
:2007CC003C0CC1F3870100F0030041EA002188B2009040F2FF3200232C214AF20000C4F2BB
:2007EC000C0006F04DFE002E1ABF58F8100CC0F30D0B40F2FF3B09F0C1FB0021002808BF31
:20080C00291C38680028FCD04AF20800C4F20C00C0F814B03D6009B109F0B6FB002E04BF7F
:20082C004FF0000BC6F6880B0DD058F818BC0BF07C420BF47C010BF47C4011430BF0FC0BCC
:20084C0008434BEA000B09F099FB0021002808BF291C38680028FCD04AF20800C4F20C0085
:20086C00C0F80CB03D6009B109F08EFB002E04BF47F28A6BC0F2680B0DD058F81CBC0BF4D7
:20088C007C020BF47C410BF4707011430BF03F0B08434BEA000B09F071FB0021002808BF9A
:2008AC00291C38680028FCD04AF20800C4F20C00C0F808B03D6009B109F066FB002E3AD0F4
:2008CC0058F8140C43F6AC71C5F200014B68C0F303525B08C0F3034117D243F6AC73C5F281
:2008EC0000031B6843F3032C12EB0C0203D4102A02DB0F2200E0002243F30333C91803D4B1
:20090C00102902DB0F2100E0002141EA021100F47F4200F0F00E0B0400F00F0B222E42EA0E
:20092C0003024EEA02014BEA010B08D300F0804040EA0B0B03E043F6277BC0F2710B09F07A
:20094C001DFB0021002808BF291C38680028FCD04AF20800C4F20C00C0F804B03D6009B1C1
:20096C0009F012FB222E26BFD8F80000C0F30070281C4AF2400BC4F20C0B222E4FEA4000DC
:20098C0040F020008BF8090126BFD8F80000C0F34070281C202E40F010008BF809013CBFFC
:2009AC00002001900CD3D8F80C00C20C02F44072800D00F01C0100F003001143084301908C
:2009CC0009F0DCFA019A0021002808BF291C38680028FCD04AF20800C4F20C0002623D60B1
:2009EC0009B109F0D1FA202E26BFD8F80C00C0F301500020222E4FEA400040F060008BF85E
:200A0C000C0126BFD8F80000C0F3C06100216FF07F00222E40EAC1008BF8010126BFD8F8C0
:200A2C000000C0F3455100214FF60040202ECFF6FF7040EA8100ABF89C0105D248F200003D
:200A4C00C4F23F0001900BE0D8F80C000003820D00F47C11920500F47040114308430190BF
:200A6C0009F08CFA019A0021002808BF291C38680028FCD04AF20800C4F20C0002603D6062
:200A8C0009B109F081FA44204FF0880E8BF8C500002E8BF8C7E01ABFD8F80000C0F3C141E5
:200AAC00002140F68406C9F3815041F03001C4F28C3600288BF8C81041D0401E07D0401EBB
:200ACC0037D00420022106F003FE00214BE0284608F020FD04460420214606F0F9FD042011
:200AEC0008F018FD8442FAD143F6AC70C5F2000050F8040C0104090C4AF8081CC0F3074E60
:200B0C004AF804ECCAF8005031680029FCD0002240F2B411CAF80020C1F2000109680B6864
:200B2C00000E4FF06022072198474FF48060CBF800000420032106F0CBFD002113E00420AF
:200B4C00294606F0C5FD43F2BD704AF8080C4FF086094AF8049CCAF8005030680028FCD05C
:200B6C000021CAF8001058F8200C4BF2700342F22C0E41F22D0C47F6180240F29449C4F254
:200B8C000C0300F03F00C4F2090E8BF8CB0FC4F2090C1A80DEF800004AF8441CC4F26029C5
:200BAC004CF81D1C03B0C9F80050BDE8F08F70472DE9F04F044609AF10461E46ADF13C0D15
:200BCC00002800943A8801900D46ADF8302008BF002000F001824FF0000B471CCDF838B0FE
:200BEC00ECE1252C40F0D78139787F1C01972D291CBF0E98ADF81E0005D10121781CADF894
:200C0C001E1039780190302918BF0E9805D101990A460120521C097801920E9A2A2984465A
:200C2C004FF0FF34069224D12346326808930199CDF828C0D21C0B4622F00302121D5B1CC8
:200C4C00326052F8042C09780193002A069218D50123ADF81E305242069212E0069F019A43
:200C6C007B0003EBC703CB18571C303B019711780693302901DB3A29F0DBCDF828C0224642
:200C8C0008922E292BD1019A11780E9B2A2902F10102019210D131680893C91C21F00301A3
:200CAC00091D316051F8044C002C48BF1C1C1178521C2346019211E01C460BE0019A63003E
:200CCC0003EBC40409191346A1F130045B1C117801932346302901DB3A29EFDB089308B15E
:200CEC0006980A906C2905D04C291CBF0E9AADF81C2007D1019901230A46ADF81C30521C28
:200D0C00097801920DF1180C02AFCDF82CC00E9A0D976429099200F0AE80692900F0AB80F0
:200D2C00BDF83030752979D0782975D06F2971D070294AD063293AD073291CD0019F012D4D
:200D4C00A7F10107019714D9A7480068B4F1FF3F04D0A54284BF641C089400D808958446CF
:200D6C0001A9324606AB6846E047014609988B44BBE01046BAE03068019FC01C20F0030056
:200D8C00001D306050F8040C002B7F1C014608B993A001460D9108F0E1FF0990B4F1FF3F08
:200DAC0000F0A580A042C4BF201C09909FE03068C01C20F00300001D306010F8041C8DF878
:200DCC0008100127099738468FE0082130680A91C01C20F00300001D306050F8047C144620
:200DEC0006A8824A07F00F01515C3F0904F1010400F8011DF5D1082C06DAC4F10804302175
:200E0C00641E00F8011DFAD14021441E00F8011C604667E0082102E0102100E00A213268BD
:200E2C00D21C22F00302121D326052F8048CA042BCBF201C0A900E9C06AF8A468146404657
:200E4C00514607F0DFF86948405CB8FBFAF8B8F1000F04F1010407F8010DF0D1A14506DDE6
:200E6C00A9EB04003021401E07F8011DFAD10B980D97C01B38E03168C91C21F00301091D44
:200E8C00316051F8041CA042BCBF201C0A9006AC81460F46002958BF924604D57F42A0F108
:200EAC0001094FF02D0A904638460A2107F0AAF84E48405C0A23B7FBF3F7002F08F1010862
:200ECC0004F8010DF0D1C14506DDA9EB08003021401E04F8011DFAD1BAF1000F18BF04F895
:200EEC0001AD0B980D94001B0990019F7F1CBDF81E400699091A0691BCB911E0012D0DD91F
:200F0C0000986D1E30B909F02BF938B1202009F025F903E020210170441C00940BF1010BCB
:200F2C000698401E0690E9D509980446401E0990D4B9BDF81E00002840D00698401E069049
:200F4C003CD4012D0DD900986D1E30B909F008F938B1202009F002F903E020210170441C49
:200F6C0000940BF1010BE8E70D994A1C0D920C78012D0DD9009B6D1E3BB909F0F1F810B1FA
:200F8C00204609F0EBF8099802E01C705B1C00930BF1010BC9E7012D07F101070CD9009887
:200FAC006D1E30B909F0DCF830B1204609F0D6F802E00470401C00900BF1010B17F8014C30
:200FCC000198002C00F1010001907FF40AAE009808B10E99017058460FB0BDE8F08FC046A2
:200FEC00286E756C6C2900C0A0A60000FEA50000F0B50446A078ADF1B40D002800F00B8225
:20100C00401E00F0E681001F00F05E81401E00F0F680C01F40F0088220694179F02940F038
:20102C00CA808079FF2840F0C68008F033FE651D284607F045FB002840F0BD80217994F9B8
:20104C000B20284605F065F92069C77A28686E463060A888B08020696B463A460E3001465B
:20106C0006F0FDF820696B463A460C30014606F0F6F8296802A80160A9888180227B8DF868
:20108C000E2001208DF80F00216904A804F020FE227B002102EB0D001030C2F1200205F057
:2010AC007EFBE07A8DF82F0002A805F00EFD0DA80021802205F073FB0025601B807A0CA9C9
:2010CC00102205F0DBFF0CA808F020FE0DA908780CAA18B111F8010F0028FBD112F8010B61
:2010EC0001F8010B28B112F8010B002801F8010BF9D16D1C062DE0DB0F2505EB0D00007AD7
:20110C000CA9102205F0BAFF0CA808F0FFFD0DA908780CAA18B111F8010F0028FBD112F8BA
:20112C00010B01F8010B28B112F8010B002801F8010BF9D16D1C272DDFDBE07A0CA91022D4
:20114C0005F09CFF0CA808F0E1FD0DA908780CAA18B111F8010F0028FBD112F8010B01F898
:20116C00010B28B112F8010B002801F8010BF9D10DA90878ADA218B111F8010F0028FBD116
:20118C0012F8010B01F8010B28B112F8010B002801F8010BF9D14FF0FF320DA911F8010B07
:2011AC00521C0028FAD142F69470C2F2000000680DA908F055FFE078042840F03581601D81
:2011CC0001686D4629608088A880227B8DF8062002208DF80700216902A804F079FD227BFD
:2011EC00002102EB0D000830C2F1200205F0D7FAE07A8DF82700684605F067FC14E160890B
:20120C0043F262610025C2F200010D5443F26361C2F200010D54A08808F04CFCA088D0B16F
:20122C00401E11D0401E08D0401E1AD142F65050C2F2000008F08CFF13E042F62C50C2F27A
:20124C00000008F085FF0CE042F60850C2F2000008F07EFF05E042F6E440C2F2000008F074
:20126C0077FFA08842F63076C2F2000606EBC001891C0A6802A80260898881808DF80E5062
:20128C0007208DF80F00A1791F220DF111008DF81010294605F083FA8DF82F5002A805F0F4
:2012AC0014FC4AF22861C0F200010A686846026049684160A288016806EBC2063160406841
:2012CC00706008F055FDAFE06078002858D142F65440C2F2000008F03BFF43F26460002164
:2012EC000622C2F2000005F05AFA08F041FD608942F6A175C2F2000543F262620121C2F2C8
:20130C00000211542A7842F61441C2F2000101EBC2010B6842F63072C2F2000202EBC00215
:20132C00104649680360921C416010686E4630609088B08000218DF8061004208DF8070078
:20134C00E08902128DF808208DF80900208A02128DF80A208DF80B00227D0DF10D008DF89D
:20136C000C201B2205F01BFA287842F63871C2F20001085C8DF82700684605F0A6FB53E031
:20138C0042F6A170C2F2000001786D46002642F61640C2F2000000EBC1000168808829600A
:2013AC002022A88005218DF8066002A88DF80710314605F0F4F968468DF8276005F085FBD8
:2013CC00608943F26261C2F200010E5408F0D0FC2AE042F6A070C2F20000017802290ADAB7
:2013EC0001290BD142F6A1710020C2F20001087008F0BEFC18E00078082802DD08F0B8FC67
:20140C0012E007F0A6FA42F6A171C2F20001087008F0AEFC08E0E41C216842F62870C2F229
:20142C0000000160A18881802DB0F0BD0A0070472DE9D04F42F69A7042F69071ADF1680D07
:20144C00C2F20000C2F2000107F0BFFB42F6F860C2F2000008F02EFD00274FF0100942F648
:20146C006871C2F200014FF4FA623B46086049F6751142F654400097C0F20001C2F20000BB
:20148C00CDF8049006F027F849F62D54C0F2000442F6E44042F6E062009721463B46C2F253
:2014AC000000019706F017F84FF0010842F6085042F6E062009721463B46C2F20000CDF839
:2014CC00048006F008F84FF0020A42F62C5042F6E062009721463B46C2F20000CDF804A071
:2014EC0005F0F9FF4FF0030B42F6505042F6E062009721463B46C2F20000CDF804B005F0B3
:20150C00EAFF42F6E06043F27061C2F20000C2F2000104F098F843F26C61C2F2000108604C
:20152C0049F28501C0F2000108F034FD4AF6F87008F0D4F905F0D3FD08F0CAFB44F6206059
:20154C0008F094FE08F0A6FB44F6206008F08EFE3E4642F6587342F632714FF6FF72C2F252
:20156C000003C2F20001F4001819428047600819077047708770761CC770F6B20771002EBC
:20158C004771F0D008208DF81000414604AA40F2044005F079F950464FF4FA6107F029FAAA
:2015AC0058464FF4FA6107F024FA48464FF4486107F01FFA11204FF4486107F01AFA4AF2E0
:2015CC00D45238461521C0F2000208F0FDF82320394607F00EFA1920C82107F00AFA052081
:2015EC004FF4FA6107F005FA04204FF47A7107F000FA8DF80B808DF80A708DF8097044F6C1
:20160C00C7408DF80880042103AA03904FF4816006F0CAFF4FF4806041460DF10B0206F0B7
:20162C00C3FF40F2024041460DF10A0206F0BCFF40F2034041460DF1090206F0B5FF40F245
:20164C000640414602AA06F0AFFF07F058FD42F69A74C2F20004207807F052FB4FF0FF30CD
:20166C0008F014FD4FF0FF3008F034FD43F27860C2F2000006F01AF943F27C60C2F200002F
:20168C0007F024FE207808F0F9FC207808F0FAFC42F6E054C2F20004204608F0D4F94FF488
:2016AC0061202146A061384608F0DAF942F694710446C2F2000150220DF111000C604AF287
:2016CC007831C0F2000104F003FB0DF111015022204608F0C5FC03F0FFFA052006F010FCFC
:2016EC0042F69C71C2F200010870012805D014A006F038FE08F09AFC04E01AA006F032FE3C
:20170C0008F094FC4FF42F4494F8F8101CA006F029FE94F8F800412807D11DA006F022FE7A
:20172C0008F084FC042002F033F91DA006F01AFE08F07CFC08F01CFB1AB0BDE8D08FC046C5
:20174C004661696C656420746F20496E69742043727970746F202864656372797074290A6A
:20176C0000C046C043727970746F2028646563727970742920496E6974204F4B0A00C0462C
:20178C004465766963652049443A20252E3278000A47322053687574646F776E0A00C046DA
:2017AC000A473220496E697469616C69736564204F4B0A002DE9F84FC64DC74ED5F8EF1FE7
:2017CC00CC4C7368D5F8F30F8843C5F8F30F002BC5F8FF1F00F011817788012B00F0D680B8
:2017EC00DFF8FCB2BF4FDFF800A3DFF80093DFF80083022B72D0032B40F06A810024B06818
:20180C0055F8312C74600028A2F5C062B8BF404211460029B8BF494288422EDA111C54BFD0
:20182C0002206FF00100B26900EB4100032190FBF1F18918B161F368706998420BD0B1F104
:20184C001002B8BF524230691038B8BF40428242B8BF88B209DB98B20090A04830214FF4D6
:20186C007F42082305F00CFE308A00909B4804214FF4F802122305F003FE5846046001684C
:20188C008908FCD20460012644600E203E6003F0D5FB50460468EFF3118584F31188494606
:2018AC000820B0FA80F00A1AD07F431E0128D37704D14246106820F00800106085F3118825
:2018CC00EFF3118384F311880420B0FA80F0091AC87F421E0128CA7754D14EE055F8310C27
:2018EC00B0F5C06F17D00327776002F08DFE45F8397C0027276020688008FCD277483946E7
:20190C0060220523009105F0BBFD0126266020688008FCD364E000217160584601600268A8
:20192C009208FCD20160012641600E203E6003F085FB50460468EFF3118584F311884946B2
:20194C000820B0FA80F00A1AD07F431E0128D37704D14246106820F00800106085F3118884
:20196C00EFF3118384F311880420B0FA80F0091AC87F421E0128CA7704D14246106820F07E
:20198C000400106083F31188BDE8F88F55F8312C02214BF2F52071605043000A37B9564970
:2019AC00096821F07F414018400801E0002171806060000CA0600126E660032745F8397CF1
:2019CC000027276020688008FCD24448394660220523009105F054FD266020688008FCD37E
:2019EC0045F8216C45F8397C0820C5F8FF0FC5F8F30F45F8396CBDE8F88F40480068006807
:201A0C0001462020884741F61D574FF002080F2045F82D0C00214FF4C072072345F8297C29
:201A2C002E48CDF8008005F02BFD012744F8047C54F8040C8008FBD3308845F81D7C012875
:201A4C0021D0032045F8390C4FF00009C4F8009020688008FCD2214849466022052300913F
:201A6C0005F00EFD276020688008FCD345F8217C45F8399C0820C5F8FF0FC5F8F30F45F819
:201A8C00397C474623E04FF00009C4F80C90032045F8390CC4F8009020688008FCD20F482F
:201AAC00CDF8008049466022052305F0E9FC276020688008FCD3202045F8210C45F8399CA0
:201ACC000824C5F8FF4FC5F8F34F45F8397C7760BDE8F88F39400C40A036002000A00C4028
:201AEC0034600C4004800C4094A600003B320020C833002038600C4010200940A00100103A
:201B0C00002810B50BD40A2809DABB4BC40018591B1920B1186884695868A04710BD4FF078
:201B2C00FF3010BD70B50646307870B1B24C502578342046314608F015F8002808BF201C37
:201B4C0004D0283D2834282DF3D2002070BDBFB5044620683A2108F049F8071C14D0216813
:201B6C00781A7D1A0828C8BF082568462A4607F0A3F9002005F80D006846FFF7D3FF0028D3
:201B8C001CBF7F1C276001D19B4850300090BFBD9A491CB50968009088476846FFF7D7FFFD
:201BAC00006A014600988847044695480068804720461CBD3EB5914A00911268019090472B
:201BCC0001A8FFF7C4FF05466846FFF7C0FF8C4CA84204D0206880474FF0FF303EBD686AC9
:201BEC00024600990198904705462068804728463EBD10B504468148006880472046FFF722
:201C0C0091FF7F49096820B1002404708847204610BD88474FF0FF3010BD002810B50BD4AE
:201C2C000A2809DA744BC40018591B1920B1186844695868A04710BD4FF0FF3010BD2DE998
:201C4C00F8436E4E89463168009088476D4847684FB9012300F120010727002243607F1E88
:201C6C0041F8082BFBD100F1080500F12004583000E00834DFF88881A04205D02168002920
:201C8C00F7D13168A04206D14146086880474FF0FF30BDE8F88388476846FFF758FF0646BC
:201CAC007089641BE410400807D2F06803460098494622469847074601E04FF0FF37414652
:201CCC000868002F48BF3C1C09D4E2007189AE50AD186F608A083CBF41F001017181804736
:201CEC00D8F8000080472046BDE8F883002810B50BD40A2809DA404BC40018591B1920B115
:201D0C001868C4695868A04710BD4FF0FF3010BD70B5051C0CD40A2D0ADA3848006880476B
:201D2C00E900354C364D6058641820B9286880474FF0FF3070BD20680069014660688847DC
:201D4C000646B6F1FF3F07D0216800234FF6FE704A8923601040488128688047304670BDA7
:201D6C002DE9F047824625480068994690460F468047244C266856B9012304F180010022D3
:201D8C0050202360283801F8282B2828FAD21C4E35685046FFF7C6FE18B1A8470120BDE8A7
:201DAC00F0871948803400E02834A04204D021780029F9D1A04204D1A8474FF0FF30BDE854
:201DCC00F08720465146082207F076F8002525726781C4F80C80C4F81090089860610998AA
:201DEC00A0610A98E0610B9820620C993068616280472846BDE8F08700330020383700209B
:201E0C003C370020F8320020C83300202DE9F04F5FEA0009ADF11C0D00F05581AC4800682E
:201E2C00EFF3118280F31188DFF8C8B29BF80400012818BF012003D1022100208BF804105E
:201E4C0082F31188012800F03C8108F00BFA0390A948046804EB0B0008F000FA4FF0000872
:201E6C00464637460BEB0401CDF810800191B0B90C46084608F0EEF90546A868400808D305
:201E8C00E8682969024601209047C0B2002840F01081284608F0DAF90546AC42EDD1002F5A
:201EAC0040F00B8108F0CEF90290059789480760012007F02FFB012804D1404605F012FF69
:201ECC004FF00108844F38688068014630468847864819300090D0F8FF0FB9F1000F00F0A1
:201EEC008C80864C0A34E57905B10126A5790DB146F0020665790DB146F00406DFF8DC9145
:201F0C0065782DB1B86A006B49460246C88D904725782DB1B86A006B49460246488D9047DF
:201F2C006F4901200860B86A8069014646F0200088476C4DDBF80010286840F001002860F8
:201F4C00480813D2684807F0AEFF8246BAF1040FF8D0D5F8180220F00300C5F81802B86CA9
:201F6C004068024660480321904701E001200490059801F038FCB86A0099806BD1F8FF1FDD
:201F8C008047049858B9B86C40680246564851469047D5F8180240F00300C5F81802386810
:201FAC008068014601208847504801688909FCD3B8F1010F02D1012005F094FEB86A406995
:201FCC00014630468847B86A406B0146304688470128F8D166782EB1B86AC06A494602463E
:201FEC00C88D904726782EB1B86AC06A49460246488D90473A49012008603A480168032241
:20200C0021F00101016001988BF8042008F026F90028059818BF01200125C0B9019C20468A
:20202C0008F018F90646B068C00806D3F0683169024604209047C0B230B9304608F006F989
:20204C000646B442EFD102E02948006880472148009F0560D7F8FF0F07F096FF019808F089
:20206C00FDF8059FC8B9019C204608F0F3F80646B068000906D3F0683169024608209047D5
:20208C00C0B230B9304608F0E1F80646B442EFD103E0174800688047022702988BF8045085
:2020AC0008F0CCF804F088FF039808F0C3F838460AE00F4800688047022701208BF80400D0
:2020CC00F2E7062000E0022007B0BDE8F08FC04694A600000C40094090010010C8A3000037
:2020EC00282008600C200840004003401410094088A60000C833002084A6000028320020D3
:20210C00F0B50446ADF1540D07F0E2FD20788DF8280060788DF82900A0788DF82A00E07805
:20212C008DF82B0020798DF82C0060798DF82D00E779202204F108010CA803F0C9FD384683
:20214C00503800F01581401E00F0E180401E012840F2AA80801E00F08580401E63D0401E51
:20216C0042D0401E21D0401E40F0348142F632720021C2F2000202EBC10006230AAD10F866
:20218C00016B15F8017BBE420AD15B1EF7D1BE4206D1002020722246822006F01DFB19E187
:2021AC00491CC9B20029E6D014E142F632720021C2F2000202EBC10006230AAD10F8016BAA
:2021CC0015F8017BBE420AD15B1EF7D1BE4206D1012020722246822006F0FEFAFAE0491C8D
:2021EC00C9B20029E6D0F5E042F632720021C2F2000202EBC10006230AAD10F8016B15F8E2
:20220C00017BBE420AD15B1EF7D1BE4206D1002020722246812006F0DFFADBE0491CC9B21E
:20222C000029E6D0D6E042F632720021C2F2000202EBC10006230AAD10F8016B15F8017BBF
:20224C00BE420AD15B1EF7D1BE4206D1012020722246812006F0C0FABCE0491CC9B200296E
:20226C00E6D0B7E042F616420021C2F2000202EBC10006230AAC10F8015B14F8016BB5423E
:20228C000DD15B1EF7D1B54209D10AA8026843F26461C2F200010A60808888809AE0491C1E
:2022AC00C9B20029E3D095E042F632720021C2F2000202EBC10006230AAD10F8016B15F884
:2022CC00017BBE4208D15B1EF7D1BE4204D18320224606F081FA7DE0491CC9B20029E8D0ED
:2022EC000AA801686C460025808821602022A08009218DF8065002A88DF80710294604F047
:20230C004EFA68468DF8275004F0DFFB62E068460021062204F043FA002442F630730C205C
:20232C008DF80640C2F200038DF807009A1C02A815689288056003F10A0182800DF10E001A
:20234C000D688988056003F11202818005A81168928801601A33828019680DF11A00016093
:20236C009988818068468DF8274004F0AEFB31E042F632720021C2F2000202EBC10006235D
:20238C000AAD10F8016B15F8017BBE4208D15B1EF7D1BE4204D18520224606F01DFA19E07B
:2023AC00491CC9B20029E8D00AA801686C460025808821602022A08009218DF8065002A8C4
:2023CC008DF80710294604F0EAF968468DF8275004F07BFB15B0F0BD70B50446B0480068BA
:2023EC0015460E4680472B463246B3F5807F88BF4FF48073AB4D201268702C701E0AAB706D
:20240C002946EE70F32004F0A5FC0021284604F0BAFCA5486E782C780068804704EB062443
:20242C0020B270BD38B505469D4800688047284607F094FC9B4C431C2A46F520214604F02A
:20244C0089FC0021204604F09EFC9748657800682478804704EB052420B238BD9048F8B5EB
:20246C00006880478F4D0022F8201346294604F071FC0021284604F086FC8B48AF782C783F
:20248C00EE7800686D78804704EB074000EB066000EB0520F8BD70B50446814800680D4677
:2024AC00ADF1680D80476846214607F0AAFB204607F054FC461C294606EB0D0007F0A1FB76
:2024CC00284607F04BFC774C80196A46401C21460346F72004F03EFC0021204604F053FC1D
:2024EC007148657800682478804704EB052420B21AB070BDF8B504466948006816460D46CF
:20250C008047B6F5807F88BF4FF48076654F00222012787013463C703946BE70F220340ACC
:20252C00FC7004F017FC2946384604F02CFC5E487D783C780068804704EB052420B2F8BDF6
:20254C00F8B506465648006814460F468047554D211269703846A8702C70010A3046E97040
:20256C0007F0FCFB431C32462946F02004F0F2FB0021284604F007FC4B486E7800682D781E
:20258C00804705EB062528B2002848BF041C2046F8BDF8B507464248006816460C468047A8
:2025AC00404D3846002228700012AC701346AE7129466870200AE870200C2871200E68710F
:2025CC003012E871F42004F0C5FB0021284604F0DAFB3548EF78AE782C7800686D78804772
:2025EC0004EB076000EB064000EB0520F8BD70B504462B4800680D468047204607F0AEFB19
:20260C00284E431C2246F620314604F0A3FB2946304604F0B8FB244800688047284607F0C6
:20262C009DFB002814BF281C002070BD38B505461B48006880471B4C0022281213466070B4
:20264C0021462570F12004F085FB0021204604F09AFB1548657800682478804704EB0524C0
:20266C0020B238BD0E48F8B5006880470D4D0022F9201346294604F06DFB0021284604F019
:20268C0082FB0948AF782C78EE7800686D78804704EB074000EB066000EB0520F8BDC046C9
:2026AC0038370020482F00203C37002070B506463088ADF1400D81280EDC812800F0E180B4
:2026CC00401E00F0FB80401E00F0EF80801E73D0001F00F0E380F4E0823800F0C580401EF4
:2026EC0028D0401E7BD0401E40F0EB807168B078083103F097FE002800F0E08072A005F0F3
:20270C0031FE07F093FC716803A80A688988026000248180202208218DF8124005A88DF8F6
:20272C001310214604F03BF803A88DF8334004F0CCF9C3E07268137A517AB078D27941EA0D
:20274C000321522A89B21BD0532A40F0B78007F0B1F9716803A80A68898802600024818094
:20276C0020220E218DF8124005A88DF81310214604F015F803A88DF8334004F0A6F99DE095
:20278C0005F0F4FA002800F09980716803A80A68898802600024818020220F218DF8124042
:2027AC0005A88DF81310214603F0F9FF03A88DF8334004F08AF981E0746860884FF6FF7172
:2027CC0081427ED0012105F099F9002879D06068218806F088F8608807F08EF871E0B578F8
:2027EC0047A0294605F0BEFD42F63074C2F2000404EBC504A01CC17800910179019141792F
:20280C0002914278837801784AA005F0ABFD07F00DFC284607F034FA716805A80A688988C8
:20282C00026000258180202210218DF81A5007A88DF81B10294603F0B2FF05A88DF83B5073
:20284C0004F043F94AF2206203A8C0F2000213685268036003A942600868206048686060D9
:20286C00706806F0BFFD2CE07068017AB078002201B10122132104F07EFD706806F0B2FD24
:20288C001FE07068017AB078002201B101221C2104F071FD706806F0A5FD12E0706806F0EC
:2028AC009CFE706806F0C4FD0BE070680178002006F00FFC706806F095FD02E0706806F076
:2028CC0091FD10B070BDC0462A2A2A2A43616E6E6F742073656E64206D6573736167652C65
:2028EC0020474154542073656E6420726571756573742067617665206572726F720A00C0B2
:20290C002A2A2A2A436C6F73696E672068616E646C652025642064756520746F20636F6E3E
:20292C006E656374696F6E2074696D656F75740A00C046C0424C455F616464726573733D4F
:20294C002530327825303278253032782530327825303278253032780A002DE9F0411C46BE
:20296C0015468C4208BF854282BF00230022E5E0002C08BF002D0AD100290EBF00286FF0D1
:20298C0000006FF0000100F0E1F8BDE8F0815FF000085FF0000E002C08BF8D429CBF2C1CD3
:2029AC000025070C47EA01470E0CB44208BFBD429EBF5FEA044444EA15445FEA0545070A6B
:2029CC0047EA01670E0AB44208BFBD429EBF5FEA042444EA15645FEA0525470847EAC177DE
:2029EC004E08B44208BFBD4200F29380870847EA81778E08B44208BFBD427CD8C70847EA56
:202A0C004177CE08B44208BFBD4266D8070947EA01770E09B44208BFBD4250D8470947EAED
:202A2C00C1674E09B44208BFBD423AD8870947EA81678E09B44208BFBD4224D8C70947EA44
:202A4C004167CE09B44208BFBD420DD8E60146EA5566EF01B14208BFB84201D3C01BB14133
:202A6C0058EB08085EEB0E0EA60146EA95664FEA8517B14208BFB84201D3C01BB14158EB53
:202A8C0008084EEB0E0E660146EAD5666F01B14208BFB84201D3C01BB14158EB08084EEBA2
:202AAC000E0E260146EA15762F01B14208BFB84201D3C01BB14158EB08085EEB0E0EE600E9
:202ACC0046EA5576EF00B14208BFB84201D3C01BB14158EB08084EEB0E0EA60046EA957622
:202AEC00AF00B14208BFB84201D3C01BB14158EB08084EEB0E0E660046EAD5766F00B142DB
:202B0C0008BFB84201D3C01BB14158EB08085EEB0E0EA14208BFA84201D3401BA14158EBA7
:202B2C0008085EEB0E0EA34208BFAA423EBF2D0A45EA0465240A89D3734642461E46174624
:202B4C000B46024631463846BDE8F08170472DE9F04F0D46804643F2844109AF0320C2F217
:202B6C000001D7F810A0086040F2B010C1F200000068D7F808B041691E461446ADF1140DA6
:202B8C00272088470320CDF8108044F20008C4F20208C8F888074FF00109C8F88097C8F86E
:202BAC0084070220C8F80007F868C8F80C04484607F099FAD8F80C040008F8D2D8F8900734
:202BCC00800F28BF484680F0B88094F802C094F801E08DF803C0237A8DF802E0627A8DF8D5
:202BEC000930E1788DF80A2020788DF8041094F807C08DF8010094F804E08DF808C0A379A5
:202C0C008DF805E0AAF101028DF80730A17A8DF8002094F805C08DF80B1094F80BE08DF837
:202C2C0006C0BAF1020F8DF80CE01CBF00208DF80D0003D1217B00208DF80D10009AC8F87C
:202C4C0040258DF80E008DF80F000199C8F84415DDF808E0C8F848E5DDF80CC0C8F84CC50D
:202C6C003C684FEACA43022DA3F50021A4EB050405D36A05A2F580026FF31502114341F47C
:202C8C00802141F0400141F0005141F0080141F4C071C8F85015C8F854450546C8F85855BD
:202CAC00BBF1000FC8F85CB517D0D8F8000040F00100C8F800007868C8F80400C8F80CB0B4
:202CCC00484607F010FAD8F890078008F8D3D8F89007000828BF03202FD20320C8F88807B3
:202CEC00387D78B140F2B010C1F200000068016A2720884740F2B010C1F2000000680169E5
:202D0C0027208847C8F880970498C8F8849798B1D8F8000040F00100C8F80000C8F8046015
:202D2C00C8F80C40D8F8200040F00100C8F82000C8F82460C8F82C40284605B0BDE8F08FC3
:202D4C002DE9F04F0D46064643F2844109AF0320C2F20001D7F81090D7F808A0086040F269
:202D6C00B010C1F200000068D7F800B0416998461446ADF11C0D2720884704960320CDF8AC
:202D8C00148044F20006C4F20206C6F888074FF00108C6F88087C6F884070220C6F800070F
:202DAC00F868C6F80C04404607F09DF9D6F80C040008F8D2D6F89007800F28BF404680F045
:202DCC00B28094F802C094F801E08DF803C0237A8DF802E0627A8DF80930E1788DF80A200C
:202DEC0020788DF8041094F807C08DF8010094F804E08DF808C0A3798DF805E0A9F10102DD
:202E0C008DF80730A17A8DF8002094F805C08DF80B1094F80BE08DF806C0B9F1020F8DF837
:202E2C000CE01CBF00248DF80D4003D1207B00248DF80D0000998DF80E4001988DF80F40CB
:202E4C00029AC6F840154FEAC94C022DC6F84405DDF80CE0C6F84825ACF50020C6F84CE597
:202E6C0005D36905A1F580016FF31501084340F4802040F0400040F0005040F0080040F0FA
:202E8C00040040F4C070C6F85005C6F854B5C6F85845BAF1000FC6F85CA514D0306840F064
:202EAC000100306078687060C6F80CA0404607F01AF9D6F890078008F8D3D6F890070008A6
:202ECC0028BF03202FD20320C6F88807387D78B140F2B010C1F200000068016A27208847FF
:202EEC0040F2B010C1F2000000680169272088470498C6F88487A8B1306840F00100306022
:202F0C00306A40F001003062DDF814E0C6F804E0C6F80CB0316A41F001013162C6F824E040
:202F2C00C6F82CB0204607B0BDE8F08F2DE9F04F0746ADF15C0D05F042FD4FF0000901285C
:202F4C0005D106F0ABFD022801D14FF0010943F6A871C5F20001C868C0F38150012805D1EF
:202F6C0009680120090E884040EA090942F69D7041F28021C2F20000C4F208010078086824
:202F8C0042F6647BC2F2000BC0F34600CBF8000005F015FD012804D1DBF80000401CCBF89C
:202FAC000000DBF80000002650B142F60462FF21C2F20002DBF800009155761CB042F9D889
:202FCC0038684FF00008464600F0FF00FF281DD042F604610122C2F2000157F82600DBF8B2
:202FEC00003000F0FF00834204D902FA00F319EA030F01D0022082E00E54761C57F8260042
:20300C0043EA080800F0FF00FF28E6D1092001F03FFF42F68470002124220823C2F20000D0
:20302C00076001A807F002F9012542F67C6001AA8DF81C502946C2F2000007F0F3F8DBF8D4
:20304C0000000026A0B342F6B024B246C2F2000405FA06F019EA000F22D118EA000F0AD149
:20306C0006F0FF0147F6007041F4C041C6F2C77002F04CF80CE042F60460C2F20000805D2D
:20308C0057F8201047F60070C6F2C77002F03EF8F0B24FF0FF3106F04BFC44F826A002E0AF
:2030AC00042044F82600DBF80000761CB042CFD80AA800213022082307F0B0F8002442F635
:2030CC00606047F2E35210210AAB0094C2F20000C0F2000207F09EF843F20D01C4F2090144
:2030EC0051F80D0C082220F4F85040F4005041F80D0CC4F20902C1F8FF5F2046156017B08C
:20310C00BDE8F08FF8B584460F1C5BD06848674908605578167885B1622D4FF0010003D0B7
:20312C009178622918BF00202B2D4FF0010406D091782B2918BF002401E0002004460021C2
:20314C0044B9722E08BF102205D0772E14BF612E202200D00A46612E0CBF80230B1C1A430E
:20316C00002814BF4FF480730B1C002C43EA020214BF40230B1C13437B6108B14FF40041C2
:20318C00613E10D0113E02D0761F04D012E00CB141F002010EE0002C14BF022001200143C3
:2031AC0041F4C06106E0002C14BF02200120014341F4027160464FF4DB72FEF740FD002809
:2031CC00386001D50020F8BD3846F8BD70B5394D284602F0CBFD384C206802280BDB012657
:2031EC0055F8181F002903D4284602F0BFFD2068761C8642F4DB70BD70B505462F480068F6
:20320C0014460E468047204602F0B0FD284632462146FFF777FF044629480068804720461F
:20322C0070BD2DE9F843804624480068894680472449204C0F6857B901224FF0FF330727B2
:20324C0004F148000A607F1E40F8183BFBD11A4A1068002100280BDD0546A4F1180353F874
:20326C00186FB6F1FF3F03D06D1E01F10101F6D10A290ED0CB00884203EB01131C4404BFF2
:20328C00401C106018220021204603F088FA214600E0002140464A46FFF734FF04460848DF
:2032AC00006880472046BDE8F883C04640370020D93100003831002008370020383700202F
:2032CC003C370020503700202DE97041066888464FF0FF31ADF11C0D06F14804204606F0D0
:2032EC0095FF002542F69E70C2F20000057088F801500420C6F80C8005F036FA98F80000A6
:20330C0030F0010079D0801E37D0801E08D0042005F00AF8204606F075FF4FF0FF30AFE034
:20332C000120009098F80030D8F8081098F80220D8F8040083F0010303F0010302F072F8D8
:20334C00041C40F09580716806F1640006F05EFF40B9042004F0E8FF06F1480006F052FFF7
:20336C0014208DE004F053FC044644F25050C4F20200C0F8B05105607AE0B8F816000090B7
:20338C00D8F80C000190B8F81800029098F80200039098F8140004900120059098F80000B7
:2033AC0098F80310D8F80420D8F8083080F0010000F00100FFF7CBFB041C59D1716806F12A
:2033CC00640006F023FF40B9042004F0ADFF06F1480006F017FF142052E004F0B1FE041C34
:2033EC0046D198F80300D8F80810B8F81620D8F8103002F0D9F904463AE0B8F816000090BB
:20340C00D8F80C000190B8F81800029098F80200039098F8140004900120059098F8000036
:20342C0098F80310D8F80420D8F8083080F0010000F00100FFF784FC041C19D1716806F12F
:20344C00640006F0E3FE40B9042004F06DFF06F1480006F0D7FE142012E004F052FE041C14
:20346C0006D198F80300D8F8101003F0DBF80446042004F059FF06F1480006F0C3FE20460A
:20348C0007B0BDE870812DE9B0478146D9F80480D9F808A00F46ADF15C0D06F0AFFE98F8A2
:2034AC000010012903D106F0A5FE0020C1E0012488F8004006F09EFE1FB90DA806F0C3FAE1
:2034CC000DAF387888F80100787888F802007868C8F80400B868C8F80800F868C8F80C00C9
:2034EC003869C8F81000387D88F81400787D88F81500B87D88F81600B869C8F81800387F01
:20350C0088F81C00787F88F81D00B87F88F81E000025C8F82050C8F83050C8F82450C8F811
:20352C003450C8F82850C8F8385088F82C50102088F83C0088F82D5088F83D509AF80800EF
:20354C0001F0A6FC484601F00FFD484602F02BFAA0B940F2D010C1F200000068C168DAF81B
:20356C00000088479AF8080001F068FD06F046FE88F8005006F03EFE28465AE001A8294684
:20358C003022082306F04AFECDF818900095DAF8041044F6013208F1580001ABC0F200025E
:2035AC0006F038FE01A824220823294606F03EFE8DF81C4098F8020058B908F174002946B8
:2035CC0001AA06F02FFE4AF2D100C0F20000C8F8100098F8010058B908F19000294601AA3D
:2035EC0006F020FE4AF2C900C0F20000C8F80C0001A829462422082306F0F8FD069545F6DE
:20360C003D4108F1AC000A2201ABADF81450C0F20001CDF81C9006F0E5FD49F6696208F19B
:20362C0044004B4600950421C0F2000205F05CFC484617B0BDE8B08730B545688468297B9B
:20364C004FF0000CADF1140D012933D0207C40F20041CAF2800108430090627C44F20000EC
:20366C00C8F2000010430190287E4FF0020C30F0010005D1A07C4FF0030C0143029109E08C
:20368C00A17C40F20040CAF2C00008434DF82C000CF1010C95F85900FF282CD095F859104E
:2036AC0040F20040CAF2C00008434DF82C000CF1010C20E0207C40F000404DF82C00627CEF
:2036CC0040F20041CAF280010CF1010011434DF82010A17C401C41F000414DF8201095F87A
:2036EC00592042F20001401CC8F2000100F1010C11434DF82010FF2105F15C004DF82C103F
:20370C00694601F0A0FFA86608B9002069E0287B4AF24031C0F2000151F82000012832D08F
:20372C002068B0F1804F01D10A2200E02222A86E217C05F05DFB2068B0F1804F01D109226E
:20374C0000E02122A86E617C05F052FB2068B0F1804F01D10C2200E02422A86EA17C05F0BF
:20376C0047FB95F85900FF283AD02068B0F1804F01D10B2200E02322A86E95F8591005F0C7
:20378C0037FB01202DE02068B0F1804F01D1092200E02122A86E217C05F02AFB2068B0F1AF
:2037AC00804F01D10A2200E02222A86E617C05F01FFB2068B0F1804F01D10C2200E02422EC
:2037CC00A86EA17C05F014FB2068B0F1804F01D10B2200E02322A86E95F8591005F008FB86
:2037EC00012005B030BDF8B504460020C4F209000068800880F0BB8005F055FC42F22421CA
:20380C00C4F208010A68002112F0030F18BF0121D20828BF41F00201002C18BF41F004010F
:20382C0042F65076C2F2000696F90720821A052A04DAB2798A4208BFB2886FD041F29C342B
:20384C000F28A0F10F02C5F2000424DB02EB02121712072F88BF07273D46062D88BF0625CC
:20386C0054F825C00423A64603EB85035EF80330CD08A3EB0C0303F0FF0C24BFC3F30725C4
:20388C00AC448D0824BFC3F30745AC444D0805D30CEB136C02E04FF0000C674654F82730A2
:2038AC00CC0803F0FF0524BFC3F3072425448C0824BFC3F3074425444C0828BF05EB136580
:2038CC00A2EB07221FFA8CF3534380330022082B88BF012243F6B473C5F200031C681B6865
:2038EC004FF4D07C34275219241703F0FF0307FB14C45C434FF6FF73B4FBF2F2934238BFA8
:20390C001A1C802892B2B28005DA10F1800F03DA6FF07F0000E07F20F071B17142F20800DF
:20392C00C4F2090001681F2A4FF00000316008D340F2FF11914206D25208401C9142FBD31B
:20394C0001E01F22B2800F3A4FF600714FF0350E1209C8F2A401C4F2090E40EAC20001430F
:20396C00CEF8FB1F4FF0000CCEF8FFCFF8BD42F656724FF6FD50082141F2300EC2F20002E5
:20398C00C0F2A4001170C4F2090ECEF80000F8BD2DE9F041644C2068800880F09E806348BC
:2039AC000068EFF3118380F311882179012918BF012102D104220021227183F3118801296E
:2039CC0000F08B8080F311884C480568281906F045FC00276519A0B9284606F03BFC064676
:2039EC00B068800807D3F0683169024602209047C0B2002876D1304606F028FC0646B5425A
:203A0C00EED1002F72D104F0BAFB012005F082FD70B10320394603F05BFE39483421012223
:203A2C003B4604F04CFA0028F7D03648006880470420022103F04CFE334E042005F06AFD9E
:203A4C000228FAD13069406801464020884730688068014638468847B06A006B01464FF48B
:203A6C0080608847B06A006B01464FF4816088474FF0010825482A4DC0F8008005F11C0056
:203A8C0000688008FAD33069C0680146404688471F48204A01684FF03F3C21F00101016098
:203AAC001E4BC2F8D4CF1C490B6011680763016921F480710161C0F80880116841688909BB
:203ACC00FCD2286840F004002860B06A8069014637208847B06A806B8047012102202171AE
:203AEC00BDE8F0810F480068804702270120207106F04AFA3846BDE8F081C04684A6000045
:203B0C0000A00C40800000109001001028200860101009402C200940043009403F3F3F0094
:203B2C000C20084088A60000C833002094A600002DE9904F924699460C68DAF80080237875
:203B4C0083460020ADF1140D621C242B0A6005D0662B22D1B9F8187097B118E00A6814F82A
:203B6C00013F4C2B02F101020A6000F08480462B51D0532B19D0662B0FD1B9F8187037B99B
:203B8C0008F1070828F0070808F1080805E008F1030828F0030808F10408D9F81C100B7058
:203BAC004FF0010EC9F80CE086E0B9F8180040B908F1030828F0030808F1040858F8040C4A
:203BCC0007E008F1030828F0030808F1040858F8040CC9F81C00CAF80080B9F818000090EE
:203BEC00D9F80810D9F81C20DBF800005346FCF7DFFFDBF80070002F1CBFC119CBF800108C
:203C0C000022DAF80080D9F80010C9F80C20091AC9F8001050E0B9F818704FB908F10308ED
:203C2C0028F0030808F1040858F8041C029108E008F1030828F0030808F1040858F8041CC9
:203C4C00029108F10308044628F0030808F1040858F8040CD9F8082003905946ADF80440DB
:203C6C0001A800F073F9D9F80010C9F80C40091AC9F8001020E0B9F8180040B908F103088B
:203C8C0028F0030808F1040858F8040C07E008F1030828F0030808F1040858F8040CD9F84C
:203CAC000820594600F032FD0022D9F80010C9F80C20091AC9F80010CAF8008005B0BDE892
:203CCC00908F2DE9B0478146D9F80480D9F808A00F46ADF1540D06F091FA98F8A4100129D4
:203CEC0003D106F087FA002092E0012588F8A45006F080FA1FB90DA805F06DFF0DAF002403
:203D0C00C8F854403869C8F810007869C8F81400387E88F81800387B88F80C00387888F860
:203D2C000000786888F87040C8F8040078692146092800D3294688F858109AF8050001F078
:203D4C00A7F8484603F0D3F89AF8130088F859004846FFF771FC58B99AF8050001F06EF9FD
:203D6C0006F04CFA88F8A44006F044FA20464FE001A821463022082306F050FACDF8189094
:203D8C0000949AF8041044F2AF1208F11C0001ABC0F2000206F03EFA98F80000A0B901A8B1
:203DAC0021462422082306F041FA08F138008DF81C50214601AA06F035FA4AF2A100C0F206
:203DCC000000C8F8080002E0B868C8F8080003F024F998F80C10C8F86C0001290CD1D8F886
:203DEC00680048F29561C0F2000106F0D3F8D8F8680008B1C0F8089049F6DD7208F1900053
:203E0C004B4600940421C0F2000205F06DF8484615B0BDE8B0872DE98043D0F80490D0F812
:203E2C0008800888D8F8002099F85830B2F1804F00FA03F01FFA80FC04D140F2304EC2F228
:203E4C00000E03E040F2005EC2F2000E8F6877B999F858004AF27032C0F2000252F8200007
:203E6C00CEF8080009F17200CEF804000EE099F858004AF26832C0F2000252F82000CEF8A1
:203E8C00080088686044401ECEF80400D8F800000830CEF800000868DEF80830020143F6CA
:203EAC00F070103A02401A43CEF80820D8F80020B2F1804F04D140F2404EC2F2000E03E023
:203ECC0040F2105EC2F2000E4F6877B999F858204AF27033C0F2000353F82220CEF8082075
:203EEC0008F10602CEF800200FE099F858204AF26033C0F2000353F82220CEF808204A6826
:203F0C009444ACF1010CCEF800C0D8F800200832CEF804200968DEF808200901103908406F
:203F2C001043CEF80800D9F86C00D8F808204168D8F80C00096810438862D8F80010486A5A
:203F4C0040F003004862BDE88083FEE72DE9FE43002A894607464CBF47F6FF74141C002F34
:203F6C0008BF00205FD03B88002B31D03D480088214698422ADA3C4A1088984215DA3B4A72
:203F8C00168826B929A2484603F0DCFC1CE03848019100260268CDF800903649029615460F
:203FAC0018466A46A847029D13E03348026800E0126822B110898342FAD1121D00E00422F6
:203FCC001268484603F0BEFC054602E01CA2DAE70025601B26DD388828B1611B48461BA271
:203FEC0003F0B0FC4519B868E0B1D7F80480661BB8F1000F0DD0404605F0B0FE401DB04226
:20400C0007DC611B484612A2434603F09BFC4519661B122E06DBBB68611B48460EA203F010
:20402C0091FC45192846BDE8FE83C0467B6D6F64756C652D726F70653A25787D00C046C0F1
:20404C007B6D6F64756C652325647D003A2000C0222573222C2000C06C696E652025643A9D
:20406C002000C046A8A6000076A600008A050000A4A60000058B0000483700202DE9F04F47
:20408C000E4642F64469044617464FF0FF31C2F20009ADF13C0D484606F0B8F84AF2106839
:2040AC00C0F2000808EBC408D8F800A0D8F804B006F0A4F8D8F800100968002906D506F0AA
:2040CC0099F8484606F09EF8002067E0DAF80010002905DC66B14FF0FF31CAF800100CE092
:2040EC0036B106F087F8484606F08CF8002055E0DAF80010491CCAF8001006F07BF8DAF8A7
:20410C000000022804DB484606F07CF8404645E01FB90DA805F0AEFF0DAF3868CAF8040096
:20412C00DBF8045000213022082301A806F076F8002449F26122CDF818800AF12C0001AB8F
:20414C002946C0F20002009406F064F801A824220823214606F06AF801250AF1640001AA41
:20416C008DF81C50214606F05DF80AF1480001AA294606F057F89BF8080000F089FE4AF2A0
:20418C00A9020AF11800434604210094C0F2000204F0AAFE484606F035F840460FB0BDE828
:2041AC00F08F2DE9F0478146D9F808100A68D069D9F80480106240084FD2D8F86C004068B8
:2041CC000268C868D2F8042502420BD00A68506A20F002005062D8F86C004268C8681268A7
:2041EC00C2F80405D8F86C00406802688868D2F80425024261D00A68506A20F0010050625B
:20420C00D8F86C00406889680068C0F80415D8F8540000240474D8F85460D6F804A005F0D9
:20422C00EDFF42F6A275C2F200050746287848B11AF0704F02D1102004F076F8042004F052
:20424C0073F82C70384605F0D5FFD8F80820C8F854404846314690472FE00A68506920F092
:20426C0001005061D8F8547027BB0A68506820F0020050600A68506A20F003005062D8F85D
:20428C006C008B684268C86812681843C2F804050868B0F1804F02D14FF4807001E040F248
:2042AC0001107821C1F2000109688847484602F01EFE02E0484600F01DF9BDE8F0872DE910
:2042CC00F0478046D8F80470D8F8089014460E4605F094FF8246B86A28B1504605F08AFF1C
:2042EC004FF0FF3077E007F1AC0005F077FF0025FD773E6250467D6205F07CFF05F07EFF4E
:20430C0042F6A376C2F2000682463078012804D0042004F029FA01203070504605F06AFF29
:20432C0041F23002C4F200021068214640F480701060404604F028FBB86208BB404621467A
:20434C0003F073F9B87818BBB96807F1740005F05DFF28BBBD621020F8774946384602F071
:20436C00A2F805F04BFF0446307818B1042003F0DBFF3570204605F03DFF4FF0FF302AE0F8
:20438C00D9F80010886B40F020008863B87808B1284620E0B96807F1740005F037FF08B13A
:2043AC00786A18E04046214603F03FF91020BD624946F877384602F076F805F01FFF044677
:2043CC00307818B1042003F0AFFF3570204605F011FF4FF0FF30BDE8F08770B504466088AA
:2043EC0043F26261C2F20001085CADF1280D012879D120791B284ED0132804D0012872D1E5
:20440C00207A12286FD1207901281CD0618842F632706D46C2F20000002600EBC100016869
:20442C00808829601F22A8800A218DF8066002A88DF80710314602F0B2F968468DF827604C
:20444C0002F043FB1FE0618842F63270C2F2000000EBC10001686D4629608088A880002603
:20446C008DF806600B208DF80700217B1E220DF109008DF80810314602F091F968468DF8E8
:20448C00276002F022FB608843F263623146C2F20002115427E020891B2824D1618842F6FD
:2044AC003270C2F2000000EBC10001686D4629608088A88062898DF8062006208DF80700D1
:2044CC00E16802A801F004FC6289002102EB0D000830C2F1200202F062F900208DF82700C0
:2044EC00684602F0F2FA217904F1080005F0E8F90AB070BD2DE9F04707467E68D7F80880F9
:20450C0005F07CFE716D00297AD005F073FED8F80010486820F002004860D8F80010486A8D
:20452C0020F003004862F06ED8F808204168D8F80C0009681043C1F80405D8F800104869C0
:20454C0020F001004861D8F8000001250562D8F80000B0F1804F02D14FF4807001E040F2DF
:20456C0001107821C1F2000109688847384602F0BEFC706DD0F804A005F040FE42F6A2749D
:20458C00C2F200048146207850B11AF0704F02D1102003F0C9FE042003F0C6FE00202070E6
:2045AC00484605F027FE706D017C042901D003210174F06E4168D8F80820D8F80C0009680A
:2045CC0010438540CD62D8F80000B0F1804F04D140F23040C2F2000003E040F20050C2F204
:2045EC000000716D826808689204A0EB9250401E08600020B268716D70653846904701E08B
:20460C0005F0F8FDBDE8F0872DE9F843804605F0B5FC002100B901213A4D2D1F2868002844
:20462C00FCD0DFF8DC90012609F10407FC6A2E6009B105F0A9FC3448C4F3072100F1080493
:20464C00616005F09BFC0146002001B93046014628680028FCD03F682E6009B105F094FC2B
:20466C00C7F38441A8F5C060A160B8F5C06F2060B4BF6FF001030223626803EB400303207C
:20468C0093FBF0F00918104602290FDB1E290BDB3F28B9BF521C401C3F22101CE260302916
:2046AC00B4BF10391F210DE0E0600BE010F13F0FACBF401E6FF03F00E06011F1100FACBF58
:2046CC0010310021216180B24FF47F42082330210090484602F0D4FE0096484604214FF4CA
:2046EC000032112302F0CCFE208A04214FF4F80212230090484602F0C3FEBDE8F883C04654
:20470C0000A00C4004800C40A0360020FEB5384B05461888AB8814460F4698422BDA35487C
:20472C000088984216DA3448008888B10097002C54BF111C47F6FF7130480068019100219B
:20474C0002912F496A4606461846B047029E18E01CA211E02B48006800E0006820B101892C
:20476C008B42FAD1001D00E0042002682146384603F0E8F804E018A22146384603F0E2F802
:20478C000646002C02D4A01B0A2806DB2B68A11B384614A203F0D6F88619A88978B1002C88
:2047AC0006D4A86805F0DAFAA11B401D884206DCAB68A11B38460CA203F0C4F886193046B6
:2047CC00FEBDC0467B6D6F64756C652D726F70653A25787D00C046C07B6D6F64756C6523EA
:2047EC0025647D00257000C028272573272900C0A8A6000076A600008A050000A4A6000018
:20480C00058B0000483700202DE9F0478146ADF1180D05F0DFFC03F055FC4FF000080746DE
:20482C00CDF8008005F0DAFB444630F0010000D017B96FF0040061E0D9F8040060B1B0F1E7
:20484C00FF3F05D001A904F071F9061C06D054E04FF0FF30019001E0CDF8048005F0B6FC35
:20486C008246019D7868294605F0D0FC01265544002837D003A804F0F0F8F8B9BDF81000CA
:20488C0002A904F0A8FCA8B9D9F80830BDF80800BDF81210059A984760B1BDF80800A9F8DE
:2048AC000C00BDF81200A9F80E0005984646C9F8100017E00599684603F0E6FD0198641C3E
:2048CC00B0F1FF3F08D038B105F080FC281A09D00199814206D301907868019905F096FCD8
:2048EC000028C7D1009907F1080004F09CF824B1786805F087FC641EFAD1304606B0BDE880
:20490C00F087FEE743F23C5110B5C2F200010878ADF1280D55284FD14878AA284CD1C87814
:20492C00522812D0432809D0542852D10421C4F20901086840F0004008604AE042F67450D9
:20494C00C2F2000005F002FC43E026A003F00AFD05F06CFB002443F26E52AA215520C2F258
:20496C0000024323117043F2D2615070C2F2000194700120087042F62871C2F20001D370FF
:20498C000B7813714B7853718B789371CB78D3710B7913724B7943F2D0615372C2F2000142
:2049AC00087004F09AFE68462822214601F0F7FE684602F08AF80CE041F2A47043F2D062E6
:2049CC000021C2F20000C2F200020068117005F042FB4AF27860C0F20000006805F012FCF4
:2049EC000AB010BD476F74204731277320726573657420636F6D6D616E640A0038482DE9E6
:204A0C00FC4700680068014620208847354DDFF8D8A04FF002080F2000214FF4C072072318
:204A2C0045F82D0C41F61D5045F8290C5046CDF8008002F025FD2D4C012644F8046C54F857
:204A4C00040C8008FBD3DFF8A890B9F8000045F81D6C01281FD0032045F8390C00272760F3
:204A6C0020688008FCD23946504660220523009102F006FD266020688008FCD345F8216CD8
:204A8C0045F8397C0820C5F8FF0FC5F8F30F45F8396C464620E00027E760032045F8390CE5
:204AAC00276020688008FCD2CDF80080504639466022052302F0E4FC266020688008FCD34A
:204ACC00202045F8210C45F8397C0824C5F8FF4FC5F8F34F45F8396CC9F80460BDE8FC87C9
:204AEC00A001001039400C4000A00C4038600C40A03600202DE9F8430646D6F80880D8F8AB
:204B0C0000007568076C17F4F06F47642AD1F80912D2780955D395F83C00AC6B401E844297
:204B2C0002D995F83C40641E3046214603F003FDA86B001BA86308E0A96B304603F0FBFC9E
:204B4C00014695F82D00A96330B9A86B002838D1304602F00EFE34E00020A863304602F0F4
:204B6C0008FE2EE0F80A02D24FF0000911E0D8F80000002144684160A96B04F00F04202964
:204B8C0000D92021304603F0D6FC16E0A86B401EA863A86B88B13046012103F0CCFCD8F8D3
:204BAC000000446814F00F04C0F80490EED0286B401E2863686B401E6863EC77304601F0DA
:204BCC00D8FEB8090DD3AF6A5FB13046394603F0DBFEA862A86A394618B93046091D02F06E
:204BEC0024FDBDE8F883FEE7F8B505F0C7F9314C256805F00C000C2855D0E8082ED22E4857
:204C0C000068EFF3118780F311882C4EB068002105F0D8FA7169B269091A8A4238BF002124
:204C2C0087F3118826480068884217D22548264A264D036812682868B3FBF2F22018891A9A
:204C4C0005F0BCFA2868201805F0B4FA0120FDF7DDF82868201805F0C1FA25E0280922D2A6
:204C6C001B48690939BF016821F00101016841F0010102460160D2F898004FF0805440F0F5
:204C8C000300C2F89800D4F8B8018069014620208847D4F8B8010F4C806B216880470120B3
:204CAC002060206800E030BF05F06EF902F0B9F8F8BDC046C833002094A600007801002069
:204CCC008CA6000090A6000098A600007CA600008C2108402C20094070B542F6047043F270
:204CEC00D861ADF1280DC2F20000C2F2000100F0AAFC43F2D464C2F2000448F62D6120602C
:204D0C00C0F2000105F046F920680C21012203F0CFFD02A804F05FFF012540F600108DF81C
:204D2C001450C0F23D00069002A98DF8085003208DF820000820079044F61110C0F2000062
:204D4C000490284604F072FE41F2A476C2F2000600244AF2111122463060C0F2000142F675
:204D6C00BC5013460094C2F20000019402F0B3FB42F6745049F6B97122460094C2F2000030
:204D8C00C0F200011346019402F0A5FB42F6985046F2630114220095C2F20000C0F20001E6
:204DAC001346019402F097FB306805F054F928460AB070BD2DE9F843DFF8C4900446D9F8AF
:204DCC0000001F4615460E468047DFF8B8802068B0F1FF3F02D0042D03D017B945462868B5
:204DEC002EE0636873B16069010903D3581E04F091FE606900216160A160E16020F0080003
:204E0C00216100E0606905B9012520F00700012F45EA0005656108BF0026B7F5807F88BF57
:204E2C004FF48077B6B97F1C384604F0EDF84546064628684EB96169666041F480616161F5
:204E4C0080474FF0FF30BDE8F883616941F00801616101E045462868761C66602661BF1978
:204E6C00A6607F1EE7608047D9F8000080470749054A2868116080470020BDE8F883C04630
:204E8C00383700203C37002040370020D93100002DE9F04105462E480068EFF3118880F3E5
:204EAC0011882C4A505D411C0028515549D12A4CA900675C07F03F003F280C4401D0FFF74F
:204ECC00E7FF607800F03F003F2801D0FFF7E0FF668837F07F0019D1F80911D24FF0805457
:204EEC00D4F8B801406901463046884704F5DC742068406B0146304688470128F8D120E0F2
:204F0C00164850F82610012088471AE04FF08054D4F8B801C069014630468847D4F8B801ED
:204F2C00406A014630468847D4F8B801C06A01463046884701210A4A0A48116001688908C1
:204F4C00FCD388F31188284604F06FF9BDE8F08194A6000028320020C8A3000040320020D1
:204F6C0028200860282008404AF28842F0B5C0F2000238CAADF11C0D02A938C10CCA4FF004
:204F8C00805581E80C0046688468D5F8D0112068C968884721688A6B4FF60D00CFF6FF70E7
:204FAC0010408863206840F2F271416496F83C0096F83D202168C0100DEB80008068104327
:204FCC004863684605F0F2F8377F717FD5F8D0514AF26C434AF25C4C4AF27442C0F2000383
:204FEC00C0F2000CC0F20002B07F53F821105CF827706D6852F8203039430B43B2692068C1
:20500C000199A84741F23001C4F200010A1F106840F010001060086840F001000860A27B69
:20502C000020FF2A02D0E27BFF2A00D118B1086840F44040086007B0F0BD70472D492DE9F6
:20504C00F0410968EFF3118881F311882A4B195C4A1E01291A5449D12849800045180E5C5E
:20506C006F8836F07F0019D1F00911D24FF08054D4F8B801806901463846884704F5DC7464
:20508C002068406B0146384688470228F8D120E01D4850F82710002088471AE04FF080546A
:2050AC00D4F8B801006A014638468847D4F8B801806A014638468847D4F8B801006B014627
:2050CC003846884701210E4A0E48116001688908FCD306F03F003F2801D0FFF7AFFF68787C
:2050EC0000F03F003F2801D0FFF7A8FF88F31188BDE8F08194A6000028320020C8A3000057
:20510C002820086028200840403200202DE9984388465FEA18015FFA88F905D346F20001A5
:20512C00CAF2000181EA080841F2000CC4F2080C5CF8291047F6007200EA0804C7F60772BA
:20514C0088EA0103224000F4E02403408143B4F5E02FC3F3006342EA010201D1510E15D353
:20516C0000F4E02153EA010710D002F4E027B7F5A02707D0B7F5803708D122F4003242F408
:20518C00A02203E022F4803242F4C022C10D4CF8292007D342F20002C8F38051C4F20202CD
:2051AC0002F80910000E16D305F028F85FEA186103D3012101FA09F100E0002142F2D0040C
:2051CC00C4F202042268012303FA09F39A431143216005F00FF8BDE89883000038B50446BB
:2051EC002568B5F1FF3F12D063690020990909D3616839B1A268914204D0521A2846FCF7B5
:20520C007FFC6369002805D543F4806363614FF0FF3038BD60682061A060D80924BF23F0D8
:20522C0030036361002038BD2DE9F0470746194CDFF86C8020680FBB8047174A106800257D
:20524C00002820DD1549A1462E469246A1F1180454F8181FB1F1FF3F0CD0D9F80000804707
:20526C002046FFF7BBFF0746D8F800008047DAF800003D43761C8642EADB04E0804738468E
:20528C00FFF7ACFF05464046006880472846BDE8F087C0463837002008370020383100205A
:2052AC003C3700202DE9F8430E46074630687C68D7F8088008B9002055E004F09FFF616D14
:2052CC0029B104F097FF0321002031744BE001253574666504F08EFF94F8700040B194F8B6
:2052EC005920A06E0021C8F20601114303F0E9F8D8F80010486840F00200486038463146B2
:20530C00FEF789FDD8F80010486940F001004861D6F8049004F072FF42F6A276C2F20006CA
:20532C0080463078012809D019F0704F02D1102003F01AFA042003F017FA3570404604F0D8
:20534C0059FF207828B961683834204604F05EFF08B1284607E03846FFF7CCF820460021B7
:20536C0004F054FF0020BDE8F8832DE9F041001D00241FFA80F8264618F0030005D0A8EBA2
:20538C00000808F104081FFA88F804F0C3FA42F66072B8F1100FC2F20002106005DC42F699
:2053AC007870C2F20000076804E042F67C70C2F200000768388848F20003CFF6FF73034232
:2053CC0021D126B980450BDD01263C461FE025883988491989B28845218018DC2746084673
:2053EC00D7B1A0EB080080B2042804DA388840F40040388005E028F8070048F40048A7F82F
:20540C0000803F1D08E080F40040002680B2C71938880028D3D10027106804F0C6FB384672
:20542C00BDE8F0812DE9F84F43F2844402260125C2F20004266044F20004C4F20204C4F8B2
:20544C0080574FF0030CC4F884570AAFC4F888C797F800C09A4691468846BCF1000F0746E3
:20546C000BD04FF0805BDBF8B001016A27208847DBF8B001016927208847C4F8006744F2C9
:20548C000C46C4F80C94C4F20206284604F02BFE30680008F9D2D6F88403800F28BF281C8F
:2054AC001BD2BAF1010F19BF0820C4F850050C20C4F850051022C4F854250020C4F858054A
:2054CC00216841F0010121606760E260216A41F001012162C4F82480E262BDE8F88F2DE953
:2054EC00F0414668876815460C4604F087FEB16B21B104F07FFE4FF0FF3048E0B563346308
:20550C000024F477746304F075FE04F077FE42F6A375C2F2000580462878012804D00420B9
:20552C0003F022F901202870404604F063FE41F23001C4F20001086840F400700860396885
:20554C00886B40F4FA608863707808B120461EE0716806F1900004F059FEB8B9B4633968FA
:20556C00886B20F4FA60886304F048FE0746287818B1042002F0D8FE2C70384604F03AFEB1
:20558C001022716B306BF277401A3063706BBDE8F08141F21C3010B5C5F200000468B4F103
:2055AC00FF3F08BF002404F0A7FB40F2844346F25C01002242F2082E012040F2801CC4F261
:2055CC006023C4F20C011A60C4F2043E0860C4F2283CCEF80000DCF8000038B140F20010C0
:2055EC00C4F2203000682046FAF7FAFF44F20402C4F203021068052142F24803C2F2000118
:20560C00C4F2030320F003000143116019684FF0000EC0F2391E6FF35B414EEA01000421C7
:20562C00C4F2090118600868C0F30130012809D10A684FF6FF70CFF6FC40104040F40032F2
:20564C000A60086010BD2DE9B04381460C4642F67C604FF0FF31C2F2000004F0D7FD4FF03F
:20566C0000080121ACB142F6647542F6B023C2F20005C2F2000314F82800FF2809D02A6845
:20568C0082422DD953F8200050BB002C08F10108F1D129B3002042F6B025C9F800000F46AF
:2056AC008046C9F80400C2F20005C9F80800CCB154F82820D0B2FF2814D045F82090D9F875
:2056CC00041007FA00F00843C9F8040047F600714846C6F2C77102F0BBFF08F10108E6E702
:2056EC004FF0000942F67C60C2F2000004F08AFD4846BDE8B083000029482DE9F84FD0F817
:20570C000090EFF3118589F31188264CA068012104F058FD4FF0010A4FF000080646216815
:20572C006769A4F81CA02068A4F81E80791A321A8A42A6EB07062DD385F311884546EF1986
:20574C005046394604F02EFD761B0546B542F6D9EFF3118B89F31188E08B012804D14046E5
:20576C00394604F01FFD0546B5F1FF3F06D0A169AD1BA94238BF0D1CE91901E0A569791929
:20578C00284604F00BFDA4F820A0A4F81C805D46276001E0A4F81C8085F31188BDE8F88F7F
:2057AC0094A60000780100202DE9F04344F25058044600271D460E46ADF1140DC4F202083C
:2057CC00A2EB0409C8F8B071012004F08CFCD8F80000C00FF8D3D8F820000090D8F82400C7
:2057EC000190D8F828000290D8F82C000390BCB160084FEA54023B460DD02946684610F80C
:20580C0001EB10F801CB521E01F801EB03F1020301F801CBF3D1600824BF13F80D00E85446
:20582C000320C8F8380264B14E446D1E761E16F8010F15F8011F884218BF042007D1641E0F
:20584C00F5D143F284413846C2F200010F6005B0BDE8F08398B504462068B0F1FF3F05D03A
:20586C006269500904D342F480626261002098BD100A05D320460021022201F06BFB626912
:20588C0090094FF0000104D2D00924BF42F02002626167684FB9D00807D202F00702204691
:2058AC004FF48073FFF786FA0146E2680020226101B9012098BD80B50168B1F1FF3F05D079
:2058CC004269910904D342F480624261002080BD53094FF0000104D2D30924BF42F0100213
:2058EC004261476847B9D30806D202F007024FF48073FFF75FFA0146002001B9012080BD98
:20590C002DE9F043ADF10C0DFBF792FD42F6687443F2606542F69A784FF00009C2F20004A2
:20592C00C2F20005C2F2000826464FF0FF3003F0CBFDC8B9CDF804900DF10200694601AA1D
:20594C0002F02EFD80B9BDF80200102808D1B8F80000BDF80010884202D1019803F03DFE44
:20596C00019808B103F064FD306804F077FC70B9206803F065FF071C04D0FCF797FE384671
:20598C0003F030FD306804F069FC0028F0D028784009CAD3287800F0E00028704FF6FE70C1
:2059AC0004F06EF9C1E7B0B58568687BADF1180D40F000400090287B0021CAF2C001084354
:2059CC000190A87B02220027FF2802D0E87BFF2800D157B1A87B40F000404DF82200EB7B00
:2059EC00501C1943421C4DF82010FF204DF82200694642F61070C2F20000FFF724FE42F60F
:205A0C007074C2F20004206008B938461BE0697B0F2203F0EDF92068297B102203F0E8F904
:205A2C00A97B3846FF2902D0E97BFF2900D148B1A97B2068112203F0DBF9E97B20681222A2
:205A4C0003F0D6F9012006B0B0BD0000F8B5264C2068EFF3118680F3118824491D4D0B68BE
:205A6C000420B0FA80F043F00403281A1F3002780B60521C027086F311882068EFF311833C
:205A8C0080F311880A680820B0FA80F042F008022D1AE87F0A60401CE87783F311880E20EE
:205AAC00FFF7F6F90C480068C0F38150032814BF0020012009490A4A088017683FB9094C7C
:205ACC00402020600123D36100204860F8BD0120F8BDC0463B320020B43F0050A036002063
:205AEC0004800C402C500C4094A60000C8330020B0B50446A068ADF1280D58BB0C20FFF7EE
:205B0C0034FC071C02D16FF003003FE0684600212422082304F06AFB0023ADF81030059399
:205B2C00069761684AF24F006A46C0F2000004F031FB3860386838B903F055FE384602F007
:205B4C0069FC6FF0030021E0E06878602069B860A76013E0A76843F2E860C2F2000000680E
:205B6C0080470546386804F039FB206943F2EC61C2F20001B8600968284688473868616850
:205B8C0004F01CFB386804F015FB00200AB0B0BDF0B520480127F84201D001F0ADFE204DBA
:205BAC00204F214EBD4206D203CD0478A4003459401CA047F6E71D48002800D08047164D00
:205BCC00164FBD4202D210CDA047FAE7F0BD03251BE0416808300A1C2A400BD11A1C2A401F
:205BEC00AB4305D0046804300C600431043BF9D1131C05D0047801300C700131013BF9D127
:205C0C00021C2A4001D0A84304300368002BE0D17047C046FFFFFFFF000000000000000000
:205C2C0040AB0000C8AB0000C0AA000059C501102DE9F04105466C68AE6804F1AC0004F050
:205C4C00CDFA30688069000929D204F0D7FA42F6A378C2F20008074698F8000028B104203E
:205C6C0002F062FB002088F80000384604F0C2FA3268906B41F23001C4F2000120F020001B
:205C8C009063086820F480700860206A616A401A20622369216A626A2846984716E04AF296
:205CAC009860C0F2000002684FF4FA71B1FBF2F2012A03D90068B1FBF0F100E00121AC34A8
:205CCC00204604F07BFA204604F074FABDE8F081002A4AD05FEA000C8B071CD1830722D176
:205CEC00102A08D370B4103A78C978C0103AFBD270BC103238D0042A2CD3082A05D30C2AA2
:205D0C0024BF08C908C008C908C008C908C092072AD0920F22E00B780370491C401C521E6C
:205D2C0022D08B07F7D1C30714D18307D8D0121F12D308C903801B0C4380001D121FF8D2BE
:205D4C000AE008C903701B0A43701B0A83701B0AC370001D121FF4D2121D05D00B780370B3
:205D6C00491C401C521EF9D160467047F8B5044625686769B5F1FF3F07F4805702D0FFF7ED
:205D8C002DFA10B14FF0FF30F8BD6069000907D36068401E03F0BEFE606920F008006061C9
:205DAC0000206060A060E0602068FBF7B1FF06464FF0FF30206057B10F48006880470F486E
:205DCC0000EB0510FBF7E4FE0D48006880473046F8BD38B5084C054620688047206880470A
:205DEC002846FFF7C3FF064C05462068804720688047284638BDC046383700209029002065
:205E0C003C370020F8B50546214800680C4680472046FFF71FFD1F4E002830D0606900F03B
:205E2C000700042819D0A068E168814204D82046FFF7D4F9F8B9A068411CA160EFB20770F2
:205E4C006069800805D30A2D03D12046FFF7C6F988B9306880473846F8BD20688DF80050B7
:205E6C0069460122FBF74CFEB0F1FF3F03D030688047E8B2F8BD616941F48061616130686E
:205E8C0080474FF0FF30F8BD0349FFF7BBBFC046383700203C37002050310020F8B506468E
:205EAC0003F050FA42F69865C2F200056F68044603F0F9F82A69E41B4FF47A716143090C2D
:205ECC00801A48BF404240F6B83289198A4216D3062814DAA968E868814210D82A6872B13F
:205EEC00401A44F24021C0F20F014143080C00EB9140824212D91046C82811D312E043F68B
:205F0C00AC71C5F200014868400828BF4FF4FA600DD209687D2001F0FF014843C82801D2F8
:205F2C00C820F8BDB0F57A6F88BF4FF47A60F8BD2DE9F04104466568A66804F05FF9A96A46
:205F4C0031B931688969090902D204F053F937E00027AF6204F04EF9B17B3846FF2902D06C
:205F6C00F17BFF2900D118B12846314600F09BFA3268906B41F23001C4F2000120F020009D
:205F8C009063086820F48070086004F037F942F6A378C2F20008064698F8000020B1042022
:205FAC0002F0C2F988F80070304604F023F9696A286A401A28622B696A6A296A2046984729
:205FCC00BDE8F0812DE9F04FADF13C0D04F04AF94AF2A85A4AF2AC594AF2A45843F2E466F6
:205FEC000024C0F2000AC0F20009C0F20008C2F200068346684600213C22082304F0C6F8B3
:20600C00A0005AF80010069159F800100022089158F80010305804916946059049F6596006
:20602C00C0F2000004F0AEF8071C0FD003F072FC0546384600F0D7FC40B1284603F0B5FD15
:20604C00641CD7D0584604F0F5F801E001F02AFE0FB0BDE8F08F43F2D06010B5C2F20000D3
:20606C00007800283DD003F09BFFD0B343F2D464C2F2000420680C21002202F019FC2068CC
:20608C000C21002202F014FC20680C21002202F00FFC20680C21002202F00AFC20680C214B
:2060AC00002202F005FC20680C21002202F000FC20680C21002202F0FBFB20680C21002264
:2060CC0002F0F6FB20680C21002202F0F1FB20680C21002202F0ECFB20680C21012202F0A2
:2060EC00E7FB10BD10B5007900BB03F013FC43F23072C2F20002117821B903F056FD6FF055
:20610C00070034E01178491EC9B2117019B103F04CFD00202BE003F048FD43F23470C2F276
:20612C000000006802F08EFB002020E003F0F2FB43F230710446C2F200010878FF2805D11E
:20614C00204603F032FD6FF0060010E00878401CC0B20128087006D143F23470C2F2000003
:20616C00006802F08AFB204603F01FFD002010BD38B5042003F0CEF91A4C022818BF032875
:20618C001FD103200090164800214FF040521C2301F076F917480068EFF3118380F3118818
:2061AC0015480421B1FA81F1401AC17F4A1E0129C27703D1206820F00400206083F31188D0
:2061CC0038BD094D0A48094A296803686018B2FBF3F103F0F3FF2868201803F0EBFF38BD3F
:2061EC0000A00C40C833002080A60000A086010098A6000094A600003B32002010B51A4813
:20620C001A490078086820F0030040F00100086001F0B5FF01F0DCF80021154C15482160B1
:20622C000068C0680146022088471349134A086820F0010008601068D4F8EC1FEFF3118422
:20624C0080F311880E4B0F481A680421B1FA81F1401A42F00402C17F1A60491CC17784F352
:20626C0011884FF0FF3010BD9D2F00200440034040100940A00100108C21084094A6000052
:20628C00C83300203B32002010B50446A07890B1401F07D0401E2AD0801F2BD1A08803F09E
:2062AC0029F827E0607828BBE0786289211D082301F0C3FD1EE06078E0B942F6C0620220A7
:2062CC001021C2F2000202F033FA42F6D06203201021C2F2000202F02BFAE01C026842F683
:2062EC004071C2F200010A608088888002E0A08802F0D8FF42F68071C2F20001086830B1B0
:20630C000868006818B101462046884700E0012010BD42F6A0732DE9F041C2F200031F78A6
:20632C00082F39DA002407B342F61646C2F2000606EBC4050627844615F8018B1CF801EB91
:20634C00F0450DD17F1EF7D1F04509D142F63871C2F200016356501000EB630060541BE0FE
:20636C001D78641CE4B2A542E2DC1C78066842F61445C2F2000505EBC404A41C266080886F
:20638C00A080187805EBC005697042F63871C2F200010A54401C1870BDE8F081F8B50546CD
:2063AC001E480068EFF3118780F311881C4C20684FF0805640F080002060D6F88C01406845
:2063CC00014601208847D6F8B001006A014614208847286906F5C675810C14BF010C0421EE
:2063EC002868406A024601209047D6F88401006823210246002090472868C06901460120B8
:20640C008847206820F4C02040F480302060206840F00100206087F31188F8BD94A6000086
:20642C0000200940F0B543F262620646C2F20002905D01240F46ADF10C0D01282ED143F2CC
:20644C006365C2F20005A85D40BB304612211422002302F063FF0190E8B11820ADF8000052
:20646C001422ADF8022000208DF808008DF8090001983946FFF72CFC42F69A70C2F20000AC
:20648C0002786946304603F028FE041C04D06846122103F015FA0CB90120A855002004B1A9
:2064AC00012003B0F0BD70B50D4629680646886B42F67074C2F2000420F020008863206890
:2064CC00297B012201F0AEFA2068297B012202F0EFF92068297B002202F08AFC2068A97BB5
:2064EC00002202F085FC30468178012905D074304FF0FF3103F08AFE03E02868806900099A
:20650C00FBD2297B2068102202F072FCA97B0020FF2902D0E97BFF2900D120B1A97B2068CC
:20652C00112202F065FC70BDF0B5ADF10C0D00F0FDFF42F698764FF6FF750027C2F2000674
:20654C004FF0FF3002F0D3FF0028F9D101970DF10200694601AA01F040FF0028F0D1BDF84B
:20656C0002000124102817D13088BDF80010884212D1019801888D420BD14088C00B0BD360
:20658C00042042F66C720146C2F2000202F0D0F802E003F0CFFB044601980028D0D0002C88
:2065AC00CED002F07EFFCBE741F2A00010B5C5F20000D0F8781203680A0F03F0FF03802B4B
:2065CC0028BF0023D0F878024BF69A11C0F30F344FF0FF30A14213D02431A14207D04BF6FD
:2065EC002031A1421DD1E2B90A3358B210BD12B1921E02D010BD0A2010BD143358B210BD97
:20660C00521E0DD0921E04D0121F04D0521E04D010BD142010BD152010BD163358B210BD64
:20662C000A2010BDF0B544F2505500270E460446ADF1140DC4F20205C5F8B071012003F0A4
:20664C0052FD2868C00FF9D3286A0090686A0190A86A0290E86A0390BCB160084FEA540242
:20666C003B460DD03146684610F801EB10F801CB521E01F801EB03F1020301F801CBF3D1EC
:20668C00600824BF13F80D00F054032043F28441C5F8380205B0C2F2000138460F60F0BD2F
:2066AC00F8B5876844684FF0FF361546084620382AD0401E02D0401E07D003E0002084F833
:2066CC0070002AE06FF0010027E02A78A06E42F20001C8F20001114300F0BEF9E0B93868F9
:2066EC00B0F1804F01D10B2200E02322A06E297802F07EFBA06E94F8591000F056FA2978FC
:20670C00002084F8591008E0217B0020012900D1012084F8700000263046F8BD70B50646FA
:20672C00F088F4680628A4F10C0402DAB088062802DB6FF002002DE003F0ECF8F28842F690
:20674C00CC35C2F20005910001EBC20169184968E1B103F02AFA30792071B0796071307A7A
