:20B0000038B50D46044610F0DDF907482168016061684160A168816010F0A0FB10F08DFA21
:0CB0200028460FF01EFE38BD54480020EA
:20B02C002DE9F84FDFF8404BDFF8405B207007210020E860DFF8380B01700D2141804FF4F6
:20B04C0004718180DFF82C0BDFF82C1B29618A7E0270FF2ACB7E437008BFFF2B0E7F8670A5
:20B06C004F7FC77091F81EC080F804C0C97F417116D1FF2E08BFFF2F12D1BCF1FF0F08BFB4
:20B08C00FF290DD1DFF8781B0A7802704A7842708A788270CA78C2700A79027149794171FA
:20B0AC00DFF8941B0278DFF8E88BDFF8E87BDFF88CEB0A70002342784A7082788A70C27873
:20B0CC00CA7002790A71002240794871FF20DFF8B01B087048708870C87008714871DFF876
:20B0EC00B81B0B7501230A71CA814B75CB824FF420720023087248728872C8720873487364
:20B10C000A824A820B83DFF8941B087248728872C872087348730B7101208873CB7305201E
:20B12C000A824A828B828875DFF8741B0B80D8F82C30DFF8701B58780870197839709A788E
:20B14C002A709E683679761E8EF80060DB78DFF8586B6B704FF4967333801B261B2392FB47
:20B16C00F3F306FB132202B10122D218504368804FF0180A881C0AFB00F080B210F0D2FA74
:20B18C00DFF8286BB060002800F09D803878002800F09C804FF49071484380B210F0C2FA53
:20B1AC00DFF80C9BC9F8040008B9B06889E038783C21484310F0B6FA686020B900F0D5F858
:20B1CC00D9F804007DE0387810F0ACFAA86028B900F0CBF800F0CCF8686872E038780AFBB4
:20B1EC0000F010F09FFADFF89CABCAF8000038B900F0BBF800F0BCF800F0B4F8A86860E0B6
:20B20C003878DFF884BB400110F08CFACBF8000050B900F0AAF800F0ABF800F0A3F800F029
:20B22C009AF8DAF800004CE03878000110F07AFADFF8581B086060B900F097F800F098F883
:20B24C0000F090F800F087F800F088F8DBF8000037E03878000110F065FADFF8341B086003
:20B26C0080B900F082F800F083F800F07BF800F072F800F073F8DBF8000010F045FADFF8B3
:20B28C000C0B1DE038783021484310F04BFADFF8041B0860D0B900F068F800F069F800F045
:20B2AC0061F800F058F800F059F8DBF8000010F02BFADFF8D80A006810F026FADFF8D00ABE
:20B2CC00006810F021FA4FF480413FE000F0DFF9074609F008F910F07FFCDFF8BC0A00692C
:20B2EC000068804710F074FC10F06EFCDFF8AC0A002101600160C160C16008F041FF10F04F
:20B30C002FF9DFF89C1A40F2FF70086010F058FC064610F055FC864208BF10F04DFCD8F8CA
:20B32C000C00697800880843DFF8781A08803846DFF8541D0968884700F014FA2078002193
:20B34C000FF00AFF00F08FF84FF400512078BDE8F44F07F011BDA86810F0D6B9DAF8000018
:20B36C0010F0D2B9686810F0CFB9B06810F0CCB9D9F8040010F0C8B910B50C46E00786B0B7
:20B38C0013D510F015FC38B100218160DFF8180A0068010018BF8047DFF8CC07007800217A
:20B3AC000FF0DAFE84F001005BE02007DFF8BC1724D5DFF8E8084968427DDFF8F40840687E
:20B3CC004FF4907303FB02003C2303FB021100220492C28E12090392828E0292428E520825
:20B3EC00019201F134020092002291F830308179002010F0D9FB84F0080032E0E0060ED5A4
:20B40C00002004900390029001900090024601460023022010F0C8FB84F0100021E0A00565
:20B42C0008D5DFF8BC0C016841F00041016084F4007016E0600504D510F0F4F984F48060E7
:20B44C000FE0600405D5812010F0AAFB84F4804007E0A00443BF4FF0FF30C86084F400504A
:20B46C00002006B010BDF8B508F064FFDFF8D80BDFF83C680068DFF81C78804704460020DC
:20B48C0009F0DAF840F2014010F086FBDFF808090069C068804710F09BFBDFF8F407DFF862
:20B4AC00EC1BC06A80684079087001F09AFCDFF8E00B10F06DFB10F067FB10F061FBDFF8F0
:20B4CC00D40B00210170017141718171C171017241720020DFF8C01788730546DFF8BC17C3
:20B4EC00C8730BE070684FF4907101FB05004179012908BF01F0A1F86D1CEDB23878854229
:20B50C00F0DB10F039FB0FF0A7FA00F0F5FEDFF8D41B00200870DFF8D01B08700120DFF80D
:20B52C00CC1B08700020DFF8C81B0870DFF8C41B0870DFF8C41B0880DFF8C01B087008F0C0
:20B54C0034FF00F09FF80020F2BD2DE9F0411446DFF8405708B12A780270DFF8548711B106
:20B56C0098F801000870002C3ED0002600271CE0C9B2DBB2085502F1300001791955591C4E
:20B58C00427900F034F8827900F031F8C27900F02EF8027A00F02BF8427A00F028F8007890
:20B5AC00C9B24E1C08557F1CFFB2287887421BDA384610F0DDFA0028F5D1D8F804004FF439
:20B5CC009071F6B201FB0700DFF8341B496837553C220068007802FB0712711C4B1C802860
:20B5EC000CBF00200120C3E70020BDE8F081C9B20A55491C704738B500F040F858B9DFF860
:20B60C00000B40683C2101FB05000A210068B0FBF1F02080002032BD38B500F02FF860BB20
:20B62C00DFF88C06DFF8D82A406852684FF4907101FB0500811D3C250B7805FB03253CB17E
:20B64C00CB8D898D5B1C4900E20059438A4201D2122032BD0A216143296090F8920058B1F7
:20B66C0000F015F804460020687128684108A8790EF0E1FD00F006F8002032BD05460C460E
:20B68C0010F076BADFF8001A096820460847DFF8B809006800472DE9F8435FEA0109144612
:20B6AC0018BF002C06461D4600D00DB9122057E010F05EFA002853D100F0E4FA01FB060653
:20B6CC0030680078802818BF0C2049D106F1E307B87DC00758BF112042D5B87C012808BF29
:20B6EC003A203DD0FFF7D3FF80460120B874002010F809108219401C082882F8AC10F7DB8C
:20B70C0006F1B40021780170617841700020415D321A401C102882F8E210F8DB06F1A40066
:20B72C0010F022FA06F1980010F01AFA00F01AF8002086F866003870787096F8920001285F
:20B74C0002D178730A2102E0002078730321304610F002FADFF8301909684046884700206B
:20B76C00BDE8F2830C21DFF89C0910F0F1B910B5044610F0FDF9F0B900F055FA00F1F80179
:20B78C000A78022A06D1817900F1F90200200CF032FB0FE002681278802A08BF082107D095
:20B7AC00402A07D14978090701D4112010BD0E2110F0D2F9002010BD10B5040001D11220E3
:20B7CC0010BDDFF8EC04407808B10C2010BD00F093FD2078DFF8301900F01F0020704A78C6
:20B7EC0010404870002010BD38B50D00044606D0DFF89C04C06A80680079844201D3122060
:20B80C0032BD08F0A7FE032803D0204601F032FB02E0DFF87808047001202870002032BD99
:20B82C00DFF86C14C96A89680979884201D312207047DFF8081408700020704710B514005D
:20B84C0019D011B1012908D015E001F02CFB10F1800F20700DD1302010BDDFF83404C06ACE
:20B86C0080680168007900EB4000401810F8030C2070002010BD122010BD2DE9F0410C0089
:20B88C0082B0804617461D4628D0DFF874683078B84227D3404610F06BF9002844D100F086
:20B8AC00F1F901FB08080AF000FB1B2297FBF2F21B2303FB127303B10123718810181818F4
:20B8CC00814204DA012010F03FF907202CE030781C2813DA002D18BF012D01D0122023E01E
:20B8EC001C2F04DB8A2010F05BF930201CE02B463A462146404610F023F914E03A462146F3
:20B90C00404601F083F978B920460FF0F5FA98F80600ADF800000DF102020120ADF802009E
:20B92C0000A90CF09FFA0020BDE8F68170B50646282E01DB122070BDDFF8C047207808B150
:20B94C00212070BD08F0F6FCDFF84C54286980688047700000F6621189B2002010F0ECF8B4
:20B96C00DFF8A80740F6070101804060002141808160017B01F060010173417B01F0F00133
:20B98C0041F00201417302218173DFF88417016100214161C17B01F0F00141F00101C17380
:20B9AC000C212170296989698847002070BD2DE9F04104460D46282CB8BF262D16460FDAD6
:20B9CC00002E18BF012E0DD0022E18BF032E09D0042E18BF052E05D0062E18BF072E01D017
:20B9EC0012205AE0DFF8148798F8000008B1212053E008F09FFCDFF81C77DFF81C1741F662
:20BA0C000A0038800022002078807F60B860387B00F060003873787B00F0F00040F0020074
:20BA2C00787360006630B8738020F873DFF8EC06386179610280857040F6C4124260C6704C
:20BA4C00027A02F0FE02027200224272C260C27A02F0F00242F00102C272002008800021AE
:20BA6C00DFF8BC068180C180047080214570867001727248C84C007801F0FCF9092088F8D7
:20BA8C00000000222369DFF89C065B680021984721698969384688470020BDE8F08170B58C
:20BAAC000446282C01DB122070BDDFF85056287808B1212070BD08F03DFCDFF85866DFF8C0
:20BACC006816766041F609003080716100207080B0600022307B00F060003073707B00F089
:20BAEC00F00040F00200707360006630B0738020F073DFF83806306102600F22027101224A
:20BB0C004271DFF80C268260552202734273827300220261C27B02F0F00242F00102C273D5
:20BB2C000020088048808880002280208871002088600021DFF8E8054170FF2181700470A3
:20BB4C0000218180C1808021934C01720A20287000212369DFF8CC055B689847216989694E
:20BB6C0030468847002070BD844C0020184800208C4C00206C4C0020B63F005070B5DFF8A6
:20BB8C007C452078092818BF0A2801D0212070BD40F2024010F000F82078DFF88415092822
:20BBAC000BD1DFF8740500888880DFF8E004007801F060F90021002017E00A2817D1DFF817
:20BBCC006825538810889688CB801D1875198D809279802A18BF812A0FBF7F22DFF850351E
:20BBEC0093F90030D21A0A7201210FF0A1FF0FF0EFFF0020207008F0D8FB002070BD00009F
:20BC0C00E812005010B504460FF0B2FF50B900F00AF80168097880290CBF0021102100F074
:20BC2C00A9FD002010BDDFF80C0540684FF4907101FB0400704700007C4C0020854C002001
:20BC4C0038B5FFF71BFDD0B900F01CF801FB050000F1F9010A78520703D40F220A750721DA
:20BC6C000AE0DFF89C1449683C2202FB05110F2201F8242F4C70112100F07CFD002032BD42
:20BC8C00744C0020DFF8AC0440684FF490717047B0C30100BC4C0020944D0020584E00202B
:20BCAC00984C00208B4C0020964C0020F44E0020B04C00202DE9F04180460D4640F67B40AC
:20BCCC00A91F164681423CBFB11F81421F4611D2AE420FD3B7F5FA7F0CDA069CA4F10A017C
:20BCEC0040F6774291423FBF781C71004843B0EBC40F01D3122042E040460FF039FF00286D
:20BD0C003DD1FFF7BFFF01FB0800DFF8F41349683C2202FB081100F1770213792BB11378F1
:20BD2C00002B1CBF0F2B102B02D0527A012A01D13A2024E002681278402A05D190F8F920AE
:20BD4C00920758BF11201AD500F182028D81CE810F824C820223937000239380838ED68011
:20BD6C00DB1D1380178154810122CA7190F8F910890754BF00210F210FF0EEFE0020BDE82C
:20BD8C00F081000080480020844800200C4F00201C4F0020104F00202C4F002010100440CE
:20BDAC0000000460944C0020C44C00202DE9F14F804F82B0F87B01280E469246984610D006
:20BDCC0004200EF08FFE01281EBFCC480078092807D00A2818BF0B2803D00C2818BF0D28BF
:20BDEC0001D12120E3E0BDF8081043F6FD70091F81423CBF311F81424AD2BDF80800B0422A
:20BE0C0046D30C9DBAF1000F03D0BAF1010F3FD101E0002D3CD0B8F1000F18BFB8F1010F9A
:20BE2C0036D10D9C002C18BF012C31D11399129881422DD30E9840F67B41821F8A423EBFF9
:20BE4C00DDF83C90A9F106028A4221D281451FD3BDF84000B0F5FA7F1ADABDF844100A39C9
:20BE6C0040F67742914213D2401C4FEA49014843BDF84410B0EBC10F0AD20FF055FE0128DA
:20BE8C0008BF3A2005D0BAF1000F08BF002D01D112208CE000F098F95FEA000B08BF0920BD
:20BEAC00F7D09BF8060078753C2295489BF80610406802FB010000904246BDF80800388210
:20BECC007E8287F814A02946402001F065F808B10B206CE00BF16101584600F0F3FF0BF1FC
:20BEEC002406B07D022803DA58460FF019FECFE7002C0CBF904891483C71BAF1000F0178E6
:20BF0C003972417879728178B972C178F97201793973407978731ED15E48297801716978AB
:20BF2C004171A9788171E978C171297901726979417200992A7830310A716A784A71AA781D
:20BF4C008A71EA78CA712A790A726A794A7280F8008081F800800FF0DFFD70600FF0D8FD0F
:20BF6C003060A6F80E90BDF844007082BDF840003082B87D30720220B0720520F07504208E
:20BF8C000EF083FD38600120F87308F0D3F99BF806000FF0B9FD5948007838B9787D0FF0E3
:20BFAC00AFFD5649062008700FF0A6FD0020BDE8FE8F0000584E00202DE9F041040008D0AF
:20BFCC002079E021084204D120460FF091FD012801D0122036E000254FF49078554E584FAD
:20BFEC0001E06D1CEDB2387885420DDA00F02EF8F7D17730017911B10178012902D0C07D5B
:20C00C000128EED13A201DE0002517E000F01EF802BF0168097880290ED100210A5D0B18D5
:20C02C00491C052983F86120F8DB818EC91DA0F8901001210FF090FD6D1CEDB23878854218
:20C04C00E4DB0020BDE8F08158480020706808FB0500417901297047017841F07001017018
:20C06C00C178827841F01001C17042F0C00241F003018270C1700020704710B12D494978F3
:20C08C0001700020704700005C480020B94C00208C4A00209C4C002070B504460D46164647
:20C0AC000FF066FD30B9FFF7BEFD00F58E7005704680002070BD234B10B1012803D00CE0E6
:20C0CC00198000207047188810701888000A507083209070AD20D070F3E7122070470000E7
:20C0EC0004000940864C0020BA4C0020874C0020884C00208A4C0020BE4C0020B84C0020A4
:20C10C0018480020E84E0020D04E0020404E002029417671284E0020204F0020A84E0020C5
:20C12C00DC4E002002000080C44E0020844E0020C04C0020B04C00206C4C0020744C002003
:20C14C00BC4C0020984C00202DE9F843099D002600274FF6FF7835F8174044451CBF761C2D
:20C16C00F6B27F1C062FF6DB00270DE00CF1010C5FFA8CFCE646B64505DA35F8179035F864
:20C18C001EE0F145F2D1E7B2B74208DA35F81740444504D0A14202D37C1CA446E8E7B74245
:20C1AC000DD176B1884202D04BB1994207D3089811460FF099FC47F6FF71884201DB012022
:20C1CC0000E00020BDE8F2832DE9F843DFF89C0CDFF89C9C017899F80000884200F089808D
:20C1EC0000204FF4907301E0401CC0B2884280F28080D9F8042003FB002808F1040632781A
:20C20C00002AF1D1DFF8B41C0968B0703C2202FB00110122327008F161040022727001203A
:20C22C006071E072B280F280307388F8392008F18E007261327672830270E277FF25802227
:20C24C00E27408F1E80700226275A276002301F1260215707B76BB76FB763B77FB833B843F
:20C26C0088F80B31037108F1E3000370437008F587703B607B60BB723B733B727B73BB7372
:20C28C00FB73038043808380C38047F2305008600B714B718D7193729373D37313745374A2
:20C2AC009374D374FF22042108F177000EF0D0FF25706570A570E5701F2020710020DFF806
:20C2CC00001C421800EB0803527883F8F920401C0828F6DB0020387499F80000401C89F8F1
:20C2EC000000C0B2012804BFB07889F80200404600E00020BDE8F28310B5DFF8C44B0821B5
:20C30C00601C0EF0A4FF607840F01F00607010BD70B5044609200FF0E3FBE8B100F018F921
:20C32C0000F03CF806F8010B04F1F901DFF8640D0078082818BF0E2030700822701C06F093
:20C34C0003FC94F8920008B100F0D0FE08F002F900F042F89847012070BD70B5044609205B
:20C36C000FF0BEFBC8B100F0F3F800F017F830700822092006F8010F04F1F901701C06F034
:20C38C00E3FB94F8920008B100F0B0FE08F0E2F800F022F8984700F03FF870BD0A30C0B283
:20C3AC00E880002105F108062960297169710320704738B5044601200FF092FB58B100F030
:20C3CC002FF8122000F023F808F0C4F800F004F8984700F021F832BDDFF8403D1B69DB6C57
:20C3EC000246A06E2946704738B5044601200FF077FB58B100F014F8132000F008F808F0CC
:20C40C00A9F8FFF7E9FF984700F006F832BD03F8010F20460FF060BB0020E08301207047EF
:20C42C00A0F10905002028602871687105F108030620E880012203201870032170472DE9E9
:20C44C00F041804608200FF04BFBA0B308F19006A0F10905B07800B104200930C0B2E880DB
:20C46C00002105F10807296029716971032038700522012007F8010F08F16101781C06F086
:20C48C0063FB08F108043088218808183080B8713088000AF871B07828B13B4608220321D8
:20C4AC0040460FF019FB08F055F800F04BF8206E294698470120BDE8F08170B504461820A5
:20C4CC000FF00EFB00283CD000F042F8193000F013FE04F168060F2003F8010F308C58707F
:20C4EC00308C000A9870308CD870308C000A1871708C5871708C000A9871B08CD871B08C7A
:20C50C005972000A18729972FF20187358739873D873187458749874D874187558759875C3
:20C52C00D875D97294F8920010B1182200F0E0FD08F010F800F006F8306829469847FFF7A7
:20C54C006BFF70BDDFF8D43B1B69DB6C02467047A0F1090594F8920000B10420704770B51A
:20C56C00044603200FF0BCFA88B3A51DDFF8B01B2A780968A0F109063C2394F8920003FBC0
:20C58C00021100B10420001DC0B2F080002206F1080332603271727103201870112003F895
:20C5AC00010F01F12400017859704078987094F8920010B1032200F09BFD07F0CBFFFFF704
:20C5CC00C1FFA06E3146984700202883012070BDF8B505460E46DFF84C4BDFF8407B08E0DE
:20C5EC00007A03281CBF481C20703969A86E496D88473969A86E096E8847217810B10279AB
:20C60C00032AEDD0DFF8200B00781C2814DA99B1DFF8180B0078814205D2012E0CD1DFF83F
:20C62C00100B007840B1A879ADF80000ADF8021000F077F800202070F1BD2DE9F843044695
:20C64C00DFF87808A1790068DFF8D07A3C2202FB010600F08BF88046002007F0EDFFB0790D
:20C66C00DFF8C06A0DF017FEA06E00B306E0007A00F051F83969A06E496D88473969A06E5C
:20C68C00096E88470028F2D13969A06E496E8847054606E0287A00F03EF828460EF02CFC9A
:20C6AC002D68002DF6D13969A06E096D8847206FA0B13969096E88470546A946D9F8080015
:20C6CC0020B10EF019FC0020C9F80800D9F80090A945F3D13969206F096D8847DFF8480ACF
:20C6EC0000781C2808DA307840B1A179ADF80010ADF8020000F015F80020307020460FF05F
:20C70C000FFA20460FF0E4F9DFF8281A096840468847BDE8F183032802D03078401C307029
:20C72C0070470DF1020200A901200BF09BBB70B5044600F01BF804F17601FF234A79521EE6
:20C74C004A71D2B20AB94B7008E0002215197735521C6E782E70032AF8DB0B7100220A7022
:20C76C00BDE87040DFF8CC1909680847DFF8C8090068004738B50446DFF8BC0900680D46F7
:20C78C008047002204F176010A704D704A790AB901224A71BDE83440E4E72DE9F047054621
:20C7AC000C464FF49078DFF894A90027012624E006EB0509DAF80400715D19F8012C08FB86
:20C7CC00010108FB02000968006849684068896880680FF079F901280ED119F8010C715DD6
:20C7EC00484009F8010C3746715D4840705519F8011C484009F8010C761CA642D8DBFCB260
:20C80C00002CD2D1BDE8F0872DE9FE4F0446DFF8AC0600688946A1793C2202FB010A2068AC
:20C82C004768B86849460FF04FF9002840F0CE802068016948460FF043F904F180068046A5
:20C84C003078002804F12E0540F6C41B68D0218970880FF049F902903078029902280CBFDA
:20C86C00BAF82A00A888484301900BFB00F00090206800990069091848460FF025F9002880
:20C88C004ED000983289A8EB00010BFB02F3B1FBF3F003FB101101B1401C02FB00F1228937
:20C8AC00029B9A1880186081F2880198101801EB00093078012844D104F1840120460FF0AF
:20C8CC00FBF87089E189608400202077E08360890818A081A9883089884202BFB1892A896C
:20C8EC00914202BF7189EA88914208D0B1890909009142087389A17900200BF03BFAA888C4
:20C90C00AAF82A00307928703089A8807089E880B089288120460FF0CBF80220307010E000
:20C92C00A8880BFB00F1B8FBF1F290B201FB128109B1401C80B2218941186181A98801FB03
:20C94C0000F9206801690BFB0911B9600278802A06D1C160A9883A69091F0BFB01F15161E5
:20C96C00017840292BD1618A01FB09F14FF4C872B1FBF2F1491CC4F818906161BA68511AC8
:20C98C00B9606269DAF82C1001EB42013A695161DFF8AC1732780968022A07D1A2792E789B
:20C9AC0001EB421253690BFB06335361A279DFF8943701EB4211AA880BFB0232CA61B968C8
:20C9CC008160E87AA872204600F0C2FA6189A0890FF08AF8AAF82800E18981423CBF012035
:20C9EC00AAF82800BDE8F78F2DE9FE4F0FF0E8F84FF0000900F6C4140026DFF84C57DFF867
:20CA0C007074DFF868844FF4907A11E078680AFB0600417951B12A68817909F8021009F1E5
:20CA2C0001015FFA81F92146FFF7EEFE761CF6B298F800008642E9DB787881451CBF822043
:20CA4C0000F065FB7878012812D1002601E0761CF6B298F80000864207DA78680AFB060019
:20CA6C0041790029F3D08079A3E0822000F04FFB79782868FFF791FE29687B680A780AFBAB
:20CA8C000232002012685468A668012202E0521C6046D2B24A4500F1010C07DA545C0AFB32
:20CAAC00043424686468A468A642F0D0C0B200281ABF5FFA8CF000280B784FF03C0814D0CC
:20CACC000B7801220FE0DFF85846565CD4F800E008FB06E408FB03EE248DBEF828E07445D9
:20CAEC0038BF3346521C8242EDDBDFF8604623704FF6FF7000F05FF8019000267868217885
:20CB0C000AFB010040F6C41100684068029001984008484300901AE0786821780AFB0100E1
:20CB2C0001680A78802A03D1DBF81030009A5A610978402909D1DFF808168079096801EB09
:20CB4C004010009901F5A061C161761CF6B24E452EDA28682178305C8142F6D0DFF8C01508
:20CB6C007A68096808FB00110AFB00F08318DB89098D4FEA530C8C4502D2591A8945E4DA7C
:20CB8C008058D0F804B0029A0198DBF80810926800EBD070401040F6C413A1F6C41103FB29
:20CBAC0000200EF091FF0028B6D02868305C20702078BDE8FE8FF0B54FF6FF710C460023C8
:20CBCC00AB4A03E0A64298BF34465B1CA74D2D78DBB2AB4216D255684FF4907606FB0355E7
:20CBEC006E79002EF1D005F180068C42377804D1002F0CBF6C8E3489E7E7002F14BF368945
:20CC0C006E8EDFE7A04288BF2046F0BD2DE9F84304468846164600270FE02A46414605F043
:20CC2C0093FF3846471CC3B203B101232A46494620460EF085FFA844761BB6B276B11C2EEB
:20CC4C00ACBF1B25F5B228460EF02EFF5FEA0009E3D181200EF0A4FF072000E00020BDE8C9
:20CC6C00F2832DE9F04D824FDFF8E464DFF8E4A40C46154679684FF4907282B002FB001877
:20CC8C00307801289B4602D0022830D068E0B068BBF1020F04D100F070F80020B06029E057
:20CCAC007388B188EA18914205DA00F066F80020B0608B2052E02A462146181805F044FFE6
:20CCCC0070882818708080B2B288904248D198F87400802817BF81287F209AF80010401A03
:20CCEC0000F043F80020B0807080022033E0BBF1020F35D1042DB8BF8C202FDB21786078F6
:20CD0C00091D41EA0020DFF82014B08080B20978814238BF8A2021D3A84238BF8B201DD3D4
:20CD2C000EF0BEFEB060C0B12A46214605F00CFFB28895420BD198F87400802817BF8128BD
:20CD4C007F209AF80010401A00F00FF808E07088281870800120307002E081200EF020FFC4
:20CD6C002046BDE8F64D0EF0C7B840B200905B46B168B878D2B20EF0E7B80021B18071800C
:20CD8C00022131700EF0B8B870B50446A0790EF0EFFE28BB4948A17900683C2202FB01058B
:20CDAC00FFF7E4FC06466879012803D1A0790BF0C8F807E0287928B90120287112212046D7
:20CDCC000EF0CAFE687980F001006871AB1D286842082146DFF880030DF0C9FA3046BFE41A
:20CDEC0070BD30B587B040F60200ADF800000020ADF8020001900290ADF80C0001208DF8C0
:20CE0C000D000020ADF80E00D44CD54D2088D54A1278ADF8100002EB4202E86A8168096801
:20CE2C005118B1F80110ADF81210BC4940680969059000A8C9698847012807BFBDF80200F9
:20CE4C00B0F5806F892000F062F9E868C64A41881278114321800078BE49800643BFC34884
:20CE6C000068400A0020087007B030BDBC4C0020B04C002010B582B004461020ADF800005E
:20CE8C0004EB4401B648C06A806800680818A349B0F801000969ADF8020000A889698847A3
:20CEAC00B048047013BDAE48AE49C06A80680978006801EB41010856704700001C4800207B
:20CECC00D04E002030B50A7902F01F020A71002280F83A200023545C24FA03F5EC070BD562
:20CEEC0090F83A502D1803EBC20485F83C4090F83A40641C80F83A405B1C082BEBDB521CD0
:20CF0C00052AE7DB30BD10B500F138025378D47801FB0431252391FBF3F3252404FB1311C9
:20CF2C0011700023117800E05B1C9478DBB2A34206D21C1894F83C40A142F5D1084610BD0B
:20CF4C0091FBF4F204FB1211081890F83C0010BD70B5044604F1380004F18E060178417031
:20CF6C00608921890EF0C0FD05463078012801BF70882189491C884206D104F16101204616
:20CF8C00FFF7A0FF0020307029462046FFF7BBFF21684968887370BD2DE9F44F674E804675
:20CFAC00707800280D4652D0B8F1400F4FD17048007D08B9012702E0012848D1002700243B
:20CFCC00DFF8B091DFF858A1DFF8ACB11DE09DF800108A4202BF01792A78914213D141796D
:20CFEC006A78914202BF8179AA7891420BD1C179EA78914202BF017A2A79914202BF407A48
:20D00C006979884221D0641CE4B29BF8000084421DDADAF800003C2101FB040170684FF4B6
:20D02C00907202FB04004279002AECD0006800784045E8D101F13000002F0278C7D134315A
:20D04C0048460EF029FD1028DDDA012000E00020BDE8F28F70B500F1F103484C1D7A6D0733
:20D06C000BD52F4B85791B683C2606FB053303F8241F5A70FFF773FA02E01A700EF008FD54
:20D08C0030B92078BDE870404FF4804105F074BE70BD0000B84C002070B5044602200EF0A3
:20D0AC001FFD10B3FFF754FAC01C00F025F8022003F8010F94F80C01587094F8920010B1EB
:20D0CC00022200F015F807F045FA144B1B69DB6C04F16806024630682946984704F10E002F
:20D0EC00002101820088F082012070BD33460922032120460EF0F0BCC0B2E880002105F16F
:20D10C00080329602971697103201870704780B50EF046FD1A490020087001BD2C4F0020CF
:20D12C001C480020BA4C002018480020874C0020884C00205C48002058480020B04C002032
:20D14C0084480020F0DDFFFF20480020B5480020DC460020C04C002095CD0000944C002097
:20D16C00B0C30100B94C00201948002080130050584E00208C4A0020BC4C0020844C0020D2
:20D18C00B84C0020DFF8741C0870704770B5DFF8704CDFF8705C20702878C0000EF0C2FAC4
:20D1AC00606048B3287880000EF0BCFA0100A16004D16068BDE870400EF0A6BA4FF6FF76C8
:20D1CC0030460DF044FE6168002006E021F8306001EBC00300225A60401C2A789042F5DBEB
:20D1EC00052000F0AEF8207804F089FBBDE87040DFF8140C0CF024BB70BD38B50C462004A1
:20D20C0018D5DFF8FC0B007805F0EFFC05000ED02878B02808D1284600F00BF920B12979D6
:20D22C0005F108000CF06CF9284605F070FC84F4004032BD002032BD7CB504001D460CD08A
:20D24C00ADF800108DF80220019400A804F0EBFA060019D1C5B164890CB9022614E00C20F0
:20D26C000EF060FA08B913260EE00021016084808560DFF8981B0A6812B9086004E00A4694
:20D28C0011680029FBD11060304676BD30B50D46DFF8781B0446086883B0002201E0024621
:20D2AC00006890B18388A342F9D10368002A0CBF0B6013600EF028FA00A9204604F0FFFAA5
:20D2CC0010B90DB1019929603EBD01203EBD70B558BB012927D1DFF8280B416800230C261F
:20D2EC0001E05B1CDBB2DFF81C4B2478A34216DA31F833404FF6FF75AC42F2D0002400E085
:20D30C00641C4578E4B2AC42EBD201EBC3056D6806FB04552D88002DF2D0012070BDBDE809
:20D32C00704010780DE0182070BD022070BD0022002803BFDFF8C80A4078087002221046A9
:20D34C0070472DE9F843DFF8B87A0446002078700C257868DFF8AC6A406805FB04F868B1A3
:20D36C000EF0D2F90020002204E0796801EBC001401C4A60C0B231788842F6D3307808FBC5
:20D38C0000F080B20EF0CEF95FEA000927D0307808FB00F20021484605F0D4FB00200FE032
:20D3AC00516805FB0CF34FF0000E23F801E059180CF1010CC1F808E0A445F1DBC144401C2E
:20D3CC003178C0B2884207D2796801EBC0024FF0000CC2F80490EFE77C70002000E0132066
:20D3EC00BDE8F28301460020C90706D50FF20C03DFF81C0D102204211EE7704700000000D2
:20D40C0029DE00000000000001460020C90704D5DFF8FC0C4089002138E77047DFF8EC196E
:20D42C00096821B18A888242FAD188687047002070472DE9F04387B004460020ADF81000DF
:20D44C0001208DF81200DFF8205DE86938B90AF041FC0EF067F90028E86100F0E6801822DC
:20D46C000021284605F06EFB2079022800F1010804F108074FF6FF7917D006282CD00828F4
:20D48C002FD00A2832D00C2855D00E2800F08880102800F08A80122800F08C80162800F030
:20D4AC009080182800F09680BCE00AF013FC2880294660880DF074F800283988288804D090
:20D4CC00814228BF014629809FE0814228BF014660880BF083FFA5E004A9204600F0AFF8A2
:20D4EC007CE004A9204600F031F977E000F0A2F8060050D0608805AB4A460B210BF0C4FF7E
:20D50C0003006B6023D02079BDF81620039000953146BDF8140000F0A3F900F028FA0600AE
:20D52C0004D1608829460DF085F829E0162E686808BF00262BE000F07DF806002BD06088D6
:20D54C0005AB4A460D210BF09FFF686020B93888ADF81000112645E02179BDF8162003912D
:20D56C000346BDF814100291798801910095314600F0FDF9060006D1608829460DF068F8D4
:20D58C00002842D12BE0162E686808BF00260DF0B3FC0EB923E001263888ADF810001EE028
:20D5AC0004A9204600F060F918E004A9204600F0E5F913E00DF1120204A9204600F080FAA8
:20D5CC000CE004A9204600F0C1FA060007D18DF8120027E004A9204600F01AFB064696B16E
:20D5EC00162E12D0607814280DD0207928702946BDF8100068802E7160880CF0C8FF10B1B0
:20D60C004FF0010801E0162E0CD160882B465FFA88F216210BF0D8FE20B15FFA88F128466F
:20D62C000BF06EFF20460BF006FE9DF8120007B0BDE8F08338880DF1160104F00FBA2DE9F3
:20D64C00FA4786B0044604F1080500F034FA05906A1D0DF1120000902B796988288804F0E8
:20D66C00CFF9002780464FF0FF0AB8F1000F5BD009E0BDF810300B54BDF81000716892B29F
:20D68C00000A5054571C0598BFB2401F87424BDA2079BDF8122003904FF000090598CDF845
:20D6AC000490C01F80B20290414600F05CF9002802BF328B2889904214D1F169E86805F0AE
:20D6CC005CFA78B1706858B900F048F907210BF0DBFE706020B9069928880880112032E0E6
:20D6EC00B8F80A90BDF81220698804AB404604F0D9F9B9F1000F8046B7D0706807F8009094
:20D70C00781C726880B24FEA29218154411C4A1C7068B8F1000F89B2ABD101F800A092B21E
:20D72C00706802F800A0571CBFB247B1B8083080314660880CF058FF28B1162003E00699DC
:20D74C00288808800A2008B0BDE8F0872DE9F04F89B0044604F1080005908A4606886088D7
:20D76C00DFF8045A08F04CF907900027001FB84606904FF6FF7900E0761C0698B84257DBC1
:20D78C0004A80090059803794188421DB0B204F037F95FEA000B4BD0BBF80A60BDF8102009
:20D7AC009BF80810608804F0AEF85FEA00083FD100F0DFF859460798001F00F050F805F17D
:20D7CC0018000090EB6900F0D2F85FEA00082FD17FB9608800234A4609210BF055FE686023
:20D7EC0018B9AAF80060112036E0288B801C688004E0298B6888891C88421AD1298B069898
:20D80C00C919884214DB6968BBF80A007854BBF80A106A6800F049F968682A8BE969BFB2EE
:20D82C00381805F091F9288BC7194E45BFB2A3D157B1688897FBF0F02880294660880CF09D
:20D84C00E3FE48B1162007E0B8F1000F08BF4FF00A08AAF80060404609B0BDE8F08F80B25E
:20D86C0002900020019070472DE9F04F85B00D46044604F108066088DFF8EC7808F0C0F8A5
:20D88C004FF0000BA0F10108A0F1010A16E039883A8B084612189245BCBFA8EB0101398365
:20D8AC007B683A8BF969C01805F04EF93888398B081838800BF101001FFA80FBB088834551
:20D8CC00BCBF3888504537DA306810F81B2000EB4B0004A9407802EB002080B204F0BEF8FC
:20D8EC0001000BD14FF0010900F02EF8786808B10DF002FB484605B0BDE8F08F00F039F8C5
:20D90C001FFA88F0FFF7ACFF07F118000090FB6900F02DF85FEA0009E6D178680028B6D118
:20D92C0000F01CF80F210BF0AFFD00287860AED100F00AF81120DEE7608839460CF096FEA2
:20D94C000028D8D01620D6E7306810F81B1000EB4B00407801EB00202880704760880023C9
:20D96C004FF6FF72704706F118000090F36960886CE22079BDF81020039070472DE9F047E8
:20D98C0086B08846044604F1080900F094F8059009F1050204A8009099F80430B9F8021051
:20D9AC00B9F8000004F02CF80027BA4605460FE07268FF21B95480B272688154471C70680E
:20D9CC00328BF169BFB2381805F0BEF8308BC719BFB2BDB1BDF81020297A608803F093FF49
:20D9EC005FEA000A0BD1FFF7C4FF29460598801FFFF735FFFFF7B7FF5FEA000A10D068898E
:20DA0C00A8F80000002F43D0708897FBF0F03080314660880CF039FE002843D0162041E0DA
:20DA2C007FB9FFF79BFF11210BF02EFD706020B96889A8F80000112034E0308B001D708073
:20DA4C0009E0308B7188021D9142DDD10599891FC0198142D8DB7168688978546989726886
:20DA6C0000F023F8BDF81020B9F802100DF11203284604F017F80546781C002DBFB297D07F
:20DA8C007268BDF81210B954BDF81210090A92E7B9F80000A8F80000BAF1000F08BF4FF048
:20DAAC000A0A504606B0BDE8F087781C80B2090A8154471C70476088DFF8AC6607F0A0BFEF
:20DACC002DE9F041044604F1080784B00D463888904602A903F0C2FF06002FD0307A8006F4
:20DAEC000BD5BDF8080000F093F903000BD06088122231469847060021D1787A002814BFCC
:20DB0C005220207901E00E2619E00190002000907B887A683988608800F092FA060007D1B7
:20DB2C00787A70B960880CF0C1FD50B116200CE0162E04D1002688F8006002E00126388811
:20DB4C002880787A00B1002630465EE02DE9FF41044604F108068846308800A903F07EFF52
:20DB6C00002705004CD0287A80060BD5BDF8000000F04EF9030015D060881222294698470B
:20DB8C0007003ED16588284600F004F9010006D14FF6FF7000F0FEF801002DD00D800022FC
:20DBAC00974B02E00E272CE0521C5878D2B2824222D248680C2505FB02000588002DF3D179
:20DBCC000C22314604F0C0FF0C22314601A804F0BBFFB2886088002317210BF055FC039089
:20DBEC0060B1B288B16804F0AFFF608801A90CF063FD48B1162008E0092702E0112700E0E4
:20DC0C0001273088A8F80000384604B0BDE8F0812DE9F04383B089460027044604F1080572
:20DC2C00608800F0B7F85FEA00084AD02878012843D14146284600F050F8A0B1D8F8045067
:20DC4C001820019068880090AB88AA682988608800F0F6F90746162F02D10020A8602CE019
:20DC6C005FB3288827E000250EE0019070880090B388B268608800F0E3F90746162F17D120
:20DC8C000020B0606D1CEDB25D484078854214DAD8F804100C2202FB05121646318861B1C1
:20DCAC006B1C83421DBF9089002816201820DCE7002FE7D03088A9F80000404600F07DF894
:20DCCC002FB960880CF005FD20B1162003E0162F08BF00273846BDE8FE832DE9F84F0C46FA
:20DCEC00002100250E464FF00C0B45480EE0994202BFBCF8027093B2BB4224D1BCF80430CC
:20DD0C005D19ADB29A18761C92B2F6B243789E420EDA63680BFB063CBCF8003043B100295B
:20DD2C00E5D1BCF80450BCF802201946AA18EAE7022E2CDB28004FF0000904D00DF0C4F81D
:20DD4C005FEA000801D1002022E0CA4619E00BFB0A07B96859B1BA8809EB080004F0F4FE03
:20DD6C00B88848441FFA80F9B8680DF0C5F8BAF1000F04D00C220021384604F0E3FE0AF134
:20DD8C00010AB2456068E2DBC0F8088085800120BDE8F28F1A4A5268002100E0491C194B7C
:20DDAC001B78C9B2994206D232F831308342F5D102EBC10070470020704770B504460025B0
:20DDCC000BE0B06808B10DF097F80C220021304604F0B8FE002030806D1C09484078EDB27F
:20DDEC00854206D260680C2101FB050630880028E7D14FF6FF70208070BD00001B470020E1
:20DE0C003C4800205C47002021E10000A048002080B5FFF703FB00B1806802BD30B583B0EC
:20DE2C000C78022C10D14C682578647805EB0424A4B242F60215AC4206D102240194069C37
:20DE4C0000940CF0DEFF3EBD01203EBD2DE9FE4F0D468046287AC00693461E464FF0000AC8
:20DE6C000CD55846FFF7D4FF030000F0E4800A222946404698475FEA000A49D128780C9F3F
:20DE8C000D9CDDF83890022816D100F016F94FF42051401A012810D9801E3AD0401E14D016
:20DEAC00FD3876D0401E00F07D80401E6AD0401E6FD0401E00F09180A7E0002C2AD1E868FE
:20DECC00017839800278416883E0002C22D1012038800021E868007830706889401C80B27E
:20DEEC0003F0BCFD398860B10278921C51183980418971704189090AB17002784168F01C76
:20DF0C0068E0081D388004220021701C04F01AFE93E0002C62D1E8680488042038803470C3
:20DF2C00200A70700DF10201204603F097FD05001ED0EC68BDF802204FF6FF7800AB4146D1
:20DF4C0003F0B0FD40B92B786A689648022107F0E7FC08B9ADF80080207802280AD1616880
:20DF6C000222301D04F0F0FD3888801C388001E0ADF80040BDF80000B070BDF80000000AD5
:20DF8C00F0705AE054BBE868016840460CF01DFF02E01CBBE8680088022139803070000A5E
:20DFAC0070704AE0E86805F020F982B2A242B8BF4FF0070A41DB944208BF002206D009EB69
:20DFCC0004019142B2BF4A46121B92B23A80E9686118304604F0B8FD2FE014B14FF00B0A20
:20DFEC002BE0E8680721398001783170417871704188B1704188090AF17001793171C18899
:20E00C007171C088000AB07117E05846FFF706FA00281CBFD0F800C0BCF1000F0BD00F984B
:20E02C000290CDF8049000943B46324629464046E047824601E04FF00E0A5046BDE8FE8F78
:20E04C002DE9FE438046894617461E4602A9484603F004FD05002CD0BDF80800FFF7DEF94F
:20E06C0000281CBFD0F804C0BCF1000F1FD00A980B9C0090019433463A4629464046E047D7
:20E08C00060017D1FE2C15D02878022812D100F014F842F6021188420CD13878797800EB50
:20E0AC00012292B24946404600F060F802E00E2600E001263046BDE8FE83686801784078D6
:20E0CC0001EB002080B27047704700207047E0B58DF808200223120A8DF80920FE220192CD
:20E0EC000022009202AAFFF7ABFF0EBD38B504462D480D46816820460CF067FE800705D539
:20E10C0029462046BDE8344003F041BC012032BDAC4500207CB50129044605D0022922D15C
:20E12C0001210BF021FCF0B92046FFF733FE08B1FFF743FE01A800904FF6FF7502231B4AF7
:20E14C002946012003F05CFC0BE0F068016820460CF07DFEBDF8042000232946304603F07B
:20E16C00A1FC0600F1D173BDC4470020F8B5104F04463878FF280D46164611D00A2004F0F8
:20E18C00B1FC68B1B12101704480002141700171C580068101463878BDE8F44004F0A9BD6C
:20E1AC00F1BD00001CAA01003C48002030AA01001B4700200A7802704A7842708A78C97832
:20E1CC0002EB0121418070472DE9F0420C46062C84B0074615461E460CD1688800F0BBFD2B
:20E1EC00019008B9022037E0C068408828800198C78807E00C9A0B9901AB00F0F7FC5FEAFF
:20E20C00000928D101990A980870DFF8100C0178491CC9B201B901210170142C0198017158
:20E22C0006D10198408868800199C9682889088100962B46019802792146384600F00FF8B6
:20E24C005FEA000904D101981E2100F0E9FD02E0019800F01CFD484604B0BDE8F0822DE9EA
:20E26C00F041044684B00E4617469846172000F0FBFE050025D00A9A100003D04146281DE7
:20E28C00904700E00020010A2E70E9706F70A8700521001DADF80800ADF80010019500A9BE
:20E2AC00DFF8C40C00780028204602D000F0DBF901E000F009F8040004D028460CF01CFEE1
:20E2CC0000E013242046FDE010B50B88DFF89C2C0C2404FB0322303A536833B94B68536016
:20E2EC00098950811181002010BD162010BD80B5052000F019F858B9062000F015F838B9AD
:20E30C00042000F011F818B9072000F00DF808B1012002BDDFF8580C007800281CBFBDE8F3
:20E32C00014000F025B802BDDFF8401C0C2202FB001110B5A1F1300484B06168A9B1DFF8DC
:20E34C00282C12787AB1ADF80000019100A92089ADF80800608900F086F910B160680CF095
:20E36C00CBFD00206060012000E0002004B010BD2DE9F843DFF8FC4BDFF8F45B94F8009096
:20E38C00DFF8F48B4E46D8F8000000EB06173878012811D1F86800281CBFC16800290BD064
:20E3AC00018891B9407FFF2806D16221384600F0B4FBF96800204877761C2878F6B286423F
:20E3CC0028BF00264E45DED10646287886421AD2DFF8940B0078A0B1D8F8000000EB06172B
:20E3EC00384600F013F8010003D0384600F060FD09E0761C2878F6B2864226BF00202070D9
:20E40C002670012000E00020BDE8F2832DE9F0410446DFF82C0CE56800886A8A84B0EE880C
:20E42C00B04238BF0646288A22B9811CB14206DA871C05E0811AB142B8BF871A00DB374618
:20E44C00B8B200F011FE5FEA000839D06888ADF80000CDF80480ADF80870688A50B9288A45
:20E46C0008F8010BBFB2000A08F8010BB7422CBFBF1E2F8AE868698ABFB209183A464046A8
:20E48C0004F062FBE08800A900F0EDF8060013D12888401E2880698A2A8A7918698289B23B
:20E4AC00914204D30021204600F002FD09E080B238B9FF20687704E040460CF01DFD00E0C6
:20E4CC001326304604B0BDE8F0812DE9F0470F4684B08146388800F03EFC06001CBFF468F3
:20E4EC00002C7AD0F088484577D12089002870D0401EDFF8508B227F208180B2D8F80010D8
:20E50C0001EB0211C988884203D16321304600F004FB606920BB78680178427801EB02254E
:20E52C00ADB23A89A91C91426FF0010A0BD151460CF0B6FC78603D813A46307A494600F04B
:20E54C0067FA68B94AE028460CF0BEFC60612583514678680CF0A4FC78603889801E388173
:20E56C006069A0B3638B3A89258BD1188D422CDBD8F8005094F81CE005EB0E156D888D42D4
:20E58C0021DB7968181804F0DFFA608B39890818608380B2218B88421FD17088ADF80000B0
:20E5AC0000AA606901904946208BADF80800307A00F02EFA10B160690CF09EFC00206061A1
:20E5CC006083208309E0052104E0042102E0092100E00621304600F09FFC012004B0BDE803
:20E5EC00F087F0B585B004460D4616461F460A22002101A804F0A6FAADF80C60AEB978885E
:20E60C00ADF80400DFF8380A0088ADF80800F86858B1DFF8301A027F096801EB02114988AB
:20E62C00ADF806100089ADF80A0001AB0FF2093000902A4615212046FFF711FE040008BF89
:20E64C00002E09D1012038700022002038710146384600F026FA03E017B1384600F017FBF2
:20E66C00204605B0F0BD70B50D460446288920B1DFF8CC190988814201D21B2070BD686867
:20E68C0004210CF00DFC0646288930702889000A70702888B0702888000AF0702889051D4F
:20E6AC004FF6FE70844213D10C2004F01BFA01000CD0902008704C8002200871CD808E6015
:20E6CC00DFF88409007804F014FB17E0132070BD3346AAB2002120460DF0D6F9010007D0F8
:20E6EC0002280DD007280FD012280BD01F280CD1DFF87408017809B1491E0170002070BD15
:20E70C00142070BD022070BD042070BDF8B5044600200D4660602879022826D1E888042864
:20E72C0023DBA9680A784B7802EB03268A78C978B6B202EB0127311D8142BFB215D1052F07
:20E74C0018BF042F07D0062F18BF072F03D0384600F001FB48B1268127806FF00301A86893
:20E76C000CF09EFB60600020F2BD0120F2BD0B88037002220B881B0A43700B88012B06D16E
:20E78C004A88827004224988090AC1700CE0022B0AD14A8882704A88120AC2708A88027111
:20E7AC0006228988090A417110467047022A1BDB0A784B7802EB032202800288012A05D1BC
:20E7CC008A78C97802EB012141800BE0022A09D18A78CB7802EB032242800A79497902EBDE
:20E7EC000121818000207047012070470A8802700A88120A42704A8882704A88120AC270F3
:20E80C008A8802718A88120A4271CA888271C988090AC17108207047082A18D10A784B786C
:20E82C0002EB0322028011F8022F4B7802EB0322428011F8022F4B7802EB0322828011F84D
:20E84C00022F497802EB0121C180002070470120704705E0022A00D10EE00120704700BF54
:20E86C000A8802700988090A417002207047022A00D101E0012070470A78497802EB012152
:20E88C0001800020704780B54B8800F8013B04224B881B0A00F8013B0B8800F8013B0B882C
:20E8AC001B0A00F8013B0B8873B94B88022B04D1496804F0C6FC082206E0032B04D10822BB
:20E8CC00091D04F041F90C22104602BD10B50446042A084627DB0178437801EB03216180E3
:20E8EC0010F8021F437801EB03212180801C218899B96188022906D1082A14D1042104F0C5
:20E90C0089FC60600DE0032908BF0C2A0BD101460822201D04F018F903E0012908BF042AFF
:20E92C0001D1002010BD012010BD07E00A2A00D124E001207047000000BF00BF0A880270D4
:20E94C000A88120A42704A8882704A88120AC2708A8802718A88120A4271CA888271CA886A
:20E96C00120AC2710A8902720989090A41720A2070470A2A00D101E0012070470A784B78F9
:20E98C0002EB0322028011F8022F4B7802EB0322428011F8022F4B7802EB0322828011F8EC
:20E9AC00022F4B7802EB0322C28011F8022F497802EB012101810020704705E0042A00D1BC
:20E9CC0013E00120704700BF0A8802700A88120A42704A8882704988090AC1700420704789
:20E9EC00042A00D101E0012070470A784B7802EB0322028011F8022F497802EB01214180AF
:20EA0C0000207047E0E7042A00D1EEE701207047F8B504460D461646102004F063F8070074
:20EA2C0016D0A02038707D80002078702EB10C223146381D04F088F804E00C220021381DA2
:20EA4C0004F080F83946204604F053F90020F2BD0120F2BD2DE9F04180460D4616461F4659
:20EA6C00202004F03FF8040019D0A220207066706580069820716771079929B1182204F175
:20EA8C00080004F061F804E0182204F1080004F059F821464046BDE8F04104F02AB9BDE876
:20EAAC00F08170B50D0088B0044616460ED1162200F070F8ADF8086036B96088ADF80A00C7
:20EACC0003A9E06800F069F802A800E0002001906023002000902A46E188207AFFF7BAFF55
:20EAEC0008B070BD00B585B059B9ADF80C204288ADF80820C26802B15288ADF80A2002AA8F
:20EB0C0000E0002201926123002200920A46C188007AFFF79FFF05B000BD30B5044689B09B
:20EB2C00E0680D4638B34188ADF80A10622D18D1DFF80C25C18812888A4238BF1146428A72
:20EB4C00008A801A80B20AB9801C80B290FBF1F2ADF80C2001FB120080B1BDF80C00401C27
:20EB6C0006E0DFF8E014007F096801EB0010C088ADF80C0002E0062200F00BF86088ADF869
:20EB8C0008002B4602A80190002200F0C0F909B030BD002102A803F0D5BF38B504460D4668
:20EBAC0012220021284603F0CDFFF4B1DFF89404217F00680901095A2980217F00EB0111F8
:20EBCC0049886980DFF878140988A9802188E98061882981A1886981E188A9812189E981F3
:20EBEC00217F00EB0110C088288231BD2DE9F8435FEA030904468846164645D001210AF042
:20EC0C00B3FE00283ED0DFF84404DFF86413007809780025002E0CBF0D46084600E06D1C73
:20EC2C00EDB2854226DADFF85023126802EB051779880029F3D14EB120200CF073FDF860A4
:20EC4C00C0B12022002103F07DFF01E00020F8600020387005F1400078805FB1FC805EB17B
:20EC6C00707A3872DFF8DC030068F968301A0011087703E0152008E087F80880C9F8007063
:20EC8C00002002E0142000E00120BDE8F28338B50446E56855B1E86808B10CF02DF9686991
:20ECAC0008B10CF029F928460CF02EFD10220021204603F047FFFF20607231BD10B5DFF86F
:20ECCC0084231368002100E0491CDFF884231278C9B291420AD20C01E25A002AF4D10146EF
:20ECEC001022E01803F030FF002010BD152010BD30B5A14B1B680021002203E0844208BFC6
:20ED0C00491C521CD14C2478A2420DDA1401E55C002DF6D0E418E468002CEFD0C94D247F5B
:20ED2C002D6805EB0414E9E7C8B230BD10B5002101E0491CC9B2C64A1278914209DAC14BF0
:20ED4C001B680A01D45A002CF3D08442F1D1D01810BD002010BD002201E0521CD2B2BB49D9
:20ED6C0009788A420ADABB49096801EB02114B88002BF2D08342F0D10846704700207047C0
:20ED8C0010B5002300E05B1CB34A1278DBB293420DD200F026F8F6D0D4888442F3D1D4686A
:20EDAC00002CF0D064888C42EDD1104610BD002010BD10B5002301E05B1CDBB2A34A12788F
:20EDCC0093420CDA00F00DF8F6D01478062C01BF14798C42D4888442EED1104610BD0020B4
:20EDEC0010BD9C4A126802EB03125488002C7047002201E0521CD2B2944909788A420BDA15
:20EE0C009449096801EB02114B88002BF2D00B798342EFD10846704700207047B3480020D9
:20EE2C004FF47A724A4300F1090301460FF215000BF09DBA10B50446607A0BF02CFAFF2035
:20EE4C00607210BD10B504001CBF6088002807D01721204600F005F82046BDE8104016E799
:20EE6C0010BD1CB50446207804280AD10020019000900A46E188207A1323FFF7EBFD122223
:20EE8C000FE0022818BF062805D100222046FFF708FE142205E0032809D1002200F04AF87A
:20EEAC000622E18802B0BDE810400520B2E013BD70B5044688B0E668F0680D4618B10CF022
:20EECC001BF80020F060E06878B10188ADF80A104188ADF80C100189ADF80E10418AADF8A3
:20EEEC001210008AADF8100002E00C22FFF751FE6088ADF80800642302A801902A4600F099
:20EF0C0006F8002075773082708208B070BD00200090E188207A9DE538B504460D466088AB
:20EF2C0008F051FE2A4600F004F82046BDE83240ADE600212046D5E500B583B0ADF8041030
:20EF4C00ADF8062045490A78531CDBB2002B06BF012301221A460B7001AB414900911621BE
:20EF6C00FFF77DF90EBD0000A246002094470020A4460020B4480020A846002007212DE9D9
:20EF8C00F84381460F460025324EDFF8CC8013E0306800EB0514207868B1E08848450AD136
:20EFAC00072F04BF608808F00EFE3A46FFF7C1FF2046FFF76CFE6D1C98F80000EDB28542E5
:20EFCC00E6D32FBB16E0306800EB0517387800281CBF787AFF280CD0F888484509D13846E0
:20EFEC00FFF728FF14213846FFF73BFF3846FFF74EFE6D1C15480078EDB28542E3D30425A2
:20F00C00FF224946284600F005F86D1C082DF7DBBDE8F18310B5134B0C2404FB0030A0F11D
:20F02C003004608988420AD1606840B1FF2A1CBF0178914203D10BF05FFF0020606010BD1F
:20F04C0014470020AC460020A0460020A1460020A3460020A8460020A4460020B3480020CE
:20F06C0011EA00009447002080B5001D80B20CF01BFD28B1BDE804406FF003010BF010BF07
:20F08C0002BD704700207047B44940880978FFF72DB87FB5064623250024E8B210216A468F
:20F0AC0007F083FF68B96846FF21102203F058FD38B9684631460CF089F8002808BF201CA4
:20F0CC0004D0641CAD1D0A2CE7DB0A2000907FBD1FB50A280C460FDA74B1410001EB800104
:20F0EC006A462031C8B20E2107F05FFF20B920466946062203F028FD00901FBD70B5BB4D3E
:20F10C000646002428463146062203F036FD002818BF201C04D1641C0E350A2CF2DB0A2040
:20F12C0070BD70B5B14C06460025A41F20463146062203F022FD002818BF281C04D16D1C88
:20F14C000E340A2DF2DB0A2070BD70B5012814460E4615D9801E08D0401E1ED10846FFF715
:20F16C0098FF05460A2D06DB18E00846FFF7C6FF05460A2D12DA8CB12146FFF7A9FF0DE0EB
:20F18C000846FFF7CEFF05460A2D07DA34B120463146062203F0D8FC00E00A25284670BD94
:20F1AC00011F4FF6FF73042031F8042F5A400A808A78401E82F0FF028A70F5D17047091F56
:20F1CC00042231F8043F984208BF081C02D0521EF7D100207047B0B505460F461446680024
:20F1EC00ADF1200D0E2100EB85006A462030C0B207F0DBFE00282ED16846FF21062203F047
:20F20C00AFFC40BB7035E8B210210DF10E02054607F0CBFE002832D10DF10E00FFF7C0FFC7
:20F22C0067B90DF10E000021102203F099FC30BB0DF10E00102203F085FC16E038460DF1AC
:20F24C000E01FFF7BCFF48B92CB100200DF10E01FFF7B5FF08B9002012E0078081788C420C
:20F26C000DD084700CB9002101800DF10E00FFF797FF284610210DF10E0208F005F80120EF
:20F28C0008B0B0BD70B50E464FF6FF71154681420FD00AF03BFBA8B14279811D10460022B8
:20F2AC00FFF753FF0A280DDA31462A46FFF793FF70BD002431462A462046FFF78CFF641CD3
:20F2CC000A2CF7DB70BD70B5244CE069216A8588ADF1180D61B904F11000C14A00904FF6B5
:20F2EC00FF710223012002F08BFB0146216221B304A800900026019602230293FF220392CD
:20F30C00228A28460DF11203FEF7A0FD58B99DF813009DF81220216A12EB002204D0498952
:20F32C002846FFF7AFFF216A228A084633464FF6FF7102F0B7FB01462162002001B9012093
:20F34C0006B070BD10B5054CE06920B1E06903F0DEFB0020E0610A20607310BDC443002027
:20F36C0038B5BA4D00242846FF21062203F0F8FB002818BF201C04D1641C0E350A2CF2DBF7
:20F38C000A2038BD38B50CF07BFBB04D0A242846FF21062203F0E4FB18B9002029460CF0D4
:20F3AC006BFB641E05F10E05F1D138BD70B5A74E0A2500243046FF21062203F0D1FB08B9EE
:20F3CC00641CE4B20E366D1EF4D1204670BD08B5FFF7ECFF0228B4BF0A20022001216A468B
:20F3EC008DF8000005200AF095F808BD08440020DFB5974C0F46E169064659B9FEB1F7B1D4
:20F40C00FFF78FFE0A28607302DBFFF7A9FF6073E16900E0607B0A2811DA00294DD08A68B0
:20F42C00002A3ED10A69002A2FD14A690ABBCA683AB9E07A08B1FFF7A5FFFFF7C8FF0120C2
:20F44C005CE0410001EB80012431C8B2102107F01BFFE769617BFA68480000EB8100103221
:20F46C0025300421C0B207F00FFFE1690020C86043E0410001EB80012331C8B2102107F036
:20F48C0003FFE1690020486137E0410001EB80012231C8B21C2107F0F7FEE16900200861BD
:20F4AC002BE0410001EB80012131C8B21C2107F0EBFEE169002088601FE0410001EB80019F
:20F4CC0032462031C8B20E2107F0DEFE6846FF21102203F037FB607B10216A467030C0B2E8
:20F4EC0007F0D2FE617B0E220801A0EB4100201831463E3003F028FBE76100200090DFBD91
:20F50C00F0B5534C0546607BADF13C0DA84209D12078012103F07DFC2078022103F079FC81
:20F52C00FFF710FF6C0004EB85040E210BAA04F1200004F12007C6B2F8B207F036FD00284D
:20F54C004BD10BA8FF21062203F00AFB002844D10BA80E2203F0F6FA04AFFF211C223846FE
:20F56C0003F0F0FA6846FF21102203F0EBFA30460E210BAA07F088FE06461C2104F1210054
:20F58C003A46C0B207F080FE1C2106433A4604F12200C0B207F078FE102106433A4604F10D
:20F5AC002300C0B207F070FE102106433A4604F12400C0B207F068FE2534042106433A461C
:20F5CC00E0B207F061FE703510216A4640EA0604E8B207F059FE204300E000200FB0F0BDC6
:20F5EC0030AA01002DE9F041DFF8648000270A25202608F13E0430460E21224607F0D5FC76
:20F60C0050B12046FF21062203F09CFAA01DFF21062203F097FAA7816D1E04F10E0406F16C
:20F62C000606E8D198F80B0008B1FFF7ABFEFFF7CEFEBDE8F08110B50024204628B9204698
:20F64C00FFF75EFF641C0A2CF8DB10BD02440020C44300202DE9FC410346DFF8B8C2DFF8A4
:20F66C00A482DFF8A8E2AA4EA74815460024A3F58062102A0AD8DFE802F0A59E968F887FD3
:20F68C007773695D5650483C093513C0272B27DA022925D12988184609F076FA04469AE0C3
:20F6AC00072940F09780691C6846062203F075FA287869462246FFF748FD05460A2D0FDAAD
:20F6CC000AF053FA38B92846FFF71AFF07F034FEFFF788FF7FE0404601211A3041557AE082
:20F6EC00022478E0012975D12978042972DA40466EE001296ED1B44A2978D07A0028D17265
:20F70C0069D12878012866D1E2E7012962D1297807295FDB10295DDC16E001295AD1297814
:20F72C000A2957DA26E0012954D12978022951DA70463EE000294DD10AF017FA10B9FFF728
:20F74C007AFFC3E701214046801C41E0042941D129689C4888423DD340460A3001603AE04C
:20F76C00012937D1297824E0012933D12978022930DA7046064614E010292BD14046294682
:20F78C001022243003F0E0F925E0012922D1297802291FDA30460CE001291BD129780429DE
:20F7AC0018DC304614E0012914D12978022911DA6046401C0CE002290CD129884046001DCF
:20F7CC00018008E0012905D12978022902DC6046017000E018242046BDE8FC8190B50F46B5
:20F7EC0004462022ADF1240D0021684603F0AAF9ADF80040744C764AE01C0178069B8DF83D
:20F80C000410417880791A408DF81C00207A8DF8051000F003030101134301F480721A4355
:20F82C006A4B00F0040001F4C0611340194308430690207930B10DF1060004F12E01102299
:20F84C0003F082F9607920B11FB1069941F002010691002100B10121A7789DF81600002F5D
:20F86C0041EA00018DF816100CBF002004209DF8161008438DF816000021684602F05FFDD8
:20F88C0009B090BDF0B5082B05AF15460446ADF11C0D04D1480000EB8100223003E0480058
:20F8AC0000EB81002130C6B200211C22684603F049F91C216A46304607F077FB60B99DF84B
:20F8CC001A00072808DB102806DC3B78204605F001016A4602F0CEFD07B0F0BD410000B5FF
:20F8EC0001EB8000ADF1140D20300E216A46C0B207F05BFB002814BF00209DF80C0005B072
:20F90C0000BDC046CE430020CB430020C9430020C7430020C5430020FEB5054600210622F4
:20F92C0001A80BF098FC284609F0F0FF071C23D0BA4C207802281FD07879B91D01AAFFF7F8
:20F94C0004FC06460A2E0DDB207830B1012813D179792846FFF742FFFEBD2846052102F0D1
:20F96C003BFDFEBDFFF7BAFF024631460823012000902846FFF786FFFEBD70B50AF0F5F88E
:20F98C00F8B9114C207B01280ED0002523342E4614F8010F012803D13046FFF7B1FD2570F3
:20F9AC00761C0A2EF4DB08E0FFF745FE002104F124000A22217303F0C5F807F0BDFCFFF731
:20F9CC0011FE70BD3F420F00C4430020FBF9FFFFFCFEFFFFF0B50446BA4DA178A869ADF180
:20F9EC00140D891F00F0A380C91E00F08A80491E46D0491E2FD0491E00F09580891E40F018
:20FA0C0098806178261D06291CD1A08809F07EFF071C16D0A87A401E0FD0401E07D0401EF1
:20FA2C000FD1002140F209400A46FFF713FE38783188052202F0EAFB03E030887979FFF7FD
:20FA4C00CDFEA869002874D04368002B71D030886278022153E008B1076857B96869618960
:20FA6C0002F0E2FC002864D06089012102F0B4FC5FE06189227B637BE01C3C46A04758E060
:20FA8C006678002776BBA17949082BD3EE694EBB684639460E2203F055F8606938B9A088DC
:20FAAC0009F034FF002844D0801D014601E0616910316846062203F047F8A079BDF80C1010
:20FACC00C0F380000843ADF80C0021466846FFF78FFC28B92878022103F04EF9384629E0F0
:20FAEC00A869152728B343681BB3A088627801219847F7B1A8694368A08803213A46984747
:20FB0C0017E0E078211D0022FFF71FFB0A2810DA410001EB800004F10C0225300421C0B262
:20FB2C0007F0B2FB05E0A088FFF7F6FE01E0FFF724FF012005B0F0BD0246107920B950881F
:20FB4C00D1881289FFF79EBB704730B50C464100ADF1140D01EB800020306A460E21C0B25B
:20FB6C00054607F022FA28B96846FF21062202F0F7FF08B1002012E0BDF80C10002CC8B21A
:20FB8C000CBF20F0020040F00200814206D0ADF80C000E216A46284607F076FB012005B075
:20FBAC0030BDF8B50C464FF6FF711525814215D009F0ACFE071C0FD07879B91D0022FFF732
:20FBCC00C4FA0A2803DA2146FFF7BFFF00259CB13846FFF759FA0FE014250DE00026214656
:20FBEC003046FFF7B2FF00B10025761C0A2EF6DB14B19A4809F01FFF2846F8BD10B504467B
:20FC0C0021791E2904D160880021FFF7CAFF217904F1080009F074FC10BDC046C54300205F
:20FC2C0010B501780124B0390AD0491E05D01F3908D1FFF7CFFE044604E0FFF77DFF01E0E1
:20FC4C00FFF7DCFF204610BDB0B51E4D28780C46E10BC90338D1A00824D2600806D2E0084B
:20FC6C0028BF84F004043BD20020B0BDFFF72BFB002808BF84F001041BD0A86968B1436837
:20FC8C005BB1E8698088012100229847A869EF694368B888032100229847FFF753FB84F09F
:20FCAC0001041DE000200146FFF7A2FB18B184F00204012102E0022184F00204287803F0C5
:20FCCC005BF80DE0C443002002F08FFF071C05D0FFF7A6FF10B1384602F019FF84F4004499
:20FCEC00A0B2B0BD2DE9F0430C46904607461D46ADF1340D002106220AA80BF0ACFA38461F
:20FD0C0021460AAAFFF721FA834E04460A2C13DB082D5FD1707802285CD140463946FFF7CD
:20FD2C005DFDB069002855D04368002B52D0002140460A4698474DE0FFF7D0FD7178074603
:20FD4C000020022908BF01202B4621463A4600904046FFF797FD0DF114090021142248466C
:20FD6C0002F0F0FE650005EB840505F1240010214A46C0B207F019F988B94846FF21102242
:20FD8C0002F0EEFE58B9253509AA0421E8B207F00CF9404607F001014A4602F0ACFA703455
:20FDAC00102101AAE0B207F000F968B901A8FFF7F7F904246D4635F8041F19B1AA7840468C
:20FDCC00FEF785F9641EF6D1B80803D331784046FEF78CF90DB00020BDE8F08338B50546EF
:20FDEC00104659B94D4AB0FBF2F15143401A294602F01AFB041C05D0012100E0002428467D
:20FE0C0002F0EAFA204638BD10B5434C2178A061262008F0B9FE2078FDF7B4F910BD80B587
:20FE2C0007460623203F012097FBF3F25A43BF1A10D07F1E012F0AD9BF1E012F04D9BF1E7C
:20FE4C000BD1042908D080BD102905D080BD1C2902D080BD0E2900D1002080BD95F00000EF
:20FE6C002D492DE9F04F8646ADF1140DC87ACA7803902B4C00924B7891F8098091F807A0FB
:20FE8C0091F80690087A4F6902908A784879CE89019008790025AEF5806CBCF10E0F09D8E0
:20FEAC00DFE80CF0302E2C2A2923201E1C081918171512C0BEF1270FA8BF022523DA7046BC
:20FECC0008F070FE20801EE0FFF770FA13E0DDF80C80C246D146CDF8089001E0276012E088
:20FEEC00029801900198024608E02E312046102202F02AFE07E00090009B03E01046FAE7C5
:20FF0C003046DFE72370284605B0BDE8F08F02490870FFF767BBC046C443002040420F0026
:20FF2C00274700202DE9F041DFF8CC5BDFF8CC8B2878282460430BF0F5FBC8F8000008B9B9
:20FF4C0013202DE00027FF260FE018801822002098705E721E72987283F82400002103F102
:20FF6C000C0002F0EFFD7F1CFFB2287887420ADAD8F8000004FB0703002F0CBF4FF6FE706C
:20FF8C004FF6FF70E1E70FF2C94009F048F90FF625400AF0EFFB0FF6794009F051FC002023
:20FFAC00BDE8F081DFF8581B08707047F0B583B000F0B9F907000DD1294620460AF0DDFBA0
:20FFCC00070007D10198DFF83C3B00960322294600F04AFD3846FEBD70B588B004460120ED
:14FFEC00ADF808000D464FF6FF70ADF80A0001A902208DF84D
:020000040001F9
:200000000C00002000F077F9204600F053FD06000CD102A920460AF013FC060006D101983B
:20002000DFF8F03A0095112200F06BF9304608B070BD2DE9F0411646022E18BF102E88B028
:2000400080460D461F4622D10DB301A900F032FD04001DD10120ADF808008DF80C604FF6B0
:20006000FF70ADF80A00324629460DF10D0002F071FD02A9404600F0DEF8040008D10198A3
:20008000DFF8943A0097072200F03BF900E002242DE100B587B000F01BF88DF80510ADF895
:2000A000022028218DF8061000220CE000B587B000F00EF8ADF8022003218DF805100022A3
:2000C00028218DF8061000A900F0DEF807B000BDADF8001002218DF80410704713460122B5
:2000E000D2E070B584B00446ADF80410ADF806201D4602A900F0DEFC06000DD101A920465B
:200100000AF054FB060007D10298DFF8103A0095052201A900F0AEFC304604B070BDF2E0D4
:2001200013460022B0E009E1F0B583B000F001F907000DD1294620460AF070FB070007D10A
:200140000198DFF8DC3900960F22002100F092FC3846FEBD38B500F019F8172807D0287AD5
:20016000002804BF687A012800D114E0022032BD38B500F00BF8172807D0287A012804BF2F
:20018000687A012800D106E0022032BD0D46044600A900F08FBC294620460AF05DFB32BDF5
:2001A000E2E004E12DE9F0410E00174618BF002F86B080461D4635D005F028FCC0B20021D0
:2001C000421F0C2303FB01639B889A4201DA1B202AE0491CC9B2B942F3D301A9404600F04D
:2001E00069FC04001FD1B0680090B38872883188404600F010F9040015D100208DF81100F1
:200200008DF8107001208DF8080003968DF8125017220C98DFF80C39009002A9019800F0EE
:2002200029FC00E00224204606B0BDE8F0816AE084E099E0BBE030B50D4685B02A79044645
:200240000023062109F026F90390C8B12888ADF80000691D688800F066FB002000F05DFBAC
:200260002A790398ADF8082002F074FC00A920460AF0A6FA040004D003980AF043FE00E0DA
:200280001324204605B030BD2DE9F04188B00D46804616461F4601A900F00CFC040026D129
:2002A00086B12888ADF8080002A96888ADF80A0002208DF80C00032000F01DF840460AF005
:2002C00091FA03E0294640460AF08CFA04000ED1162229460DF10A0002F03CFC0198DFF80F
:2002E00048388DF808600097092200F00AF8204608B0BDE8F0818DF80D0028208DF80E003C
:20030000704702A9B6E3F0B583B000F012F807000DD1294620460AF071FA070007D1019879
:20032000DFF8083800960B22002100F0A3FB3846FEBD0D460446164601A9BBE3F0B583B0E2
:20034000FFF7F7FF07000DD1294620460AF05CFA070007D10198DFF8D83700960D22294615
:2003600000F088FB3846FEBDF0B50D460446287A83B0002804BF687A0028164614D101A9DA
:20038000204600F097FB07000FD1294620460AF063FA070009D10198DFF898370096132277
:2003A000002100F067FB00E002273846FEBDF0B587B00E460546144601A900F07BFB07009C
:2003C00026D1284605F022FBB388401F834203DB284605F01BFB431FB06800907288318833
:2003E0009BB2284600F017F8070011D100208DF808000C22314603A802F0ACFB7088DFF8F5
:200400002437ADF81800009417220198FFF779FF384607B0F0BDFEB50D4616461F460446FD
:2004200000233A46162109F035F8029098B10899ADF80050ADF80260ADF804703A4602F0B9
:2004400089FB00A920460AF02BFA040004D002980AF058FD00E013242046FEBD2DE9F043A8
:200460000E4687B0804630781746002460B97078012809D0B0781B2818BF1D283CD1DFF894
:200480008C562978FF2901D1062092E01D2812D1404600F023FB04001CBFA27A002A0AD08C
:2004A00010062ED4B178404608F0B1FFA07A40F08000A07225E001A80090B388B268717875
:2004C000307805F0D6F95FEA000971D101A800900022B3782878414608F03DFF5FEA0009E9
:2004E00066D1029808B100203870B0781D285FD1002C5DD0A0725BE0404600F0EFFA040004
:2005000001D1002055E0B07801281DD1B188B06801AA04F0F3FF5FEA000949D1A0780528E2
:2005200018BF072808D009281CBF0D28112803D0172817D12069A8B1B27801AB21464046C4
:2005400000F03AF8387033E0A178884207D16368180004D0B188B06801AA9847DBE74FF070
:20056000040925E0DFF8D015607A0978884210D001A900910022B378414608F0ECFE5FEA6E
:20058000000906D1B17801A808F05AFF08B100203870A078032808D1A189BDF80400814215
:2005A00088BF0146404608F01FFF204600F0D0FA484607B0BDE8F0832DE9F04782460E462B
:2005C00082B0B078052815461F464FF0010806F10C0147F230540BD0072817D0092834D0A5
:2005E0000D2838D0112876D0172800F0A38052E03A462946304600F0BBF80446002C4BD121
:20060000012D49D138790A284BD15BE0072D14D100F0A8F83A88786800EB820010F8042D67
:20062000407802EB00204A8880B290421FD2401C08803088FFF7FFFD24E038790A282AD1BE
:2006400096F8240038B30024DAE73A462946304600F0BEF8D1E70D2D1AD100F083F88946F6
:20066000308805F0D3F93988401E814201DA002417E0B9F802000818A9F80200494630886C
:200680000AF0C2F8307A214609F0DBFD162408E038790728D4D00124092D04BF3888002818
:2006A0000ED000972B46707A0022514608F053FE30B92946384608F0C3FE08B14FF00008D9
:2006C000002C47D1002000901A22B378707A514608F041FE40E0112D4FF6FF7011D13A8851
:2006E0007B88521E5A4396F824305B1C86F8243092B27B68D2189378D27803EB022292B203
:2007000007E03A790A2AC6D196F82420002AC2D00246824297D0501C088080B24A888242B7
:2007200091D330880AF08CF8307A214609F089FD1624B1E7087801283A462946304602D1DC
:2007400000F03AF901E000F0F8F80446012C3FF455AF04E0162C02D0304600F0F9F9404631
:20076000BDE8F68796F82400401C86F82400704710B50529044621D100F0C4F804F10C0113
:20078000108853689278012A03D103EB8000001F03E0122202FB00301238027840784B88DD
:2007A00002EB002080B2984210D2401C0880208809F0FCFF00F0ACF8162010BD10790A286C
:2007C00002D194F8240008B9012010BD002010BD2DE9F0470446092986B0164604F10C0599
:2007E0003ED130887188401E484394F82410491C84F8241080B27168425C4018407802EBD5
:2008000000272878012855D1308871884FF0000848431FFA80F9A6F80080C246CA4549DA55
:200820007088A979431F70685044421D9BB2E81D05F07CF878B1C24506D0706872880AEBE9
:200840000001404402F086F9708840441FFA80F83088401C3080708850445FFA80FADDE7AE
:2008600030790A2803D194F82400002846D1AB79B24800F05EF8002836D1AB79B04800F03B
:2008800058F8002830D1AB79AE4800F052F858BBAB79AD4800F04DF830BB3079022818BF95
:2008A000052804D008281CBF0F280C281CD100F029F87788BFB24FF6FF7087421ED0A888B8
:2008C00087421BD22978781C012968800ED1ADF8000000A9A88800F026F8032000F01DF888
:2008E000208809F07FFF05E0012008E02088A91C09F078FF00F00CF8162000E0002006B02E
:20090000BDE8F08794F82400401C84F824007047207A47F2305109F094BC8DF805002820E9
:200920008DF806007047ADF8020002208DF804007047EA1D022104F0F9BFF0B50E46172E58
:2009400083B0044647F2305527D1208804F10C0705F05CF8398A3B89421F511839823A8A9B
:20096000F988511A89B2994215DAA0F1050EA3EB010CE645B4BF431F5B1AF86808180090C2
:200980009BB2B9882088FFF746FD30B9207A294609F057FC0EE0012000E0002000F064F84F
:2009A000012E01D10120FEBD207A294609F049FC00F055F81620FEBD2DE9FC410E460446F4
:2009C000172E104604F10C0747F2305837D179687A7A0C2505FB021C0288BCF80010914266
:2009E00002BFBCF802104288914202BF8288BCF80410914223D18168DCF8080002F0C3F807
:200A0000E8B1787A397A401C7872C0B2884214D2796805FB001CDCF808000090BCF80430DF
:200A2000BCF80220BCF800102088FFF7F4FC30B9207A414609F005FC0EE0B87A00E000206A
:200A400000F012F8012E08BF012006D0207A414609F0F7FB00F003F81620BDE8F68119202D
:200A6000A0703A48606070478DF8040001A9208809F026BF2DE9F041069CFF2C05460E4601
:200A80001746984614D005F108031E2229460FF24D1008F08BFC6C72AF70C5F804803EB17D
:200AA000314605F10C00BDE8F041182202F052B8BDE8F08110B50C4600F010F860B104B1C6
:200AC0002060007AFE2801D1172010BDFF2801D1002010BD162010BD022010BD10B50A4A2F
:200AE0001268002100E0491C064B1B78C9B2994206D228234B439C5A8442F4D1981810BD2D
:200B0000002010BDB0480020984800201847002037550100975701001756010071550100A0
:200B2000835701000958010097560100D75601005157010005570100B148002018AA01007A
:200B40001CAA010020AA010024AA010055580100F8B5064606F1080008F030FCB41C06F1A3
:200B6000180520780C36172818BF19281AD13078012813D17068A8B1002708E00C2101FB1E
:200B80000700806808B10AF0BDF97F1CFFB2317A70688F42F2DB0AF0BDFD03E0286808B1B0
:200BA0000AF0B0F9002020701822FF20E0710021002028733046BDE8F84001F0C9BF000090
:200BC00010B50C46FFF78AFF30B1817A4A1C944204BF01F08001817210BD000010B582B07B
:200BE00004001CBF207AFF2816D000200090A3782188607A172208F0AEFBA078182806D118
:200C000000208DF8000000A9208809F059FEFE2020722046FFF79CFF13BD000070B50446A8
:200C20004FF6FE70844282B036D04FF6FF7651B92046FFF753FF78BB3046FFF74FFF05009F
:200C40002AD0048073BD012906D12046FFF746FF050021D02E800BE002291DD10121204614
:200C600008F088FEC0B92046FFF738FF050013D0287AFF280ED0FE2807D000200090142278
:200C8000AB78687A214608F066FB2846FFF760FFFF2028720020A87273BD704710B5817933
:200CA00061B3891E22D0491E1AD0891E12D0491E09D00C3918BF012023D10289817A104660
:200CC000FDF71AFA10BD037A817AC2681846FCF704FB10BD027AC1681046FCF72EFB10BD9C
:200CE0000289C1681046FCF7D7FA10BD84688189827B03692046FCF7A5FA10BD8068FCF75A
:200D000077FB10BD0246907970B1401F08D0401E18BF01200BD1107A917AD26808F000BC36
:200D2000107AD16808F030BC906808F044BC704738B50D46014688790024103823D0401E20
:200D40001ED0401E18D0401E11D0401E0BD0401E18BF01241BD108898B7ACA68194600F08A
:200D6000F7FE044613E0886808F06BFA0EE00889897A08F060FA09E0087AFFF719F905E0C8
:200D8000FFF7D6F8EDE7087A08F052FA2C70204638BDF8B5877915460E4600243F1F39D017
:200DA0000C3F072F05D8DFE807F0312B282118151106012433E0037AC16802691846FEF792
:200DC000CAF9814935460870012027E00089FEF7A9FD22E0FEF7D7FD1FE0047AC168028A4A
:200DE000837C2046FEF784FF044618E00389817AC2681846FEF7F8FFF6E708F0E5FDE0E75B
:200E00000289817A104608F0B5FDDAE7007A08F041FE02E08068FEF7FDFF204628702046BB
:200E2000F8BD012070472DE9F84308AF3E788146984615460C4606F10C0080B201F058FE99
:200E4000071C16D08020387087F8018040F27F637B805D49BC803246BD7107F10C00FE7137
:200E600007F10C03BB6001F075FE4846394601F046FFBDE8F8832DE9FE43044600250120A2
:200E8000A688A7798DF8055094F802808DF80400311C1BD0491E12D0491E0BD0491E05D094
:200EA000491E15D12046FFF7F9FE11E02046FFF729FF0DE0204601A9FFF73AFF08E02046A3
:200EC0000DF1050101AAFFF764FF01E0FFF7A9FF8146204601F021FE9DF8040040B19DF82F
:200EE000050031463A464B4600904046FFF79BFF2846BDE8FE8308B503460022801E01283C
:200F000012D9801E0DD0202B10DB602B04DB802B0CDB902B0ADA0AE01846FEF786FF024690
:200F200005E0042902D102E0102900D00222104608BD60B192228A4982718A4B0160382287
:200F40004281198881807C230381002070470220704770B5401E15460C4613D0401E06D012
:200F6000401E2ED0401E28D0401E18D015E0207A617A0546FFF7BFFF18BBE268284606F08F
:200F800089F970BD207A617A0546FFF7B4FFC0B9E268284606F00FF870BD012070BD0AF096
:200FA000F5FA04232B707049C871020A0A72060C4E72040E8C72002070BDA068FFF7B9FF21
:200FC00070BD022070BDC04627470020BFB50746084614463946302911DC302950D0002931
:200FE00000F0AE80C91E00F0A580491E00F09E80491E00F09780091F08290BD94DE0313920
:2010000023D0491E58D0091F4FD0491E09D0491E45D042E0DFE801F0827B756F4168605A2D
:2010200056C000890546FEF721FF0146A5F2014040B1001F04D0C01E14BF0120042002E0D6
:20104000102000E00220207086E04FF6FF750089ADF80850FF2807DA262805D0272803DAD2
:2010600007F0A6FDADF80800BDF80800854212D0B348022202A9227001F06CFD00216BE0A1
:201080000189262907D0272905DA0A464189104607F080FD5FE002215EE001215CE0028904
:2010A000817A1046FEF783FD55E00389817AC2681846FEF7D5FA4EE08268C16810460AF0D1
:2010C0008BF848E0806801F0E4F844E00289817A104601F087F93EE00489817AC268037CF0
:2010E000204601F0CDF936E00389817AC268184601F007F92FE0C2680189104601F081F939
:2011000029E08268C168104601F01FF923E0037A4189027B184601F07FF81CE0806808F0EB
:2011200023FF18E0007A05F0D3FC14E0806805F08FFC10E0027AC168104607F075FD0AE0BD
:201140000169009141690191047A827AC368417A20460AF091FA014608460090BFBDC04666
:2011600000010200F0C301002047002098B507460846037CC16804893A461D2A9C4621DC6E
:201180001D2A7FD00C2A12DC0C2A00F09580921E00F0B080921E00F0A580921E00F09B800A
:2011A000921E00F09380921E00F08B8031E00E3A7DD0921E76D0921E6FD0121F2BD0521FA9
:2011C00066D026E03A2A0CDC3A2A13D0303A4BD0921E49D0921E42D0921E3CD0921E36D0BE
:2011E00017E03C3A2ED0921E27D0921E20D0921E11D00EE0C77A57B1062F08DACDF800C0D9
:20120000C1683A4601232046FEF7CCFF98BD022098BD012098BDC168162F04D120461A4690
:20122000FEF7BFFF98BD20466246FFF703F898BD20461A46FEF7FDFF98BD20461A46FEF78B
:20124000F7FF98BD20461A46FEF7F1FF98BD2046FEF78EFF98BD2046FEF77CFF98BD204675
:201260001A46FEF75DFF98BD41898289302F04D1837B2046FEF70DFF98BD837B2046FEF74C
:2012800015FF98BD437C6246204600F0BBFC98BD20461A4600F0E3FC98BD20461A46FEF777
:2012A0007FFF98BD20461946FEF79CFE98BD20461A46FEF739FF98BD20461A46FEF733FF7D
:2012C00098BD20461A46FEF72AFF98BD20461A46FEF704FF98BDC168827A037C2046FEF76E
:2012E000A8FE98BD0B884A88204619466346FEF7F8FE98BD20461A46FEF75EFE98BD02462C
:20130000CB680889511E17D00A3912D0891E0DD0891F09D0891F05D0491F18BF01200ED1CD
:2013200009F0D4BA09F0DBB909F0C6B9194609F095B9194609F084B9194609F02EB97047F0
:201340002747002080B507460846394670290CDC702933D0891F50D00C3947D0891E3ED0BA
:20136000491E35D0491E2DD009E0713922D0491E1AD0491E12D0491E09D0491E01D00120E5
:2013800080BD0289C168104606F0A0FB80BD0389817AC268184606F066FB80BD0289C168E1
:2013A000104606F048FB80BD027A4189104606F02EFB80BD806806F007FB80BD806806F06E
:2013C00095FB80BD02894189104606F015FC80BD0389817A8289184606F0E8FB80BD0389BF
:2013E00041898289184606F0B6FB80BD0389C168027C184606F031FC80BD008906F0E9FB82
:2014000080BD10B50446C4F3C21048B1401E1DD0401E16D0401E0FD0401E08D0401E01D0CD
:20142000012010BD04F07F00FFF793FD10BD04F07F00FFF7CBFD10BD04F07F00FFF796FEFD
:2014400010BD04F07F00FFF75AFF10BD04F07F00FFF778FF10BD80B507464FF60140B84281
:2014600039DBB84200F0C58041F20200B8421BDBB84200F00581A7F21D40002800F01681EF
:20148000A0F2E470002800F00D81801E00F007812A3800F0FF80363800F0F880A0F29E30A3
:2014A000002800F0F08049E0401C3F1A00F0E580BF1F00F0DF80B7F57F7700F0D780A7F6BE
:2014C000FC37002F00F0CE80BF1E00F0C8800C3F102F21D932E01730B84211DBB84248D082
:2014E00016383F1A00F08180FF1E092F1FD90C3F54D0BF1E4ED07F1E47D07F1E40D01DE03F
:20150000C01C3F1A30D07F1E2AD07F1E24D0BF1E1DD07F1E14D011E0DFE807F09E9B969114
:20152000108D898580101010107D79726FC0DFE807F05753054E4B4744403C39012080BD05
:201540008868CB680A69194606F0E9FF80BD087A897A0AF093FA80BD087A07F0D0F880BDB4
:20156000088907F0E3F880BD087A49890AF082FA80BD08898B7A8A89194607F0E9F880BDA7
:201580000889C9680AF072FA80BD0889897A0AF069FA80BD08890AF061FA80BD087A0AF019
:2015A00059FA80BD0AF052FA80BD08890AF04AFA80BD88680AF042FA80BD0AF03BFA80BD3D
:2015C000087A0AF033FA80BD0AF02CFA80BD087A897A0AF023FA80BD88680AF01BFA80BDB3
:2015E0008868C9680AF012FA80BD087A0AF00AFA80BD087A0AF002FA80BD0AF0FBF980BDEA
:20160000087A4B7A8A7A194607F042F880BD087A07F047F880BD0AF0E9F980BD8868C96883
:201620000AF0E0F980BD088907F01DF880BD08890AF0D4F980BD88680AF0CCF980BD087ABD
:20164000C9680AF0C3F980BD087AC9680AF01AFA80BD0AF01BFA80BD0AF0B4F980BD0AF03E
:20166000ADF980BD886807F075F880BD08890AF0A1F980BD0AF09AF980BD0AF093F980BD07
:2016800006F043FF80BD07F081F880BD886807F011F880BD0889897A0AF080F980BD06F0C1
:2016A00023FF80BD88680AF075F980BD08890AF06DF980BD2DE9FE430446012000253F21C1
:2016C0008DF80400A679A778A0888DF805508046B1EBA82F02D1C8F3C21119B92146FFF778
:2016E000BAFE05E021460DF1050201ABFFF789FE8146204601F011FA9DF8040040B19DF870
:201700000500414632464B4600903846FFF78BFB2846BDE8FE83F8B50C46E00BC00308BFA2
:20172000002027D02848007801F065FA071C1ED0234D2968012649B1B1F1FF3F06D0214808
:20174000007801F0DCFA4FF0FF3028603878813805D0401E07D13846FFF78DFB02E0384684
:20176000FFF7A8FF064616B1384601F0D6F984F40044A0B2F8BD10B50C4601462046491E8D
:2017800007D0491E02D009F0A5FB10BDFDF772FC10BD1946029B14460246204607F07AFE31
:2017A00010BD10B504460846012C114602D107F0ADFE10BD09F0A6FB10BD03490870704757
:2017C00024480020B84800202047002070B5DFF8C85928780624604309F0AAFFDFF8BC19FE
:2017E000086008B9132070BD0020FF2206E03380401C0023F270B2703371C0B22B789842F0
:2018000009DA0B6804FB003600280CBF4FF6FE734FF6FF73EBE70FF2A14007F003FD0FF62D
:20182000A90008F0B7FE0FF6E90008F00FF8002070BD70B50446208868B1606803784268FB
:2018400000F073F948B9606803784268DFF8500900F06DF908B9022070BDA078C01F0A287F
:2018600001D3182070BDDFF83C59288820B12188C0F58030884201DA012070BD0C2009F01C
:2018800057FF060001D1132070BD002007E06268298802EB0012401C5181491C298080B2CB
:2018A00021888842F3D30020306008222146301D01F050F9686810B96E6004E00846016825
:2018C0000029FBD10660002070BD38B502460846DFF8D0184C68002301E02346246894B12C
:2018E000A5686D899542F8D12268002B0CBF4A601A6018B10822211D01F02CF9204609F0FB
:2019000009FF002032BD012032BDDFF89C180870704710B5044610461422114203D000F035
