:020000040000FA
:20000000E83F00208973000001CA011001CA011001CA011001CA011001CA011001CA011075
:2000200001CA011001CA011001CA011001CA011001CA011001CA01103FCA0110F8B58C46FF
:2000400045688468DCF8007095F85810B8B288401FFA80FE2068B0F1804F14BF234B244B5D
:20006000DCF80820234832B995F858108E00815905F1720207E095F858108E00811951F81A
:20008000081C7244521E99605A6021683A0143F6F077103A0831174019609A683A439A6033
:2000A0002368B3F1804F14BF134A144ADCF804C0BCF1000F04BF8059A61D05D0801950F84B
:2000C000100C0EEB0C06761E906016605160906807439760A168EE6EE068084371680968D3
:2000E0008862586A40F003005862F8BD000500203004002068A50000100500204004002093
:200100003C000000000000000000000034010000000000000000000001000000000000006D
:20012000000000000000000000000000010000000000000008000000000000003400000082
:20014000000000000000000068010000000000000000000001000000000000000100000034
:200160000000000000000000080000000000000030000000000000000000000098010000AE
:20018000040000000000000001000000FFFFFFFFFF00000001000000080000000000000056
:2001A0002C0000000000000000000000C4010000040000000000000001000000FFFFFFFF4D
:2001C000FFFFFFFF080000000000000034050000E401000099A1011095A70110A5C20110ED
:2001E00009B2011045B8011000000000000000002F000000280000000000000000000000CE
:20020000140200000000000000000000FFFFFFFF000000000800000000000000300500008F
:200220003002000069C201106DC101101FC2011095BA01100000000000000000310000008E
:20024000300500005402000075C20110A9B601109DBF011049B601100000000000000000DE
:200260003200000024000000000000000000000080020000000000000000000000000000A6
:200280000800000000000000240000000000000000000000A402000000000000000000008C
:2002A000000000000800000000000000240000000000000000000000C80200000000000048
:2002C0000100000000000000080000000000000000000000782A002004000000000000004F
:2002E000000000002000000070010000300000001C0200008C2A0020040000000000000045
:20030000000000000C000000300400001800000040020000982A002004000000000000005D
:200320000000000024000000480400001800000000000000A02A0020040000000000000047
:200340000000000010000000A00100002C000000CC010000A82A00200400000000000000FD
:2003600000000000200000006402000024000000FFFFFFFFC82A00200400000000000000C1
:2003800000000000280000008802000024000000FFFFFFFFD82A0020040000000000000065
:2003A00000000000580000003C01000034000000FFFFFFFFE02A002004000000000000004A
:2003C00000000000100000006004000018000000FFFFFFFFE82A002004000000000000005F
:2003E000000000001C000000AC02000024000000FFFFFFFFF02A00200400000000000000D5
:200400000000000038000000F401000028000000FFFFFFFFF82A0020040000000000000045
:200420000000000054000000000100003C00000018000000000000000000000040040000CF
:20044000080000000000000018000000000000000000000058040000080000000000000018
:2004600018000000000000000000000070040000080000000000000001000000C8A8000077
:2004800009F0A2BE0100000000000C0000000D003200000002000000882E002000020000DD
:2004A0000000000001CA011000000000000000000800000000002000502E00200100000099
:2004C000B02A00200800000000000000000000000000000000000000000000000100000019
:2004E000E82E00200600000001000000BC2D002000000000000000000002000000000000B4
:1105000070472B0001002600310032002F000100014D
:20051400030000007CA800000000000000000000000001000000030087C401103805000003
:200534003805000000000000800000008000000000000000B02A0020619D00002000000052
:200554001CA80000B0A600000DC30110635D00003F67000099C801109BC801100000000040
:19057400A6A80000ECA5000004A60000D4A5000008000900010000000159
:2005900000000000000000000000000000000000359B0000A1770000E98F000099740000DE
:2005B000716500008D7E000029540000099500008966000029950000C5A000000800000015
:2005D000240000001800000028000000200000003C0000000C000000340000002DE9F047BE
:2005F000D24C0025ADF1380DA57108F055FC09F021FAA946DFF83883A0622A462B460820C6
:20061000CDF800904146019004F1DC0006F06CF94026CDF800902A462B4604F5A470414601
:20063000019606F061F9012742F210728020009741461346019004F5807006F055F94FF4CD
:200650007A722020009741461346019004F5927006F04AF94FF0040AFA22CDF8009004F16F
:20067000B80041461346CDF804A006F03DF908F0D9FF09F09FFB1F20062107F0A1FCADF83B
:200690001A60ADF818608DF820704FF47A70ADF81400B846ADF81E9041468DF81C8008AA0D
:2006B000ADF8169007260327ADF8126040F20530ADF8107001F0E2F840F2063002210DF191
:2006D0001E0201F0DBF804F179024FF442701E2101F0D4F804F1970240F207301F2101F09D
:1006F000CDF84FF44470414607AA01F0C7F840F224
:20070000113002210DF11A0201F0C0F840F21230022106AA01F0BAF840F2133002210DF132
:20072000160201F0B3F84FF44570022105AA01F0ADF84FF4437041460DF1120201F0A6F887
:2007400040F20930414604AA01F0A0F809F02AFC06204FF4C87107F03BFC30464FF4C8718F
:2007600007F036FC08204FF4C87107F031FC09204FF4C87107F02CFCCDF80C908DF80B8053
:200780008DF80A808DF809908DF808804FF48160514603AA07F002FC4FF4806041460DF11A
:2007A0000B0207F0FBFB40F2024041460DF10A0207F0F4FB40F2034041460DF1090207F058
:2007C000EDFB40F20640414602AA07F0E7FB09F0E6FCFFF755FE09F025FA08F0D9FA08F0AE
:2007E000F3FC09A82946142205F0E8F8404609A906F08CFC09A82946142205F0DFF80220E5
:2008000009A906F083FCA24909A8142204F084FB384609A906F07AFC09A82946142205F085
:20082000CDF8504609A906F071FC09F04BFA08F0D7FE08F08BF809F0ACFC09F0ADFC41A09E
:2008400007F0B4F909F044FC06F0A8FC022008F01BFF44F6206009F0D3FD08F005FE05F07A
:2008600081FAE07105F0B6FA2072E079012805D0A07908B90620A0713CA000E041A007F079
:2008800095F9207A012804D0A07900B9A67141A000E046A007F08AF909F01AFC08F068FBBF
:2008A0002073012809D045A007F080F909F010FCA07908B90A20A07104E046A007F076F904
:2008C00009F006FC08F01EF907F0BAFC08F0DCFD08F012FF05F0F6FC08F0DAF9207A20B368
:2008E000657206F07DFF0128607208D03DA007F05DF907F06FFE6D1C032D03DB05E03FA0F3
:2009000007F054F9607A0028EBD009F0E1FB207A58B109F0A7FAE072002814BF3EA044A0B5
:2009200007F044F907F0CEFE02E04EA007F03EF909F0CEFB0EB0BDE8F087C046601E002082
:200940002D9A00000A5F5F5F5F5F5F5F5F5F5F5F5F5F0A48656C6C6F2066726F6D2053505E
:20096000573221202E2E2E0A00C046C02A2A2A4661696C6564205350493020496E69740A96
:2009800000C046C05350493020496E6974204F4B0A00C0462A2A2A4661696C656420535071
:2009A000493120496E69740A00C046C05350493120496E6974204F4B0A00C0464661696C22
:2009C000656420746F20496E69742043727970746F0A00C043727970746F20496E697420D7
:2009E0004F4B0A002A2A2A4144584C3336322030204F6820646561720A00C0464144584CF5
:200A0000333632203020776173207665726966696564204F4B0A00C0464C41534820776128
:200A200073207665726966696564204F4B0A00C02A2A2A2A464C415348206E6F7420776FC4
:200A4000726B696E672C206F722077726F6E672064657669636520696E7365727465640AE9
:200A600000C046C02A2A2A2A43616E6E6F74206F70656E20464C4153482C205350493120BC
:200A80006E6F7420636F6E666967757265640A00CCA700002DE9F04F044609AF10461E4631
:200AA000ADF13C0D002800943A8801900D46ADF8302008BF002000F001824FF0000B471CF1
:200AC000CDF838B0ECE1252C40F0D78139787F1C01972D291CBF0E98ADF81E0005D101214D
:200AE000781CADF81E1039780190302918BF0E9805D101990A460120521C097801920E9A6C
:200B00002A2984464FF0FF34069224D12346326808930199CDF828C0D21C0B4622F003027E
:200B2000121D5B1C326052F8042C09780193002A069218D50123ADF81E305242069212E00A
:200B4000069F019A7B0003EBC703CB18571C303B019711780693302901DB3A29F0DBCDF87F
:200B600028C0224608922E292BD1019A11780E9B2A2902F10102019210D131680893C91C95
:200B800021F00301091D316051F8044C002C48BF1C1C1178521C2346019211E01C460BE054
:200BA000019A630003EBC40409191346A1F130045B1C117801932346302901DB3A29EFDBE1
:200BC000089308B106980A906C2905D04C291CBF0E9AADF81C2007D1019901230A46ADF8BB
:200BE0001C30521C097801920DF1180C02AFCDF82CC00E9A0D976429099200F0AE8069297F
:200C000000F0AB80BDF83030752979D0782975D06F2971D070294AD063293AD073291CD02D
:200C2000019F012DA7F10107019714D9A7480068B4F1FF3F04D0A54284BF641C089400D895
:200C40000895844601A9324606AB6846E047014609988B44BBE01046BAE03068019FC01C2F
:200C600020F00300001D306050F8040C002B7F1C014608B993A001460D9109F041F80990AB
:200C8000B4F1FF3F00F0A580A042C4BF201C09909FE03068C01C20F00300001D306010F867
:200CA000041C8DF808100127099738468FE0082130680A91C01C20F00300001D306050F882
:200CC000047C144606A8824A07F00F01515C3F0904F1010400F8011DF5D1082C06DAC4F125
:200CE00008043021641E00F8011DFAD14021441E00F8011C604667E0082102E0102100E053
:200D00000A213268D21C22F00302121D326052F8048CA042BCBF201C0A900E9C06AF8A460C
:200D200081464046514606F0DBFC6948405CB8FBFAF8B8F1000F04F1010407F8010DF0D190
:200D4000A14506DDA9EB04003021401E07F8011DFAD10B980D97C01B38E03168C91C21F0D2
:200D60000301091D316051F8041CA042BCBF201C0A9006AC81460F46002958BF924604D55D
:200D80007F42A0F101094FF02D0A904638460A2106F0A6FC4E48405C0A23B7FBF3F7002F40
:200DA00008F1010804F8010DF0D1C14506DDA9EB08003021401E04F8011DFAD1BAF1000F93
:200DC00018BF04F801AD0B980D94001B0990019F7F1CBDF81E400699091A0691BCB911E08D
:200DE000012D0DD900986D1E30B909F02BFA38B1202009F025FA03E020210170441C0094EB
:200E00000BF1010B0698401E0690E9D509980446401E0990D4B9BDF81E00002840D0069862
:200E2000401E06903CD4012D0DD900986D1E30B909F008FA38B1202009F002FA03E0202151
:200E40000170441C00940BF1010BE8E70D994A1C0D920C78012D0DD9009B6D1E3BB909F000
:200E6000F1F910B1204609F0EBF9099802E01C705B1C00930BF1010BC9E7012D07F1010785
:200E80000CD900986D1E30B909F0DCF930B1204609F0D6F902E00470401C00900BF1010B3A
:200EA00017F8014C0198002C00F1010001907FF40AAE009808B10E99017058460FB0BDE8F8
:200EC000F08FC046286E756C6C2900C0CCA8000030A800002DE9F84F054640F294210124C1
:200EE00041F22D00C4F22231C4F2090040F81D4C086810B908680028FAD046F2000043F61D
:200F0000B477C021C4F20C00C5F2000701603E6857F8040C46F25622C4F20802800806D20F
:200F200057F8080C000C40F0F000107001E07220107041F2B820C5F200000068C0F304606E
:200F400008F0E0FF39680B171B185B1C13F10A0FB8BF6FF009034FF0000CF10EB00E03F053
:200F60001F0381F00101C4F2203C80F0010043F4F85301F00101138300F00100CCF8001089
:200F80003146CCF80800284602F0CAFD814609F03BF80021002808BF211C48F20008C4F2AF
:200FA0000C08D8F8000018B9D8F800000028F8D04AF2080AC4F20C0ACAF81090C8F8004040
:200FC00009B109F027F8284608F0AEF940F2FF32002380B22C2100904AF20000C4F20C009F
:200FE00005F080FB284608F061FC814609F00CF80021002808BF211CD8F8000018B9D8F83C
:2010000000000028F8D0CAF81490C8F8004009B109F000F8284607F00BFF814608F0F4FFAE
:201020000021002808BF211CD8F8000018B9D8F800000028F8D0CAF80C90C8F8004009B1EA
:2010400008F0E8FF284608F02BF9814608F0DCFF0021002808BF211CD8F8000018B9D8F8CF
:2010600000000028F8D0CAF80890C8F8004009B108F0D0FF284604F0A1FA814608F0C4FF26
:201080000021002808BF211CD8F8000018B9D8F800000028F8D0CAF80490C8F8004009B192
:2010A00008F0B8FF284608F0D1FB4AF24009C4F20C09400040F0200089F80901284608F07E
:2010C000D1FB40F0100089F80901284608F03CF9834608F099FF0021002808BF211CD8F868
:2010E000000018B9D8F800000028F8D0CAF820B0C8F8004009B108F08DFF284608F0BEFB70
:20110000400040F0600089F80C01284608F0C2FBC00040F0800089F80101284608F0D2FB28
:20112000800040F47C40A9F89C01284607F02AFB834608F069FF0021002808BF211CD8F831
:20114000000018B9D8F800000028F8D0CAF800B0C8F8004009B108F05DFF442089F8C500D4
:201160004FF0880E89F8C7E0284608F0FBFC40F03001C6F3815089F8C81078B3401E06D072
:20118000401E26D00420022105F0B7FC30E0204607F051FF05460420294605F0AEFC0420AE
:2011A00007F049FF8542FAD157F80C5C25F07F4006F0DEFF40F2B410C1F200000068036884
:2011C00007214FF06022280E98474FF48060C9F800000420032105F090FC09E004202146F0
:2011E00005F08BFC43F2BD70C0F2860006F0C0FF41F2B820C5F20000D0F8B4004BF2700237
:2012000042F22C0E46F2000B47F618014FF0000C41F22D0AC4F20C02C4F2090E40F2944873
:2012200000F03F0089F8CB0FC4F20C0B1180DEF80000CBF800C0C4F2090A4AF81DCCC4F2C3
:201240006028C8F80040BDE8F88F70472DE9F84FC64DC74ED5F8EF1FCC4C7368D5F8F30F01
:201260008843C5F8F30F002BC5F8FF1F00F011817788012B00F0D680DFF8FCB2BF4FDFF881
:2012800000A3DFF80093DFF80083022B72D0032B40F06A810024B06855F8312C746000284D
:2012A000A2F5C062B8BF404211460029B8BF494288422EDA111C54BF02206FF00100B2694B
:2012C00000EB4100032190FBF1F18918B161F368706998420BD0B1F11002B8BF524230695D
:2012E0001038B8BF40428242B8BF88B209DB98B20090A04830214FF47F42082305F0F2F932
:20130000308A00909B4804214FF4F802122305F0E9F95846046001688908FCD204600126DD
:2013200044600E203E6003F005F850460468EFF3118584F3118849460820B0FA80F00A1ACE
:20134000D07F431E0128D37704D14246106820F00800106085F31188EFF3118384F3118876
:201360000420B0FA80F0091AC87F421E0128CA7754D14EE055F8310CB0F5C06F17D0032739
:20138000776002F0D7F845F8397C0027276020688008FCD27748394660220523009105F0C9
:2013A000A1F90126266020688008FCD364E0002171605846016002689208FCD20160012678
:2013C00041600E203E6002F0B5FF50460468EFF3118584F3118849460820B0FA80F00A1A7B
:2013E000D07F431E0128D37704D14246106820F00800106085F31188EFF3118384F31188D6
:201400000420B0FA80F0091AC87F421E0128CA7704D14246106820F00400106083F31188F2
:20142000BDE8F88F55F8312C02214BF2F52071605043000A37B95649096821F07F414018CA
:20144000400801E0002171806060000CA0600126E660032745F8397C00272760206880083E
:20146000FCD24448394660220523009105F03AF9266020688008FCD345F8216C45F8397C0F
:201480000820C5F8FF0FC5F8F30F45F8396CBDE8F88F40480068006801462020884741F6A7
:2014A0001D574FF002080F2045F82D0C00214FF4C072072345F8297C2E48CDF8008005F078
:2014C00011F9012744F8047C54F8040C8008FBD3308845F81D7C012821D0032045F8390C1F
:2014E0004FF00009C4F8009020688008FCD22148494660220523009105F0F4F82760206857
:201500008008FCD345F8217C45F8399C0820C5F8FF0FC5F8F30F45F8397C474623E04FF015
:201520000009C4F80C90032045F8390CC4F8009020688008FCD20F48CDF8008049466022CE
:20154000052305F0CFF8276020688008FCD3202045F8210C45F8399C0824C5F8FF4FC5F891
:20156000F34F45F8397C7760BDE8F88F39400C40C82F002000A00C4034600C4004800C40BC
:20158000C0A800005F2A0020942C002038600C4010200940A00100102DE9F04F5FEA0009A5
:2015A000ADF11C0D00F05581AC480068EFF3118280F31188DFF8C8B29BF80400012818BFD9
:2015C000012003D1022100208BF8041082F31188012800F03C8108F00FFF0390A948046862
:2015E00004EB0B0008F004FF4FF00008464637460BEB0401CDF810800191B0B90C460846BB
:2016000008F0F2FE0546A868400808D3E8682969024601209047C0B2002840F01081284679
:2016200008F0DEFE0546AC42EDD1002F40F00B8108F0D2FE0290059789480760012007F0AE
:20164000FAFC012804D1404606F06AF84FF00108844F386880680146304688478648193072
:201660000090D0F8FF0FB9F1000F00F08C80864C0A34E57905B10126A5790DB146F00206EA
:2016800065790DB146F00406DFF8DC9165782DB1B86A006B49460246C88D904725782DB164
:2016A000B86A006B49460246488D90476F4901200860B86A8069014646F0200088476C4DA9
:2016C000DBF80010286840F001002860480813D2684808F009FC8246BAF1040FF8D0D5F8E1
:2016E000180220F00300C5F81802B86C4068024660480321904701E001200490059800F00C
:20170000CBFFB86A0099806BD1F8FF1F8047049858B9B86C40680246564851469047D5F811
:20172000180240F00300C5F8180238688068014601208847504801688909FCD3B8F1010FAB
:2017400002D1012005F0ECFFB86A4069014630468847B86A406B0146304688470128F8D113
:2017600066782EB1B86AC06A49460246C88D904726782EB1B86AC06A49460246488D904711
:201780003A49012008603A480168032221F00101016001988BF8042008F02AFE0028059894
:2017A00018BF01200125C0B9019C204608F01CFE0646B068C00806D3F0683169024604201A
:2017C0009047C0B230B9304608F00AFE0646B442EFD102E02948006880472148009F056070
:2017E000D7F8FF0F08F016FC019808F001FE059FC8B9019C204608F0F7FD0646B0680009F1
:2018000006D3F0683169024608209047C0B230B9304608F0E5FD0646B442EFD103E01748C7
:2018200000688047022702988BF8045008F0D0FD04F0ACFD039808F0C7FD38460AE00F4867
:2018400000688047022701208BF80400F2E7062000E0022007B0BDE8F08FC046C0A800003E
:201860000C4009409001001088A50000282008600C2008400040034014100940B4A8000095
:20188000942C0020B0A800004C2A0020F8B5A0F2013517460E46022D40F20A81874A8549C9
:2018A000854B2D1F0F2D04D9143D4AD0AD1E1CD011E0DFE815F0B900B400EA00DA00AD0036
:2018C000A600FD009E009700100010009000860079006E006000272880F2EA80022E40F028
:2018E000E780398806F074FBF8BD012E40F0E0800A469078012800F0DB80D1783878D070E2
:2019000081B9002800F0D4801078012800F09F80042800F09C80062800F09980052800F0D5
:201920009680F8BD3878002840F0C2801078032800F09880072800F09580052800F0928074
:20194000F8BD012E40F0B4803878012840F0B0801D4605F1F00008F065FA002840F0A880E6
:20196000002004F0DBFA002840F0A2802846CC3008F058FCF8BD022E40F09A8038880A282D
:20198000C0F29680B0F5486F00F3928011461E3115E0022E40F08C803888B0F5FA7F80F2C7
:2019A000878011461C310AE0022E40F08180388806287DDBB0F5486F7ADC11461A3108800F
:2019C000F8BD022E74D13888062871DBB0F5486F6EDC1731F3E7012E6AD13878022867DA56
:2019E0000A310CE0012E63D13878042860DA093105E0012E5CD13878082859DA0831087008
:201A0000F8BD012E54D13878042851DAC91DF6E7012E4DD1387804284ADC891DEFE7022EF8
:201A200046D138881331CAE7012E41D10A46D07801283DD091783878907061B9002837D0C9
:201A40001078012803D0042818BF052830D1012008F01CF8F8BD387850BB1078022818BFAB
:201A6000052825D108F09EF9F8BD1D4605F1890400211F22204603F0A1FF39463246204661
:201A800003F04AFA0020AE710EE01D4605F16A0400211F22204603F091FF39463246204673
:201AA00003F03AFA01206E713146224605F0A0F8F8BDC046D9220020D8220020D822002089
:201AC0002DE9F0410446DFF81C82A2780026101C00F0D780801E00F0B180401E012840F2D5
:201AE0008780801E52D0401E26D0401E03D0083800F0EA80EBE0454605F1F00008F092FB3F
:201B00006078002840F0E380E0882884208968846089A88405F1CC0008F084F9002840F0E5
:201B2000D6806B6B002B00F0D2801B68288C698CAA8C9847BDE8F081A08807F0B5FA45465C
:201B40003146062205F1440003F038FF2E846E84AE84A079687305F1CC0008F063FB05F1AA
:201B6000F00008F05FFB01264FF6FF702F79E8824FB9A079082814BF04200520687030467B
:201B800007F084FFA3E003206870A0E045466778EA7A2FBB211D0B6805F1440003608988B6
:201BA000818006276F706089E882E0892884208A6884608AA884E078012A28730AD11F20CC
:201BC00005F0AAFE4FF47A71024605F1CC00514306F098F8E0786289211D06F023F878E02C
:201BE0006078312818BF08201CD1EE70042019E06778002F63D14546A98A6878032A13D05D
:201C0000EA782F7921B9012A14BF2E71EE7006E0174304D005F1A80006F074F868780728C2
:201C2000E4D10620687054E0062805D0E87800280CBF03200220F5E70720F3E76078651CEC
:201C400000283CD14046E77881798FB94178022914D0072912D0062902D1017901290DD1CA
:201C6000A83008F0DFF848B9012007F00FFF05E000F18902304604F0BBFF28702878F0B930
:201C800025E06078D8B945460220102105F14A0206F00AFB0320102105F15A0206F004FB20
:201CA000E41C05F13800A7882168878005F16A02016001206979687004F09AFF48B1454688
:201CC00008206D1C287004E0A08808F05FF9012E06D14546286B18B1016809B168788847A0
:201CE000BDE8F081D82200202DE9F041834E07463068144688468047814D21126970404668
:201D0000A8702C70010A3846E97007F0F9FF431C3A462946F02004F00BFA0021284604F064
:201D200020FA70686E782D78804705EB062528B2002848BF041C2046BDE8F08170B56F4EBD
:201D40000546306880476E4C002228121346607021462570F12004F0EBF90021204604F03A
:201D600000FA657870682478804704EB052420B270BDF8B5614C0546206817460E46804795
:201D800038462946B0F5807F88BF4FF480705C4D2970030AEB700022A8700F126F701346FB
:201DA0002946F22004F0C4F93146284604F0D9F960686E782C78804704EB062420B2F8BD8D
:201DC000F8B54E4C0546206816460F46804733463A46B3F5807F88BF4FF48073484E281284
:201DE000707035701F0AB3703146F770F32004F09FF90021304604F0B4F9606875783478FC
:201E0000804704EB052420B2F8BD2DE9F0413B4E8046306817460C468047394D404600228A
:201E200028700012AC701346AF7129466870200AE870200C2871200E68713812E871F42017
:201E400004F076F90021284604F08BF97068EF782C78AE786D78804704EB076000EB0640DC
:201E600000EB0520BDE8F08170B5244D064628688047304607F044FF214C431C3246F520FA
:201E8000214604F055F90021204604F06AF9686865782478804704EB052420B270BD70B56F
:201EA000164E044630680D46ADF1680D80476846214607F04CFF204607F022FF431C29460C
:201EC00003EB0D0007F043FF284607F019FF0C4CC0186A46401C21460346F72004F028F939
:201EE0000021204604F03DF9657870682478804704EB052420B21AB070BDC04638300020AA
:201F00004C1E00202DE9F0411C4615468C4208BF854282BF00230022E5E0002C08BF002D6C
:201F20000AD100290EBF00286FF000006FF0000100F0E1F8BDE8F0815FF000085FF0000E56
:201F4000002C08BF8D429CBF2C1C0025070C47EA01470E0CB44208BFBD429EBF5FEA0444A7
:201F600044EA15445FEA0545070A47EA01670E0AB44208BFBD429EBF5FEA042444EA156454
:201F80005FEA0525470847EAC1774E08B44208BFBD4200F29380870847EA81778E08B442BB
:201FA00008BFBD427CD8C70847EA4177CE08B44208BFBD4266D8070947EA01770E09B442B9
:201FC00008BFBD4250D8470947EAC1674E09B44208BFBD423AD8870947EA81678E09B4420F
:201FE00008BFBD4224D8C70947EA4167CE09B44208BFBD420DD8E60146EA5566EF01B14249
:2020000008BFB84201D3C01BB14158EB08085EEB0E0EA60146EA95664FEA8517B14208BF45
:20202000B84201D3C01BB14158EB08084EEB0E0E660146EAD5666F01B14208BFB84201D393
:20204000C01BB14158EB08084EEB0E0E260146EA15762F01B14208BFB84201D3C01BB141A4
:2020600058EB08085EEB0E0EE60046EA5576EF00B14208BFB84201D3C01BB14158EB080830
:202080004EEB0E0EA60046EA9576AF00B14208BFB84201D3C01BB14158EB08084EEB0E0E5E
:2020A000660046EAD5766F00B14208BFB84201D3C01BB14158EB08085EEB0E0EA14208BF19
:2020C000A84201D3401BA14158EB08085EEB0E0EA34208BFAA423EBF2D0A45EA0465240ABB
:2020E00089D3734642461E4617460B46024631463846BDE8F08170472DE9F04F8346ADF16B
:202100001C0D032004914FF0805443F25401C2F20001139E086041F62C60C2F2000090F874
:202120000080D4F8B001119F4169994692462720884704F5D8740320059444F20004C4F28A
:202140000204C4F888070125C4F88057C4F884070220C4F8000788F0010000F00100DDF80A
:20216000108004901299C4F80C14284608F01DF8D4F80C040008F8D2D4F89007800F28BFB2
:20218000281C80F0A98098F800E08DF801E098F801C08DF802C098F802308DF8033098F8EA
:2021A00003208DF8042098F804108DF80510701E8DF8000098F805E08DF806E098F806C0CC
:2021C0008DF807C098F807308DF8083098F808208DF8092098F809108DF80A1098F80AE007
:2021E00098F80BC08DF80BE0022E8DF80CC01CBF4FF000088DF80D8005D198F80C004FF0AE
:2022000000088DF80D0000988DF80E80DDF804E08DF80F80029AC4F840054FEAC64CBBF118
:20222000020FC4F844E50399C4F84825ACF50020C4F84C1506D34FEA4B51A1F580016FF3DE
:202240001501084340F2CC11C2F204010143C4F85015C4F85495C4F85885C4F85C759FB1D5
:20226000206840F00100206010986060E760284607F09BFFD4F890078008F8D3D4F890075E
:20228000000828BF032027D20320DDF814B0C4F88807DBF80000016A27208847DBF8000005
:2022A0000169272088470498C4F8845798B1206840F001002060206A40F001002062C4F8F0
:2022C00004A0C4F80C90206A40F001002062C4F824A0C4F82C90404607B0BDE8F08F2DE956
:2022E000F04F8146ADF11C0D032004914FF0805443F25401C2F20001139E086041F62C602B
:20230000C2F2000090F80080D4F8B001119F41699B4692462720884704F5D874032005945A
:2023200044F20004C4F20204C4F888070125C4F88057C4F884070220C4F8000788F00100FE
:2023400000F00100DDF8108004901299C4F80C14284607F02AFFD4F80C040008F8D2D4F804
:202360009007800F28BF281C80F0A98098F800E08DF801E098F801C08DF802C098F8023043
:202380008DF8033098F803208DF8042098F804108DF80510701E8DF8000098F805E08DF8DE
:2023A00006E098F806C08DF807C098F807308DF8083098F808208DF8092098F809108DF87D
:2023C0000A1098F80AE098F80BC08DF80BE0022E8DF80CC01CBF4FF000088DF80D8005D113
:2023E00098F80C004FF000088DF80D0000988DF80E80DDF804E08DF80F80029AC4F8400553
:202400004FEAC64CB9F1020FABEB090BC4F844E50399C4F84825ACF50020C4F84C1506D3AB
:202420004FEA4951A1F580016FF31501084340F2C811C2F204010143C4F85015C4F854B501
:20244000C4F85885C4F85C759FB1206840F00100206010986060E760284607F0A6FED4F849
:2024600090078008F8D3D4F89007000828BF032025D20320DDF81490C4F88807D9F800004E
:20248000016A27208847D9F80000016927208847C4F880570498C4F8845778B1206840F0C3
:2024A00001002060C4F804A0C4F80CB0206A40F001002062C4F824A0C4F82CB0404607B031
:2024C000BDE8F08F2DE9F04F93460A68DBF800401678002780461D46ADF1140DBA46501C1C
:2024E000242E086059D112F8016F401C4C2E086010D1AA68E41C24F00304241D54F8040C95
:20250000414601F097F982462868EF600127A0EB0A002860462E1CD1E41C24F00304241D0A
:2025200054F8040CE41C029024F00304241D54F8040C002741460390AA68ADF8047001A8E0
:2025400000F0B2FD82462868EF600127A0EB0A002860532E21D1E41C24F00304241D54F8D5
:20256000040CE861CBF80040288B0090A968EA69D8F800005B46FEF78DFA8246D8F80000D3
:20258000002710B15044C8F80000DBF800402868EF60A0EB0A0001272860662E05D0002F30
:2025A00064D1E869067001205FE0288B40B9E41D24F007040834A4F1080090E8000309E0B6
:2025C000E41C24F00304241D54F8040C05F00AFC894680462AA20CCA4946404602F068FFA3
:2025E00028BF002705D2286989F000490127401E286125A20CCA4946404602F09CFF31D351
:20260000404604F0EFFD064606F046F90B4602464946404600F023F91DA20CCA01F08CF80F
:2026200004F018FF0146686904220A2303F07CFE401EE8612E2101706B692A69E869314621
:202640001B1AEB60D21A0A2303F06EFE002F08BFE86104D0401EE8612D210170E8696969E6
:20266000081A02E004A0E8610720E860CBF80040504605B0BDE8F08F286572726F7229000D
:2026800000000000000000000000C0FFFFFFDF41000000000088C340F8B507460020C4F202
:2026A00009000068800880F0C98006F039F942F22421C4F208010A68002112F0030F18BF8A
:2026C0000121D20828BF41F00201002F18BF41F0040141F65466C2F2000696F90720821AAA
:2026E000052A04DAB2798A4208BFB28870D041F29C340F28A0F10F02C5F2000425DB02EB11
:2027000002121712072F88BF0727BC46BCF1060F88BF4FF0060C54F82CE00423254603EB9D
:202720008C03EB58CD08A3EB0E0303F0FF0C24BFC3F30725AC448D0824BFC3F30745AC4436
:202740004D0805D30CEB136C02E04FF0000C674654F82730CC0803F0FF0524BFC3F30724CA
:2027600025448C0824BFC3F3074425444C0828BF05EB1365A2EB07221FFA8CF353438033D5
:202780000022082B88BF012243F6B473C5F200031C681B684FF4D07C34275219241703F0D6
:2027A000FF0307FB14C45C434FF6FF73B4FBF2F2934238BF1A1C802892B2B28005DA10F154
:2027C000800F03DA6FF07F0000E07F20F071B17142F20800C4F2090001681F2A4FF00000C1
:2027E000316015D340F2FF13934213D219465208401C93420ED25208401C93420AD25208D7
:20280000401C914206D25208401C9142EFD301E01F22B2800F3A4FF600714FF0350E120976
:20282000C8F2A401C4F2090E40EAC2000143CEF8FB1F4FF0000CCEF8FFCFF8BD41F65A62D5
:202840004FF6FD50082141F2300EC2F20002C0F2A4001170C4F2090ECEF80000F8BD2DE961
:20286000FC4F83F0004301E02DE9FC4F1F03FF0847EAD2574FEA42284FEA43095FEA59596F
:2028800006D147EA080A1CBF00210020BDE8FC8F57F000575FF4E06E1EF1FF0EF14505D16B
:2028A0004FF00000190D0905BDE8FC8F002B05D55FF0000AD8F100086AEB07070C03E408E8
:2028C00044EAD0544FEA40254FEA4106760D08D144EA050A19BF00210020191C101CBDE8D0
:2028E000FC8F44F00054764504D10020090D0905BDE8FC8F002904D55FF0000A6D426AEB62
:202900000404B6EB090E08D5A2463C465746AA464546D046CEF1000E4E46BEF1360F5CBF12
:202920004FF0000B23E0BEF1000F04BF4FF0000B1AE0CEF1390ABAF120092EBF08FA09FBBC
:2029400007FA0AFB4BEA080BDEF1200A07FA0AFA38BFBA4647FA0EF72DBF28FA0EF8AEF13B
:20296000200E4AFA0EF8D04415EB08057C4154EA050A02BF00210020BDE8FC8F002C58BF3F
:202980004FF0000A06D55FF0010A5FF0000E6D426EEB0404A6F101066D006441FAD515F4C4
:2029A000806E11D005F480794BEA090B15F5806554F1000428BF761C0BD205F400795BEAC8
:2029C000090B08BF25F4006525F4E0656D0044EB0404B61CDEBF00210020BDE8FC8F5FF469
:2029E000E06E1EF1FF0E76450AD34FF0000013F00043FF21C900C91D09051943BDE8FC8FE7
:202A0000270547EA1530210B41EA065141EACA71BDE8FC8F2DE9F04FADF15C0D05F0A3FAE2
:202A20000027012804D106F0F9FE022808BF012751490868C0F38150012806D151F80C0C7C
:202A40000126010E06FA01F007434C484C4E00783068C0F3460605F086FA012808BF761CD1
:202A6000484C26603EB1FF2204F140013046401E01F8012BFBD1DFF81091D9F800004FF0A9
:202A8000000800F0FF01FF2918D04D4600F0FF03414601229E426CD902FA03F31F4268D14E
:202AA00000F0FF00201880F8401055F8040F43EA0808491C00F0FF03FF2BEBD1092001F033
:202AC000FBFAC4F8049001A800212422082307F077FC4FF0010A04F1240001AA8DF81CA0BD
:202AE000514607F069FC236833B300262546B34660350AFA06F0074218D118EA000F04BF53
:202B000006F0FF0141F4C04104D0A01990F8400059F820101D4801F0FFFDF0B24FF0FF3150
:202B200006F0C0FD2368C5F800B001E004202860761C2D1D9E42DCD30AA8002130220823A2
:202B400007F036FC002010210AAB114A009004F1080007F029FC0F4951F80D0C20F4F8502C
:202B600040F4005041F80D0C5746C1F8FF7F0A4E376017B0BDE8F08FB43F00505C1E0020F4
:202B800080120840801A0020702F0020007FC767C57000000D30094008000940F0B5002064
:202BA0000C21ADF1640D03F041FD032190FBF1F5680000EB8500C1B2684603F085FA4D4C0F
:202BC000062D24D0072D22D0A779052D0DD004F1A3000021122202F0F1FE04F1970505F124
:202BE0000C060FB90220A0711BE004F1A30069460F2202F091F904F1970503A904F1B200F5
:202C00000A888978028004F1A306817009E004F1A3006946122202F07FF904F1970505F1BB
:202C20000C066079401CC0B26071E87210B9A87F401CA877E87AA38A228AE16910F00300BD
:202C40001DD0401E0DD0401E06D00C20E8710B2200202872114617E01812E8712B7210121C
:202C6000F8E700202C2103F0E1FCE8710B21002003F0DCFC2872A0796872A17C05E0080E23
:202C8000E8710F0C2F72080A6872A9723046014604F006FD12A6012808D0304604F086FFBC
:202CA00007F016FAA07908B90B20A07105F10E0005F10E0104F0F4FC012808D0304604F09F
:202CC00075FF07F005FAA07908B90B20A07140F207301F212A46FEF7D9FD19B0F0BDC04614
:202CE00043727970746F204F70206661696C65640A00C046601E0020B0B5456884684B48B0
:202D0000297BADF1180D012916D0217C627C484B2F7E0143009143EA02010191454937F035
:202D2000010718BF081CA27C1043029095F859000322FF2811D00DE0677C217C3843A37C73
:202D4000019041F00041009143F000403A49029095F85900014304220391FF204DF82200ED
:202D6000694605F15C0002F0B9F9A866002808BF002058D0287B314951F82000012828D0C2
:202D80002068B0F1804F14BF22220A22217CA86E06F0E4F92068B0F1804F14BF2122092239
:202DA000617CA86E06F0DAF92068B0F1804F14BF24220C22A17CA86E06F0D0F995F8591030
:202DC000FF292FD02068B0F1804F14BF23220B2225E02068B0F1804F14BF21220922217CB4
:202DE000A86E06F0BBF92068B0F1804F14BF22220A22617CA86E06F0B1F92068B0F1804F4D
:202E000014BF24220C22A17CA86E06F0A7F92068B0F1804F14BF23220B2295F85910A86E59
:202E200006F09CF9012006B0B0BDC046000480A0004000800004C0A00020008050A50000E0
:202E40002DE9FC4191EA03084CBF4FF000484FF000084FEA03354FEA153556006D414FEA8F
:202E600043075FEA575711BF45F4001500210020BDE8FC814FF4E06E1EF1FF0E77456FD0E8
:202E80004FEA01334FEA133342005B414FEA4104640D11BF43F4001300210020BDE8FC81FC
:202EA00074455DD0E41B002100205FF0360EAB4200D1B24205D340414941921B63EB0503C1
:202EC00001E040414941BEF1010E05D053EA020702D052005B41EAE7BEF1200F09D2BEF134
:202EE000160F0CD3CEF1200720FA07F100FA0EF00FE0AEF1200E00FA0EF1002009E001FA25
:202F00000EF1CEF1200720FA07F741EA070100FA0EF011F4001F02D140004941641E401CEA
:202F200051F1000111F4800F1ABF641C21F4800121F400114FF44077FF37E419DEBF0021BA
:202F40000020BDE8FC8107F58067BC4208D249084FEA300041EA045141EA0801BDE8FC81E4
:202F60000020FF214FEAC101C91D4FEA015141EA0801BDE8FC817047002810B50BD40A289A
:202F800009DA464BC40018591B1920B1186884695868A04710BD4FF0FF3010BD70B5061C20
:202FA0000BD40A2E09DA3E4D286880473B4CF1006058641820B9686880474FF0FF3070BD7E
:202FC000206800690146606888470646B6F1FF3F07D0216800234FF6FE704A892360104015
:202FE000488168688047304670BD70B50646307868B12C4D50242846314606F06BFD002844
:2030000008BF281C04D0283C2835282CF3D2002070BDBFB5044625683A21284606F0CEFDD5
:20302000071C13D07B1B082BC8BF0823684629461A4605F048FC002003F80D006846FFF78D
:20304000D4FF00281CBF7F1C276001D1154828380090BFBD38B5124C009020688047684605
:20306000FFF7D7FF006A014600988847054660688047284638BD002810B50BD40A2809DA4E
:20308000064BC40018591B1920B11868C4695868A04710BD4FF0FF3010BDC0468429002076
:2030A00038300020FC2900202DE9FE43002A894607464CBF47F6FF74141C002F08BF0020A5
:2030C0005FD03B88002B31D03D480088214698422ADA3C4A1088984215DA3B4A168826B997
:2030E00029A2484603F07EFF1CE03848019100260268CDF8009036490296154618466A4694
:20310000A847029D13E03348026800E0126822B110898342FAD1121D00E0042212684846B6
:2031200003F060FF054602E01CA2DAE70025601B26DD388828B1611B48461BA203F052FF4A
:203140004519B868E0B1D7F80480661BB8F1000F0DD0404606F0D4FD401DB04207DC611BFC
:20316000484612A2434603F03DFF4519661B122E06DBBB68611B48460EA203F033FF4519F5
:203180002846BDE8FE83C0467B6D6F64756C652D726F70653A25787D00C046C07B6D6F64DC
:2031A000756C652325647D003A2000C0222573222C2000C06C696E652025643A2000C046ED
:2031C00092A8000042A800008A050000D0A80000AD830000483000202DE9F043044666689B
:2031E000A5680F46ADF1540D07F0DAF896F8A4102D1D012903D107F0CFF8002076E04FF0A8
:20320000010986F8A49007F0C7F81FB90DA806F04FFD0DAF4FF00008C6F8548038693061A6
:2032200078697061387E3076387B307338783070786886F87080706078694146092828BF3C
:20324000494686F85810687800F036FF204603F0FBFAE87B86F859002046FFF74DFD50B9BD
:20326000687801F067F807F09BF886F8A48007F093F8444639E001A841463022082307F029
:2032800097F80694CDF800801A4A297806F11C0001AB07F089F8307878B901A84146242235
:2032A000082307F08DF88DF81C9006F13800414601AA07F081F8104800E0B868B06003F00A
:2032C000EFFAF066307B012806D1B06E0B4906F06FFFB06E00B18460094ACDF8008006F1EC
:2032E00090000421234605F01DFA204615B0BDE8F083C0463139000045A10000097A000088
:2033000069A000002DE9F04F0C4646498A8BADF13C0D84460992487B0D90CE7800964A8BFC
:203320000892888C0C900A8B488C079291F80CE00B908E78CA7A088C0692CB8A0A908A7AC8
:2033400091F804A005924A7AC88B04920A7A91F801800392CA798D8A02928A79CF6A01921C
:203360004A79E146A9F54079B9F11D0F10D8DFE809F0554F4D4B49474543403D3B393634DF
:20338000320F312F2D2B2A24211F1D0F1A191816BCF1270F43DA604604F0BEFA13E0DDF8FF
:2033A00034E0F246D046CDF8148016E00C980B900B980A900A98054620E04431086820608E
:2033C0008888A0802BE00990099808900898079007980690069B238021E005980490049862
:2033E000039001E03E31E9E7039802900298009006E0019A89310DE06A310BE02846E2E7DE
:20340000009E0BE03831D9E7276008E05A3100E04A311022204601F07FFD00E026700FB06B
:20342000BDE8F08FD8220020F0B500684FF0FF31ADF1140D0646483006F0AAFF3A48002509
:2034400005703A4C657204F10800F060042004F001FD04F10807387830F001003BD0801EB9
:2034600019D0801E18BF4FF0FF3753D1E0682169A27A00F0C7FF00284BD1716806F1640039
:2034800006F086FF00283BD003F03AFF2849C1F8B0510D603DE0F8680090388B0190B87829
:2034A0000290387D03907968BA68FB8AF878FEF716FF00282DD1716806F1640006F068FF79
:2034C000F0B104F0CBF920BBF878B968FA8A3B6901F0E2FA1DE0F8680090388B0190B878C1
:2034E0000290387D03907968BA68FB8AF878FEF703FE70B9716806F1640006F049FF08B9A8
:20350000142707E004F08BF918B9F878396902F01BF90746042004F02BFB06F1480006F068
:2035200033FF384605B0F0BDC81D0020241E0020504502402DE9F843804606F065FD0021AB
:2035400000B901213A4D2D1F28680028FCD0DFF8DC90012609F10407FC6A2E6009B106F026
:2035600059FD3448C4F3072100F10804616006F04BFD0146002001B9304601462868002808
:20358000FCD03F682E6009B106F044FDC7F38441A8F5C060A160B8F5C06F2060B4BF6FF0CE
:2035A00001030223626803EB4003032093FBF0F00918104602290FDB1E290BDB3F28B9BFBE
:2035C000521C401C3F22101CE2603029B4BF10391F210DE0E0600BE010F13F0FACBF401ECD
:2035E0006FF03F00E06011F1100FACBF10310021216180B24FF47F420823302100904846AD
:2036000003F070F80096484604214FF40032112303F068F8208A04214FF4F8021223009039
:20362000484603F05FF8BDE8F883C04600A00C4004800C40C82F00202DE9F04707467C683B
:20364000BE6806F0ADFE0834E16C002967D006F0A3FE3168486820F0020048603168486AD5
:2036600020F003004862656EF068B168084369680968C1F804053168486920F001004861F6
:2036800030684FF00108C0F820803068B0F1804F14BF40F201104FF48070234909688847F5
:2036A000384603F0D1F8E06CD0F804A006F078FE1E4D8146287850B11AF0704F02D110200D
:2036C00004F056FA042004F053FA00202870484606F062FEE16C087C042802D00320087437
:2036E000E16CB268F068636E4546104305FA00F258680068C2623068B0F1804F14BF0C48F0
:203700000C480E68006800258204A6EB9250401E086038462268E5649047BDE8F08706F059
:203720003BFEBDE8F087C046780000105D1E002008050020380400202DE9FC4191EA0308A9
:203740004CBF4FF000484FF000084FEAC32545EA52554FEAC2264FEA43077F0D11BF45F064
:20376000004500210020BDE8FC815FF4E06E1EF1FF0E774555D04FEAC12343EA50534FEADD
:20378000C0224FEA4104640D11BF43F0004300210020BDE8FC81744543D0E419A3FB050142
:2037A000A3FB06E7A2FB06631EEB030E57F1000751F10001A2FB05631EEB060E57F100075B
:2037C00051F10001FF1851F10001C01951F100014CBF4FF4806E4FF4007E10EB0E0051F1E8
:2037E000000148BF641C01D4400049415FF44077FF37E41BDEBF00210020BDE8FC8117F557
:203800008067BC420DD24FEAD02040EA41504FEA41014FEA113141EA045141EA0801BDE8B1
:20382000FC810020FF21C900C91D090551EA0801BDE8FC81FEB5384B05461888AB881446FA
:203840000F4698422BDA35480088984216DA3448008888B10097002C54BF111C47F6FF7178
:20386000304800680191002102912F496A4606461846B047029E18E01CA211E02B48006837
:2038800000E0006820B101898B42FAD1001D00E0042002682146384603F0A4FB04E018A24D
:2038A0002146384603F09EFB0646002C02D4A01B0A2806DB2B68A11B384614A203F092FB78
:2038C0008619A88978B1002C06D4A86806F018FAA11B401D884206DCAB68A11B38460CA211
:2038E00003F080FB86193046FEBDC0467B6D6F64756C652D726F70653A25787D00C046C086
:203900007B6D6F64756C652325647D00257000C028272573272900C092A8000042A800000D
:203920008A050000D0A80000AD830000483000202DE9F0470646B1680A687468D069083443
:203940001062400841D2606E40680268CD68D2F80405284206D00B68586A20F00200586271
:20396000C2F80455D2F804258868024256D00A68506A20F0010050628868616E4968096817
:20398000C1F80405E06C00250574E76CD7F804A006F006FDDFF88880814698F8000050B185
:2039A0001AF0704F02D1102004F0E2F8042004F0DFF840460570484606F0EEFC2268E56442
:2039C000304639469047BDE8F0870A68506920F001005061E76CF7B9506820F00200506095
:2039E000506A20F0030050628B68C868616E496809681843B2F1804FC1F804050CBF4FF497
:203A0000807040F20110074909688847304602F01BFFBDE8F0873046FFF70EFEBDE8F087B1
:203A20005D1E00207800001038482DE9FC4700680068014620208847354DDFF8D8A04FF054
:203A400002080F2000214FF4C072072345F82D0C41F61D5045F8290C5046CDF8008002F014
:203A600041FE2D4C012644F8046C54F8040C8008FBD3DFF8A890B9F8000045F81D6C01285A
:203A80001FD0032045F8390C0027276020688008FCD23946504660220523009102F022FEA4
:203AA000266020688008FCD345F8216C45F8397C0820C5F8FF0FC5F8F30F45F8396C4646C5
:203AC00020E00027E760032045F8390C276020688008FCD2CDF8008050463946602205236A
:203AE00002F000FE266020688008FCD3202045F8210C45F8397C0824C5F8FF4FC5F8F34F9F
:203B000045F8396CC9F80460BDE8FC87A001001039400C4000A00C4038600C40C82F002019
:203B200010B50A46002804BF40F6FF70C0F20F0070D041F25030C5F200000068930CC0F3BB
:203B40008361C0F38F2063D242F30724002C28D542F307225342B2F1FF3F4FEA630315DAFF
:203B6000400805D1490806BF0121081C4FF6FF70400804F1010405D1490806BF0121081CA3
:203B80004FF6FF705B1E04F10104E9D1520808D3400805D1490806BF0121081C4FF6FF70E1
:203BA000641C002C34DD022C4FEA640204F001031DDB4FF6FF7C400040F00100844507D2B8
:203BC000480040F001010F2992BF01200F216046400040F00100844507D2480040F001015E
:203BE0000F2992BF01200F216046521EE3D1002B0EDD40004FF6FF7240F00100824207D247
:203C0000480040F001010F2992BF01200F21101C40EA014010BD70472DE9F043ADF1140D2D
:203C200000F0B6FC384C4FF0030908274FF6FF780026254605F01AFD20BB009601A80DF173
:203C400006016A4604F0CCFDE0B9BDF80400102814D1208ABDF8061088420FD10098018841
:203C6000884509D14088C00B08D3042005F12C02014604F019FB01E003F042F9009808B138
:203C800005F068FE608A41082CD320F001002379E178608253EA010224D073B9E079237A59
:203CA0008DF8080005F13E018DF809300A680DF10A031A608988998001E08DF80890607A8B
:203CC0008DF81000A37A8DF8113002A806F058F938B1236B677023B11A6812B11968384615
:203CE0008847608A810806D320F002006082304602F014F9608AC1089CD320F00400608228
:203D000005F0DEFC96E7C046D8220020F8B506F07BF9314C256805F00C000C2855D0E808CC
:203D20002ED22E480068EFF3118780F311882C4EB068002106F024FB7169B269091A8A4273
:203D400038BF002187F3118826480068884217D22548264A264D036812682868B3FBF2F258
:203D60002018891A06F008FB2868201806F000FB0120FDF711FC2868201806F0F5FA25E0E2
:203D8000280922D21B48690939BF016821F00101016841F0010102460160D2F898004FF0CF
:203DA000805440F00300C2F89800D4F8B8018069014620208847D4F8B8010F4C806B216892
:203DC000804701202060206800E030BF06F022F902F06EF8F8BDC046942C0020C0A80000B8
:203DE00078010020B8A80000BCA80000C4A80000A8A800008C2108402C2009402DE9F043D7
:203E00000646ADF11C0D06F0ABFA04F04FFE4FF000090546CDF8009006F032F930F0010089
:203E200002D00098A84202D16FF0040059E070684C4658B1B0F1FF3F05D001A904F012FCEC
:203E400030B107464CE04FF0FF3000E02046019006F082FA0199012701EB000800E0019327
:203E60006868019906F094FA00282ED003A804F017F9D8B9BDF8100002A904F0F7F888B95A
:203E8000B368BDF80800BDF81210059A984748B1BDF81270F781BDF80800B081059B33612B
:203EA0004F4612E00599684604F0BEFD0198641CB0F1FF3FD4D00028D2D006F04DFAB8EB3A
:203EC000000302D001989842C9D2009905F1080004F0D6FF24B1686806F056FA641EFAD167
:203EE000384607B0BDE8F0832DE9FC41FCF77EFB374D4FF6FF764FF000082C4605F0A8FB27
:203F0000002834D1CDF8008001A80DF106016A4604F04FFC30BBBDF804000127102811D1AC
:203F2000E08ABDF8061088420CD1009801888E4205D14088000905D303F0C8FE02E005F0A5
:203F4000E8FF0746009868B167B105F0F7FC09E0A06A05F079FA071C04D005F038FC384683
:203F600005F0D4FCA06A06F043FA0028F0D0218BC80805D321F007012183FEF70FFE218B98
:203F800008090CD321F00F01218306F067F8012805D105F15001022003F0B8F8218B080A4E
:203FA00005D301F47F41218302F08CF9218B880905D321F03F01E0692183401CE061C80998
:203FC0009CD321F07F01218301F01EFE96E7C046601E00202DE9F0470546D5F808906C683E
:203FE0000F46ADF1280D06F0DBF9217819B106F0D3F9002057E00121217006F0CDF91FB90C
:2040000001A805F037FE01AF08A805F0D1FF00268DF8246040F61A23ADF8223004208DF866
:20402000200099F8010008A901F0E6F81F4980460868B8F1000F35D048B9FF208A46009073
:2040400069460AF1040001F049F8CAF80000397C012914BF16494FF0004199F80020114328
:20406000144A1143009102F0FBF8D8B93878607078686060387A2073F8682061387C2076F7
:20408000C4F81C806168284602F0B2FB50B9207B012806D02169084303D0284603F052F9FB
:2040A00000B92E4630460AB0BDE8F0871430002000004080000880A12DE9F04105462E4832
:2040C0000068EFF3118880F311882C4A505D411C0028515549D12A4CA900675C07F03F0071
:2040E0003F280C4401D0FFF7E7FF607800F03F003F2801D0FFF7E0FF668837F07F0019D1CA
:20410000F80911D24FF08054D4F8B801406901463046884704F5DC742068406B01463046B5
:2041200088470128F8D120E0164850F82610012088471AE04FF08054D4F8B801C0690146F0
:2041400030468847D4F8B801406A014630468847D4F8B801C06A01463046884701210A4AAE
:204160000A48116001688908FCD388F31188284604F026FFBDE8F081C0A800004C2A002004
:2041800088A50000642A0020282008602820084032482DE9F0434FF0FF31ADF1340D81462C
:2041A00006F0F6F82A4C2768656806F0F9F8216809682D1D002903D506F0EEF800243FE0FE
:2041C0003968491C396006F0E7F83868A046022835DA2348001F006878602C6800213022DB
:2041E000082301A806F0E4F800261A4ACDF8188007F12C0001AB2146009606F0D5F801A8F9
:2042000024220823314606F0DBF8012407F1640001AA8DF81C40314606F0CEF807F148006D
:2042200001AA214606F0C8F82879FFF745FF07F1180043460421084A009604F073FA44464A
:20424000484606F0A1F820460DB0BDE8F083C04644A800008590000065A10000CC1D0020F0
:204260002C1E00202DE9F041314D044628681F4690460E4680472068B0F1FF3F03D0B8F1FC
:20428000040F02D00FB9686830E0636873B16069010903D3581E05F0EDFB606900216160FB
:2042A000A160E16020F00800216100E06069B8F1000F08BF4FF0010820F00700012F48EA39
:2042C0000000606108BF0026B7F5807F88BF4FF48077AEB97F1C384604F0B0FA06466868CA
:2042E0004EB96169666041F48061616180474FF0FF30BDE8F081616941F00801616100E05E
:204300006868761C66602661BF19A6607F1EE7608047286880470549034A6868116080476B
:204320000020BDE8F081C0464030002045830000383000202D492DE9F0410968EFF31188B8
:2043400081F311882A4B195C4A1E01291A5449D12849800045180E5C6F8836F07F0019D10E
:20436000F00911D24FF08054D4F8B801806901463846884704F5DC742068406B014638460B
:2043800088470228F8D120E01D4850F82710002088471AE04FF08054D4F8B801006A014645
:2043A00038468847D4F8B801806A014638468847D4F8B801006B01463846884701210E4AAF
:2043C0000E48116001688908FCD306F03F003F2801D0FFF7AFFF687800F03F003F2801D0F5
:2043E000FFF7A8FF88F31188BDE8F081C0A800004C2A002088A5000028200860282008408B
:20440000642A00202DE9F84F054643F2540044F200084FF0020B4FF00109C2F20000C4F280
:204420000208C0F800B00E46C8F880974FF0805AC8F884970320C8F8880741F62C60C2F202
:204440000000DAF8B0110478096A174627208847DAF8B00101692720884784F00104C8F82B
:2044600000B704F00104C8F80C74484605F09DFED8F80C040008F8D2D8F89007800F28BF9F
:20448000484621D2012C19BF0820C8F850050C20C8F850051022C8F854250020C8F8580570
:2044A000D8F8001041F00101C8F80010C8F80450C8F80C20D8F8201041F00101C8F82010F6
:2044C000C8F82460C8F82C20BDE8F88F2DE9F8430C46064620687568B768002850D005F0B0
:2044E0005FFF696D21B105F057FF0320207447E04FF0010884F810806C6505F04DFF95F89A
:20450000700030B195F859201F49A86E114304F03BFB3968486840F0020048603046214640
:20452000FBF78CFD3968486940F001004861676805F036FF154C8146207801280AD017F011
:20454000704F02D1102003F085FC042003F082FC84F80080484605F01FFF287830B9696899
:2045600005F13804204605F013FF10B14046BDE8F8833046FFF760F82046002105F008FFEE
:204580000020BDE8F883C046000006805D1E00202DE9FE4F04F09CFC2D4C002565704FF60D
:2045A000FF70E08203F002FCA846284F20702A462B460120CDF800803946019004F1A80050
:2045C00002F09AF94FF0020BCDF800802A462B4604F1CC003946CDF804B002F08DF9042689
:2045E000CDF800802A462B4604F1F0003946019602F082F904F14A09102248462946A670A0
:2046000001F0DCF904F15A0A10225046294601F0D5F904F12C07284638604FF0030884F891
:204620000780102125724A46A57207206072584603F020FE10214046524603F01BFE30460B
:204640003A46014603F016FEBDE8FE8F8D9A0000D82200202DE9F843044640F2B010C1F2D9
:204660000000006843F254070D460126C2F2000741693E602720884744F20008C4F20208B1
:20468000C8F880674FF00309C8F88497D8F8000720F00100C8F80007D8F8000740F0010096
:2046A000C8F80007C8F88897D8F8080420F00300C8F80804D8F8080440F00100C8F80804C0
:2046C00006FA05F5C8F80054D8F8000040F00100C8F80000C8F804401020C8F80C00304695
:2046E00005F063FDD8F890074008F8D3D8F8900710F0404F0BD1C8F888970020C8F8000753
:20470000D8F804148D421CBF3860301C01D100203860BDE8F8837047F8B50D46EEB22908F1
:2047200024BF26494D40264BB400195985EA01020240C2F3006C234A00EA05078143FF32D6
:204740003A4000F4E0270A43B7F5E02F01D1510E15D300F4E0215CEA010710D002F4E027A3
:20476000B7F5A02707D0B7F5803704BF22F4003242F4A02203E022F4803242F4C0221A515B
:20478000114CC10D04D3A4F18001C5F380528A55000E11D305F004FE290E03D2012100225F
:2047A000B14002E00121B1400A46503423688B431A43226005F0F0FDF8BDC046006000A06A
:2047C00000100840007F077F802002402DE9F84F0D468246287A9B4691460AAF800928BF9F
:2047E000082048D22878DFF89480FF26022836D1696848780B7842F60212002403EB002301
:204800009B1A06D04DF2EF601B1A21D0D81E1DD01AE099F801304BB999F80000012805D126
:2048200001214046017005F0E9F903E04046047005F0EEF938885B4629464A460090504649
:2048400002F0F6FB04460BE00A2409E0042600E00126E8684946142200F05EFB02E0012493
:20486000FF2E07D04046001D006818B1016809B1304688472046BDE8F88FC04640280020D8
:2048800038B504462568B5F1FF3F12D063690020990909D3616839B1A268914204D0521A54
:2048A0002846FEF769FB6369002805D543F4806363614FF0FF3038BD60682061A060D809F8
:2048C00024BF23F030036361002038BD2DE9F843164C07462068F7B98047154801680025EC
:2048E00000291DDD80462E4608F18C0757F8180FB0F1FF3F0BD0206880473846FFF7C0FF1D
:20490000814660688047D8F8001049EA0505761C8E42EBDB04E080473846FFF7B1FF0546E2
:20492000606880472846BDE8F883C046383000205026002041F21C3010B5C5F200000468CF
:20494000B4F1FF3F08BF002405F0C6F940F2844346F25C01002242F2082E012040F2801CCC
:20496000C4F26023C4F20C011A60C4F2043E0860C4F2283CCEF80000DCF8000038B140F292
:204980000010C4F2203000682046FCF7A3FA44F20402C4F203021068052142F24803C2F2DB
:2049A0000001C4F2030320F003000143116019684FF0000EC0F2391E6FF35B414EEA010064
:2049C0000421C4F2090118600868C0F30130012809D10A684FF6FF70CFF6FC40104040F478
:2049E00000320A60086010BD29482DE9F84FD0F80090EFF3118589F31188264CA068012197
:204A000005F0BEFC4FF0010A4FF00008064621686769A4F81CA02068A4F81E80791A321AB8
:204A20008A42A6EB07062DD385F311884546EF195046394605F08CFC761B0546B542F6D934
:204A4000EFF3118B89F31188E08B012804D14046394605F07DFC0546B5F1FF3F06D0A169D8
:204A6000AD1BA94238BF0D1CE91901E0A5697919284605F069FCA4F820A0A4F81C805D46E1
:204A8000276001E0A4F81C8085F31188BDE8F88FC0A80000780100202DE9F04744F250560F
:204AA0000446002598468946ADF1100DC4F20206A2EB040AC6F8B051012005F076FB3068E8
:204AC000C00FF9D3306A0090706A0190B06A0290F06A0390CCB160084FEA540708BFAC46DB
:204AE0000DD0414624F0010C684610F8013B10F8012B01F8013B7F1E01F8012BF5D16008E6
:204B000024BF1CF80D0008F80C000320C6F8380274B1D144A8F10108A9F1010919F8010FC9
:204B200018F8011F884218BF042007D1641EF5D143F254012846C2F200010D6004B0BDE8ED
:204B4000F08770472DE9F04104466668A5680F46ADF1480D05F024FC31782D1D012903D16D
:204B600005F01AFC00203AE04FF0010886F8008005F012FC1FB90DA805F05CF90DAF787923
:204B800070733879307310A805F0DAFB11980021302208234008706001A805F009FC3A68B8
:204BA00006943AB100200090296801AB06F1400005F0FAFB204601F061F80025234606F12D
:204BC00018004146074A009503F0ACFD06F12C0004212346044A009503F0A4FD204612B064
:204BE000BDE8F08139A2000035A2000010B505F0C9F84FF47A7005F003FC4FF08054D4F872
:204C0000A001016890208847D4F88C0003F01AFC00F0C4FB042003F01DF91C4900200860E1
:204C200005F08CF8044600F0D7F8042002F0A0FF05F0A0F8204604F0D9FA03F0D3F80CA217
:204C40000CCAFEF779FD02F0F1FA03F0CBF80AA20CCAFEF771FD0AA20CCAFEF7F1F802F049
:204C6000E5FA094900F069FE03F086FB80B210BDDEAC9A774634513F0000000000F89640C6
:204C80000000000000607D4000007A441C900C401CB5274CE41EE179401E22D0401E13D010
:204CA000801E012819D9801E41D104F1B80005F0B9FA40F215306946FEF724FBE079B0B340
:204CC000022000F053FA1CBD11B1012000F04EFA04F1B80005F0A4FA1CBD142004F00CF93B
:204CE0001CBD04F134014FF44170FEF70BFB00218DF8031094F835308DF8041094F836209D
:204D00008DF8013094F834008DF8022094F839108DF8000094F837308DF8071094F83820A9
:204D20008DF8053068468DF8062005F033F81CBD631E0020F8B5264C2068EFF3118680F333
:204D4000118824491D4D0B680420B0FA80F043F00403281A1F3002780B60521C027086F329
:204D600011882068EFF3118380F311880A680820B0FA80F042F008022D1AE87F0A60401C2C
:204D8000E87783F311880E20FFF796F90C480068C0F38150032814BF0020012009490A4ACD
:204DA000088017683FB9094C402020600123D36100204860F8BD0120F8BDC0465F2A002065
:204DC000B43F0050C82F002004800C402C500C40C0A80000942C0020F8B505F015F90021C8
:204DE000002808BF012148F20005C4F20C05286810B928680028FAD04BF22806792048F283
:204E000011070124C4F20C06B070C4F20C0747F8114C09B105F0FEF805F0F6F80021002837
:204E200008BF211C286810B928680028FAD0747047F8114C09B105F0EDF805F0E5F800218C
:204E4000002808BF211C286810B928680028FAD0FB20307047F8114C09B105F0DBF846F23A
:204E60003001002049F2100EC4F20C010860C4F20C0ECEF80000F8BDF0B520480127F842A3
:204E800001D002F063F8204D204F214EBD4206D203CD0478A4003459401CA047F6E71D48D0
:204EA000002800D08047164D164FBD4202D210CDA047FAE7F0BD03251BE0416808300A1C1C
:204EC0002A400BD11A1C2A40AB4305D0046804300C600431043BF9D1131C05D0047801302E
:204EE0000C700131013BF9D1021C2A4001D0A84304300368002BE0D17047C046FFFFFFFF86
:204F0000000000000000000018B00000A0B0000098AF000059C50110002A4AD05FEA000C6A
:204F20008B071CD1830722D1102A08D370B4103A78C978C0103AFBD270BC103238D0042ABE
:204F40002CD3082A05D30C2A24BF08C908C008C908C008C908C092072AD0920F22E00B78AB
:204F60000370491C401C521E22D08B07F7D1C30714D18307D8D0121F12D308C903801B0CCF
:204F80004380001D121FF8D20AE008C903701B0A43701B0A83701B0AC370001D121FF4D2AC
:204FA000121D05D00B780370491C401C521EF9D16046704770B5054603F0BAFD41F63864B2
:204FC000C2F200046668034603F0AAFC22699B1B4FF47A715943090C801A48BF404240F6F0
:204FE000B83249198A4216D3062814DAA268E068824210D8216871B1801A44F24022C0F207
:205000000F024243900C00EB1240814212D90846C82811D312E043F6AC71C5F200014868A1
:20502000400828BF4FF4FA600DD209687D2001F0FF014843C82801D2C82070BDB0F57A6FD5
:2050400088BF4FF47A6070BDF8B5224D064628680C468047204601F0CAF910B96868804734
:2050600032E0606900F00700042819D0A068E168814204D82046FFF703FCF8B9A068411CE8
:20508000A160F7B207706069800805D30A2E03D12046FFF7F5FB88B9686880473846F8BD63
:2050A00020688DF8006069460122FDF765FFB0F1FF3F03D068688047F0B2F8BD606969681F
:2050C00040F48060606188474FF0FF30F8BD0249FFF7BABF383000200C2700202DE9F84323
:2050E000204D884606464FF0FF3105F12400814605F04EF9002000E0401CB8F1000F0DD0AC
:2051000018F82010FF2909D02A688A4204D905EB8101096E0029EFD000261CE00024346068
:2051200074600127B4600EE005EB80000B787268066607FA03F0104370600A680A493046E6
:2051400003F00CFD641CB8F1000F04D008EB84010878FF28E8D1484605F016F93046BDE8C2
:20516000F883C046801A0020007FC7672DE9F843204D8046B8F1010F21D100276F704FF0D3
:20518000010985F8009004F043FD2879B8B13C46122638464A4600960146134600F090FB41
:2051A000EB78641CE4B2082C02DC0028F1D002E00BB90920E87004F017FD04F0E7FFB8F1C9
:2051C000020F15D100242C7001266E7004F020FD287968B12046009431460222034600F07A
:2051E0006FFB2346304602220093014600F068FBBDE8F883631E0020F8B50F46810001EBE5
:20520000C0001E49461845587468A41D0FB91C4FBF1F387830B97888312818BF322814D1B6
:20522000307A90B905F0BCF88446387830B96978AA7800230A4318BF012302E0317A6918F3
:205240004B7823B1604605F0A7F80020F8BD18B901206870A87003E0307A01212818417026
:20526000604605F099F8387828702078FEF724FF3046394602F0E0FE3046F8BDE0A4000096
:2052800006A7000038B5042003F0D5FE1A4C022818BF03281FD103200090164800214FF097
:2052A00040521C2301F01EFA17480068EFF3118380F3118815480421B1FA81F1401AC17F92
:2052C0004A1E0129C27703D1206820F00400206083F3118838BD094D0A48094A2968036818
:2052E0006018B2FBF3F105F047F82868201805F03FF838BD00A00C40942C0020ACA8000068
:20530000A0860100C4A80000C0A800005F2A002010B51A481A490078086820F0030040F034
:205320000100086002F07CF903F073F80021154C154821600068C0680146022088471349BB
:20534000134A086820F0010008601068D4F8EC1FEFF3118480F311880E4B0F481A680421DE
:20536000B1FA81F1401A42F00402C17F1A60491CC17784F311884FF0FF3010BD5C1E002042
:205380000440034040100940A00100108C210840C0A80000942C00205F2A0020F8B504F0B5
:2053A00033FE0021002808BF012148F20004C4F20C04206810B920680028FAD04BF218075F
:2053C000012548F21106C4F20C07C7F80250C4F20C0646F8115C09B104F01CFE46F23001D8
:2053E000C4F20C010D600868800802D208688008F9D349F2100140F60110C4F20C0108602F
:2054000004F002FE0021002808BF291C206810B920680028FAD01B20386046F8115C09B140
:2054200004F0F8FDF8BDFEE7F8B505461E480068EFF3118780F311881C4C20684FF0805698
:2054400040F080002060D6F88C014068014601208847D6F8B001006A01461420884728691E
:2054600006F5C675810C14BF010C04212868406A024601209047D6F88401006823210246A3
:20548000002090472868C069014601208847206820F4C02040F480302060206840F001008C
:2054A000206087F31188F8BDC0A800000020094010B5994201D1904233D050EA020404D177
:2054C00041EA03046400002C2BD050EA410401D19C4226E04C006415641C07D15C006415E8
:2054E000641C03D1DC0FB4EBD1741AE0002B0CD4002916D4994214D190EA020401D490428A
:205500000FE0002A0DD101240BE0002909DC8B4207D190EA020401D4824202E0002800D1DD
:205520000124EFF3008454BF44F0005424F0005484F3008810BD10B58B4201D1824233D0E6
:2055400052EA000404D143EA01046400002C2BD052EA430401D18C4226E05C006415641CFB
:2055600007D14C006415641C03D1CC0FB4EBD3741AE000290CD4002B16D48B4214D192EA33
:20558000000401D482420FE000280DD101240BE0002B09DC994207D192EA000401D490427F
:2055A00002E0002A00D10124EFF3008454BF44F0005424F0005484F3008810BD80B5071C5C
:2055C00038D041F2783043F6AC72C5F20000C5F2000200685168C0F3035EC0F3034C490899
:2055E00018D211680A051EEB227E05D4BEF1100F04DB4FF00F0E01E04FF0000E09041CEB6C
:20560000217C05D4BCF1100F04DB4FF00F0C01E04FF0000C4CEA0E1C00F47F4100F0FF02DE
:20562000222F41EA0C4142EA010207D300F08040104380BD43F62772C0F27102104680BDCE
:20564000F8B5001D84B214F0030002D0241A241DA4B204F088F801461948102C4768016034
:20566000C8BF8768388800221646C30BDD0319D126B984420ADD3A46012617E01388C3183E
:205680009BB29C42138011DC174618469FB1001B80B20428B4BF3C88385344F400443C80E1
:2056A0003F1D08E080F40040002680B2C71938880028DAD10027084604F06AFA3846F8BD27
:2056C000182B0020B0B50446A768ADF1280D27BB0C20FFF7B5FF071C16D068460021242200
:2056E000082304F029FE002306976A466168ADF810301448059304F01BFE386038B904F0C8
:205700003CFA384603F04EF96FF0030018E0E06878602069B860A7600AE004F024F8054634
:20572000386804F021FE2069B860284604F030FA3868616804F020FE386804F019FE002043
:205740000AB0B0BDBD9F0000F0B544F2505400260D460746ADF1140DC4F20204C4F8B06139
:20576000012004F022FD2068C00FF9D3206A0090606A0190A06A0290E06A0390CFB17908E3
:205780004FEA570008BFB6460DD02A4627F0010E694611F801CB11F8013B02F801CB401E56
:2057A00002F8013BF5D1780824BF1EF80D0005F80E00032043F25401C4F8380205B0C2F250
:2057C000000130460E60F0BD2DE9F043ADF13C0D04F012FEDFF86880174C002506466846C2
:2057E00000213C22082304F09FFD58F8042F6068A768069023680897694605920F48049321
:20580000002204F08DFD071C10D003F0ACFF8146384601F029FB48B1484604F0B9F9241D7F
:205820006D1CDCD0304604F0CFFD01E001F0F2FD0FB0BDE8F083C04608A40000F59D000021
:20584000082B0020B0B54868944604AF4178BA883D880078002400EB012042F62321401A15
:205860001AD01549401E0AD0401F20D1152D1CD8C5F11500904298BF82B2133106E0122D91
:2058800013D8C5F11200904298BF82B21A8049196046FFF741FB0CE0082D06D8C5F1080067
:2058A000904298BF82B20549F0E7072401E01C800A242046B0BDC04630A600001C2C002079
:2058C0002DE9F84308AF3C881E4690468946054603F0C8F901282DD1284603F021FB2846E2
:2058E000494602F0E1FD012824D12846414602F0C2FD01281ED1012E07D028462A2181220B
:2059000000F0D2F8012812D014E062112846282102F0080242F0020200F0C6F8012809D1C1
:205920002846E2B2292100F0BFF8012802D10120BDE8F8830020BDE8F883FCB590EA0106C5
:205940004CBF4FF0004600264FEA00224FEA40031B0E12BF42F000420020FCBDFF2B24D055
:205960004FEA01244FEA41052D0E12BF44F000440020FCBDFF2D18D05B19A2FB0454002C44
:205980005CBF64005B1E803424BF5B1C64087E3BDCBF0020FCBDFF2B07D24FEA142030F4D4
:2059A000000040EAC3503043FCBDFF27FF0546EA0700FCBD002213460A46194671B510F014
:2059C000030F0BD0002A82BF00F8011BB2F1010210F0030FF6D1002A08BF71BD11F0FF01BC
:2059E00041EA0121042A18D341EA0141082A0FD30E46102A08D30C460D46B2F10F0312F0FB
:205A00000F0272C0103BFCD812F0080F18BF42C012F0040F18BF40F8041B12F0020F18BF05
:205A200020F8021B12F0010F18BF017071BDFEE770B5154686684268B1F1200002F10C04E7
:205A400027D0401E21D0401E1CD1906E15492A78114300F005FC90B93068B0F1804F14BF4E
:205A600023220B222978E06D03F078FBE06D94F84D1001F035F9287884F84D0010E04FF073
:205A8000FF3070BD6FF0010070BD002084F8640070BD21780020012908BF012084F8640045
:205AA000002070BD002000802DE9F04107460320ADF1200D002688460290184CCDF80CD0EC
:205AC000154605968DF8018001A804900A208DF8000020688DF8025047B91A21324603F0D9
:205AE00069F802A803F0E0FC1A2107E01721324603F060F802A803F0D7FC1721206801225C
:205B000003F058F83846414600F090FD014630468D4208BF012008B0BDE8F081482F0020E7
:205B2000F8B54168027A194B0D681101A1EB42019A1D8C186688525A40F201115140144AB1
:205B4000A4880A43E9680A40EA60EA684E21B1408A43EA60017A04270801A0EB4100002182
:205B60001B180C3333F8020B7F1E40EA0101F9D1A8698843A861641969624FF0FF37A7623D
:205B800027630026A6632664F8BDC04600A70000FEFEFFFF70B50646F088F5680628A5F15C
:205BA00008052CDAB088062829DA03F0DCFD154CF28891000C3401EBC20161184968E1B186
:205BC00003F0E6FF30792870B0796870307AA870F188880000EBC1002018F16840680830CB
:205BE00002F022FFF188880000EBC10024186068406804F0C9FB002070BD03F0C9FF6FF01A
:205C0000020070BD402B002010B51B4CE01C0078ADF1500D012803D16846242100F054FA01
:205C20002079012826D10020694603F017FAE27B68460AA900F03CFCE07B012814D1A07B6E
:205C4000FF23C00084F8633040F0020084F8500004F1DC0004F0E4FAA07B401CC0B2102891
:205C600008BF0020A073E07B401CC0B2022808BF0020E07314B010BD601E002080B5416890
:205C8000194A1A48091D0830C0F8F82BD0F8F82B012AFBD00A6840F8082C0A7A012A19BFC0
:205CA000026822F00202026842F0020202604F7A002F07BFD0F8101441F48071D0F81014A6
:205CC00021F48071C0F81014016821F004010160016841F001010160016841F00101016008
:205CE0000127C0F8F87B80BD51E5CC1A0000084041F2A00108B5C5F20001D1F878020B68B1
:205D0000020F03F0FF03802B28BF002302F02BF94FF0FF3188B1401E05D0401E1FD1F2B9DE
:205D20000A3358B208BD101C02D0801E02D016E00A2008BD143358B208BD1046401E0DD05D
:205D4000801E04D0001F04D0401E04D007E0142008BD152008BD163358B208BD0A21084641
:205D600008BDFEE7F0B5ADF1440D684603F0A0FF1548049001268DF80060082705970025B8
:205D80008DF8185011488DF80C5069460290284603F040FE0E4C206004F0B9F903F074FF16
:205DA00024223B4608A8294604F00AFB314608AA04F108008DF8386004F0FEFA21682846DE
:205DC00001B1304611B0F0BD00127A0021A00000881D0020F0B5ADF1440D684603F068FF7F
:205DE0001548049001268DF800600827059700258DF8185011488DF80C50694602903046D8
:205E000003F008FE0E4C606004F081F903F0F6FD24223B4608A8294604F0D2FA314608AA4C
:205E200004F124008DF8386004F0C6FA6168284601B1304611B0F0BD001BB7002DA000000C
:205E4000881D002038B50079184CA0B903F08BFC2178002904BF6FF00704051C13D0491E86
:205E6000C9B2217029B903F093FE606802F02AF818E0054613E003F076FC05462078FF282F
:205E800005D16FF00604284603F082FE0BE0401CC0B20128207002D1606802F02EF828464F
:205EA00003F076FE0024204638BDC0463030002045F2280080B5C4F2090007686FB343F659
:205EC000AC70C5F20000826802EA5201C90E24D24168890821D20021C4F20901D1F800C062
:205EE00000681CF0050F4FEA104000F0F00000F5E0700CD1B84210D2100F38BF4CF0010C54
:205F0000D00E38BF4CF0040CC1F800C080BDB84284BF2CF0050CC1F800C080BDFEB5194C72
:205F20000546208C218B81420CDC618B814209DBA08B618C884205D1E08BA18C884208BF9F
:205F400018271DD0052001F0E7FC278B638BADF80270A28BADF80430E18BADF806200646DC
:205F6000ADF80810E08AADF80000684604F014F8071C05D1A57304F1F000314601F0C2FE89
:205F80003846FEBDD8220020F8B5044625686769B5F1FF3F07F4805702D0FEF771FC10B1AF
:205FA0004FF0FF30F8BD6069000907D36068401E03F060FD606920F008006061002060601A
:205FC000A060E0602068FCF7E9FF06464FF0FF3020604FB1054C20688047054800EB0510F7
:205FE000FDF738F8606880473046F8BD3830002054260020F0B50E4615460746ADF11C0D39
:206000004FF6FF7103AA03F0F9FA059018B300210091BDF80C10FF240DF112030246019145
:206020002946029400F092FD041C0FD16889ADF81000700804D3384604A903F087FB03E064
:20604000384604A903F01EFF041C05D004A81B2103F0E2FA00E01524204607B0F0BD2DE960
:20606000F041054615F8017B90460E461CE0B8F1000F05F101050BD0FF2C09D8022015F82B
:20608000011B401E41EA0424F9D101E0042C02D315F8011B00E0394630462246FFF78EFC9D
:2060A000A61901E006F8010B15F8010B8742F9D115F8014B002CE9D115F8010B2C7800028C
:2060C0002418D4D1BDE8F081F0B5044616480022ADF11C0D0D46154ECDF808D00078049232
:2060E0001A218DF80000681C01903068039402F061FD01A803F0D8F930681A21012202F0F7
:2061000059FD022D0DD3611C6F100A7848787F1E01F102014FEA001040EA221004F8010B9D
:20612000F3D107B0F0BDC046FFA60000482F0020D0B51E4603461748082706600446037111
:2061400011F8013B7F1E637104F10104F8D136B112F8011B761E417300F10100F8D100BFF7
:20616000D0BD84460B48E0B50D460827014606680A797F1E01F101010CF8012BF8D13DB1AE
:2061800036B1017B761E00F1010005F8011BF8D1E0BDC046601900202DE9F84F061C28D081
:2061A0001548017800244FF6FF7A81461FE0A00036F800B03518DA4515D0AF789FB102F029
:2061C00085FF5FEA00080ED0780804D3584601214246FFF70FFFA878800804D32888022117
:2061E0004246FFF707FF99F80010641CE4B2A142DDDCBDE8F88FC046D822002010B5012096
:2062000002F019FF012829D04AF20000342101220023C4F20C0001F02DF8002808BF002094
:206220001DD08020C1F200000068804702F080FC41F6386344F24022C2F20003C0F20F029D
:206240009C681968D860041BA1EB91016243120C8A4224BF1A60012001D21960012010BDFD
:206260002DE9F041071C0E4604D0144C2068F5B2A84202D80220BDE8F08104F124004FF0A9
:20628000FF31804604F084F804EB85046034206860B979680120A840276032460843084966
:2062A0007860384602F05AFC002400E00124404604F06AF82046BDE8F081C046801A0020FF
:2062C000007FC76710B5FEF791FC154C154B20809868400804D30120986002F021FB608043
:2062E0001868400812D30120186053F8040C02F07DFF01F077FD06A20CCAFDF71DFA06A2F9
:206300000CCAFDF719FA01F0A5F8A08010BDC0460000000000408F40000000000000703F61
:20632000701E00202C5009402DE9F0470024002B16460F468046254606D5002FC3F10003AB
:2063400002D57F42761E2D25DFF83CA099463846494601F0C5F91AF80100B7FBF9F7002F8D
:2063600004F1010408F8010DF1D1A64205DD3021301B401E08F8011DFBD10DB108F8015D89
:206380004046BDE8F087C04630A8000098B541F23403C4F2090318680004070C26D002F085
:2063A000BFFA41F65462C2F2000292F90710814205DD10F1800FB8BF6FF07F00D0719188FB
:2063C000B94212D81468D3F8D40F001B801C1F2888BF1F207F1A4008C7404FF6FF70C919AC
:2063E000884238BF011C918098BD978098BD98B504462068B0F1FF3F05D06269500904D31F
:2064000042F480626261002098BD100A05D320460021022200F0C0FD626990094FF000013E
:2064200004D2D00924BF42F02002626167684FB9D00807D202F0070220464FF48073FDF7A0
:2064400011FF0146E2680020226101B9012098BDF8B506AF3F881D461446002F18BF0B20B1
:2064600022D148684278007842F61927002600EB022087420BD042F60812824218BF0A26DB
:2064800011D102202880C868008820800BE001F055FC0649491C0A788242C4BF021C0A70B6
:2064A0000120288022703046F8BDC046A02B002002EBC20210B5D3B2144A4478D2180378EB
:2064C0001B0143EA241353704478837864F31F139370C3784479D37003791B0143EA2413FF
:2064E00013714379087863F31F1050714878CB7890718878000140EA2310D071CB7808792F
:2065000063F31F1010724879507210BDB01E002038B503F045FF154C0546A01D008840B928
:20652000FEF708FC0446102000F03EFA012C0DD017E0FFF763FE60B10020E080FEF7FAFBED
:206540000446102000F030FA012C0AD1FDF76CFA07E030340521204603F00EFF204603F015
:2065600007FF284603F018FF38BDC046942C0020F8B5054605F128020CCA0846002103F072
:206580009DFA05F1300292E8C00036184FEA164447EB01073804044302F0CAFA211AB1F1D1
:2065A000004F08D8011B091DC90F05D1001DA04288BF041C00E0041D04480068426A21468E
:2065C00001209047383585E8C000F8BD8C0100102DE9F0410468884603F0E2FE08342278AD
:2065E0004FF0FF3601250721074605FA01F0104202D0491EF9D503E022780E46104320708F
:20660000B6F1FF3F0CD031464046FEF723F838B12178B54085F0FF004FF0FF360840207075
:20662000384603F0B9FE3046BDE8F08190B507460320ADF11C0D00220290124CCDF80CD077
:206640008DF8011001A804900B208DF80000206805923FB91A2102F0ADFA02A802F024FF0D
:206660001A2106E0172102F0A5FA02A802F01CFF17212068012202F09DFA9DF8060007B0BB
:2066800090BDC046482F00201549096822280ADC222819D00C380FD00E380FD0001F0FD098
:2066A000C01E0FD01AE0263810D0401F10D0401E10D0401E10D011E00868704748687047AB
:2066C00088687047C86870470869704748697047C8697047086A7047486A7047002070474B
:2066E000F00100202DE9F041984600EB41001646B8F1100F06AF00F5007404D3A8F110086E
:2067000000F50174360C3D8803F07EFC05FA08F545EA06450021002808BF012148F20002B7
:20672000C4F20C02106810B910680028FAD025600120106009B103F06DFCBDE8F0817047F1
:2067400038B505466868297A02680801A0EB41001049095A40F2011048400D490143D068F6
:206760000140D1602C6803F01BFE2A7AA11891F8441011B903F010FE38BDA418002184F8B4
:20678000441003F009FE042001F0F2F938BDC046FEFEFFFF06A70000B0B5044603F0E0FD8A
:2067A00000F062FB054602F0DEFF0146A2880F480023243030F80C7F5FB902804560A3811D
:2067C000A2688260686820610024084603F0E0F909E0974208BF6FF00204F6D05B1C062BE2
:2067E000E8D300F017FE2046B0BDC0461C2B0020B0B54068041D40780D4601F04BFA0746DD
:206800006FF07F40B8420CD35FB1217AE26801290AD051EA020007D002290DD02069B842E9
:206820000AD96FF00200B0BD384600F081FA01462161A06903F082FC25606760A0693946A7
:2068400003F078FC0020B0BD7FB5866831684568486820F0020048603168486920F00F0009
:20686000486130680321016202A803F069FD0B4800680468286900906869074B0190297EAA
:2068800003EB81010A6A297B306853F821300399A04700907FBDC04650A50000C40100101D
:2068A000F0B5144C241F65686879ADF1340DFDF703FC03F075FD26680746307890B901A836
:2068C00000213022082303F073FD069400200090074A297901AB301D03F066FD012030706A
:2068E00002F0A2FD384603F057FD20460DB0F0BD19A1000058A800002DE9F0410D461446C4
:206900009846064606AF002124220823ADF1280D684603F011FD786806900C4800684FF40F
