:020000021000EC
:10020000E04F0120B5B1010035F10300A1B10100BB
:10021000A1B10100A1B10100A1B10100A1B1010092
:1002200000000000000000000000000075B30100A5
:10023000A1B1010000000000CDB20100A1B1010098
:10024000ADB50100ADB50100ADB50100ADB5010022
:10025000ADB50100ADB50100ADB50100ADB5010012
:10026000ADB50100ADB50100ADB50100ADB5010002
:10027000ADB50100ADB50100ADB50100ADB50100F2
:10028000ADB50100ADB50100ADB50100ADB50100E2
:10029000ADB50100ADB50100ADB50100ADB50100D2
:1002A000ADB50100ADB50100ADB50100ADB50100C2
:1002B000ADB50100ADB50100ADB50100ADB50100B2
:1002C000ADB50100ADB50100ADB50100ADB50100A2
:1002D000ADB50100ADB50100ADB50100ADB5010092
:1002E000ADB50100ADB50100ADB50100ADB5010082
:1002F000ADB50100ADB50100ADB50100ADB5010072
:10030000ADB50100ADB50100ADB50100ADB5010061
:10031000ADB50100ADB50100ADB50100ADB5010051
:10032000ADB50100ADB50100ADB50100ADB5010041
:10033000ADB50100ADB50100ADB50100ADB5010031
:10034000ADB50100ADB50100ADB50100ADB5010021
:04035000ADB5010046
:1003580081F0004102E000BF83F0004330B54FEA6E
:1003680041044FEA430594EA050F08BF90EA020FDB
:100378001FBF54EA000C55EA020C7FEA645C7FEA6E
:10038800655C00F0E2804FEA5454D4EB5555B8BF91
:100398006D420CDD2C4480EA020281EA030382EA02
:1003A800000083EA010180EA020281EA0303362D94
:1003B80088BF30BD11F0004F4FEA01314FF4801C67
:1003C8004CEA113102D0404261EB410113F0004F79
:1003D8004FEA03334CEA133302D0524263EB430330
:1003E80094EA050F00F0A780A4F10104D5F1200ECE
:1003F8000DDB02FA0EFC22FA05F2801841F1000129
:1004080003FA0EF2801843FA05F359410EE0A5F1FC
:1004180020050EF1200E012A03FA0EFC28BF4CF02D
:10042800020C43FA05F3C01851EBE37101F00045E3
:1004380007D54FF0000EDCF1000C7EEB00006EEBF0
:100448000101B1F5801F1BD3B1F5001F0CD349087A
:100458005FEA30004FEA3C0C04F101044FEA4452D1
:1004680012F5800F80F09A80BCF1004F08BF5FEA58
:10047800500C50F1000041EB045141EA050130BD38
:100488005FEA4C0C404141EB0101013C28BFB1F54A
:10049800801FE9D291F0000F04BF01460020B1FA95
:1004A80081F308BF2033A3F10B03B3F120020CDA68
:1004B8000C3208DD02F1140CC2F10C0201FA0CF046
:1004C80021FA02F10CE002F11402D8BFC2F1200CAB
:1004D80001FA02F120FA0CFCDCBF41EA0C01904061
:1004E800E41AA2BF01EB0451294330BD6FEA0404AA
:1004F8001F3C1CDA0C340EDC04F11404C4F1200295
:1005080020FA04F001FA02F340EA030021FA04F3A6
:1005180045EA030130BDC4F10C04C4F1200220FAFD
:1005280002F001FA04F340EA0300294630BD21FA3B
:1005380004F0294630BD94F0000F83F4801306BF01
:1005480081F480110134013D4EE77FEA645C18BFF5
:100558007FEA655C29D094EA050F08BF90EA020F8C
:1005680005D054EA000C04BF1946104630BD91EA84
:10057800030F1EBF0021002030BD5FEA545C05D187
:100588004000494128BF41F0004130BD14F58004C6
:100598003CBF01F5801130BD01F0004545F0FE413A
:1005A80041F470014FF0000030BD7FEA645C1ABF6F
:1005B800194610467FEA655C1CBF0B46024650EAA6
:1005C800013406BF52EA033591EA030F41F40021D2
:1005D80030BD00BF90F0000F04BF0021704730B558
:1005E8004FF4806404F132044FF000054FF000012D
:1005F80050E700BF90F0000F04BF0021704730B5EE
:100608004FF4806404F1320410F0004548BF4042C2
:100618004FF000013EE700BF42004FEAE2014FEA17
:1006280031014FEA02701FBF12F07F4393F07F4FF2
:1006380081F06051704732F07F4208BF704793F0F5
:100648007F4F04BF41F40021704730B54FF4607408
:1006580001F0004521F000411CE700BF50EA01020B
:1006680008BF704730B54FF000050AE050EA0102B4
:1006780008BF704730B511F0004502D5404261EB24
:1006880041014FF4806404F132045FEA915C3FF465
:10069800D8AE4FF003025FEADC0C18BF03325FEA02
:1006A800DC0C18BF033202EBDC02C2F1200300FAB3
:1006B80003FC20FA02F001FA03FE40EA0E0021FAD8
:1006C80002F11444BDE600BF70B54FF0FF0C4CF4C6
:1006D800E06C1CEA11541DBF1CEA135594EA0C0F78
:1006E80095EA0C0F00F0DEF82C4481EA030621EAB3
:1006F8004C5123EA4C5350EA013518BF52EA0335EE
:1007080041F4801143F4801338D0A0FB02CE4FF09F
:100718000005E1FB02E506F00042E0FB03E54FF0CF
:100728000006E1FB03569CF0000F18BF4EF0010EC7
:10073800A4F1FF04B6F5007F64F5407404D25FEAC3
:100748004E0E6D4146EB060642EAC62141EA555176
:100758004FEAC52040EA5E504FEACE2EB4F1FD0CB8
:1007680088BFBCF5E06F1ED8BEF1004F08BF5FEA36
:10077800500E50F1000041EB045170BD06F00046E8
:1007880046EA010140EA020081EA0301B4EB5C0495
:10079800C2BFD4EB0C0541EA045170BD41F480118D
:1007A8004FF0000E013C00F3AB8014F1360FDEBFB2
:1007B800002001F0004170BDC4F10004203C35DA8E
:1007C8000C341BDC04F11404C4F1200500FA05F311
:1007D80020FA04F001FA05F240EA020001F00042B2
:1007E80021F0004110EBD37021FA04F642EB060128
:1007F8005EEA430E08BF20EAD37070BDC4F10C0452
:10080800C4F1200500FA04F320FA05F001FA04F215
:1008180040EA020001F0004110EBD37041F1000101
:100828005EEA430E08BF20EAD37070BDC4F120050C
:1008380000FA05F24EEA020E20FA04F301FA05F274
:1008480043EA020321FA04F001F0004121FA04F21C
:1008580020EA020000EBD3705EEA430E08BF20EAEC
:10086800D37070BD94F0000F0FD101F00046400026
:1008780041EB010111F4801F08BF013CF7D041EAA8
:10088800060195F0000F18BF704703F000465200AC
:1008980043EB030313F4801F08BF013DF7D043EA7D
:1008A8000603704794EA0C0F0CEA135518BF95EA33
:1008B8000C0F0CD050EA410618BF52EA4306D1D1BA
:1008C80081EA030101F000414FF0000070BD50EAD9
:1008D800410606BF1046194652EA430619D094EA63
:1008E8000C0F02D150EA013613D195EA0C0F05D14D
:1008F80052EA03361CBF104619460AD181EA0301A1
:1009080001F0004141F0FE4141F470014FF0000058
:1009180070BD41F0FE4141F4780170BD70B54FF0F3
:10092800FF0C4CF4E06C1CEA11541DBF1CEA135573
:1009380094EA0C0F95EA0C0F00F0A7F8A4EB050455
:1009480081EA030E52EA03354FEA013100F088804C
:100958004FEA03334FF0805545EA131343EA126315
:100968004FEA022245EA111545EA10654FEA0026CA
:100978000EF000419D4208BF964244F1FD0404F583
:10098800407402D25B084FEA3202B61A65EB0305DF
:100998005B084FEA32024FF480104FF4002CB6EB9C
:1009A800020E75EB030E22BFB61A754640EA0C001C
:1009B8005B084FEA3202B6EB020E75EB030E22BF5C
:1009C800B61A754640EA5C005B084FEA3202B6EB9D
:1009D800020E75EB030E22BFB61A754640EA9C005C
:1009E8005B084FEA3202B6EB020E75EB030E22BF2C
:1009F800B61A754640EADC0055EA060E18D04FEAEA
:100A0800051545EA16754FEA06164FEAC30343EA89
:100A180052734FEAC2025FEA1C1CC0D111F4801F56
:100A28000BD141EA00014FF000004FF0004CB6E74F
:100A380011F4801F04BF01430020B4F1FD0C88BFEE
:100A4800BCF5E06F3FF6AFAEB5EB030C04BFB6EBF9
:100A5800020C5FEA500C50F1000041EB045170BDEC
:100A68000EF0004E4EEA113114EB5C04C2BFD4EB19
:100A78000C0541EA045170BD41F480114FF0000E9D
:100A8800013C90E645EA060E8DE60CEA135594EA19
:100A98000C0F08BF95EA0C0F3FF43BAF94EA0C0F1C
:100AA8000AD150EA01347FF434AF95EA0C0F7FF491
:100AB80025AF104619462CE795EA0C0F06D152EAE5
:100AC80003353FF4FDAE1046194622E750EA4106C9
:100AD80018BF52EA43067FF4C5AE50EA41047FF4DA
:100AE8000DAF52EA43057FF4EBAE12E74FF0FF3C3F
:100AF80006E000BF4FF0010C02E000BF4FF0010C10
:100B08004DF804CD4FEA410C7FEA6C5C4FEA430C88
:100B180018BF7FEA6C5C1BD001B050EA410C0CBFD7
:100B280052EA430C91EA030F02BF90EA020F002039
:100B3800704710F1000F91EA030F58BF994208BFA0
:100B480090422CBFD8176FEAE37040F0010070475D
:100B58004FEA410C7FEA6C5C02D150EA013C07D1B4
:100B68004FEA430C7FEA6C5CD6D152EA033CD3D0FF
:100B78005DF8040B704700BF8446104662468C46F9
:100B88001946634600E000BF01B5FFF7B7FF00282C
:100B980048BF10F1000F01BD4DF808EDFFF7F4FF55
:100BA8000CBF012000205DF808FB00BF4DF808EDE0
:100BB800FFF7EAFF34BF012000205DF808FB00BF03
:100BC8004DF808EDFFF7E0FF94BF012000205DF825
:100BD80008FB00BF4DF808EDFFF7CEFF94BF0120DA
:100BE80000205DF808FB00BF4DF808EDFFF7C4FFD3
:100BF80034BF012000205DF808FB00BF4FEA410226
:100C080012F5001215D211D56FF47873B3EB625256
:100C180012D94FEAC12343F0004343EA505311F07D
:100C2800004F23FA02F018BF404270474FF000000F
:100C3800704750EA013005D111F0004008BF6FF04D
:100C4800004070474FF00000704700BF4A0011D2C3
:100C580012F5001211D20DD56FF47873B3EB62520E
:100C68000ED44FEAC12343F0004343EA505323FA1A
:100C780002F070474FF00000704750EA013002D18F
:100C88004FF0FF3070474FF0000070477BB972B9E2
:100C98000029BEBF00204FF0004106E008BF002831
:100CA8001CBF6FF000414FF0FF3000F057B8ADF1B6
:100CB800080C6DE904CE002909DB002B1ADB00F0D3
:100CC80074F8DDF804E0DDE9022304B0704740421F
:100CD80061EB4101002B1BDB00F067F8DDF804E055
:100CE800DDE9022304B0404261EB4101524263EB6B
:100CF80043037047524263EB430300F056F8DDF8B4
:100D080004E0DDE9022304B0404261EB4101704791
:100D1800524263EB430300F048F8DDF804E0DDE9F4
:100D2800022304B0524263EB4303704753B94AB9F4
:100D3800002908BF00281CBF4FF0FF314FF0FF30DB
:100D480000F00CB8ADF1080C6DE904CE00F02DF8F8
:100D5800DDF804E0DDE9022304B07047704700BF06
:100D680010F8012B11F8013B012A28BF9A42F7D04D
:100D7800D01A7047034613F8012B002AFBD1181A22
:100D880001387047430803F05533C01A00F0333375
:100D9800800800F0333018444FF0013300EB101096
:100DA80000F00F305843000E70472DE9F047864693
:100DB8008C460846089E154674461946002B40F096
:100DC800C1808542B2FA82F245D94AB1C2F1200304
:100DD80000FA02FC954094402EFA03F343EA0C0C07
:100DE8004FEA154EA8B2230CBCFBFEF80EFB18CC3C
:100DF80008FB00F943EA0C43994528D9EB1808F198
:100E0800FF3704D2994502D9A8F102072B44A3EB76
:100E18000903A4B2B3FBFEFC0EFB1C330CFB00F071
:100E280044EA0344A04214D92C190CF1FF3304D22C
:100E3800A04202D9ACF102032C44241A43EA074029
:100E48001EB1D440002334607360BDE8F087474684
:100E5800DDE76346F1E792BB431B01214FEA154EDC
:100E6800AFB2200CB3FBFEFC0EFB1C330CFB07F8E7
:100E780040EA0343984561D9EB180CF1FF3004D2DE
:100E8800984502D9ACF102002B44A3EB0803A4B2A5
:100E9800B3FBFEFC0EFB1C330CFB07F744EA0344D0
:100EA800A7424DD92C190CF1FF3304D2A74202D91D
:100EB800ACF102032C44E41B43EA0040C0E7C2F152
:100EC80020039540944020FA03F12EFA03F34FEAE9
:100ED800154E9040AFB20343B1FBFEFC0EFB1C1055
:100EE800190C0CFB07F841EA0041884522D969181A
:100EF8000CF1FF3004D2884502D9ACF10200294434
:100F0800A1EB08019BB2B1FBFEFC0EFB1C110CFB14
:100F180007F743EA01439F420ED9EB180CF1FF3162
:100F280004D29F4202D9ACF102012B44DB1B41EAF7
:100F3800004193E76046E3E76146F7E76046A4E7C8
:100F48006346B8E7834206D916B9002108467CE70C
:100F5800C6E900E0F9E7B3FA83F78FB9834201D312
:100F6800724508D8BEEB020460EB030301209C46DF
:100F78001EB9002169E73846FAE7C6E9004CF8E7E8
:100F8800C7F1200CBB400EFA07F522FA0CF42EFA32
:100F98000CF1BA401C4320FA0CF3B8404FEA14494C
:100FA80001431FFA84FEB3FBF9F809FB18300B0C58
:100FB80008FB0EFA43EA00439A4540D9E31808F1C2
:100FC800FF3004D29A4502D9A8F102002344A3EBCA
:100FD8000A0389B2B3FBF9F809FB183308FB0EFEC4
:100FE80041EA03418E452CD9611808F1FF3304D238
:100FF8008E4502D9A8F10203214443EA0040A1EB3F
:101008000E01A0FB02984145CE46434602D306D1C5
:101018004D4504D20138B9EB020E68EB0403002EEB
:10102800A7D0B5EB0E0261EB030101FA0CFC22FA22
:1010380007F3F9404CEA0303C6E9003199E7404653
:10104800C5E74346D9E7000030B58BB009E0484A08
:10105800012148482DF06AFA4FF42030002138F079
:10106800AAFA454837F0EDFC0028F0D042488368DA
:10107800DB683F219847041E18DB3F4883681B69DB
:1010880001AA0D21984730B93B4883681B6903AA18
:101098000E219847B0B12346384A012135482DF032
:1010A8004FFA4EF660202AF03EFFDAE72346344A2C
:1010B800012130482DF044FA4FF48040002138F0E7
:1010C8007AFACEE7002305930693079308930993CA
:1010D80001238DF814300198FFF78CFA04460D4669
:1010E8000298FFF787FA20A3D3E90023FFF716FC3D
:1010F80002460B4620462946FFF730F90022214BCD
:10110800FFF7E2FAFFF7A2FDADF818000398FFF722
:1011180071FA04460D460498FFF76CFA12A3D3E956
:101128000023FFF7FBFB02460B4620462946FFF744
:1011380015F90022134BFFF7C7FAFFF787FD079051
:101148002AF02AFF08900022002305A90E4822F061
:1011580067F90028A5D00D4A022106482DF0E6F9C6
:101168009FE700BFAFF300800000000080842E419D
:10117800F0B90400ECAE0400BCAA040050BA0400A4
:101188001CBA040000005940103E00203CBA04007C
:10119800D0B5A2B00AE0864B9A7817E0854B9B78C9
:1011A80019E0854A012185482DF0CAF94FF0FF3230
:1011B8004FF0FF33824822F075FB0028F6D1814BAF
:1011C8001C68814B9C42E6D0804B9A787E4B9C42AF
:1011D800E4D07F4B9B7806A97E4803F069FA002883
:1011E80014BF01230023DCD100230193029303934E
:1011F800049305930698FFF7FDF906460F460798EE
:10120800FFF7F8F968A3D3E90023FFF787FB024645
:101218000B4630463946FFF7A1F800226E4BFFF720
:1012280053FAFFF7EBFCADF808000898FFF7E2F96E
:1012380006460F460998FFF7DDF95BA3D3E90023BB
:10124800FFF76CFB02460B4630463946FFF786F837
:101258000022614BFFF738FAFFF7D0FCADF80A001F
:101268000A98FFF7C7F906460F460B98FFF7C2F929
:101278004DA3D3E90023FFF751FB02460B46304646
:101288003946FFF76BF80022534BFFF71DFAFFF7BB
:10129800B5FCADF80C000C98FFF7ACF906460F4604
:1012A8000D98FFF7A7F940A3D3E90023FFF736FB12
:1012B80002460B4630463946FFF750F80022464BA7
:1012C800FFF702FAFFF79AFCADF80E000E98FFF749
:1012D80091F906460F460F98FFF78CF932A3D3E928
:1012E8000023FFF71BFB02460B4630463946FFF743
:1012F80035F80022384BFFF7E7F9FFF77FFCADF828
:1013080010001098FFF776F906460F461198FFF778
:1013180071F925A3D3E90023FFF700FB32463B46CA
:10132800FFF71CF800222C4BFFF7CEF9FFF766FCFD
:10133800ADF812002AF030FE0590BDF9083007EE2E
:10134800103AB8EEC77ADFED257A87EE270ABDF99D
:101358000A3007EE103AB8EEC77AC7EE270ABDF989
:101368000C3007EE103AB8EEC77A87EE271A1C4BF6
:101378009C4208D06946002003F0B8FB12A89DEDF6
:10138800000A03F0CBFC0022002301A9154822F033
:1013980047F800283FF40AAF134A022107482DF006
:1013A800C5F803E7AFF300800000000080842E41F9
:1013B8003034002028340020A0BC0400ECAE040027
:1013C800403E0020707A002038C604002C340020EB
:1013D8002434002000780020000059400000C84252
:1013E80050C60400103E00208CBC04000000000021
:1013F80070B50546BDF81000A0FB021200FB0323E0
:1014080011EB010C43EB03061CEB010443EB06064E
:10141800360246EA14662402641A66EB0306F601ED
:1014280046EA5466E401641A66EB0306B60046EA27
:101438009476A400641A66EB0306F60046EA54762E
:10144800E4000DA3D3E9002320463146FFF71EFC34
:101458002860074A002320463146FFF717FC054A53
:101468000023FFF713FC6A6070BD00BFAFF3008074
:101478004CFF590040420F00006BC53F5D0500005E
:10148800F8B504460068FFF7B5F806460F466068E9
:10149800FFF7B0F874A3D3E90023FFF73FFA024639
:1014A8000B4630463946FEF759FF04460D460022E2
:1014B800614BFFF78FFB40B10022604B2046294665
:1014C800FFF774FB002840F09E8000225B4B20460B
:1014D8002946FFF77FFB40B10022594B2046294699
:1014E800FFF764FB002840F090800022544B204610
:1014F8002946FFF76FFB40B10022524B2046294690
:10150800FFF754FB002840F0828000224D4B204614
:101518002946FFF75FFB38B100224B4B204629468E
:10152800FFF744FB002874D10022474B2046294688
:10153800FFF750FB38B10022444B20462946FFF7FD
:1015480035FB002867D10022404B20462946FFF78B
:1015580041FB38B100223E4B20462946FFF726FBC7
:1015680000285AD100223A4B20462946FFF732FB81
:1015780038B10022374B20462946FFF717FB0028D1
:101588004DD10022334B20462946FFF723FB38B1C3
:101598000022314B20462946FFF708FB002840D19E
:1015A80000222D4B20462946FFF714FB30B10022BC
:1015B8002A4B20462946FFF7F9FAA0BB0022274B01
:1015C80020462946FFF706FB30B10022244B20466F
:1015D8002946FFF7EBFA40BB0022214B204629465B
:1015E800FFF7F8FA30B100221E4B20462946FFF7D4
:1015F800DDFAE0B900221B4B20462946FFF7EAFA3C
:1016080010B10C2000E00120F8BD0220FCE7032007
:10161800FAE70420F8E70520F6E70620F4E70720B4
:10162800F2E70820F0E70920EEE70A20ECE70B20B4
:10163800EAE700BFAFF300800000E93F0000F93F90
:10164800000009400000194000002940000039400E
:1016580000004940000059400000694000007940FE
:1016680000008940000099400000000080842E415D
:10167800F8B504460068FEF7BDFF06460F466068E9
:10168800FEF7B8FF4CA3D3E90023FFF747F902465A
:101698000B4630463946FEF761FE04460D460022E9
:1016A8003D4BFFF797FA38B100223C4B20462946BC
:1016B800FFF77CFA00285ED10022384B20462946E5
:1016C800FFF788FA38B10022354B20462946FFF744
:1016D8006DFA002851D10022314B20462946FFF7E8
:1016E80079FA38B100222F4B20462946FFF75EFAD7
:1016F800002844D100222B4B20462946FFF76AFADE
:1017080030B10022284B20462946FFF74FFAC0BBCC
:101718000022254B20462946FFF75CFA30B100220B
:10172800224B20462946FFF741FA60BB00221F4B97
:1017380020462946FFF74EFA30B100221C4B2046BE
:101748002946FFF733FA00BB0022194B20462946E9
:10175800FFF740FA30B10022164B20462946FFF722
:1017680025FAA0B90022134B20462946FFF732FA82
:1017780010B10D2000E00620F8BD0720FCE7082086
:10178800FAE70920F8E70A20F6E70B20F4E70C202F
:10179800F2E700BFAFF30080000039400000494085
:1017A800000059400000694000007940000089406D
:1017B800000099400000A9400000000080842E41EC
:1017C80030B589B004460C9D0020C4F8F800C4F870
:1017D800FC0004F58070C4F80001C4F8040104F5A5
:1017E8008470C4F80801C4F80C011DB3287918BB2B
:1017F8000120C4F810019FED127B8DED067B0020BF
:10180800049003930290019000940F4B204637F008
:1018180086FD55B1296811B1204622F055FA6B7939
:101828001BB1237B43F001032373204622F060FEA3
:1018380009B030BD0120DCE740F20110D9E700BF54
:10184800FFFFFFFFFFFFFFFFAD3A030000000000AE
:1018580010B582B00446002304320ED27BB99FED46
:101868000A7B8DED007B41F00401204637F02AF910
:1018780008B140F8044B02B010BD0123EEE7002088
:10188800F9E700BFAFF3008000000000000000008F
:1018980038B5836805699C697CB112F4000F06D0DD
:1018A8002D6801238B401D4201D082F0C062044B99
:1018B800134002F0B072A04738BD6FF05700FBE745
:1018C8004000000608B5406B024B19688368DB6866
:1018D800984708BD64340020F8B507460C461546FD
:1018E8001E461049FFF73CFA08B9012C0DD00E49E5
:1018F8003846FFF735FA78B9082C10D108220B4979
:101908003046A84700EAE070F8BD01220849304691
:10191800A84700EAE070F7E76FF00100F4E76FF01E
:101928000100F1E7A8BD0400C4C20400E845002096
:101938009B15012070B506460C4615461049FFF761
:101948000FFA28B995B10F4B1B782370012070BD91
:101958000D493046FFF704FA58B9072D0CD90B4B3F
:101968001A685B68226063600820F0E76FF00B007C
:10197800EDE76FF00100EAE76FF00B00E7E700BF63
:10198800A8BD04009B150120C4C20400E84500203E
:1019980008B507482AF09DFA064B1B7803B908BD1D
:1019A8004FF400420023044822F070F9F7E700BF23
:1019B800F0C504009A150120C030002008B5034A7C
:1019C800032103482CF0B2FD08BD00BFC8B40400D1
:1019D800ECAE040008B5024821F024FF08BD00BFA2
:1019E800403E002008B5024822F010F908BD00BFAB
:1019F800607A002008B5064B1B68064A934203D05C
:101A08000C3A934200D008BD034822F0FFF8FAE7E9
:101A1800707A002044C60400207A002008B50248E5
:101A280022F0F4F808BD00BF107A002008B5064B74
:101A38001B68064A934203D00C3A934200D008BD73
:101A4800034822F0E3F8FAE7707A002044C604005D
:101A5800007A002008B503281BD004280DD00228DE
:101A680004D0124B4FF0FF321A6005E0104822F004
:101A7800CDF80E4B02221A6008BD0E4822F0C6F8B7
:101A88000A4B04221A60002206210B482AF014FA95
:101A9800F2E70A4B1A680A4B9A4202D0044822F02D
:101AA800B5F8024B03221A60E6E700BF2034002095
:101AB800507A0020407A002054A90400707A00204F
:101AC80050C6040010B5012002F0B0FF044630B93A
:101AD800064A032106482CF029FD204610BD03467E
:101AE800044A012102482CF02BFDF6E714B5040046
:101AF800ECAE0400E4B4040010B5002113482AF049
:101B0800BBF9003818BF0120114B18701B7853B16E
:101B1800002206210D482AF0CFF9002200230D48A3
:101B280022F0B4F810BD0B4837F097FB074C0022A1
:101B3800072120462AF0C0F9074B1A68023A18BF55
:101B48000122062120462AF0B7F9EBE754A9040040
:101B58009A150120C03000202034002010B504461A
:101B6800002110302AF0F5F9B0B11C34D4E8AF3FA9
:101B7800012B08D0D4E8AF3F3BB9084B186820B117
:101B88002EF0FBFF01E00EF03DFA0223D4E8EF2F20
:101B9800C4E8E13F0029F9D110BD00BF1C7800203E
:101BA80038B550B10649074D074C204602F0B6FC3F
:101BB8002946204602F0DAFC38BD0449044DF3E713
:101BC8003034002028340020007800202C340020F5
:101BD8002434002010B50446012208210F482AF0B9
:101BE8006BF92046FFF7BAFF0FF04EF90020FFF718
:101BF800D7FF002002F01AFF094837F02EFB0948EA
:101C080037F02BFB084837F011FE084B1B78084AC1
:101C1800012108482CF094FC10BD00BF54A9040011
:101C28009842002068420020B04500209B15012002
:101C380038B50400ECAE040010B50446FFF78EFF7B
:101C48000A4837F0F3FD0A4837F0F0FD094837F045
:101C580004FB094837F001FB012104F110002AF0C8
:101C680078F900B910BD0FF00FF9FBE7F841002033
:101C7800C0410020984200206842002010B5044668
:101C8800044A032104482CF051FC2046FFF7D4FFF6
:101C980010BD00BF6CB50400ECAE040010B50446DE
:101CA800044A032104482CF041FC2046FFF7C4FFF6
:101CB80010BD00BF8CB50400ECAE040010B504469E
:101CC8000A4A03210A482CF031FC0121094805F091
:101CD80071FE18B92046FFF7AFFF10BD0346064A4C
:101CE800022103482CF02CFCF4E700BFA8B504003F
:101CF800ECAE0400BCAA0400C8B5040010B582B05C
:101D08000446104A032110482CF010FC0DF107017D
:101D18000E482CF00DFD9DF80730012B04D020460D
:101D2800FFF78AFF02B010BD0121084805F042FE06
:101D380003460028F3D0064A022103482CF000FC91
:101D4800EDE700BFE4B50400ECAE0400E4A904002C
:101D580008B60400F0B585B002AF044600F11005DE
:101D6800002128462AF00DF900283CD06E4688B09C
:101D780002AB13F1100261D00C2152B108460429BC
:101D880003DDDFF804C1C3F814C0082801DD3748B3
:101D980098610B2955DD4FF00C0C3AB103213970CD
:101DA80000217970B970F9703868186100216FF3F3
:101DB80000016FF341016FF382016FF3C501042342
:101DC80063F38811CCF30A0C6CF353216FF31F51A2
:101DD8000023274805F036FAB5462046FFF7BEFE31
:101DE80032202AF0A0F8234B186868B30023009328
:101DF800012221492EF0F3FE034658BB0023BB8085
:101E0800BB71391D1B4B18680EF0B2FA034610B1AE
:101E180010F1780F24D1D5E8EF3F43F00103C5E86E
:101E2800E23F002AF7D11C340023D4E8EF2FC4E89E
:101E3800E13F0029F9D10C37BD46F0BD6FF00041F4
:101E48009BE76FF01B0CA8E70C4A012108482CF00F
:101E58006DFBF0E70A4A012105482CF071FBEAE71F
:101E6800084A012102482CF06BFBE4E72CC504006A
:101E7800ECAE04001C7800204834002074B604003E
:101E8800A8B60400E0B604002CB6040010B5002182
:101E98000A482AF076F800B910BD094BD3E8AF3FDD
:101EA800012BF9D1074C2046FFF758FE2268064B54
:101EB8009A42F1D12046FFF74DFFEDE7807A0020E6
:101EC8008C7A0020707A002038C6040030B583B0C0
:101ED800044600F11005002128462AF052F888B976
:101EE800002300930122174917480EF00DFA034604
:101EF800A8B110F1780F0CD0144A012114482CF025
:101F08001FFB1CE02046FFF729FE14202AF00BF8DF
:101F1800E6E7104A02210E482CF008FB0FE0D5E84E
:101F2800EF3F43F00103C5E8E23F002AF7D11C3434
:101F38000123D4E8EF2FC4E8E13F0029F9D103B029
:101F480030BD00BF4034002018C6040014B7040098
:101F5800ECAE04004CB7040038B5194B1B68194A9D
:101F6800934202D00C3A93421BD1174B01221A70AC
:101F780003225A7000259D70114C2046FFF7A6FFDA
:101F8800294604F1100029F0FCFF28B104F11C03D4
:101F9800D3E8AF3F012B05D00C4A01210C482CF0A7
:101FA800C5FA38BD4FF4005200230A4821F06EFEEE
:101FB8004FF4A0320023084821F068FEF1E700BF83
:101FC800707A002044C604002078002068B7040016
:101FD800ECAE0400984200206842002008B5104B7F
:101FE8001A68104B9A4212D001210F4829F0B1FF0C
:101FF80070B90E4837F01AFC094B00221A751A6896
:102008000B4B9A4207D01946054809F03DFD08BD1B
:102018000EF03AFFEDE70248FFF79CFEF7E700BF36
:10202800707A002050C60400807A0020C041002049
:1020380038C6040008B50249024809F025FD08BD64
:1020480038C60400707A002008B50249024809F031
:102058001BFD08BD50C60400707A0020F0B58BB097
:1020680004460D4616460378032B38D8DFE803F0FC
:1020780002212B311D4B93E803000790ADF8201087
:10208800090C8DF8221063792279E178A0786778B5
:102098000DF11C0CCDF814C0049703900291019225
:1020A8000093A379124A3146284628F07DFC0BB0EC
:1020B800F0BD104B93E803000790ADF82010090C11
:1020C8008DF82210DFE70C4A07AB07CA03C31A8052
:1020D800D9E70A4A07AB07CA03C31A80D3E7084AF5
:1020E8000A2107A828F060FCCDE700BF9CB70400D0
:1020F800ACB70400A4B70400D0B70400DCB70400F0
:10210800B41C0500B0B58AB000AF0D461E2207F119
:102118000801FFF7A3FF6C4600233B7102237B7184
:102128008AB0EC461CF110021AD0122022B1042801
:1021380002DD2B4BCCF8143000233B7002237B705C
:10214800DAB10346082803DD07F10801CCF81810B6
:102158000C2B01DDCCF81C500CF1200300210AE007
:102168006FF00040E2E701F128053D4415F8285CCE
:1021780003F8015B01310129F5D911282DDD12235E
:102188004AB10421397100217971B9710121F971BC
:102198007868CCF8100000216FF300016FF341015B
:1021A8006FF382016FF3C501032060F38811C3F355
:1021B8000A0363F353216FF31F510023094805F005
:1021C80041F8A546084B1A68084B9A4202D00848BD
:1021D80021F01CFD2837BD46B0BD6FF01B03CFE7CB
:1021E800E8B70400ECAE0400707A002050C6040082
:1021F800307A0020F0B585B00446254A03212548E9
:102208002CF094F90020FFF7CBFC2046FFF7A6FC42
:102218000021214805F0CEFB90BB042103A80AF059
:1022280001FE039A1D4BA3FB02131B0B43F69821D7
:1022380001FB1323590CDB0340F2E73558194FF41F
:102248007A724FF0000341F10001FEF76FFD074677
:102258000E46A469610C4FEAC43C1CEB05004FF420
:102268007A724FF0000341F10001FEF75FFD009024
:1022780001913A4633460A4822F09EFC05B0F0BD6B
:102288000346084A022103482CF05AF9C5E700BF63
:1022980004B80400ECAE0400BCAA040073B2E7451D
:1022A800F841002028B8040030B583B004461E4A1F
:1022B80003211E482CF03AF90120FFF771FC002594
:1022C80025754EF66023A3612046FFF743FD184BA2
:1022D800D3E8EF2F012A03D1C3E8E15F0029F7D142
:1022E80005D12946134805F065FB0346B0B9A06936
:1022F800410CC00340F2E733C0184FF47A724FF034
:10230800000341F10001FEF711FD02460B46009063
:102318000191094822F050FC03B030BD074A022160
:1023280002482CF00DF9E2E748B80400ECAE0400CE
:10233800FC790020E4A90400F841002070B80400EA
:10234800B0B584B002AF0121474829F002FE002849
:102358003FD16C4688B002AB13F110023CD00C217F
:1023680042B10846042901DD404D5D61082801DDC0
:102378003F4898610B2932DD4FF00C0C3AB103212C
:10238800397100217971B971F97178681861002182
:102398006FF300016FF341016FF382016FF3C50121
:1023A800042363F38811CCF30A0C6CF353216FF305
:1023B8001F5100232F4804F045FFA5462E4B1B68EC
:1023C8002E4A93420ED02E4A93421BD00837BD4660
:1023D800B0BD0EF059FDBCE76FF00041C0E76FF0EB
:1023E8001B0CCBE7244A137D0133DBB21375022B98
:1023F80004D92349104609F047FBE7E71E48FFF7D1
:10240800A9FCE3E71C4CA3695B001E4DAB4228BF47
:102418002B46A361042178180AF004FD7A681A4B48
:10242800A3FB02135B0B47F2305101FB1323A06996
:102438001844A061A84228BF2846A061410CC003E7
:1024480040F2E733C0184FF47A724FF0000341F1BD
:102458000001FEF76BFC02460B46009001910B4809
:1024680022F0AAFBB2E700BF807A002098B80400E7
:1024780014C50400ECAE0400707A002038C60400CD
:1024880044C60400C0D4010073B2E745F8410020F7
:1024980000B583B01348FFF761FB134913480EF0EA
:1024A800AFFC18B1034610F1780F15D1104BD3E8E3
:1024B800EF1F41F00201C3E8E21F002AF7D1002212
:1024C8000023CDE900234FF400420023094822F0FD
:1024D80073FB03B05DF804FB074A012107482CF0A1
:1024E8002FF8F6E7707A00200D2101000CC60400D1
:1024F800807A0020C0410020C8B80400ECAE040077
:102508002DE9F041C2B016461A4601F1090393427B
:102518006ED807460D460021304637F00FFF574B5F
:10252800D3F80080B8F1000F6BD05923ADF8003113
:1025380053490B684A68013342F100020B604A6054
:10254800C2F307218DF802118DF803211A0C190E18
:102558008DF804118DF80521C3F307228DF80621A3
:102568008DF807313CAB00243C943D943E943F9455
:1025780042AA12E9030083E80300E422214603A8E3
:1025880037F0DCFE02943F4A414603A837F045FD88
:10259800034600283DD110223CA903A837F042FD8C
:1025A800034600283DD13246002302F8013B40ABE8
:1025B80003CBC6F80100516002AB0193009506F108
:1025C80009032A46394603A837F04DFD044600287A
:1025D80035D1029FBD423BD8BD4229D000972B463A
:1025E800294A012129482BF0B6FF6FF004041FE0A7
:1025F8000092274A012125482BF0ADFF6FF00B040C
:1026080019E0244A012121482BF090FF4FF0FF34B4
:1026180011E0214A01211D482BF092FF6FF00D04B3
:1026280009E01E4A012119482BF08AFF6FF00D04BA
:1026380003A837F0DEFC204642B0BDE8F08103462F
:10264800174A012111482BF07BFF6FF00D04EFE7CB
:1026580007F1090102ABEA1B314403A837F022FD58
:10266800034610B9029B1F44B6E70E4A01210748EA
:102678002BF066FF6FF00D04DAE700BF907A0020B8
:10268800E84500200010C004C0B90400ECAE040006
:10269800E8B8040024B9040040B9040068B904008B
:1026A80084B90400A0B9040070B582B0002426469D
:1026B800022C25D8174B53F8340036F0C2F950B124
:1026C8004FF4B011134800EBC40029F0BEFB0546D7
:1026D80078B90134EBE70F4B03EBC4031B79009384
:1026E80033460D4A01210D482BF035FF6FF01205D6
:1026F8000CE033460A4A012108482BF021FF05E087
:10270800084A032105482BF011FF0025284602B08E
:1027180070BD00BFE0C5040078BA0400ECAE040048
:1027280098BA0400B4BA040038B50024012C1FD8A4
:102738001A4B53F8340036F084F950B14FF4803115
:10274800164800EBC40029F080FB054648B901345F
:10275800ECE7134A012113482BF0E8FE6FF012054D
:1027680019E00346104A01210E482BF0E9FE12E059
:102778004FF0E861094829F038FB0C490C4B4B60D5
:1027880001238B600B4829F0AEFB0B4A0321054857
:102798002BF0CCFE0025284638BD00BFD0C504006C
:1027A800D0BA0400ECAE0400F0BA0400107800209F
:1027B800011B010054A9040024BB040010B51848EB
:1027C80036F03FF9D8B14FF48031164829F03DFB77
:1027D8000446E8B94FF0B861124829F006FB1249DF
:1027E800124B4B604FF400038B600D4829F07BFBC4
:1027F8000F4A03210F482BF099FE204610BD1723DE
:102808000D4A01210B482BF09BFE6FF01204F4E7F0
:1028180003460A4A012107482BF092FEEDE700BF64
:102828006CA90400C8C5040004780020DD19010063
:10283800A4BB0400ECAE040048BB040070BB040059
:1028480010B584B01F4836F0FCF810B31E4BEC46A8
:102858000FCB8CE80F001B4883689B68614698473C
:102868001A4B186000281CDB164883681B68002177
:1028780098470446F0B9154B196812488368DB6815
:102888009847134A032113482BF050FE204604B002
:1028980010BD114A01210F482BF048FE6FF01204B9
:1028A800F4E703460D4A01210A482BF049FE4FF090
:1028B800FF34EBE703460A4A012106482BF040FEA5
:1028C8006442E3E7B4A9040040B104006434002082
:1028D80024BC0400ECAE0400C4BB0400DCBB040050
:1028E8000CBC040008B5094836F0ABF830B1084A0A
:1028F800032108482BF01AFE002008BD064A0121D2
:1029080004482BF013FE6FF01200F6E7BCAA04008F
:1029180060BC0400ECAE040044BC0400F0B587B011
:1029280000AF00220621634807F0C2FA002840F0F1
:102938008180614809F0A4FC0446002840F08580A5
:10294800391D5D4BD86809F05BFC3B695B4A032184
:102958005B482BF0F5FD07F071FD044600287BD19C
:10296800584807F0DFFB054610B110F1020F7AD185
:1029780007F064FD534807F0D5FB00237B6107F19E
:10298800140016F09DF831F022F97B6913F0100F4E
:1029980071D14D4B1B78002B76D14B4B1B78022BFA
:1029A80002D94A4A042111707A6912F0100F01D134
:1029B800002B71D1464B93ED007B434B1E786D463F
:1029C8008AB06B4613F110026ED014216AB1084622
:1029D800042903DDDFF810C1C3F814C0082801DD9D
:1029E80083ED067B102800DD1E6213295FDD4FF0A2
:1029F800140C3AB10521397100217971B971F97155
:102A08007868186100216FF300016FF341016FF3DB
:102A180082016FF3C501032363F38811CCF30A0C19
:102A28006CF353216FF31F510023254804F00AFC6F
:102A3800AD4606E004460346264A012120482BF00D
:102A48007FFD20461C37BD46F0BD0346224A0121C2
:102A58001B482BF075FDF4E70346204A012118486E
:102A68002BF06EFDEDE703461D4A012114482BF0BB
:102A780067FD2C46E5E714490B7801330B700122FA
:102A8800184807F013FB88E70F4900230B70012251
:102A9800144807F00BFB80E70B4900230B70012259
:102AA800104807F003FB85E76FF000418EE76FF0F1
:102AB8001B0C9EE7D4BC0400E8320020F0BC0400E4
:102AC800ECAE040060BD04009B150120D03B002043
:102AD800E8450020D8BC040014BD040034BD04003F
:102AE8006CBD04009CBD0400B0BD040030B587B0C7
:102AF800264829F06BFA002837D02449244801F0E9
:102B0800E9FB002839D0234D03AB05F1100207CAB1
:102B180003C31A801E4C03AA4FF48051204601F0CB
:102B2800A5FC01231A460021204601F047FD1A4959
:102B3800204601F0F3FC1949204601F017FD1C3529
:102B480095E803000190ADF80810090C8DF80A10FB
:102B5800012201A9204601F06FFE114A0321114804
:102B68002BF0E4FC002007B030BD0F4A01210D48CE
:102B78002BF0DCFC6FF01200F5E70C4A0121094844
:102B88002BF0D4FC6FF01200EDE700BFB0C50400D5
:102B98000078002040B104003034002028340020A0
:102BA80038BE0400ECAE0400F4BD040014BE0400FA
:102BB80010B5084A002108480DF0BEFA044608B9C5
:102BC800204610BD0346054A012105482BF0B8FCF4
:102BD800F6E700BF1C780020503400205CBE0400DB
:102BE800ECAE0400F0B585B000AF0CF09BFB002400
:102BF800022C00F2C38007F108026349634B53F8C3
:102C080024000AF035FA054640B907F108000CF02F
:102C180053FB0546002859D10134E9E75B4B53F8CB
:102C280024106E4600233B7102237B718AB06C46E8
:102C380014F1100215D012201AB1042801DD544BEA
:102C4800636100233B7002237B70BAB103460828F6
:102C580000DDA1610C2B00DDE56104F120030021FA
:102C68000AE06FF00040E7E701F1100CBC441CF8E3
:102C780010CC03F801CB01310129F5D9112822DD47
:102C8800122342B10421397100217971B9710121EE
:102C9800F9717868206100216FF300016FF3410139
:102CA8006FF382016FF3C501012060F38811C3F34C
:102CB8000A0363F353216FF31F510023354804F0CF
:102CC800C1FAB5465BE06FF01B03DAE72F4B53F808
:102CD80024106E4600233B7102237B718AB06C4638
:102CE80014F1100215D012201AB1042801DD2A4B64
:102CF800636100233B7002237B70BAB10346082846
:102D080000DDA1610C2B00DDE56104F12003002149
:102D18000AE06FF00040E7E701F1100CBC441CF832
:102D280010CC03F801CB01310129F5D9112822DD96
:102D3800122342B10421397100217971B97101213D
:102D4800F9717868206100216FF300016FF3410188
:102D58006FF382016FF3C501012060F38811C3F39B
:102D68000A0363F353216FF31F510023094804F04A
:102D780069FAB54603E06FF01B03DAE70025284639
:102D88001437BD46F0BD00BFA4B70400343400209A
:102D98008CBE0400ECAE0400A0BE040010B51C48B4
:102DA80029F022F990B900200CF0A8F80446B8B927
:102DB800FFF7FEFE0446D8B9FFF714FF0446F8B93A
:102DC800144A032114482BF0B1FB07E004460346DC
:102DD800124A012110482BF0B3FB6442204610BD73
:102DE80003460F4A01210C482BF0AAFB6442F5E781
:102DF80003460C4A012108482BF0A2FB6442EDE788
:102E08000346094A012104482BF09AFB6442E5E78E
:102E1800F8C5040034BF0400ECAE0400CCBE0400C6
:102E2800E4BE04005CBE040004BF040010B588B012
:102E380022F04AFE00282FD1002401940294039422
:102E480004940594069407944FF4407300936846DD
:102E580029F053F8009B039302940694164B0493AD
:102E68004FF41053ADF804308023ADF80630134BFF
:102E78001022134901A836F08DFF0446A0B901A815
:102E880037F031F90D4B1B680E4A03210E482BF021
:102E980057FB204608B010BD044603460B4A0121E3
:102EA80009482BF04DFBF4E70346094A012106487F
:102EB8002BF046FB6442ECE70010C004907A002037
:102EC800F4C404008CBF0400ECAE04004CBF040042
:102ED8006CBF040010B582B00023019302214FF6A5
:102EE8000B400AF071FFA8B1044602210C302CF007
:102EF800EBFB01AA21464FF60B400BF0C1FB044641
:102F080080B90198C4682CF094FB94F901402046DC
:102F180002B010BD074A012107482BF007FB6FF0EC
:102F28000B04F4E70346054A012103482BF008FB8C
:102F3800EDE700BFBCBF0400ECAE0400E0BF040036
:102F480070B586B001F084FD0446FFF7C3FF05465F
:102F580001211D4828F090FF002C2DDBC6B21B4B29
:102F680083FB0423E217C2EBE302002301930293DD
:102F780003930493059302238DF804308DF80820F9
:102F880029F00AF803908DF810508DF8116000228E
:102F9800002301A90E4820F043FA38B923460D4A08
:102FA80003210D482BF0CCFA06B070BD0B4A022164
:102FB80009482BF0BBFAF1E72346094A01210648E4
:102FC8002BF0BEFAF0E700BF54A9040067666666F6
:102FD800103E00201CC00400ECAE040008C0040031
:102FE80034C004002DE9F04186B000AF01F030FD97
:102FF800051E66DBFFF76EFF044601213A4828F0FC
:103008003BFF06465FFA80F8384A82FB0532EB1729
:10301800C3EBE20300227A60BA60FA603A617A612F
:1030280002223A713B7228F0B7FFF8603C7487F8C7
:10303800118000220023391D2D4820F0F1F90028C5
:1030480046D1F6B2E8468AB06B4613F1100245D075
:1030580014217AB10846042903DDDFF8A4C0C3F8B7
:1030680014C0082800DD9D610C2800DDDC611028F3
:1030780000DD1E62132934DD14243AB105213970AC
:1030880000217970B970F9703868186100216FF300
:1030980000016FF341016FF382016FF3C501032350
:1030A80063F38811C4F30A0363F353216FF31F51C9
:1030B8000023104804F0C6F8C5461837BD46BDE8D9
:1030C800F0812B460C4A01210A482BF039FAF4E723
:1030D8000A4A022107482BF029FAEEE76FF000416F
:1030E800B7E76FF01B04C8E754A904006766666673
:1030F800103E0020ECAE040058C0040078C0040064
:10310800A4C004002DE9F04385B002AF1E46BB6A97
:10311800E62B3AD90446894690460E2A3DD8B4F99A
:10312800003007EE903AF8EEE77A9FED5E7AC7EE48
:10313800877A17EE900AFDF76FFA41EC100B28F02A
:1031480053FD51EC100BFDF759FD10F11D0F2EDB4F
:103158002828A8BF2820C3B21E333370A38842F2A0
:103168003312934226D9A3F50453343B9BB27370B0
:103178001B0AB370237EF370637E3371A37E737171
:1031880086F806800020072531E0E7220092464AAB
:10319800012146482BF0DFF971E00E250095134612
:1031A800434A022141482BF0D6F9A846B7E76FF009
:1031B8001D00D0E70023DAE77219010109EB0013BB
:1031C80059F801C05C68996846F805C05460916078
:1031D80005F10C02DC68B318B454C4F307225A7022
:1031E800220C9A70240EDC7010350130C0B24045B4
:1031F800E2D34446C8F10E08B8F1000F43DCE72DCE
:103208003DD06E468AB002AB13F1100244D01421AF
:1032180092B10846042903DDDFF898C0C3F814C04A
:10322800082803DD4FF0E70CC3F818C00C2800DDB0
:10323800DD61102800DD1C62132930DD14243AB149
:103248000521397100217971B971F97178681861AE
:1032580000216FF300016FF341016FF382016FF3F7
:10326800C501022363F38811C4F30A0464F35321EC
:103278006FF31F5100230D4803F0E4FFB5460C37E8
:10328800BD46BDE8F0834FEA081842460021701990
:1032980037F054F84544B2E76FF00041B8E76FF0F3
:1032A8001B04CCE70000C842F4C00400ECAE0400E4
:1032B80010C1040054C104002DE9F04F9FB002AFC3
:1032C80000243C647C64BC64FC643C657C65BC652F
:1032D80028F062FE786528F05FFEB8617C63BC6305
:1032E80087F83C407C61A14600F006BC9F4B1B78E8
:1032F8000D2B0DD8591C9D4A11709D4C04EB0314DD
:1033080007F1700313E90F0084E80F0000F00CBC0C
:10331800984A022198482BF009F900F005BCB7F942
:103328006030A7F840307B6E7B64BB6E7A6D934249
:1033380040F2FA837B65F7E397F8603087F85830F6
:1033480097F9683087F8593097F8693087F85A3014
:103358007B6E7A6D934240F2E7837B65E4E3FB6919
:10336800864A012184482BF0EBF84FF400400021F5
:1033780036F021F9C0E3B9F1000F53D06C4688B09C
:1033880002AB13F1100200F08E800C2152B10846F6
:10339800042903DDDFF82CC2C3F814C0082801DDB6
:1033A800774898610B2940F381800C215AB103209A
:1033B80087F82400002087F8250087F8260087F87A
:1033C8002700786A18616FF3000A6FF3410A6FF3F8
:1033D800820A6FF3C50A042363F3881AC1F30A014A
:1033E80061F3532A6FF31F5A00235146624803F0D2
:1033F80029FFA54607F1340008F0E6FE031E58DB56
:1034080007F1340008F0A6FE031E58DB5D4B0122CD
:10341800D3E8EF1FC3E8E02F0028F9D1FB697B61EF
:103428004FF00009514B1A7832B30E2A04D0564B8C
:103438001B68EB1A8B2B1FD9531E4D4901EB031345
:10344800DB687B65E7240094504B07F14000FFF7E9
:1034580059FEF0234E4A21464C48FFF751F80346DF
:10346800002832D04B4A012143482BF069F83F4BE2
:1034780000221A70444B1D60BB69EA1A464B9A42F7
:1034880040F23A8308224549454806F00FFE0346B4
:10349800002838D0434A012137482BF051F828F04A
:1034A8007BFDB86128E36FF000416FE76FF01B0107
:1034B8007CE73D4A012130482BF042F8A0E73B4A1F
:1034C80001212D482BF03CF8A0E70021384828F0CE
:1034D80058FD0028CBD0374BD3E8AF3F002BC6D1DF
:1034E800009301223449354800682DF078FB0346E3
:1034F8000028BCD010F1780FB9D0314A02211E48FB
:103508002BF01EF8B3E7254B93ED007B6C461C228D
:103518000C2312F0070F26D103F108010D461F33C3
:1035280023F00703ADEB030D02AA29B102F1100342
:10353800032949D86FF01B056FF3000B6FF3410B9C
:103548006FF3820B6FF3C50B042363F3881B65F3DA
:10355800532B6FF31F5B103200235946064803F0C4
:1035680071FEA5469BE704330432D2E79915012082
:10357800807600209CC10400ECAE0400CCC104009D
:1035880004C50400FC7900207C7600201479002012
:103598002478002064C20400E0930400E845002079
:1035A800B8C20400F8C2040018C2040044C20400EF
:1035B800807A00208C7A0020483400201C78002073
:1035C8008CC20400F4C104003BB1042901DDB948F0
:1035D8005061082901DDB84890611C200C2510F0C5
:1035E800070F1AD1284623B18D4202DA5D1985EDFD
:1035F800007B0830814213DB0546002B9CD0C0F3CA
:10360800870087F82400002387F8253087F82630BC
:1036180087F82730786A10618EE704350430DEE7D2
:103628006FF01B05E9E7A54B1B7823B1A34B0022DC
:103638001A70A34B186097F85C30002B40F05C823E
:10364800B9F1000F40F09E809E4B1B78002B40F094
:103658009E806C46012387F82430032387F82530A1
:103668008AB002A911F1100200F0A5804FF0120EE5
:103678004AB17346BEF1040F01DD93484861082B37
:1036880001DD8D4B8B61012387F82030032387F8F8
:103698002130002A40F09280BEF1110F40F3A6803D
:1036A800122362B1042087F82400002087F825003F
:1036B80087F82600012087F82700786A08616FF3E9
:1036C80000086FF341086FF382086FF3C5080421FF
:1036D80061F38818C3F30A0363F353286FF31F5881
:1036E80000234146794803F0ADFDA54632227849CA
:1036F80007F1340008F09AFC00287ADB6C4688B0A1
:1037080002AB13F1100200F000810C2152B10846FF
:10371800042903DDDFF8CCC1C3F814C0082801DD93
:10372800654898610B2940F3F3800C215AB10320B6
:1037380087F82400002087F8250087F8260087F8F6
:103748002700786A18613B696FF300036FF3410340
:103758006FF382036FF3C5031846042363F38810DD
:103768000346C1F30A0161F353236FF31F5319464C
:103778003B610023554803F065FDA546FB697B6165
:103788004FF001094F4B1C78002C00F0C4804D4BC2
:103798001B78002B00F0B0814E4B1B68EB1A4E4A89
:1037A800934240F2A9814D4A022148482AF0BEFEC0
:1037B800484B1D60A0E16FF0004E59E7BEF10C0FB9
:1037C80001DD434BCB6101F1200300207A6009E061
:1037D80000F1500C07F1200294441CF850CC03F877
:1037E80001CB01300128F3D97A6855E76FF01B0344
:1037F80057E76C46002387F82430022387F82530E2
:103808008AB002A911F1100240D04FF0120E22B175
:10381800BEF1040F01DD324B4B61002387F82030E5
:10382800022387F82130A2BBBEF1110F6ADD1223F3
:1038380062B1042087F82400002087F8250087F863
:103848002600012087F82700786A0861F9686FF375
:1038580000016FF341016FF382016FF3C501084660
:10386800012161F388100146C3F30A0363F353216E
:103878006FF31F51F9600023144803F0E3FCA546D9
:103888004FF42030002135F096FE80E76FF0004EAF
:10389800BDE77346BEF1080F03DDDFF834C0C1F899
:1038A80018C00C2B00DDC86101F1200300207A60EC
:1038B80024E000BFD0C2040004C50400991501200B
:1038C8007C7600209815012020C30400ECAE04008B
:1038D80044C3040078760020E09304002CC404005C
:1038E80058C3040078C3040000F1500C07F120020B
:1038F80094441CF850CC03F801CB01300128F3D9CB
:103908007A6891E76FF01B0392E76FF00041FDE6DC
:103918006FF01B010AE7FB6E7B6207F1280307F1D2
:10392800600207CA83E80700102207F1240107F1A3
:10393800340008F02DFC051E4FDB0F2D6DD97B6977
:1039480001331A467B6143F697239A4240F3D480A9
:1039580007F1340008F038FC031E74DB6C4688B0AD
:1039680002AB13F1100276D00C2142B108460429AB
:1039780001DD884D5D61082801DD874898610B29C4
:103988006CDD0C215AB1032087F82000002087F84D
:10399800210087F8220087F82300386A1861BB687D
:1039A8006FF300036FF341036FF382036FF3C503F3
:1039B8001846042363F388100346C1F30A0161F330
:1039C80053236FF31F531946BB600023734803F05A
:1039D80039FCA546FB697B618EE02B46704A0121C4
:1039E8006E482AF0ADFD15F11C0F0DD007F134001B
:1039F80008F0B0FB6B4B0122D3E8EF1FC3E8E02FC0
:103A08000028F9D1A14677E0674A022163482AF0E5
:103A18008DFD664B01221A70E8E7102300932B46B0
:103A2800634A02215D482AF096FD07F1340008F048
:103A380091FB5C4B0122D3E8EF1FC3E8E02F00287D
:103A4800F9D1A14658E05B4A022154482AF078FD92
:103A5800FB697B6150E06FF0004186E76FF01B0166
:103A680090E76FF0004176E00B2940F383800C214A
:103A78005AB1032087F82400002087F8250087F82A
:103A8800260087F82700786A18616FF300066FF33D
:103A980041066FF382066FF3C506042363F38816A5
:103AA800C1F30A0363F353266FF31F56002331460D
:103AB8003A4803F0C7FBA54607F1340008F084FB39
:103AC800031E5ADB07F1340008F044FB031E5ADBDF
:103AD800344B0122D3E8EF1FC3E8E02F0028F9D1C7
:103AE800FB697B614FF00009334B1B7823B1324BE4
:103AF80000221A70314B1D604FF0FF324FF0FF3338
:103B080007F15C012E481FF0FBFCF86100287FF4E8
:103B180026AC97F85C30012B3FF401AC022B3FF444
:103B28000BAC002B3FF4E2AB264B1C6828F034FAB0
:103B38000546254B9C423FF41EAC244B9C423FF467
:103B480072ADB9F1000FCFD06C4688B002AB13F15B
:103B5800100286D00C21002A86D00846042903DDED
:103B6800DFF874C0C3F814C008287FF77DAF0A488F
:103B7800986179E76FF01B017AE7154A0121074838
:103B88002AF0DEFC9EE7134A012104482AF0D8FCFB
:103B98009EE700BF18C4040004C50400ECAE04008E
:103BA8009CC30400FC790020BCC3040098150120C4
:103BB800D0C30400FCC30400991501207C760020C2
:103BC800103E0020707A002038C6040044C6040065
:103BD80018C2040044C2040058C4040030B583B0BD
:103BE800294D00222949284635F014FE002228498B
:103BF800284835F00FFE00222749284835F00AFEEC
:103C0800274C00222749204635F004FE264927483C
:103C180035F067FA2649274835F063FA26492748D8
:103C280035F05FFA2649274835F05BFA26492748D8
:103C380035F057FA2649274835F053FA26492748D8
:103C480035F04FFA2649274835F0C6FA264927485D
:103C580035F0C2FA264B63634FF400420023CDE9E6
:103C68000023204620F0A8FF4FF0E1720023CDE9A1
:103C78000023284620F0A0FF1E4A03211E482AF0F0
:103C880055FC03B030BD00BF30420020ED190100E3
:103C9800351A0100F8410020251A0100C041002012
:103CA800B0450020CD18010051200100507A0020B5
:103CB8003D200100407A0020492F0100607A002051
:103CC800E51F0100307A002099240100207A0020A5
:103CD80049230100107A0020611F0100007A0020AA
:103CE800951E010098420020FD190100684200203D
:103CF800B4A9040070C40400ECAE040070B5054615
:103D0800144C0023D4E8EF2FC4E8E13F0029F9D18F
:103D180004F10C020221D2E8EF0FC2E8E61F002EE0
:103D2800F9D123714EF66023A360103C0A4E314648
:103D380020462BF026FD05EB450506EB85012046C0
:103D480007F0A2FEFFF74EF9044A032104482AF0BF
:103D5800EDFB70BD807A00202CC604009CC40400D2
:103D6800ECAE0400F0B589B0FEF79EFCFEF7DCFC73
:103D7800FEF724FDFEF7D2FD434B1B78022B1DD91D
:103D88000425FEF7B3FEFEF7ADFDFDF79BFEFFF73A
:103D980005F82846FFF7B2FFFFF748F83B4804F05C
:103DA8007FFC0446002865D1042D0DD117F0C2F818
:103DB8004FF41600002135F0FEFBF9E7FEF740FD51
:103DC800FFF70CFF0125DCE700F076FE00F072FF3C
:103DD80013E02F4B53F8345003EBC4031E79012230
:103DE8003146284628F068F8FA2028F09CF8002286
:103DF8003146284628F060F80134022CE9DD4FF4FA
:103E080000460027CDE906670024049405230393A0
:103E18000294019400941F4B4FF480621E491F487E
:103E280035F07DFA1E491FF04FFFCDE9066704946F
:103E3800062303930294019400941A4B4FF4806272
:103E480019491A4835F06BFA19491FF03DFFCDE9B9
:103E58000667049407230393029401940094154B76
:103E68004FF4C0621449154835F059FA14491FF047
:103E78002BFF9BE70346134A012113482AF060FBF6
:103E8800204609B0F0BD00BF9B1501205D1A010056
:103E9800E0C5040099110100B81F0120B8440020B2
:103EA800DCC4040051100100B81B0120C0430020ED
:103EB800E4C40400C1320100B8150120C842002042
:103EC800ECC40400C0C40400ECAE040070B50446A1
:103ED8009DF81000A0FB022100FB03111F4BA2FB61
:103EE800030203FB0123DD174FF6ED7606EAE376BE
:103EF80020F04042810F41EA830121F040410A4409
:103F080002EB137232441649A1FB0261561A01EB07
:103F18005601890BC1EBC131521A25F4FF4121F03A
:103F28007D010A44801A63EBE2730E4A0E4E00FBD1
:103F380006F602FB0366A0FB025216440B4A002356
:103F480028463146FCF7A2FE2060084A002328468E
:103F58003146FCF79BFE626070BD00BF3AA3950036
:103F680005000200FF7FFFBFFFDFFFEF40420F00A9
:103F780070B50446BDF81010A1FB020201FB032333
:103F880010EB000C43EB03011CEB000C43EB0101AD
:103F9800090241EA1C614FEA0C2CBCEB000C61EBF6
:103FA8000301C90141EA5C614FEACC1CBCEB000C7F
:103FB80061EB0301890041EA9C714FEA8C0CBCEB70
:103FC800000C61EB0301C9000B4A00234FEACC0047
:103FD80041EA5C71FCF75AFE06460D46074A002383
:103FE800FCF754FE2060054A002330462946FCF7BA
:103FF8004DFE626070BD00BF4CFF590040420F008B
:1040080010B588B001F07F018DF81F100DF11F0168
:104018000391012104910592069303AB01930223B6
:10402800029301A9006828F002F8041E06DB0220AA
:1040380020F022FA0024204608B010BD2346034A87
:10404800012103482AF07CFAF5E700BF70C6040096
:10405800CCAE040010B58CB061F07F018DF82F1044
:104068000DF12F01099101210A9109AC07940891DA
:104078000BA90391022104910592069303AB0193C6
:10408800029101AA07A9006827F0C6FF041E06DBF3
:10409800022020F0F1F9002420460CB010BD234680
:1040A800024A012102482AF04BFAF5E788C60400C3
:1040B800CCAE040010B582B001230DF10702002137
:1040C800FFF7C8FF044610B9204602B010BD0346EA
:1040D800024A012102482AF033FAF5E7ACC6040087
:1040E800CCAE040070B584B006460025ADF80C507F
:1040F8002C4607E0174A012117482AF017FA04F559
:104108008074A4B2B4F5005F20D2C4F343038DF8E1
:104118000C30C4F347138DF80D304FF47A730093C5
:10412800022303AA5B21304627F08BFF45B2002DFE
:10413800E0D14FF47A7300934FF48073074A224416
:104148005E21304627F07DFF45B2D8E7284604B007
:1041580070BD00BFE0C60400CCAE040000CB040074
:1041680010B582B0B1F5005F0FD28DF80410C1F31D
:1041780004218DF80510022301AA4621FFF740FF0C
:10418800044650B9204602B010BD074A012107482D
:104198002AF0CCF94FF0FF34F4E7054A012103482F
:1041A8002AF0C4F9EEE700BFFCC60400CCAE040058
:1041B80034C7040030B583B004468B78DB018DF832
:1041C80007304A780B789B0143EAC2138DF8063012
:1041D80001230DF107024021FFF712FF58B901230F
:1041E8000DF1060242212046FFF70AFF054648B9AD
:1041F800284603B030BD0546054A012105482AF086
:1042080095F9F5E7044A012102482AF08FF9EFE70A
:1042180060C70400CCAE040084C7040010B582B0A7
:1042280043EA42035BB243EA81035BB29DF8102084
:1042380043EAC2038DF8073001230DF107027D21FF
:10424800FFF7DEFE044610B9204602B010BD034A4F
:10425800012103482AF06AF9F6E700BFA8C704005D
:10426800CCAE040030B583B0044601230DF107023B
:104278007021FFF7EFFE054638B99DF8073013F0B7
:10428800100F09D0284603B030BD03460E4A01215D
:104298000E482AF055F9F5E743F010038DF807307A
:1042A80001230DF1070270212046FFF7A9FE0546FC
:1042B80018B9322034F0BFFBE4E70346044A012171
:1042C80002482AF03DF9DDE7C4C70400CCAE04007B
:1042D800E0C7040010B584B004460160FFF7EAFEA9
:1042E800B0B9204627F0CEFED0B92046FFF7BAFF76
:1042F800E8B901230DF10F0221212046FFF7AAFE9C
:10430800E0B99DF80F3013F0010F1ED0012005E031
:104318004B4A01214B482AF009F9002004B010BD8E
:10432800494A012147482AF001F90020F6E7474A9F
:10433800012144482AF0FAF80020EFE7444A012115
:1043480040482AF0F3F80020E8E7C82020F094F865
:1043580001230DF10F0200212046FFF77BFE28B94B
:104368009DF80F30242B08D00020D7E7394A0121C7
:1043780034482AF0DBF80020D0E702238DF80E300D
:104388004FF4E173009301230DF10E027C212046C6
:1043980027F057FE50BB00238DF80E3001230DF196
:1043A8000E0259212046FFF72BFE30BB2046FFF7AF
:1043B80099FE48BB01238DF80E3047F23052009227
:1043C8000DF10E025921204627F03BFE18BB0123B0
:1043D8000DF10F0221212046FFF73CFE10BB9DF88E
:1043E8000F3013F0010F24D0012097E71A4A01215A
:1043F80014482AF09BF8002090E7184A0121114838
:104408002AF094F8002089E7154A01210D482AF07E
:104418008DF8002082E7134A01210A482AF086F81D
:1044280000207BE70A4A012106482AF07FF800208D
:1044380074E70D4A012103482AF082F800206DE74D
:10444800FCC70400CCAE040014C8040024C804004F
:1044580038C8040058C8040074C80400A0C8040080
:10446800D0C80400F4C8040014C9040070B584B0AE
:1044780005461446FFF774FE94F90230227843EAA1
:10448800C2035BB2E27843EA02135BB2627843EAA2
:10449800C2138DF80F301423009301230DF10F027E
:1044A8004521284627F0CDFD10BB94F904306279E8
:1044B80043EA42038DF80C30A279E3795B0143EAC1
:1044C80002135BB2227A43EA82135BB2627A43EA4E
:1044D800C2138DF80D3014230093022303AA482138
:1044E800284627F0AEFD064650B9304604B070BDE8
:1044F80006464523064A012106482AF021F8F4E732
:104508004823054A012103482AF01AF8EDE700BFBD
:104518003CC90400CCAE04006CC9040010B584B0DA
:1045280091F900304A7843EA02135BB2CA7843EA49
:10453800C2138DF80C308B788DF80D30142300934E
:10454800022303AA402127F07CFD044610B9204627
:1045580004B010BD4023034A0121034829F0F0FFAD
:10456800F5E700BF9CC90400CCAE040010B584B0C8
:1045780091F900304A7843EA02135BB2CA7843EAF9
:10458800C2138DF80C308B788DF80D3014230093FE
:10459800022303AA422127F054FD044610B92046FD
:1045A80004B010BD4223034A0121034829F0C8FF83
:1045B800F5E700BFC8C90400CCAE0400F0B585B06B
:1045C80006460C461D4617460AB133B965B1032C99
:1045D80020D8DFE804F0213049110023009301229C
:1045E8001146FFF71BFEF1E7002200921346012156
:1045F8003046FFF713FEEAE702238DF80F30012358
:104608000DF10F027C213046FFF7FAFC23493046B2
:10461800FFF7D0FD05B0F0BD02238DF80F30012360
:104628000DF10F027C213046FFF7EAFC1C493046A9
:10463800FFF7C0FDEEE706238DF80E3001230DF1DC
:104648000E027D213046FFF7DBFC03238DF80F3087
:1046580001230DF10F027C213046FFF7D1FC1149EF
:104668003046FFF7A7FDD5E707B92DB10E4A01215E
:104678000E4829F05BFFCDE703238DF80F300123A7
:104688000DF10F027C213046FFF7BAFC00210091A2
:104698000B460A463046FFF7C1FDBBE768340020E9
:1046A8006C340020947A0020F0C90400CCAE0400D9
:1046B800F0B587B005460C4600218DF80A10032A8C
:1046C80010D8DFE802F002110B0D0226042B00F2CD
:1046D8009C80DFE803F09794919C0B000826F5E78F
:1046E8001026F3E70026F1E70426EFE77D270C23E1
:1046F8000DEB030219462846FFF7ACFC01230DF128
:104708000A022F212846FFF77BFC01230DF10B023B
:104718003C212846FFF79EFC05469DF80B3013F018
:10472800400F76D063F07F038DF80B30002D78D1E1
:104738009DF80C309DF80D2043EA022300961AB22A
:1047480043F3C0332046FFF7C1FB9DF80E309DF8B8
:104758000F2043EA022300961AB243F3C03304F150
:104768000800FFF7B3FB9DF810309DF8112043EACD
:10477800022300961AB243F3C03304F11000FFF786
:10478800A5FB9DF812209DF8133042EA032212B2CD
:104798009DF90B109DF816309DF8170043EA002389
:1047A8001BB201FB03F3002B38DBA2EB632200975B
:1047B800D31704F11800FFF7DBFB9DF814309DF8C0
:1047C800152043EA022300971AB243F3C03304F1D9
:1047D8002000FFF7CDFB9DF816309DF8172043EA1F
:1047E800022300971AB243F3C03304F12800FFF7FD
:1047F800BFFB284607B0F0BD4FF4FA7777E74FF4D0
:104808007A7774E74FF4FA6771E700276FE7FA27BA
:104818006DE703F07F038DF80B3087E703F2FF1392
:10482800C3E7034A0121034829F080FEE1E700BFFE
:104838001CCA0400CCAE0400F0B585B006460C4690
:104848001546CB7891F802C04FEACC0C4CEA031C11
:104858004FFA8CFC4B784CEA830C4FFA8CFC0B78A3
:104868004CEA430C8DF80EC00B798DF80D300123FE
:104878000DF10D025521FFF7C3FB074600BBA379D5
:1048880063BB63798DF80F30012D43D0022D1DD104
:10489800572401230DF10E0254213046FFF7B0FBD7
:1048A800074600285DD101230DF10F02214630464D
:1048B800FFF7A6FB074600285AD1384605B0F0BDD9
:1048C8002F4A01212F4829F031FEF6E72E4A01210F
:1048D8002C4829F02BFE4FF0FF37EEE763798DF86F
:1048E8000F30012D04D0022D0CD11B018DF80F3093
:1048F800012D2BD0022D32D0244A0121214829F044
:1049080015FEDAE7204A01211E4829F00FFE4FF074
:10491800FF37D2E7562401230DF10E02532130460A
:10492800FFF76EFB074698B901230DF10F022146E8
:104938003046FFF765FB07460028BED000942B469B
:10494800134A01210F4829F006FEB6E75824E2E78A
:104958002B46104A01210B4829F0F2FDADE75824F7
:1049680097E72B460B4A0121064829F0E9FDA4E701
:1049780000942B46064A0121024829F0ECFD9CE7E9
:1049880038CA0400CCAE040064CA0400DCCA0400BF
:10499800B0CA040080CA040008B51B4B186834F07C
:1049A80050F850B3194834F04CF848B34FF4B011EC
:1049B800174827F0A1FBF8B9134B0022DA601A61F7
:1049C8005A619A61DA610121196103F12000586185
:1049D8000220986104205877997719185A604A601C
:1049E800587144F22802DA8003225A720E221A778A
:1049F800186883681B68984708BD6FF00100FBE7DB
:104A08006FF00100F8E700BF703400206CA90400C3
:104A18000CEB040008B5FFF7BFFFB0FA80F35B09A1
:104A2800014A137008BD00BF9C15012008B5064B4C
:104A38001B782BB102461021044827F078FB08BDEB
:104A48006FF00100FBE700BF9C1501206CA9040072
:104A5800154B1B782BB310B582B0144C214651F876
:104A68000C0B83685B6898470022A27708B102B0F4
:104A780010BDB4F9203001932368986801AB227FF8
:104A88002179008927F060FB01984FEAE07C084C07
:104A9800A0FB0401074A002304FB0C11FCF746F9AC
:104AA800E5E76FF0010070479C1501207034002085
:104AB80080A2190020BF020008B5064B064A032150
:104AC800064816F005FB064B064A0321064816F071
:104AD800FFFA08BDE07A002060EB0400A47A002009
:104AE800B07A002024EB0400987A002030B583B017
:104AF80005460C4620EE000A60EEA00A30EE200AB9
:104B080021EE011A30EE011AB5EEC01AF1EE10FAD4
:104B180019DBB1EEC11A8DED011A012301AA114664
:104B28000A4816F083FA019B009301236A466946F6
:104B3800074816F07BFA0DB1019B2B600CB1009B66
:104B4800236003B030BD9FED031AE4E7A47A002088
:104B5800987A00200000000000B54FF0000C9FED8F
:104B6800267AF0EE476A0BE000EB8C0EDEED007A59
:104B780076EEA76A67EEA77A37EE277A0CF1010C72
:104B88008C45F1D307EE901AF8EE674A86EEA45AE0
:104B9800C7EE245A65EE057A75EEE75AF1EEE55A46
:104BA8004FF0000CDFED146AB0EE666A13E000EB1C
:104BB8008C0EDEED007A77EEC57A87EEA57A67EE81
:104BC800077A27EE277A36EE076A67EEA77A76EE37
:104BD800A76A0CF1010C8C45E9D3C6EE247AC2ED24
:104BE800007AC6EEA47AB0EE087A77EEC77AC3EDFB
:104BF800007A5DF804FB00BF0000000000EB8103B1
:104C0800D3ED007AB6EE007A67EE877A0B4600E0BD
:104C1800013B53B100EB830C9CED007AB4EEE77ACC
:104C2800F1EE10FAF4DC00E0013102F1FF3C8C45B2
:104C380008D900EB810C9CED007AB4EEE77AF1EE2E
:104C480010FAF1DCC91A07EE901AF8EE677A9FEDB0
:104C5800020A27EE800A70470000C83D00B52DED16
:104C6800028B83B09FED128A8DED018A00230EE03E
:104C780000EB830CDCED007A03EB020C00EB8C0CF0
:104C88009CED007A67EE877A38EE278A0133A1EB2C
:104C9800020C9C45ECD801AA16F08CFA9DED010A8D
:104CA80088EE000A03B0BDEC028B5DF804FB00BF80
:104CB8000000000010B50F4B0024DC609C605C60B5
:104CC8009C615C611C614FF480610B4817F0BCFA71
:104CD8000A4B1C6000230A4A13600A4A14600A4AF5
:104CE80013600A4A14700A4A14600A4A13600A4A8E
:104CF800136010BD94340020E08D0020DC8D00206E
:104D0800D88D0020D48D0020D08D00209D15012045
:104D1800CC8D0020C88D0020C48D00202DE9F04FD7
:104D28002DED108B95B000AF87ED050A04466B4D4D
:104D3800042207F11401284628F060FCAB682A69B0
:104D48009B1AB3F5166FC0F083830025B5F5166F6F
:104D58001BD2C5F5166207F11C01604828F06EFCED
:104D6800064658B10246F9695D48284435F0BFFA4D
:104D780000215A4828F07FFC3544E7E7594A0121C9
:104D8800594829F0D3FB002063E3554D07F14C0245
:104D98004FF41671284616F0CDF907F148024FF482
:104DA8001671284616F036FA97ED129AB1EEC99A9E
:104DB800DFED4E7AB4EEE79AF1EE10FA10D5002541
:104DC8004FF4C8720021454828F073FC04B12570DF
:104DD800002D00F03B83002C00F03683012038E3DF
:104DE800434D4FF416623E49284635F080FA4FF499
:104DF800D462002105F5166035F0A0FA00233D4A7B
:104E080029463D4817F06AF9002512E06B1C4FEA65
:104E18005508384E06EB830306EB8502D3ED000AEE
:104E280092ED000A26F026FF06EB880686ED000ABA
:104E38000235B5F5806FE9D307F1400307F1440265
:104E480040F2FF112D4816F051F93B6C642202FB29
:104E580003F308EE103AB8EE488ADFED297A28EE17
:104E6800278AF6EE007AB4EEE78AF1EE10FA00F13E
:104E7800E782F0EE087AB4EEE78AF1EE10FA01DD87
:104E880000259DE7DFED1F8AC8EE887A144DFCEEF9
:104E9800E77A17EE902A4FF416712846FFF7DEFEE0
:104EA80087ED040AF6EE007A68EE277A88EEA77A8C
:104EB800FCEEC77A17EE902A4FF416712846FFF7D2
:104EC800CDFEF0EE408AB0EEC07ADFED0F7AB4EE98
:104ED800E77AF1EE10FA19D5002571E7943400202D
:104EE800F8AD00209CEB0400DCAE04000AD7A33D1B
:104EF800F89D0020F88D0020E08D0020FC8D00201A
:104F08000000803A0000C8429A99193E07F1380318
:104F180007F13C024FF416712846FFF71DFEC24EFA
:104F28004FF416723146284627F074F9DFF84483A7
:104F380040F257224146304627F06CF907F1340217
:104F480040F25721304616F065F907F1300240F279
:104F58005621404616F05EF997ED0DAAB1EECAAAA1
:104F6800D7ED0C9AF1EEE99A9FEDB0BA28EE0BBA9C
:104F780007F1200307F12C024FF41671284616F0AA
:104F8800F5F807F1200307F128024FF416712846B7
:104F980016F0ACF8D7ED0AAAD7ED0B7A7AEEE7AAA5
:104FA80007F124024FF41671284616F011F94FF450
:104FB8000072396C9E48FFF721FEF0EE40CAB7EE4A
:104FC800007AC7EE087A9B4B1B7853B9994B01229C
:104FD8001A70994B00221A600023984A1360984A65
:104FE800136095490B685A1C0A60944991ED007A40
:104FF80077EEC76A06EE102AF8EE465A86EEA56ADC
:1050080037EE067A81ED007A77EEC77A67EEA67AF0
:105018008B49D1ED006A77EEA67AC1ED007A012AB4
:1050280040F2D98006EE903AB8EE666AC7EE866A14
:10503800F1EEE67ADFED836A67EEA67AC7EE87BA05
:10504800F5EEC08AF1EE10FA00F1C880F0EE687A49
:10505800B7EE007AF4EEC77AF1EE10FA01DDF0EE61
:10506800477A9FED797A67EE877AB5EE000A30EED7
:10507800670ADFED767AB4EEE70AF1EE10FA01D5A9
:10508800B0EE670A102220EE090A6421704827F062
:105098006EF807EE900AF8EE677AB6EE007A67EED9
:1050A80087DADFED6C5A78EEE56ADFED6B7A86EE2B
:1050B800A77AF7EE007A87FE677A9FED686A87FE1F
:1050C80006DADFED676A76EEEC6A86EEA57A87FE89
:1050D800677A87FE06CA37EECD9A37EECC7A29EE84
:1050E800079AB1EEC99A37EEC99A29EE087A77EE8F
:1050F800C97A67EEAD7A77EE277A5A4B93ED007A44
:1051080077EE877AC3ED007AFAFE677AFCEEE77AE3
:1051180017EE909A544BC3ED007A544BD3ED007AB6
:1051280078EE277AC3ED007AF8FE677AFCEEE77A24
:1051380017EE905A4E4BC3ED007A3869FBF76CFABC
:1051480000220023FBF70AF9C7E900011CEE900AC8
:10515800FBF762FA00220023FBF700F9C7E9020116
:1051680018EE100AFBF758FA00220023FBF7F6F8AE
:1051780041EC1F0B1DEE900AFBF74EFA00220023AC
:10518800FBF7ECF841EC1E0B1DEE100AFBF744FA96
:1051980000220023FBF7E2F841EC1D0B1CEE100A7D
:1051A800FBF73AFA00220023FBF7D8F882468B4631
:1051B80019EE100AFBF730FA00220023FBF7CEF8AD
:1051C80041EC170BE8462C221C2312F0070F08D1DC
:1051D800083308320AE0DFED21BA31E7DFED1F7A44
:1051E80036E704330432F0E70433043212F0070FD1
:1051F800FAD10833083201E00433043212F0070F01
:10520800FAD10833083201E00433043212F0070FF0
:10521800FAD10833083201E00433043212F0070FE0
:10522800FAD10833083229E068840020000070426F
:10523800F88D00209D150120CC8D0020C88D002000
:10524800C48D00200000C842713D8A3ECDCCCC3DC3
:10525800C8B500209A99193FCCCC4C3E00000000FC
:10526800CDCC4C3FD08D0020D48D0020D88D00208F
:10527800DC8D0020107B00200433043212F0030F71
:10528800FAD11A1D96461B3323F00703ADEB030D25
:10529800EC46002A00F095800CF11003032A40F236
:1052A8008E80A3B1042A02DD6D49CCF81410082AB7
:1052B80003DD97ED006B8CED066B102A03DD97ED8F
:1052C800026B8CED086B182A01DDCCF828502C20D5
:1052D8004FF01C0E014610F0070F09D1704623B19C
:1052E800724502DD9E448EED00FB0830083105E072
:1052F8000EF1040E0430EDE7043004318E4611F04F
:10530800070FF9D1014623B1824202DD181880ED5A
:1053180000EB08310EF1080E02E004310EF1040E24
:1053280070461EF0070FF8D18E4623B18A4202DD7F
:10533800591881ED00DB0EF1080E083002E00EF17D
:10534800040E0430014610F0070FF8D1764623B159
:10535800724502DD9819C0E900AB0836083101E052
:1053680004360431084611F0070FF9D1354623B148
:10537800B24202DD991981ED007B083500F1080180
:1053880001E00435043111F0030FFAD129461BB1AD
:10539800AA4201DD43F80590043191420CDC8E46A7
:1053A8007BB1C1F38701397700237B77BB77FB7724
:1053B800F869CCF8100004E06FF01B0EF0E76FF00E
:1053C8001B0E00216FF300016FF341016FF382019F
:1053D8006FF3C501022363F388116EF353216FF352
:1053E8001F510CF1100200231E4801F02BFFC54687
:1053F80044B30125257084ED01BA84ED028AC4ED19
:1054080003AA7B6A23617B6C6361C4ED06CAD7ED8E
:10541800047AF0EEE77AC4ED077AC4ED088AC4EDA1
:1054280009BA114B1B68A362104B1B68E362BB6B84
:105438006363FB6B236384ED0EAAC4ED0F9ABFE48C
:105448000025BDE40125BBE4002002E0002000E0C7
:1054580000205437BD46BDEC108BBDE8F08F00BF6F
:10546800BCEB0400DCAE0400DC8D0020D48D0020F1
:105478004FF0000C944515D210B511F80C30584077
:105488000309094CE35C83EA00135FFA83FEC3F364
:105498000313E05C80EA0E10C0B20CF1010C9445D5
:1054A800EBD310BD704700BF3CEC04002DE9F04F72
:1054B80091B005920293134602F004020092C3F3DE
:1054C800C20310F00302019240F02A8280468A4605
:1054D8000133041D00284ED0B8F1000F05D0A4EB0D
:1054E80008020432524500F21E82029A551E019AA1
:1054F80004920692039200264FF0FF3B0427B94618
:10550800B8F1000F01D0029A22605A1E0792002BB0
:1055180040F35C81059B13F0020228D00120A4EB24
:1055280008018B081AB1B1F5007F80F00282039957
:105538000F2900F20182B8F1000F00F05F81DBB2A1
:1055480001F140026A4402F8103C02F820BC00282D
:1055580000F0508163F07F0301F140026A4402F8D1
:10556800103C049B01330493039B013303930434DD
:10557800002140463DE001F0070A5444CAF1080AF8
:10558800AAE7002634E0002632E0002630E00827AB
:10559800B9462DE0252B2BD10BF1010B0126042751
:1055A800B94625E0472BEED82A2B14D32A3BDBB289
:1055B8004FF0010C0CFA03F34FF6DA7C13EA0C0FE8
:1055C80016D113F0625F40F0C18013F0010F40F074
:1055D8008D8000260CE0252B03D10BF1FF3B002624
:1055E80006E001D9002603E0202B01D0232BCCD1E3
:1055F80015466A1C6B78002B00F01981002EC9D063
:105608007A2BBED84C2BCDD34C3B2E2B62D80FF225
:10561800080C5CF823F000BFF9550100DD560100C5
:10562800DD560100DD560100DD560100DD560100A2
:10563800DD560100DD560100DD560100DD56010092
:10564800DD560100DD560100ED560100DD56010072
:10565800DD560100DD560100DD560100DD56010072
:10566800DD560100DD560100DD56010055570100E9
:10567800DD560100ED560100ED56010055570100B9
:105688005557010055570100F9550100ED56010025
:1056980097550100DD560100F9550100DD5601005E
:1056A800B1570100ED560100B1570100DD56010068
:1056B800DD560100B9570100E7560100ED5601001B
:1056C800DD560100DD560100ED560100DD560100F2
:1056D800E156010000268BE70427B94688E704272E
:1056E800B94685E72B786C2B24D000263C44013C36
:1056F800B4FBF7F407FB04F420B1231A4B445345D9
:1057080000F21481002958D1B9F1040F00F0878004
:10571800B9F1080F40F013811A9B073323F00703F0
:1057280003F108051A9593ED007B08B184ED007B21
:1057380008345DE712F8023C6C2B03D000260427DE
:10574800B946D3E700260827B946CFE72B784C2B74
:105758001AD01A9B073323F0070303F108061A9699
:10576800D3E90067073424F0070440B1231A08334B
:10577800534513D82B784C2B13D0C4E90067083451
:1057880000260827B94633E71A9B073323F0070397
:1057980003F108061A96D3E90067E3E76FF01B00E8
:1057A800BBE0C4E90067EAE700260427B9469DE79D
:1057B800314600260427B94698E780461A9B191DEA
:1057C8001A911B680293079B154699E6624B029A49
:1057D8009A4204D3614B9A420AD3002300E0002383
:1057E800002B7FF497AE059B03F00202002096E69B
:1057F8000123F5E7069B01330693B5E610B10AF1DC
:10580800010AB1E6009B13B10AF1020AACE602985C
:10581800FBF7B0FA0AEB000303F1020AA4E61A9BAD
:105828001D1D1A951B6800B123600434E0E680460C
:10583800231AB3F5806F80F0858090B10022026052
:105848009B080370009B83B1069BC370049B88F878
:1058580002301BBB019DDDF80C90DDF810B0029FF3
:105868003DE05344A3F1080057E0069B4370EDE781
:1058780001339842EED903F140026A4412F8101C31
:1058880012F9102C002AF3DA01F07F01A4EB0802C8
:105898000132524559D804F8011BE9E7019B0398E6
:1058A800E7E7009B43B305F140036B4413F8203C42
:1058B80004F8013B019EA4EB08033344013353452C
:1058C80046D805F140036B4413F8103C04F8013B3B
:1058D80032463946204634F00AFD34440135A9459C
:1058E80019D9BBF1000FDCD005F140036B4413F963
:1058F800103C002BD5DAF1E705F140036B4413F8AF
:10590800103C58F82370002248F823203846FBF74B
:1059180031FA461CCFE7A4EB080011B0BDE8F08FC0
:105928006FF00D00F9E76FF01B00F6E76FF01B0052
:10593800F3E76FF01500F0E76FF01500EDE76FF093
:105948001500EAE76FF01500E7E76FF01B00E4E7E2
:105958006FF01B00E1E700BFD4A7040050770600F2
:105968002DE9F04F97B000AF8346BA61FB60D7F8D6
:105978008030C3F3C0033B62396111B926F0FFFFE1
:1059880038619BF80260B14636B1D7F8803013F021
:10599800010F0DD1002300E000239BF803207A6259
:1059A80042B1D7F8802012F0020F22D1002202E083
:1059B8000123F2E7002202B9EBB19BF80050AA00DC
:1059C800BA60DBF804207A610BEB8505BA69F2B19D
:1059D800002B40F00481B9F1000F00F00F81D7F8D7
:1059E800803013F0040F40F00D810020F861064666
:1059F800F9E00122DFE7BB691BB1FA68396958464B
:105A080098473C6920465C37BD46BDE8F08F3C6945
:105A1800E3B94D4400233B6123E0044401350136DA
:105A28004E451AD22A7800235BF822201946B86915
:105A380026F0BAFFBAF1000FEFD0D7F888309845B2
:105A4800EBD22AF8180008F10108E6E70026C7F8A3
:105A58001C80B046D7F884A0E2E7C7F81080D7F8D2
:105A68001C80D7F8803003F00503FB604FF0000A74
:105A7800A146C7F81CB09CE000253B6A7BB9002D05
:105A880079D0D7F8803013F0010F79D1FB68002B5B
:105A98006FD10223A9EB030988E00125EDE75946F8
:105AA800786926F0C7FF0028E9D06C46002387F8FC
:105AB8002C30022387F82D308AB0694611F1100284
:105AC80037D012251AB1042D01DDB14B4B610023EB
:105AD80087F82830022387F829306ABB112D45DD65
:105AE800122362B1042087F82C00002087F82D00CB
:105AF80087F82E00012087F82F00F86A08616FF3F5
:105B080000086FF341086FF382086FF3C50802219C
:105B180061F38818C3F30A0363F353286FF31F581C
:105B2800002341469B4801F08DFBA546A9F10209D7
:105B38003CE06FF00045C5E72B46082D01DD78698C
:105B480088610C2B01DDC1F81CB001F12003002095
:105B580009E000F1300C07F1280EF4441CF830CCB1
:105B680003F801CB01300128F3D9B7E76FF01B0325
:105B7800B7E701238EE7D7F8803013F0020F15D06E
:105B8800002322461946B86926F00EFFD7F884305C
:105B980053B13B69D7F88820934205D2D7F88420BF
:105BA80022F8130001333B61013881440AF1010AEC
:105BB80035467B6A9A4510D22E4616F802BB6B789A
:105BC800FA6952F82340744B9C42FFF455AF734B6B
:105BD8009C42FFF462AF00254FE74C4612E707F1FD
:105BE80044000023FB6118B14A46294634F07FFB84
:105BF8004D444FF00008C7F804901EE00020F861FB
:105C08000646F0E7FE6107F134000026EBE70025C1
:105C18003B6A33BB002D3BD0D7F8803013F0010F1F
:105C280026D0731C06F1300207F12801561806F831
:105C3800149CDEB208F1010825467B6A984549D2D2
:105C48002C4614F802AB95F801905BF82930524ABB
:105C58009342DCD3514A934201D30025D8E701256A
:105C6800D6E75146786926F0E5FE0028D2D0E1E76C
:105C7800D7F8803013F0040FDCD0FA69531C3032A7
:105C880007F128010A4402F8249CDBB2FB61D1E742
:105C9800D7F8803013F0020F09D0731C06F13002D8
:105CA80007F12801561806F8149CDEB2C2E7F96914
:105CB8004B1C01F1300207F12800024402F824AC21
:105CC8008A1CD2B2FA6107F1580252FA83F303F838
