:1010000040300020852800009983000071280000EE
:101010007128000071280000712800000000000005
:10102000000000000000000000000000F1290000A6
:1010300071280000000000008D29000071280000C8
:10104000A12B0000A12B0000A12B0000A12B000070
:10105000A12B0000A12B0000A12B0000A12B000060
:10106000A12B0000A12B0000A12B0000A12B000050
:10107000A12B0000A12B0000A12B0000A12B000040
:10108000A12B0000A12B0000A12B0000A12B000030
:10109000A12B0000A12B0000A12B0000A12B000020
:1010A000A12B0000A12B0000A12B0000A12B000010
:1010B000A12B0000A12B0000A12B0000A12B000000
:1010C000A12B0000A12B0000A12B0000A12B0000F0
:1010D000A12B0000A12B0000A12B0000A12B0000E0
:1010E000A12B0000A12B0000A12B0000A12B0000D0
:1010F000A12B0000A12B0000A12B0000A12B0000C0
:1011000053B94AB9002908BF00281CBF4FF0FF316E
:101110004FF0FF3000F00CB8ADF1080C6DE904CED3
:1011200000F010F8DDF804E0DDE9022304B07047B8
:10113000704700BF034613F8012B002AFBD1181A91
:10114000013870472DE9F04786468C460846089ED0
:10115000154674461946002B40F0C2808542B2FA0B
:1011600082F245D94AB1C2F1200300FA02FC2EFAFC
:1011700003F3954043EA0C0C94404FEA154EA8B295
:10118000BCFBFEF8230C0EFB18CC08FB00F943EA6D
:101190000C43994528D9EB1808F1FF3704D299453B
:1011A00002D9A8F102072B44A3EB0903A4B2B3FBB5
:1011B000FEFC0EFB1C330CFB00F044EA0344A0428F
:1011C00014D92C190CF1FF3304D2A04202D9ACF18E
:1011D00002032C44241A43EA07401EB1D4400023E2
:1011E00034607360BDE8F0874746DDE76346F1E7AA
:1011F00092BB431B01214FEA154EAFB2B3FBFEFC7D
:10120000200C0EFB1C330CFB07F840EA0343984507
:1012100062D9EB180CF1FF3004D2984502D9ACF139
:1012200002002B44A3EB0803A4B2B3FBFEFC0EFBAD
:101230001C330CFB07F744EA0344A7424ED92C1990
:101240000CF1FF3304D2A74202D9ACF102032C44C3
:10125000E41B43EA0040C0E7C2F1200320FA03F197
:10126000954090402EFA03F303434FEA154EAFB278
:10127000B1FBFEFC0EFB1C10190C0CFB07F841EA3D
:101280000041884504FA02F422D969180CF1FF30B4
:1012900004D2884502D9ACF102002944A1EB08012F
:1012A0009BB2B1FBFEFC0EFB1C110CFB07F743EAE3
:1012B00001439F420ED9EB180CF1FF3104D29F423B
:1012C00002D9ACF102012B44DB1B41EA004192E759
:1012D0006046E3E76146F7E76046A3E76346B7E7A2
:1012E000834206D916B9002108467BE7C6E900E02B
:1012F000F9E7B3FA83F78FB9834201D3724508D86F
:10130000BEEB020460EB030301209C461EB90021E2
:1013100068E73846FAE7C6E9004CF8E7C7F1200C61
:10132000BB4022FA0CF41C432EFA0CF120FA0CF309
:10133000B84001434FEA14490EFA07F5B3FBF9F838
:101340001FFA84FE09FB18300B0C08FB0EFA43EA67
:1013500000439A4502FA07F240D9E31808F1FF303A
:1013600004D29A4502D9A8F102002344A3EB0A0350
:1013700089B2B3FBF9F809FB183308FB0EFE41EA0A
:1013800003418E452CD9611808F1FF3304D28E45F4
:1013900002D9A8F10203214443EA0040A0FB0298CD
:1013A000A1EB0E014145CE46434602D306D14D4541
:1013B00004D2B9EB020E68EB04030138002EA6D06C
:1013C000B5EB0E0261EB030101FA0CFC22FA07F304
:1013D0004CEA0303F940C6E9003198E74046C5E707
:1013E0004346D9E770B5002000F0FCFC20B113485B
:1013F00006F050FE002070BD114C204607F029FA7F
:101400000028F7D02269A668136843F040031360F0
:1014100033680C4A0621204698470028EADB052558
:1014200040217369204698474FF48040002107F01F
:10143000A8FC013DF4D10448DAE700BFDC940000C9
:101440006C91000001000600F1940000014B1B6844
:10145000184700BF0000002030B585B004460D4697
:1014600010220021684607F0BFFD02238DF80230EC
:101470002A46044B01932146684606F0E1F905B07F
:1014800030BD00BF4D14000080B505460E4617461E
:10149000984605F041FD034607F012FEDFF818906C
:1014A000044649F80030424630463946A84754F8C9
:1014B000090001F055FA00BF080000002DE9F047CF
:1014C000058B04462807904611D4022905F007052C
:1014D00040F0CC80204606F005FE78B10138218B23
:1014E000042811D8DFE800F0C2106D8595000129AD
:1014F0000CBF45F0100545F02005258388F31188C1
:10150000BFF36F8FBDE8F08701F0070AAA4500F02E
:10151000A5800027B9463E46A368002B00F0BC809A
:1015200041F00801218388F31188BFF36F8FA16810
:10153000002900F0BA800D68002900F0B680D1F8CB
:101540000480334652462046C047002D76D02B6893
:1015500029461D46F0E701F007035A1F012A1BD850
:10156000002221F00701062B276889B2C4E9002276
:1015700009D13B4603E0628B013262831B68002B7A
:10158000F9D141F002012183204606F0ABFD00288D
:101590007AD041F0200176E0042B0AD121F0070136
:1015A00089B22183204606F09DFD10B141F0200153
:1015B0002183218B01F0070AAA454FD00027B946A5
:1015C000AAE7236921F0070141F00601062DD3F8AF
:1015D000009021832DD1B9F1000F3FD041F00801D7
:1015E000218388F31188BFF36F8F3A492046C8479B
:1015F00029E021F00701236941F0040189B2042D9B
:10160000D3F804902183E6D000273E464FF0040A29
:1016100082E721F00701236941F0050189B2052D18
:10162000D3F808902183D6D000273E464FF0050A14
:1016300072E700273E464FF0060A6DE72B4687E724
:10164000B9F1000FD1D1EFF31188202383F3128871
:10165000BFF36F8F238B23F008032383258BEA06C8
:101660002ED525F01003238305F007056669218B2D
:10167000002EBFF670AF00232768C4E9003321F0C5
:10168000070141F001012183218B01F0070AAA45DE
:101690004FF000097FF440AF002F9CD041F00801CB
:1016A000218388F31188BFF36F8F002FC8D03D6866
:1016B000394633465246204606F040FD2F46F4E7B1
:1016C000AB067FF51BAF25F02003238305F007054C
:1016D00000E700BF69810000014B036000207047F4
:1016E00058930000F0B40C4B0C4E5F6A0C4BB342A5
:1016F00003D36FF08500F0BC70475D68BD4209D32D
:101700001C693CB195F802C00579AC4502D123466D
:10171000F0BC18472433EAE7B0050020AD020020F2
:10172000AD0200202DE9F047134CDFF85080DFF8C0
:10173000509005460E461746444503D36FF085008A
:10174000BDE8F0876268D9F824309A4212D3A369C1
:1017500083B190782979884205D13A4631462846A6
:10176000BDE8F04718475279012A03D13A4631467D
:10177000284698472434DFE7AD020020AD02002060
:10178000B00500202DE9F0410B4CDFF83080054614
:101790000E461746444502D36FF0850009E06369A1
:1017A0000BB92434F6E73A463146284698470028D4
:1017B000F7D1BDE8F08100BFAD020020AD020020EE
:1017C00010B5044606F053FE10F1780F00D050B962
:1017D000054A204606F0ACFDD2F8C43023EA0003E7
:1017E000C2F8C430002010BDB0050020024B00221A
:1017F0001A605A60704700BF6B06002070B50B4B33
:101800000B4CA34201D3002070BD196A1E7F002239
:101810000439D5B2AE4201D82433F2E7013211F8CF
:1018200032508542F5D10120EEE700BFAD02002025
:10183000AD02002008B509480378C3F341130A3309
:1018400050F823303BB100F1080200F11001984735
:10185000C043C00F08BD1846FCE700BFB00500201C
:1018600004282DE9F14FDFF8989004460F4616D072
:1018700001282DD1DFF88C8098F8B93043B300F0FF
:1018800039FD214D4D4520D2D5F820B04FF0000A4A
:101890002B7F5FFA8AF6B34204D82435F2E7FFF7CC
:1018A000A5FFE7E70BEBC6060AF1010A307906F05F
:1018B000DEFD0246307906F03BFDD8F8C430002A40
:1018C00023EA0003C8F8C430E2DA002388F8B9300C
:1018D0000D4D4D4508D30B4B1B6A6BB13946204665
:1018E00001B0BDE8F04F1847EB681BB13A462146FE
:1018F000284698472435ECE701B0BDE8F08F00BFDB
:10190000AD020020B0050020AD02002073B5C4B2C6
:1019100063060D468DF8074007D02046FFF76EFF9F
:1019200078B10D4B93F8BA0058B10B4E204655B123
:1019300001F03AFFF3691BB10DF107010820984748
:10194000012002B070BD01F057FFF369002BF7D002
:101950000DF107010920F2E7B005002073B5867884
:101960008DF80060037942791C4C43EA0223ADF8FC
:101970000230C378304603F003038DF8043006F0DC
:10198000D7FCD4F8C430184205460BD0304600F0DE
:1019900093FC3046FFF714FF07F053F910B9962077
:1019A00005F076FA684601F0DBFE10F1780F03D0FF
:1019B00010B1002002B070BD9DF8000001F058FF8A
:1019C00010F1780F01D00028F3D1D4F8C4300120F1
:1019D0002B4384F8B900C4F8C430EBE7B00500200D
:1019E0002DE9F047924DAB6904460E461746C3B940
:1019F000207800F01F00012876D0022800F0DC805B
:101A000000BB94F900103A68637800292EDA062B9F
:101A10000CD0082B25D0ABB95370012313700223CF
:101A200003E198470028E3D100200DE06388190AFC
:101A30000A1F012A8C4605D9072903D8DAB26B6A36
:101A40001C781CB96FF01500BDE8F0875D7865451E
:101A500003D1824200F0E48001302344F0E71B7898
:101A6000E3E095F8BA3013700123DEE0052B11D0C6
:101A7000092BE7D163886E6A002B32D1FFF7B6FEDF
:101A8000638885F8BA30EB69002BCDD06949032013
:101A90009847C9E7A07801F051FE0028C4D0D1E7EB
:101AA0007378042B10D0052B11D0022B04D1777939
:101AB0006388BB4208BF012033781E443378002B73
:101AC000EED10028BED0D9E796F80380F4E763880A
:101AD000BB42F1D1B8F1000FEED13046FFF73EFF27
:101AE000EAE7FF27B846E9E795F8BA30D7F800C02B
:101AF000002BA7D06F6AA28894F804E03B461878C0
:101B000000289FD05978022904D193F80480F04529
:101B100000F292800344F2E78CF800308CF8013038
:101B2000316081E71F4493E00B2B8BD100264FF0EF
:101B3000FF08C146B24606E07B78042B0FD0052B88
:101B400021D03B781F443B78002BF5D1EB6913B1D2
:101B5000514607209847002E7FF466AF72E797F84A
:101B60000280A38897F803909845EAD16388994545
:101B7000E7D1B8F1070F1CD805EB0803BA4683F884
:101B8000BB900126DDE7A3884345DAD1A3784B4516
:101B90000AD0BE78304600F08FFB3046FFF710FECB
:101BA000B0FA80F67609CCE73846FFF7D7FE06464E
:101BB000C7E7BA460026C4E794F900206378002AF4
:101BC00018DA002B7FF43EAF24793F6863060AD011
:101BD0002046FFF713FE00283FF434AF95F8BA30E3
:101BE000002B3FF42FAF3946204601F025FE00239D
:101BF0007B7014E7012B08D0032B7FF423AF63889D
:101C0000002B7FF41FAF012103E0618800297FF4DE
:101C100019AFA088FFF77AFE00287FF405AF11E71F
:101C200002293B607FF41BAF5B883360FCE600BF9A
:101C3000B00500206A06002094F9000063780028AF
:101C4000BFF672AF002B3FF467AF0A2B7FF4FAAEFA
:101C50003B78002B3FF4F6AE797804297FF462AF2D
:101C6000B9788A427FF45EAF072A96BF52190023E3
:101C700092F8BB308CF80030F6E600BF13B5164C76
:101C8000237DF3B9E268A168019201AB802006F0E0
:101C90005DFB019AA3681344A360E3689B1AE360A9
:101CA0006BB962B12369E2889A4208DD94F8C820D2
:101CB00093FBF2F102FB11330BB90123237502B040
:101CC00010BD00231A4619468020237502B0BDE8D6
:101CD000104001F0F7BD00BFB005002030B585B061
:101CE000002302460D460193002858D1002935D122
:101CF00008220B460DEB020106F0D2FB002804DAA5
:101D0000802001F051FD05B030BD2A4C029A2260BE
:101D1000039A626004F13802A2609DF90820BDF8C0
:101D20000E302575002AC4E903550ADB802B04D93F
:101D3000802001F039FD0020E3E713B1C4E903334B
:101D4000E1E7FFF777FD0028DAD0E28823699A42BD
:101D5000D4BFE260E360FFF791FFD4E7154CD4E90C
:101D60000215002D01AB04DC06F09AFB0028CADA4C
:101D7000C6E72A4606F094FB0028D9DB019AA3683F
:101D80001344A360E3689B1AE360002BBBD104F10A
:101D90003803A360FFF74EFD0028DCD1B0E78028B0
:101DA000B1D1044BDA68002AD5D11B7D002BD2D1EA
:101DB000A9E700BFB0050020054B064A9A62064A13
:101DC000DA62064A1A63064A58629A61002070472E
:101DD000B0050020E1190000E5160000851700009D
:101DE000251700002DE9F3410446474D47484FF0C1
:101DF000FF334FF0FF3204F0E1FA95F8B830002BD2
:101E00007BD16B6A83B142482C62E8616E6A01F053
:101E100073FE01F061FC041E10DA3C4804F046FB3E
:101E2000204602B0BDE8F08100F0BEF8FFF7C4FF25
:101E30006B6A002BE7D14FF0FF34EEE700F07CFA3D
:101E4000041EEADB7378012B5AD1F379002B57D0AB
:101E50000026684685F8C830ADF802308DF8046079
:101E60008DF8006001F07CFC041ED6DB80276846FC
:101E70008DF8007001F074FC041ECEDB254930465D
:101E800001F026FE041EC8DB2249384601F020FE80
:101E9000041EC2DB204CDFF8848044451AD30020A6
:101EA00001F0E6FC041EB8DBD5F8C430802043F016
:101EB0000103C5F8C43001F0DBFC041EADDBD5F82E
:101EC000C43043F48033C5F8C430012385F8B830FA
:101ED0000024A2E7276A0026227FF3B29A4201D8A3
:101EE0002434DAE707EBC30257F83310107901F016
:101EF000EFFD01360028EFD09DE76FF077048CE707
:101F00006FF0150489E700BFB005002084010020B0
:101F100061180000DD1C0000AD020020AD020020B1
:101F200030B51F4B8BB005AA03F11005186859682E
:101F3000144603C40833AB422246F7D11B78237002
:101F40001022002101A807F04FF8122200211548A5
:101F500007F04AF8102101A806F0A5FB00281BDDB8
:101F60000828B8BF0820093801AB0E491A1800200C
:101F700012F8013F0AAC04EB131403F00F032833EB
:101F80006B44013014F8144C13F8143C0C700828FE
:101F90004B7001F10201EBD102480BB030BD00BF24
:101FA0000C950000151A00202DE9F04F724B93F8A4
:101FB00000B087B0BBF1000F03D0704807B0BDE898
:101FC000F08F6E4C00264FF0011AB0463546B146F0
:101FD00023783BB96A4B02349C42F3D1664A012311
:101FE0001370EAE76378052B1BD8DFE803F08E0354
:101FF000C38E1D39402304A88DF810B0ADF81230FF
:102000008DF814B006F01EFA40B1082304A8ADF80C
:10201000123006F017FA08B1ADF812B0BDF8123060
:10202000E37123781C44D3E7E378002BF9D1A3783C
:102030006BB108F101085FFA88F8F2E76B689C421F
:1020400007D024354F4B9D42F8D30020B6E74E4DC4
:10205000F8E7AB68002BECD0414620469847E8E70C
:10206000002DF2D000222B7F9A42EED2296AA0786E
:1020700001EBC2010B79984201D00132F3E701274D
:10208000E07800F003008DF81400207994F805C082
:1020900040EA0C20ADF8120094F902000028FBB2CF
:1020A00028DA07F110004FF0010C0CFA00F010EAEA
:1020B0000A0F26D143F080008DF8100004A8CDE966
:1020C0000213019206F0BEF9DDE90121039BC0B9BC
:1020D0009DF81020A27012F0800F18BF10330A7103
:1020E00018BFDBB24FF0010214BF9A40BA404AEA6F
:1020F000020A96E70120B84010EA0A0F01D11846FB
:10210000DAE70137102FBBD1B7E7032E1AD1FFF75B
:1021100007FF074650B1FFF70DF8024630B110280F
:10212000A8BF10223946A01C06F050FF23786FF09C
:102130000201E218091B04EB5303D14213D5013607
:10214000F6B26EE7002EF1D1B9F1000F3FF47DAF8A
:10215000A4EB090389F80230C3F3072389F803309D
:1021600089F80480EBE702F801BC13F8010902F8D2
:10217000020DE2E7A14654E7141A00204C020020A9
:10218000AD020020AD020020AD02002010B5094BC9
:1021900000211A461C78844205D15C681CB1482392
:1021A00003FB012010BD0131042903F14803F1D1E3
:1021B0000020F7E77C0600202DE9F34150F8303C81
:1021C00010F8346C103304460AD1036950F8282CF7
:1021D000980736D5D2B9590715D5002344F8303CB5
:1021E00054F8303C10330BD054E9097554F81C8C6A
:1021F00006F027FD00284FD02E48214606F011FD9D
:1022000002B0BDE8F08143F00403236154F82C1CB4
:1022100001AB304606F09AF810B16FF01503DDE718
:10222000019A54F82C3C134444F82C3C54F8283CB4
:102230009B1A44F8283C54F8243C134444F8243CAA
:10224000CEE754F82C1C01AB304601F0B7FB002858
:10225000E3D1019D54F82C3C2B4444F82C3C54F819
:10226000283C5B1B44F8283C54F8243C2B4444F89D
:10227000243C002DB1D0304601F044FCB5FBF0F316
:1022800003FB1055002DA8D154F8283C002BA4D0F6
:10229000304601F0DBFBA3E744F8200CA4F1180062
:1022A00004F086F9002DABD0424639463046A847A7
:1022B000A6E700BF7004002010B5EFF311842023BF
:1022C00083F31288BFF36F8FFFF760FF50B143684D
:1022D000103307D16FF08B03436000F134010448E1
:1022E00006F09FFC84F31188BFF36F8F10BD00BF11
:1022F00070040020F8B50E4C04252027EFF311865A
:1023000087F31288BFF36F8F6368103307D16FF0C4
:102310008B030848636004F1340106F082FC86F305
:102320001188BFF36F8F013D04F14804E6D1F8BD79
:102330007C0600207004002070B50A4C0A4E00256F
:102340003146204606F051FC0122A4F11800114646
:10235000013506F028FC042D04F14804F0D10020DA
:1023600070BD00BFB0060020B921000008B50448C8
:1023700005F090FEBDE80840024805F08BBE00BFA6
:102380001D95000052950000014805F0B1B800BF4E
:102390005893000038B5044618B90F4B0F485B68D6
:1023A00098476168B1F5683F10D0B1F5680F0DD05E
:1023B0000B4DA9420AD011F46861206807D001468C
:1023C000084806F006FB00232360656038BD142230
:1023D00006F00AFEF9E700BFB0000020809500007B
:1023E0002C5F5CA99C0C002008B520B34368B3F5B2
:1023F000683F10D101220368BFF35B8F53E8001FD1
:10240000002903D143E800200028F7D1BFF35B8FF8
:102410000DD1002008BD094A93420AD000684FF050
:10242000FF324FF0FF3303F0C9FF0028F1D004481A
:10243000F0E70448EEE76FF4E040EBE72C5F5CA9BF
:10244000E98FFFFFEA8FFFFF08B5D8B14368B3F506
:10245000683F10D100220368BFF35B8F53E8001F71
:10246000012903D143E800200028F7D1BFF35B8F97
:102470000BD1002008BD074A934208D0006804F041
:1024800015F8F6E76FF4E040F4E70348F2E7034895
:10249000F0E700BF2C5F5CA9E98FFFFFEA8FFFFF29
:1024A00010B5044618B91D4B1D485B689847636812
:1024B000B3F5683F2FD0B3F5680F2CD0194A93427B
:1024C00019D1236803BB18484FF0FF324FF0FF3398
:1024D000214603F045FF08B923681BB90F4B134889
:1024E0005B68984720681422002106F07DFD4FF4B8
:1024F0006863636008E0B3F5683F0DD83A2B03D0FA
:1025000040F6BA629342DED1206806F0ACFA636806
:1025100043F03A03636010BD054AF3E7B0000020C2
:10252000809500002C5F5CA99C0C0020A695000003
:102530003A00003A08B5064906484023142206F03E
:102540003AFABDE808400449044805F043B800BF22
:102550009C0700209C0C00206093000074930000F6
:1025600030BFFFF7FDBF00BF2DE9F0410B4EDFF894
:10257000308006EB0807CC1B054632460949204649
:1025800006F024FDA01942460021083C06F02CFD6F
:102590006C6707F10800BDE8F08100BF0000000093
:1025A0000400000040930000074A936893F90E105E
:1025B000002907DB526993421FBF044A536843F066
:1025C00080535360704700BF0418002000ED00E006
:1025D00070B5264B15469A6A12F0100F9A6A14BF0E
:1025E0001124102412F0080F9A6A18BF12249207BF
:1025F00006460AD5586B9A6A140634D519B19A6AF8
:1026000022F080029A62132401E06FF01500174B4C
:102610009A6A12F0010F9A6A18BF142412F0200F60
:102620009A6A18BF1524D20602D49B6A9B070AD562
:102630000E4B5B68190506D5314600F06BFA10B1F8
:1026400080F309880224094B9A6A920642BF5A6AAB
:1026500022F400525A629A6A42F0FF029A62002300
:102660002B70204670BD6FF01500CCE700ED00E048
:10267000134B9A6A12F0007F9A6A14BF1E201D2025
:1026800012F0807F9A6A18BF1F2012F4002F9A6AF6
:1026900018BF212012F4802F9A6A18BF222012F44A
:1026A000003F9A6A18BF232012F4803F9A6A6FEAAB
:1026B00002426FEA12429A6218BF2420704700BF9C
:1026C00000ED00E010B5194B0246986A9C6A10F4C0
:1026D000805F14BF1720162014F4006F9C6A18BF87
:1026E0001820A40509D5986B986A000404D51AB17E
:1026F0009A6A22F400429A6219200C4B9A6A12F4E8
:10270000806F9A6A18BF1A20D2050CD49B6A13F402
:10271000005F18BF1C20054A936A43F47F4393620D
:1027200000230B7010BD1B20F5E700BF00ED00E09B
:10273000F0B5484B5B688BB00446C3F30803002533
:1027400085F31188BFF36F8F02F07F40B0F17F4FA8
:1027500011D102F00C0008280DD010074CBF0C4618
:1027600001250022033B8DF80720032B05D8DFE865
:1027700003F0246367602C46F3E700239DF80720ED
:10278000CAB902AE04F1200720686168324603C26C
:102790000834BC421646F7D1099A002D54D0C2F332
:1027A000080121B96FEA52226FEA4222099202A976
:1027B000184605F0E7FD0BB0F0BD264BDA6A91072D
:1027C000DBD4DA6A002AD8DBDA6A5200D5D55A6936
:1027D000A16942F480725A61BFF34F8FBFF36F8FCC
:1027E0005A6931F8021C22F480725A61BFF34F8F8C
:1027F000BFF36F8F4DF6027291420AD09A6AD2B23D
:102800004AB10DF1070201212046FFF7E1FE034620
:10281000B4E72368B2E79A6A12F47F4F05D00DF14E
:1028200007010120FFF74EFFF1E79B6AB3F5803FF8
:10283000A3D3FFF71DFFEAE70DF107020021E3E74D
:102840000DF107010020EDE722F4FF7222F00102F2
:10285000ACE700BF00ED00E0044B5A6942F0100203
:102860005A615A6922F008025A61704700ED00E08F
:10287000EFF30880EFF3098101B57246FFF758FFC7
:1028800001BD00BF002080F31488BFF36F8F0F4895
:1028900080F3088802F02AFD00200D490860BFF38C
:1028A0004F8F00F02BF8202080F3118809484FF457
:1028B0000461401880F30988EFF314800221084373
:1028C00080F31488BFF36F8F00F0ECF840300020E5
:1028D00094ED00E0801E00200749D1F890200023ED
:1028E000C2F307221846934200DB7047C1F89830C4
:1028F000C1F8A0000133F6E700ED00E008B572B6BC
:10290000002383F31388FFF7E7FF144B4FF0FF32E8
:10291000C3F88020C3F88420C3F88820C3F88C2033
:10292000C3F89020C3F89420C3F89820C3F89C20E3
:10293000C3F88021C3F88421C3F88821C3F88C210F
:10294000C3F89021C3F89421C3F89821C3F89C21BF
:1029500062B6BFF34F8FBFF36F8F08BD00E100E099
:10296000084B9B6883420BD1EFF3058343B1064BC1
:102970005A6842F080525A605A6A22F400425A62FF
:1029800004F0D0BA0418002000ED00E015498A6870
:102990004FF030001044EFF3098C80E8F01F202046
:1029A00080F31288BFF36F8F0F4F4FF000664A69B4
:1029B0008A603E604FF07404141920680B4C20604C
:1029C000906F0023936780F3118804B5104600F0E0
:1029D00005F9BDE8044002F1300090E8F01F8CF3E7
:1029E000098870470418002004ED00E0B80C0020AE
:1029F0001EF0040F0CBFEFF30880EFF3098081692C
:102A000011F8021C0229FFD001B5724605F0C0FC86
:102A100001BD00BF40B2002807DB044A4109012381
:102A200000F01F00834042F82130704700E100E0D1
:102A300040B200280CDB4309064900F01F00203398
:102A40000122824041F82320BFF34F8FBFF36F8FE5
:102A5000704700BF00E100E0054B420900F01F0095
:102A600053F82220012303FA00F01040704700BF02
:102A700000E100E040B20028A8BF00F1604001F191
:102A80000101B8BF064B4FEA4111ACBF00F56140F0
:102A900000F00F00C9B2B4BF195480F8001370479A
:102AA00014ED00E00B4A08B50B4B22F07F029A6050
:102AB000BFF34F8FBFF36F8FD3F8882022F47002DB
:102AC000C3F8882003F076FB04F04CFB00F05CF8C0
:102AD00003F0B4FB0010000000ED00E042F8203CE1
:102AE000009B42F81C3C0A49019B42F8183C029B9F
:102AF00042F8143C21F001014FF0807342F8043C8D
:102B000042F8081C0023203A02658367704700BF23
:102B100089140000094A0346906870B113F1160F3A
:102B2000406E05D0A0F140029A4205D8834203D2FC
:102B3000814228BF00207047002070470418002001
:102B400008B51546094A0A4B9060426F1A600E4656
:102B500000F044F82C4686F309880020054B98477E
:102B60002046002100220023034C204704180020A7
:102B7000B80C0020AF83000089140000014B102224
:102B80001A61704700ED00E0044800232021C218BC
:102B90000133302B82F80013F9D1704700E100E0D7
:102BA00008B5EFF30583064A103B02EBC30152F868
:102BB000330049688847BDE80840FFF7F5BC00BF0F
:102BC00080910000024B034A0348012100F076B8CF
:102BD000000004200000002084930000426E054B9A
:102BE000403A1A60044A4021C3E901121846012103
:102BF00000F06EB8BC0C002000000B15084AC2F8AB
:102C000098000B6823F01F03034343F01003C2F83E
:102C10009C308B6843F00103C2F8A030704700BFBE
:102C200000ED00E02DE9F043DFF8608085B00E464E
:102C30001F4604464FF00009B14523DA6068D8B159
:102C40003FB1411E08421BD11F2819D923681942E0
:102C500016D12368019305F0CDFBA36803430393CA
:102C6000D8F89050C5F30725D0B2013DA84207D847
:102C700001A9FFF7C3FF421C09F101090C34DBE78E
:102C80006FF01502104605B0BDE8F08300ED00E0DE
:102C9000044B0522C3F89420BFF34F8FBFF36F8F0F
:102CA000704700BF00ED00E0BFF35F8F024B0022D2
:102CB000C3F89420704700BF00ED00E010B5034C4E
:102CC00001232278FFF7AEFF207010BD271A0020E5
:102CD00008B50B4A00231278FFF7A4FF10F1160F76
:102CE00007D0084A0021D2F89030C3F30723984256
:102CF00000DB08BDC2F89800C2F8A0100130F2E76E
:102D0000271A002000ED00E02DE9F043534B544C0E
:102D1000D3F890302568C3F307239D4285B000F2B5
:102D20009A80FFF7C1FF00200C2685421AD14D4C36
:102D30004D4F25706846FEF7CFFCDFF82081DFF8A5
:102D40002C9106460025AE4213D12378434900203A
:102D5000D1F89020C2F30722934276DBFFF798FF69
:102D6000002042E0616806FB0011FFF747FF0130D9
:102D7000DBE7009800EB05114FEA051CCB683B40F0
:102D8000B3F5000F48D00AD8B3F5001F30D0B3F523
:102D9000800F36D0B3F5801F10D00135D3E7B3F1E3
:102DA000807F42D0B3F1007FF7D150F80C308868B3
:102DB0004A6805F01FFB40F4802009E050F80C3011
:102DC00088684A6805F016FB40F0885040F43020CF
:102DD000CDE901230390D8F890302078C3F307237E
:102DE000013B98422AD96FF0150005B0BDE8F08389
:102DF00050F80C3088684A6805F0FCFA40EA09008F
:102E0000E6E750F80C3088684A6805F0F3FA40F0BD
:102E1000E06040F40030DBE750F80C3088684A6826
:102E200005F0E8FA40F08270D2E750F80C3088687C
:102E30004A6805F0DFFA40F08870C9E701A9FFF79A
:102E4000DDFE237801332370A7E7C1F89830C1F87D
:102E5000A00001337CE74FF0FF30C6E700ED00E053
:102E600090930000271A00200000F0FF00000811D6
:102E700008B50649064821F00701C1F1005202F5E4
:102E8000802205F0C8F8002008BD00BFE7420020FE
:102E9000C80C0020024B2C2202FB0030704700BF00
:102EA000C8010020827A064B2C2101FB02339A6A6A
:102EB0001B7F1B33801A23F00303B0FBF3F0704732
:102EC000C801002038B5074B827A2C2404FB02335A
:102ED0005B6AD3E901240C601568FFF7E3FF04FB8C
:102EE000005038BDC80100200E4A0123C2F8403509
:102EF0004FF080424FF08051C2F87835D1F8300160
:102F0000082808D1D1F83411052904D80648415CB5
:102F100009B1C2F838364FF080430122C3F880254A
:102F20000020704700E00140E295000020B1034B13
:102F3000800143F001031847704700BF5093000021
:102F40004FF08043D3F84036DB072ED54FF01023E7
:102F5000D3F8043303F00703072B26D1144A0123C7
:102F6000C2F80435D2F80034002BFBD04FF010210A
:102F7000D1F8043323F0070343F00403C1F804330A
:102F80000023C2F804350A4AD2F80034002BFBD0E3
:102F9000BFF34F8F0749084BCA6802F4E06213433E
:102FA000CB60BFF34F8F00BFFDE70020704700BF2D
:102FB00000E0014000ED00E00400FA0570B50446B1
:102FC000807AFFF767FF6169054649B1637ADB07DD
:102FD00004D4436A1B6820469B68984700236361BA
:102FE0002146284605F0D5FD034B1B681BB1BDE803
:102FF00070402A20184770BDD40C0020020600F053
:103000007F0312D5082B05D1010700F00F0306D569
:103010000E48704710F0780F12D100F00F034C20CB
:1030200000EB43100A4B18447047082B05D10207E8
:1030300000F00F0306D50748704710F0780FF6D060
:1030400000207047044800EB43107047240E002016
:10305000D80C0020440F0020440E002001490248F3
:1030600005F0DFBD000D0020B00200200146014840
:1030700005F084BDB001002002480022002303F0C7
:1030800065BA00BFB001002013B5124800F0C4FEBD
:10309000114B98421AD1114802F05CFF00241048ED
:1030A00002F09EFF0F49104800944FF0FF334FF499
:1030B000806203F0F1FB0D490B4805F0C8FD0C4898
:1030C0000C4905F092FD204602B010BD6FF00400DF
:1030D000FAE700BFDD3200000000AD0BF6950000FE
:1030E000EC930000401A0020B0020020E895000098
:1030F000000D0020F933000010B50E49BFF35B8FBF
:10310000002351E8002F012A03D141E800300028B4
:10311000F7D1BFF35B8F0CD151F8044C1439204622
:1031200005F0BDF8783004D12046BDE8104005F028
:1031300092B810BDF80C002038B5002464F07F0070
:10314000C0B2FFF75BFF013405F065F9082CF5D13B
:103150000E4D0024E0B2FFF751FF036903B905618A
:10316000013405F058F9082C05F14005F2D1084862
:1031700005F051F9074BD3F87C2212B9064AC3F87F
:103180007C22064805F047F9002038BD681300206E
:10319000240E0020D80C0020680F0020440F0020CF
:1031A00010B5054CFFF768FF20B14168204605F0D7
:1031B00010FCF7E710BD00BF1801002007B5002381
:1031C0000E48002201A903F0CBF890B1FFF7E8FF09
:1031D0000A480022002301A903F0C2F838B9019877
:1031E000042340600374FFF741FFFFF737FF00201F
:1031F00001E00198406003B05DF804FB1801002075
:10320000022810B511D8094B1C5CFFF7D7FF60B13D
:10321000002202740472FFF729FF054B93F8243053
:103220001BB1BDE81040FFF719BF10BDF3950000BA
:10323000D80C0020F8B5877806463846FFF7DEFE42
:103240003B06F578044612D5002D43D1FFF7B6FFB3
:10325000034600283ED00122A577027403220273A0
:103260009C60FFF703FFBDE8F840FFF7F7BE4DB1E4
:10327000012D2FD1FFF7A2FF034658B365770574E0
:103280000573EDE7FFF79AFF20B3B278124B12F007
:10329000800F02F0080111D041B1D3F8A836E360E5
:1032A00001230374022303738460DAE702F00F0240
:1032B000142101FB0233D3F80836F0E711B1D3F83B
:1032C000A837ECE702F00F02142101FB0233D3F818
:1032D0000837E4E7F8BD00BF00700240F0B50646CD
:1032E00089B01422002103A805F07EFE3378013B4B
:1032F000052B21D8DFE803F07A0314146A160323A0
:103300008DF814300024FFF759FF0346A0B1047470
:1033100000F10802DDE9050182E8030018461DE01E
:103320000423EDE7B7783846FFF768FE837A044652
:1033300023B1013B022B43D909B0F0BD3B06F57820
:1033400013D5002DF8D1FFF739FF03460028F3D03D
:103350000122A5770274032202739C60FFF786FEA8
:1033600009B0BDE8F040FFF779BE55B1012DE3D1BA
:10337000FFF724FF03460028DED065770574057348
:10338000EBE7FFF71BFF07460028D5D001230374A6
:1033900002230373846004F10C01B07805F09CF8FB
:1033A000134AE168B2F88C328B4206D95B1AA2F854
:1033B0008C3201F07FF83846D0E7A2F88C52FAE759
:1033C000304609B0BDE8F040FFF734BF01A801F076
:1033D0004FF89DF80530052B04D19DF8043013F00B
:1033E000600FA9D0034B059301248CE702248AE7E0
:1033F000D80C0020440E00202DE9F043A64CDFF845
:103400009C9285B08046FFF737FE074610B905B09D
:10341000BDE8F08394F825303A7C3BB9002A00F0EF
:10342000868079689D4805F0D4FAECE7042A42D8F2
:10343000DFE812F07D0005000001160140013B7B32
:10344000BD68032B37D8DFE803F0023D5A5F6E6991
:10345000934B002232607260D3F880143170D3F83D
:1034600084147170D3F88814D3F88C0441EA0021D5
:103470007180D3F89014D3F8940441EA0021B1800C
:10348000D3F89814D3F89C3441EA0323F38008233B
:10349000EB6030687168834B03C311462B68687A10
:1034A000984796F90030002B08DBF38833B1A4F875
:1034B0008C3200F0FFFF79684846B4E70023A4F897
:1034C0008C32F8E76B7F002BF5D02B7F002BF2D0EE
:1034D00000266E774FF0FF3273482E774FF0FF33A0
:1034E00004F0ACFF6B6901936B68CDE9023601A96A
:1034F000687A00F0E7FC6C4804F0A2FFDBE72B6879
:103500000121687A9847D6E7AB7A6BB9EB7F5BB954
:1035100065484FF0FF324FF0FF3304F08FFF00F0AB
:10352000CFFF614804F08CFF2B680221E9E73A7A6B
:10353000042AC0D8DFE802F059032367730000F0C3
:103540002BFC05460028B6D100F066FBBFF35B8F6D
:103550005649012351E8002F002A03D141E80030E9
:103560000028F7D1BFF35B8FA5D141F8085C41F883
:10357000105CE0696361143904F016FE9BE70025D6
:1035800065F07F00C0B2FFF739FD037A13B1407ACE
:1035900001F0FAF80135082DF2D194F854311BB13D
:1035A00094F8550101F0F0F80025E8B2FFF726FD88
:1035B000037A13B1407A01F0E7F80135082DF4D110
:1035C00094F874321BB194F8750201F0DDF8002014
:1035D00000F0C6FB012384F825302368002B3FF45C
:1035E0006AAF00210220984765E7002584F825503E
:1035F00001F030F8FFF780FD2368002B3FF45BAF4C
:1036000029460420EFE7002B3FF455AF00F0CEFB36
:103610002368002B3FF44FAF00210520E3E7226829
:10362000002A3FF448AF002B3FF445AF00210620AD
:10363000904740E708F110054FF0FF334FF0FF329D
:10364000284604F0FBFEFFF777FD284604F0F8FE5D
:1036500058F8283C002B3FF42EAF00210120C2E790
:1036600094F874327BB1012584F8895284F8885229
:10367000FFF7A4FD38B10E4A057405738260FFF7A9
:10368000F5FCFFF7EBFC58F8283C002B3FF413AF98
:1036900000210A20A7E700BFD80C00201801002055
:1036A00000700240DC0C0020100D0020F80C0020FF
:1036B000440F002005F0BAF800F0CCFF00F0A2FAA9
:1036C000FFF76EFDFFF738FD05F0A9F8014800F09F
:1036D000A3FBF0E6DD32000038B5164D95F8244026
:1036E0002CBB05F1380005F0BEF9204601F0A2F927
:1036F00022460121E8612720FFF7BCF905F08FF889
:10370000FFF71AFD044610B9012385F824300A4B4F
:103710001B680BB1FFF7A2FC4FF08043D3F838349D
:10372000DB0702D50020FFF76BFD204638BD0024E3
:10373000FBE700BFD80C0020B0010020074B93F836
:1037400024203AB193F82530002B14BF00206FF0ED
:10375000120070476FF01200704700BFD80C0020B5
:1037600038B5104B93F824300446C3B10578284689
:10377000FFF744FC10B96FF0150038BD457223798E
:103780008372638843602078618810F0080F02D14B
:103790004B1E0B42EFD104F09AFE0020EDE76FF0D4
:1037A0001200EAE7D80C002038B5124B93F8242019
:1037B0000546CAB193F82530B3B1FFF71FFC0446A4
:1037C000A8B1837A012B12D007D9023B012B07D96C
:1037D0006369A3610020E06038BD00F077FEF7E781
:1037E000284600F019FEF3E76FF01200F4E76FF0DF
:1037F0001500F1E7D80C002038B50E4B93F82420C3
:10380000054682B193F825306BB1FFF7F7FB68B13D
:1038100015F008040AD1284600F020FE284600F0E2
:10382000EBFF204638BD6FF01200FBE76FF015008C
:10383000F8E700BFD80C002038B50C4B93F82420D3
:1038400005460C4662B193F825304BB1FFF7D6FB25
:1038500048B144B1284600F0E7FD2070002038BD93
:103860006FF01200FBE76FF01500F8E7D80C0020AE
:1038700070B5134E96F824300446C3B1FFF7BEFB73
:103880000546B8B1230705D4204600F0E7FD2046E1
:1038900000F0B2FF2B7A83B901232B7296F8253002
:1038A0000BB9002070BD204600F06EFFF9E76FF005
:1038B0001200F7E76FF01500F4E76FF07700F1E71B
:1038C000D80C00202DE9F043DFF8E4801E4698F87C
:1038D000243085B0074689461546002B61D098F8FC
:1038E0002530002B5DD003065ED5FFF787FB04462D
:1038F000002859D0037A002B56D04FF0FF334FF0F9
:10390000FF3208F1380004F099FDA37F4BB108F1B4
:10391000380004F095FD6FF00A04204605B0BDE8BC
:10392000F083A37AC5B13BB30123A3774FF000081E
:1039300001A93846CDE90195CDF80C8000F0C2FA16
:103940001C4B984229D084F81E801EBB6FF00404E3
:10395000194804F075FDE0E7E27F02B1E577002B3E
:10396000E2D100F0B9FD8742DED000F0A9FD124897
:1039700004F066FD0024D0E7B8F80A30AB42F0D975
:103980006268B5FBF2F302FB1353002BE9D101236C
:10399000E377E6E7C6F80080D8E706B13560002493
:1039A000D6E76FF01204B8E76FF01504B5E700BF73
:1039B000D80C00200000AD0B100D00202DE9F041C7
:1039C0001D46204B174693F824200E46002A33D07C
:1039D00093F8253083B3030631D401B97FBBFFF7D9
:1039E0000DFB044658B3037A4BB34FF0FF33164830
:1039F0004FF0FF3204F022FDE368BB42984628BF37
:103A0000B84646B93FB905B12B600F4804F018FD20
:103A10000020BDE8F081A1694246304605F0D6FAA3
:103A2000A3694344A361E368A3EB0803E360002DAB
:103A3000EBD0C5F80080E8E76FF01200E9E76FF01F
:103A40001500E6E7D80C0020100D002070B51E4DC3
:103A500095F82420034682B395F825206AB31B0607
:103A60002ED4FFF7CBFA044650B3037A43B34FF09A
:103A7000FF334FF0FF3205F1380004F0DFFCE3685C
:103A8000B3B9012663692677A361637F83B1FFF72A
:103A900095FB30B905F1380004F0D2FC6FF00B0053
:103AA00070BD067484600673FFF7E0FAFFF7D6FA7C
:103AB000064804F0C5FC0020F2E76FF01200EFE7C3
:103AC0006FF01500ECE700BFD80C0020100D0020AF
:103AD00010B5084B93F824300C462BB1FFF78EFA43
:103AE00028B10460002010BD6FF01200FBE76FF0FA
:103AF0001500F8E7D80C0020014B1860704700BF94
:103B0000D80C002008B5074B93F8243023B1FFF7F9
:103B100075FA20B1406808BD6FF01200FBE76FF046
:103B20001500F8E7D80C00204FF08053D3F830216F
:103B3000082A06D1D3F83431052B04D8034AD05CC7
:103B40007047002070470120704700BFF7950000C4
:103B5000064B10F0800FA3F1D80208BF134600F007
:103B60000F00182202FB0030704700BF80160020B3
:103B7000EFF31180202383F31288BFF36F8F0A4B7A
:103B8000D3F8001C032261B949F27531C3F8001C57
:103B9000C3F8142DC3F8001C80F31188BFF36F8F96
:103BA0007047C3F8142DF7E700E00640EFF31180EB
:103BB000202383F31288BFF36F8F0A4BD3F8001CC6
:103BC00061B949F27532C3F8002CC3F8141DC3F86B
:103BD000002C80F31188BFF36F8F70470022C3F869
:103BE000142DF6E700E006404FF08053D3F8303153
:103BF000082B02BF024B0022C3F81C2C704700BFE9
:103C000000700240024A00231360024A137070479A
:103C1000601700202C1A002008B54A4B4FF40062B0
:103C2000C3F80024FFF780FF08B1FFF7A1FF4FF0B2
:103C30008053D3F83031082B18D1EFF311802023B3
:103C400083F31288BFF36F8F3F4BD3F8001CC02261
:103C500000296ED149F27531C3F8001CC3F8142C49
:103C6000C3F8001C80F31188BFF36F8F354B01221E
:103C7000C3F80025D3F800241205FBD54FF40062E9
:103C8000C3F800244FF08053D3F83031082B17D1FC
:103C9000EFF31180202383F31288BFF36F8F2A4B39
:103CA000D3F8001C002947D149F27532C3F8002C23
:103CB000C3F8141CC3F8002C80F31188BFF36F8F76
:103CC000FFF732FF30B1FFF771FFFFF72DFF08B1AB
:103CD000FFF74EFF4FF08053D3F83031082B194BCC
:103CE0000AD140F2E372C3F800284022C3F8042846
:103CF000BFF36F8FBFF34F8F8022C3F81C250122C3
:103D0000C3F83025114B40F2FF121A60104B00210E
:103D10001960104B1970FFF767FF0F4B19700F4BAD
:103D200002221A70FFF700FF50B1BDE80840FFF70C
:103D30003DBFC3F8142C95E70022C3F8142CBBE751
:103D400008BD00BF0070024000E006405C17002084
:103D500058170020281A00202A1A00202C1A0020A8
:103D6000094B002210B51A70084A094B094C00286B
:103D700008BF1346C4F800332720FEF74BFE01238B
:103D8000C4F8043510BD00BF2B1A0020FDFFDF0171
:103D9000FDFFFF0100700240034B1878012894BF1B
:103DA00000200120704700BF2C1A002010B54FF0F2
:103DB000FF324FF0FF33154802F02EFCEFF3118174
:103DC000202383F31288BFF36F8F114B1B7803F00E
:103DD000FF0483B10F4BD3F8002412F400720AD110
:103DE0000120C3F82C05D3F82C05D3F80004800576
:103DF00002D5C3F82C25002481F31188BFF36F8FFF
:103E0000024802F0D5FB204610BD00BF98010020FB
:103E10002B1A002000700240F8B51C4B1C7894BB94
:103E20001B4A106001221A7040F2FF17264664F008
:103E30007F0514F0080FEDB214BF39464021284623
:103E400004F045FB2846FFF783FE0134092C8675F4
:103E500006730661EBD1002440F2FF17254614F0EB
:103E6000080FE6B214BF39464021304604F02FFB5C
:103E70003046FFF76DFE0134092C85750573056129
:103E8000EDD10448F8BD0448FCE700BF2C1A00201F
:103E9000601700200000AD0B0500AD0B084B10F0C3
:103EA000800F00F00F0114BFD3F81025D3F81425AC
:103EB00001238B40134214BF01200020704700BF34
:103EC000007002402DE9F8430246EFF311872023EA
:103ED00083F31288BFF36F8F030703D1184B1B784E
:103EE000834229D1174B184E1C683568104604F0E0
:103EF000E6FAE443A4B24FF001092C4309FA00F8B2
:103F000014EA08041AD11046FFF722FE80F80C903C
:103F1000034607C91C6183E807009C750B4B0C48DE
:103F200045EA080580223560C3F8042187F311882B
:103F3000BFF36F8FBDE8F8830648F7E70648F5E75B
:103F40002A1A00205C1700205817002000E100E02A
:103F50000000AD0B0A00AD0B0B00AD0B10F0080F0D
:103F6000074B06D0D3F8C00410F4803F18BF0020E0
:103F7000704700F00F0000F5947053F82000704770
:103F8000007002402DE9F74FAB4BAC4ED3F85421F3
:103F9000DAB10022C3F85421D3F80413890214D5EE
:103FA0008DF80420D3F82025ADF80620D3F8C034CE
:103FB000002B336814BF4FF001224FF4807213437B
:103FC00033609F4B01A81B6898479B4BD3F8604117
:103FD00034B10022C3F86021D3F86C44C3F86C44B8
:103FE000D3F828214AB10022C3F82821954B18782C
:103FF00004F065FA012383401C43DFF84C82934FA1
:1040000098F8005098F9009015F0080143D1B9F1E3
:10401000000F05F00F032EDA8D4A52F8230020B36B
:1040200042F823101422534303F1804303F51C3359
:10403000D3F80836874A117803F001034B40137018
:10404000FFF7D2FD844802F0B3FA2846FFF780FD5F
:10405000837D032B37D1284604F031FA012303FA7C
:1040600000F03B6823EA00033B60DFF8D4A10125A0
:104070004FF006095DE0794A52F823000028F4D099
:1040800042F823101422534303F1804303F51C33F9
:10409000D3F80837CEE7B9F1000F674B09DBD3F847
:1040A0005021002AE1D00022C3F85021D3F8A837CC
:1040B000C0E7D3F82C21002AD7D00022C3F82C2146
:1040C000D3F8A836B6E7037BDBB9284604F0F7F946
:1040D000012303FA00F03B68B9F1000F23EA000363
:1040E0003B6001DA882DC0D106238DF8043000230F
:1040F0008DF80730524B8DF806501B6801A8984781
:10410000B3E7002DB1D14C4B0122DA64ADE794FA4C
:10411000A4F03268B0FA80F005FA00F31A430F28D1
:10412000326024EA03043A6840F39C80134200F0B2
:10413000A980002CEBD1404BD3F800215AB1C3F831
:104140000041474B1C703F4B1C70012301933C4BBB
:1041500001A81B689847384BD3F85821002A2ED065
:104160000022C3F85821D3F80044C3F80044E30503
:1041700008D53B4B01221A7002230193304B01A852
:104180001B689847A50508D5354B00221A700323F4
:1041900001932B4B01A81B68984760050FD5304B46
:1041A0001A7862B100221A70234B0122C3F8082545
:1041B0009A6504230193224B01A81B6898471E4B64
:1041C000D3F85C3103B3244B9B681BB998F80030DB
:1041D000590619D0184B0022C3F85C21D3F880345B
:1041E000184A23F07F0313703B6823F001133B60F0
:1041F000336823F4803343F00103336005230193D4
:104200000F4B01A81B6898473A6833681A4200F0C0
:10421000EB8011480022002302F0FEF9002840F054
:10422000E380054BD3F82C35002B7BD00A4803B034
:10423000BDE8F04F02F0BCB9007002405C170020EE
:10424000601700202A1A0020291A00205817002081
:1042500008710240281A00209801002030710240A5
:104260002B1A002013407FF464AF60F07F018DF8BB
:1042700004908DF806108DF80730DAF8003001A8A8
:10428000984756E7A0F110018DF804908DF80610BC
:104290008DF80750F1E749F080052846FFF758FCF4
:1042A0004368B0F814A001689A4528BF9A4601F007
:1042B0006043B3F1005F044604D05448524604F012
:1042C00085FE52492268636852442260A268A3EBCB
:1042D0000A03D20768B2636053D5BAF1000F52D116
:1042E000002323734FE011464FF0000A604545D18B
:1042F000003B18BF0123002A42D0504540D901237A
:1043000003FA09F32BEA03033B6006238DF804301C
:104310003F4B8DF8065002221B68A2758DF80720CE
:1043200001A89847D7F800B033681BEA03093FF4A7
:104330007DAF19F0012314BF93FAA3F999FAA9F9F3
:10434000B9FA89F9B9F10F0FA5D9A9F11005EDB2A4
:104350002846FFF7FDFB04462846FFF7FFFD63688C
:10436000B4F814C022689842BDD81B1A00EB020EA4
:1043700011466360C4F800E08246B7E70023BAE75D
:1043800068B2002BACD04FF08053D3F83031082BFB
:1043900002BF204B8222C3F81C2C336888F80050DF
:1043A000012202FA09F923EA09033360236915F0AF
:1043B000080F53442361174B19D1002805F00F054E
:1043C0004FF0140000FB0530A9BF0A3503EB85034D
:1043D000C0F80017C0F804A7AFBF43F82520C0F805
:1043E0000016C0F804A65A6003B0BDE8F08F00289C
:1043F000B5BFC3F8A016C3F8A017C3F8A4A6C3F8A6
:10440000A4A7B4BF5A629A64EEE700BF6815002003
:104410006017002000700240024B40F48070C3F827
:104420001805704700700240030713D400F00F0313
:1044300010F0800F084A0BBF03F5887303F58473EF
:1044400002EB830252F8230008BF5068003818BFFF
:10445000012070470020704700700240034BC3F8F2
:104460000C0540F48070C3F80C05704700700240E2
:104470000023036043600E4BD3F880240270D3F80E
:1044800084244270D3F88824D3F88C1442EA0122A1
:104490004280D3F89024D3F8941442EA0122828017
:1044A000D3F89824D3F89C3442EA0323C38070479E
:1044B00000700240014B0122DA6470470070024034
:1044C000014B01221A65704700700240014B012226
:1044D0005A65704700700240014B1878704700BF62
:1044E0002A1A002010B50246EFF31184202383F32B
:1044F0001288BFF36F8F03F0E2FF0B49012303FA29
:1045000000F00B6823EA00030B6012F0080101BF02
:1045100002F00F02054B02F5947243F8221084F367
:104520001188BFF36F8F10BD5C1700200070024030
:10453000F7B50146EFF31185202383F31288BFF30B
:104540006F8FFFF705FB0646084603F0B8FF012210
:1045500011F0800F02FA00F22D4818D1036832EAF8
:1045600003040AD00846FFF7BDFF0323B37585F3A4
:104570001188BFF36F8F03B0F0BD2649347323EA6F
:10458000020303600B6823EA02030B60EDE70B07ED
:1045900015D48029204B2FD001F00F0404F2DA3417
:1045A0006400C3F80048D3F80448D3F80478E4B2B0
:1045B00044F002043C43C3F80448D3F80438154FD0
:1045C00004683B6864EA030C1CEA020FCFD0134373
:1045D0003B60002333730323B3758DF807300F4B13
:1045E0008DF8061024EA0204062204601B688DF888
:1045F000042001A89847BAE740F2B474C3F8004811
:10460000D3F80448D3F80478E4B244F00404D1E7C2
:10461000581700205C17002000700240601700202F
:1046200038B50446094D4FF0FF324FF0FF332846AE
:1046300001F0F2FF2046FFF77BFF284601F0B8FFAC
:10464000034B8022C3F8042138BD00BF980100202D
:1046500000E100E0F8B54FF0FF324FF0FF332B4898
:1046600001F0DAFF2A4B8022C3F884212720FEF7CD
:10467000F3F998B1274E284B34681B68240C2404A6
:104680001C43012764BB254D40F2FF1333602720F4
:10469000C5F80445FEF7CCF9C5F80043204A137865
:1046A0008BB11E4B0021C3F808110121C3F800266D
:1046B000C3F804165960D3F808110029FBD0002173
:1046C000C3F808111170154B0022C3F80025FFF73D
:1046D0008BFA0E4801F06CFF124B01221A70F8BDE4
:1046E00094FAA4F5B5FA85F50F2D2846C6BFA5F1B5
:1046F0001000C0B240F08000030701D4FFF718FF9C
:1047000007FA05F524EA0504BCE700BF980100207C
:1047100000E100E05C170020581700200070024004
:10472000281A00202C1A002010B504464FF0FF3242
:104730004FF0FF33114801F06FFF2046FFF7F8FEFE
:1047400004F00F02012393400D4A14F0800F14BFB0
:10475000D2F81015D2F814156FEA030315BF0B40F9
:104760000B40C2F81035C2F81435044801F020FFA0
:10477000044B8022C3F8042110BD00BF9801002023
:104780000070024000E100E070B50446FFF786FBD0
:1047900068B904F00F02012514F0800F144B05FADC
:1047A00002F205D0D3F810150A43C3F8102570BDE6
:1047B000D3F814150A43C3F81425631E062BF6D844
:1047C000EFF31186202383F31288BFF36F8F204607
:1047D000FFF788FE204603F072FE064A1368854004
:1047E00023EA0503136086F31188BFF36F8FDEE7BA
:1047F0000070024058170020030610B5044605D487
:10480000FFF712FE10B12046FFF76CFE014BC3F814
:10481000184510BD00700240084B70B5C31A0D4614
:1048200007499B10044659430648402203F073FE93
:104830002B4601462046BDE87040184778170020F7
:10484000B76DDBB64491000073B50C4C0C4A4023A5
:10485000041B00930D460B460A49A410614306460B
:10486000094803F084FE011E05DA30462B4602B0EB
:10487000BDE87040184702B070BD00BF7817002037
:10488000D9850000B76DDBB64491000010B5EFF399
:104890001184202383F31288BFF36F8F074A1368B4
:1048A00023F00201DB07116002D4012003F029FF8D
:1048B00084F31188BFF36F8F10BD00BFC8170020AD
:1048C000002270B5012104461046FEF7D3F80F48C8
:1048D00000F096FE0E4B984215D100F0A1FE26691D
:1048E0000C49304603F04DFC00280BDB01253564F4
:1048F0002469084904F11C0003F043FC002801DB93
:10490000E564002070BD6FF00400FBE7194A000069
:104910000000AD0BF09300007FB500220123CDE92C
:10492000022304ABCDE90433094ACDF800D06B462D
:10493000CDF804D003F049FE002805DB4FF4804297
:104940000023684601F068FE07B05DF804FB00BF75
:10495000F785000030B4104B0C2202FB00330146F7
:104960000020D3E90E529863EFF31180202484F3E2
:104970001288BFF36F8F1C6C04F0C00444F0020473
:104980001C6480F31188BFF36F8F1DB12B46034861
:1049900030BC184730BC70477817002044910000A5
:1049A00010B4EFF31182202383F31288BFF36F8FCB
:1049B0001748016841F002040460C80707D482F375
:1049C0001188BFF36F8F012010BC00F041BE4FF083
:1049D0008041D1F80C04D1F80C14C907EFD5EFF3DE
:1049E000118083F31288BFF36F8F0A490B6C03F0B9
:1049F000C00343F002030B6480F31188BFF36F8F91
:104A000082F31188BFF36F8F002010BCFFF7A2BFA5
:104A1000C81700207817002010B1012804D0704773
:104A2000034B1B6C5B0701D1FFF794BF704700BFBE
:104A300078170020024AC3B21C2003FB00207047F5
:104A4000781700202DE9F0413849BFF35B8F074606
:104A5000012251E8003F41E800200028F9D1BFF3CE
:104A60005B8F33B9324933484B60CB608A6003F0C7
:104A70009BFB7B1E012B2BD8012F07D14FF08043CE
:104A8000D3F81C3403F00303012B21D004F0D9F830
:104A90000546F8B9284B1B78E3B14FF0804302225A
:104AA000C3F808230646DFF894804FF08044D4F81A
:104AB0001824D4F81834D20315D503F00303012BBE
:104AC00001D0012F0FD155B386F31188BFF36F8F3B
:104AD000BDE8F081EFF31186202383F31288BFF342
:104AE0006F8F0125DFE7ADB1304603F074FCD4F8D9
:104AF0001835002BDBD1D4F80421002AD7D0C4F814
:104B00000431D4F804310123C4F81835C8F88031D1
:104B1000A360CCE70021212004F033F9E7E74FF050
:104B200080430222C3F80423D2E700BF7417002099
:104B300064170020941700202F1A002000E100E0E5
:104B4000F0B54068057B01F01F0444EA451405698F
:104B500087B0002D64D0B2F5001F00F1100506D11A
:104B60002146284603F04DFE002007B0F0BD01AEFF
:104B70000027B2F5800F0197776039D1B3F1007F3C
:104B800014BF052304238DF804300023CDE904630A
:104B90000393836823FA01F111F001011AD1B2F1F4
:104BA000A07F17D104F01F03620903F5E0732AD038
:104BB000012A3BD11F4A52F82330DB070AD40DF1FA
:104BC000030632462146284601F02AF81A4B98423D
:104BD0001CD0029603AA2146284600F0E3FE174B9C
:104BE000984220D101222146284601F07DF8BBE7FA
:104BF000B3F1C06F05D0B3F1007F14BF01230223CE
:104C0000C1E70323BFE74FF0A042D4E7314628466F
:104C100001F064F8094B9842DBD06FF00B00A4E779
:104C20006FF08500A1E76FF015009EE751F8233083
:104C3000FFDE00BF000300500400AD0B0000AD0B11
:104C400038B545682B69B3B11035284601F036F800
:104C5000044680B90146284600F0FCFF084B984204
:104C60000BD108492246284600F0D4FF22460521F0
:104C70000620FDF7FFFE002038BD6FF00400FBE7C3
:104C80000000AD0B894C0000420970B5034602D00C
:104C9000012A17D070BD0D4E326951680029F9D034
:104CA00003F01F0301250C689D400029F2D08A689B
:104CB0002A4002D04B68304698472CB123682146E1
:104CC0001C46F2E7024EE7E72346F8E76C91000046
:104CD000589100002DE9F043466840F20635D006B1
:104CE000337B87B002EA050554BFC2F340100320AE
:104CF00001F01F07B5F5837F144647EA43178DF887
:104D0000030045D00FD8062D18D007D8B5B1022D15
:104D100040D06FF0150007B0BDE8F083B5F5807F97
:104D2000F7D101250AE040F20222954234D0B5F5D0
:104D3000407F33D0B5F5007FEBD10225012322035C
:104D400003FA01F12CD57368C3F80815326982BBE8
:104D500007F01F037F0929D0012F77D13E4A02EBCC
:104D6000830284F48033D2F80017C3F30043C4F302
:104D7000404444EA430421F4E16144EA800421F020
:104D8000070144EA05230B43C2F800370020C2E7BD
:104D90000725D3E70425D1E70525CFE70325CDE790
:104DA000630344BF7368C3F80C15CFE74FF0A0420C
:104DB000D5E710360DF102023946304600F030FFDB
:104DC00014F4403F80460CD13946304603F017FDBD
:104DD000224B9845DAD19DF80210304600F078FF5A
:104DE000D4E701AB4FF0000903AA39463046CDE9BC
:104DF0000439CDE90199CDF80C9000F0D3FD174BA3
:104E0000984286D114F4003315D09DF803308DF804
:104E10000E3084F48034C4F300444B4603AA394670
:104E200030468DF80C508DF80D4000F075FE0B4BA0
:104E30009842CDD06DE7CDE9043303AA0DF1030309
:104E400039463046039300F0ADFDF0E703F5E0731B
:104E500052F82330FFDE00BF000300500000AD0B0E
:104E600070B5012383400E4ABFF35B8FDC4352E8E9
:104E7000001F01EA040542E80056002EF7D1BFF3F7
:104E80005B8F4FF4803282400648C0F80823BFF39E
:104E90005F8FBFF36F8F0B4214BF0120002070BDE6
:104EA000E81700200010014070B40E49D1E9003429
:104EB000D01AC31844F1000422F07F46C1E900343F
:104EC000A6F50013B3F5400F09D2074B1B681A0A69
:104ED0001B069C19054B42F10005C3E9004570BC57
:104EE00002F000BA60030020EC17002068030020E5
:104EF00011B3BFF35B8F0123104A834052E800CF08
:104F00004CEA030C42E800C10029F7D1BFF35B8FE4
:104F10000B4A4FF480338340C2F80433094BBFF38C
:104F20005B8F1B68BFF35B8FC340DB0742BF064B41
:104F30004FF40032C3F80021704700BFE81700208B
:104F400000100140E417002000E100E00D4B18685C
:104F5000010A0006BFF35F8F0B4BD3F80435181816
:104F600041F10001B3F5801F0AD2084BD3E90023B9
:104F7000904271EB030303D210F1807041F1000104
:104F8000704700BFEC1700200010014068030020AC
:104F90002DE9F04F85B016461F469DF840A0044607
:104FA000FFF75EFF0190FFF7D1FFB04271EB0703FF
:104FB00054D23E4B301A67EB0101984271F1000167
:104FC0004FD23B4B03EB0413D3E902239F4208BFAC
:104FD00096425ED037494FF4803804F1500508FA04
:104FE00004F8AD00C1F848832046ADB203F06FFB72
:104FF00026F07F4B05F1804504F5A87305F588354B
:10500000DC464FF003090293029A2CF07F4341F8EB
:105010002230C1F84483D1F80435274A6FF00200EA
:10502000C01A604420F07F40904232D9286868B1AD
:10503000D1F804350393A3EB0B0020F07F40B0F5CB
:10504000000F26D9204603F042FB039BBAF1000F64
:1050500007D109EB030C09F10109D5E7BAF1000FFB
:1050600009D06FF0150520460199FFF741FF28464A
:1050700005B0BDE8F08F0123104ABFF35B8FA3405A
:1050800052E8000F184342E800010029F8D1BFF3AD
:105090005B8F07490E98230101EB0412C8500F9B48
:1050A0005360C2E902670025DDE700BF0100800010
:1050B0005003002000100140FDFF7F00E417002096
:1050C0007FB51C4C1C4BC4F80833C4F848331B4B49
:1050D00000254FF0FF304FF0FF31C4F80855C3E909
:1050E00002014FF48033C4F80433154B02264FF409
:1050F00000320121C4F804631120C3F880212A463C
:10510000FDF7B8FC1120FDF785FC0E4A0123A360D2
:10511000236013600C4B0D4A0093CDE90155002329
:105120002846FFF735FF3046FFF78CFC284604B0D1
:1051300070BD00BF0010014003000F0050030020AD
:1051400000E100E0E8170020A94E0000FFFF7F000B
:105150002DE9F7432F4CD4F8043399070BD5D4F835
:10516000043143B12C4A0023C4F80431D4F804318B
:10517000136801331360D4F80433DA0329D5BFF37D
:105180005B8F264B53E8002F22F0010143E800100B
:105190000028F7D1BFF35B8FD30702D4D4F8403196
:1051A000BBB10025C4F84051D4F84031FFF7CEFE22
:1051B000EFF31182202383F31288BFF36F8F184B14
:1051C000D3E90267B042B94106D282F31188BFF336
:1051D0006F8F03B0BDE8F0834FF0FF384FF0FF3919
:1051E000C3E90289D3E900101D604FF48033C4F88D
:1051F0004833C4F84051D4F8403182F31188BFF3EA
:105200006F8F0029E5D0009032463B4628468847FC
:10521000DFE700BF00100140EC170020E41700207A
:105220005003002030B5431C124C85B005D0844299
:10523000A8BF0446012CB8BF0124FFF787FE0E4B20
:105240000C4DD3E90013401AB0F5000F10D222180C
:10525000AA4228BF2A4652184FF000000749009181
:10526000CDE9010043F10003FFF792FE05B030BD28
:105270002A46F0E7FFFF7F0060030020A94E0000F0
:1052800008B5FFF763FE024B1B68C01A08BD00BFDC
:1052900060030020BFF34F8F0549064BCA6802F434
:1052A000E0621343CB60BFF34F8F00BFFDE700BF49
:1052B00000ED00E00400FA054FF08053D3F83021F0
:1052C000082A06D1D3F83431052B02D8024AD05C23
:1052D00070470020704700BF2E960000024AD2F8A7
:1052E0000034002BFBD0704700E0014010B54FF0B8
:1052F0008053D3F83021082A4ED14FF0804200214C
:10530000C2F80C11C2F81011C2F8381502F540426B
:10531000D3F80414C2F82015D3F80814C2F82415E1
:10532000D3F80C14C2F82815D3F81014C2F82C15B1
:10533000D3F81414C2F83015D3F81814C2F8341581
:10534000D3F81C14C2F84015D3F82014C2F8441541
:10535000D3F82414C2F84815D3F82814C2F84C1511
:10536000D3F82C14C2F85015D3F83014C2F85415E1
:10537000D3F83414C2F86015D3F83814C2F86415A1
:10538000D3F83C14C2F86815D3F84014C2F86C1571
:10539000D3F84434C2F87035FFF78EFF18B13F4B95
:1053A0003F4AC3F88C26FFF787FF18B13D4BFB221D
:1053B000C3F81825FFF780FF70B14FF080414FF020
:1053C0008053D1F8E42ED3F8583222F00F0203F0C4
:1053D0000F031343C1F8E43EFFF76EFF20B1324BD9
:1053E0004FF40072C3F840264FF08053D3F83031A9
:1053F000082B1AD14FF08043D3F80024D20744BFC2
:105400006FF00102C3F800244FF08053D3F8343119
:10541000052B02D8254AD35C3BB14FF01023D3F8BB
:1054200008224FF08043C3F858254FF01021D1F8DF
:105430000C32DB0714D51E480123C0F80435FFF7F2
:105440004DFFD1F80C3223F00103C1F80C32FFF705
:1054500045FF0023C0F80435FFF740FFFFF71AFFB0
:10546000D1F80032002B03DBD1F80432002B14DA20
:105470000F4901234FF01020C1F804351224FFF723
:105480002DFFC0F80042FFF729FFC0F80442FFF7E4
:1054900025FF0023C1F80435DEE710BD00500040B1
:1054A0004881030000F00040009002402896000070
:1054B00000E0014030B50468CCB1BFF35B8FB4FAB3
:1054C00084F3C3F11F03DBB201229A4024EA0202F3
:1054D00050E8005FA54204D140E8002CBCF1000F69
:1054E000F6D1BFF35B8FE6D102480B7030BD0248A6
:1054F000FCE700BF0000AD0B0200AD0B10B5036868
:10550000CB40DB0714D401238B400268BFF35B8FD1
:1055100043EA020150E8004F944204D140E8001CE5
:10552000BCF1000FF6D1BFF35B8FEED1014810BD87
:105530000148FCE70000AD0B0400AD0BF7B50546D4
:10554000F8B101281BD104224FF4807301464FF0BB
:10555000804003440244C0F8081300260121116072
:105560001E608D421B688DF8071008BF0DF10706FD
:1055700042F210744FF0804745B1012D28D003B09E
:10558000F0BD0C224FF482730221E0E7D7F8183403
:1055900003F480333EB9002BF1D0012003F0AFF8C3
:1055A000013CF3D1EBE7D7F8182402F00302326094
:1055B000002BE4D09DF80700012803D103F09FF8E9
:1055C000013CD9D1012DDAD10C4B00225A71D6E71A
:1055D000D7F80C3403F480333EB9002BF4D001200B
:1055E00003F08DF8013CF3D1EEE7D7F80C2402F07C
:1055F00001023270002BDDD1E6E700BFF01700207A
:10560000044B1A7922B9012218609A800248704727
:1056100002487047F01700200000AD0B0C00AD0BE6
:1056200008B5094B1B682BB10020FDF715FA08B926
:10563000FDF7F0F94FF080430022C3F81825034B23
:1056400001221A7008BD00BFF01700202D1A00209B
:1056500010B510B1012843D010BD4FF08043D3F8EE
:105660001814D3F81824C80321D502F00303012B22
:1056700004D013B10020FFF761FF00234FF08042F8
:105680000220C2F8183508224FF4827303F18043D8
:105690000021196002F180421C6801241460154A3F
:1056A00012680AB34FF08043C3F80403D4E7D3F879
:1056B0001424D107E1D5D3F81C249207DAD40D4A7B
:1056C00012681AB10222C3F80423C5E7D3F80421F3
:1056D000002AFBD00022C3F80421D3F80431BBE731
:1056E00000224FF48073D1E71A68002AFCD01960B9
:1056F0001B68B1E7F0170020F8B54FF080431C4E4F
:10570000D3F804430125002704B9F8BDB4FA84F0A6
:10571000C0F11F00830003F580739BB203F1804347
:1057200005FA00F2196892B224EA02040029EBD0CB
:105730001F601B684FF08043012AC3F8082305D07F
:10574000022A08D03368C0B29847DDE77379002B8E
:10575000DAD17271F6E7D3F81814D3F81814890760
:10576000F0D1C3F81855C3F804239D60CCE700BFFF
:10577000F0170020036803F01F025B09026004D0E9
:10578000012B034818BF002070474FF0A04070471E
:1057900000030050034A430900F01F00D35C184483
:1057A000C0B270473496000070B50546FFF7F2FFAF
:1057B0000C4C08300E4634F81030DA0508D5C3F327
:1057C000432304EBC302284654F833305268984709
:1057D000A3682BB1E26831462846BDE870401847FF
:1057E00070BD00BF2400002008B5FFF7D3FF034BB6
:1057F000083033F81000400B08BD00BF2400002023
:1058000008B5FFF7C7FF034B083033F81000C0F3AB
:10581000400008BD2400002008B5FFF7BBFF034B84
:10582000083033F81000C0F3401008BD24000020F9
:10583000034611F0010010B5CCB20DD1A207C4F39C
:10584000400012D5094AD2F820055860C2F8200558
:10585000003818BF012008E04FF0A041D1F8202502
:105860001A60C1F82025002AE8D010BD00030050BE
:1058700010B5FFF78FFF124A083032F81030D90503
:105880001CD5C3F3432123F4F85322F8103002F15E
:105890000E04002034F8023F13F4807F03D0C3F3DA
:1058A000432399420AD001303028F3D1002342F833
:1058B00031300448BDE81040FFF720BE10BD00BFE6
:1058C000240000209C000020F0B50546002004467E
:1058D000012607468C420BD1114BD3F87C2132B103
:1058E0000022C3F87C21D3F87C3140F00040F0BDA9
:1058F000E3B29B0003F580729B0806FA03F31D4296
:105900000BD002F1804202F5C042D2F800C0BCF1D7
:10591000000F02D01760126818430134DAE700BFA5
:1059200000600040F7B506460846FFF733FF194F01
:1059300000F108050C4637F81530DB0727D530464F
:1059400002F039FF2046FFF767FF40B12046FFF71E
:105950004BFF316800F5A270002341F8203020464B
:10596000FFF786FF002301A827F815300194FFF701
:1059700001FF019B00EB8300074BD0F80027134089
:1059800043F00203C0F80037044803B0F0BD0448F8
:10599000FBE700BF24000020F0F8FCFF0000AD0B87
:1059A0000400AD0B2DE9FF41164680460846FFF77F
:1059B000F1FE0D463168044609B32846FFF720FF83
:1059C00018B12846FFF728FF10BB0023CDE90033AC
:1059D0008DF80E308DF80F300DF10F020B46284672
:1059E0000DF10E0102F08FFE474A04F1080132F872
:1059F000113023F0020343F0010322F811307368E1
:105A000063B328461F785968FFF7FAFE10B1D1B189
:105A10003E4826E03C4A04F1080032F8103023F0FA
:105A20002003DB04DB0C22F8103061B1032FEFD828
:105A30007168496891F800C0D8F80010A7B90CF552
:105A4000A27C41F82C70304A04F1080132F8113080
:105A500023F01C0343EA870322F81130B3684BBBE1
:105A60002B4804B0BDE8F08101EB8C0143EA4C33D4
:105A7000D1F810E52EF0030EC1F810E5D8F80010AB
:105A800001EB8C0E43F02003DEF8101522F81030E5
:105A900021F44F3121F44071CEF810152902DEF8BF
:105AA000108501F47C5141EA074141EA0801CEF832
:105AB0001015C8E7D3E900672846FFF7D9FE002E86
:105AC000CED0114DD5E90023964203D19F4201D19A
:105AD000002209E00F480DF10F01FFF7EBFC0C4B22
:105AE0009842BED19DF80F2045F8326005EBC20305
:105AF00008345F6035F8143043EA422343F480737E
:105B000025F81430ACE700BF240000200400AD0BE2
:105B10000000AD0B9C0000202DE9F0430C4685B041
:105B20008046204611461E46FFF734FE054629B33F
:105B30002046FFF765FE18B92046FFF76DFE18BB3B
:105B4000314F05F1080937F8193013F01C0F02D056
:105B50004B78012B18D001238DF80F300023CDE9AD
:105B600000134A1C8B1C20460DF10F0102F0CBFDE7
:105B700037F8193043F0030327F81930002E41D0CD
:105B80002046FFF73DFE18B9204805B0BDE8F08378
:105B900096F800C0D8F800301B4F0CF5A272002117
:105BA00043F8221005F1080237F8121021F0200105
:105BB000C904C90C27F8121075781DB3D8F8000075
:105BC000B67800EB8C002D04D0F8103523F499132F
:105BD00023F4F853C0F81035230203F47C5305F482
:105BE00040353605D0F810E52B4306F4801641EA1F
:105BF0004C31334341F0200143EA0E0327F81210E1
:105C0000C0F810350248C0E7240000200400AD0BA6
:105C10000000AD0B014BC3E90212704724000020C5
:105C200010B508461446FFF7F7FD50B10846FFF7D8
:105C3000B1FD054B083033F8103004485B0B23707E
:105C400010BD0348FCE700BF240000200000AD0B9E
:105C50000400AD0B70B5164D95F8804006462CBB80
:105C60002146602205F1100003F0BEF930682E6F66
:105C700021468E420ED10023C0F87C31D0F87C3111
:105C800040F30730FCF7C6FE01230A4885F8803050
:105C9000AB6770BDCBB29B0003F580727C2B08BF55
:105CA000845001F1010108BF8358E2E70248F0E7A0
:105CB000240000200000AD0B0C00AD0B034B93F84B
:105CC0008000003818BF0120704700BF240000206A
:105CD0000148FFF713BC00BF980000200148FFF700
:105CE000E9BB00BF9800002073B503681646D3F8DF
:105CF0000423002AA8BF4FF000420546A8BFC3F8FE
:105D0000042308460C46FFF787FD00B30846FFF75B
:105D100077FD0146D8B92046FFF766FD04B2A4001E
:105D200004F580720346286881502968825821440E
:105D3000D1F8102542F00102C1F810252EB12968D2
:105D4000012202FA03F3C1F8043302B070BD204609
:105D5000FFF720FD0F4B083033F81030C3F38203F8
:105D6000042B12D0052B12D001A80194FFF702FDDD
:105D7000019AD0F81035D34003F00103991C204656
:105D800002B0BDE8704002F007BD0321F7E7022131
:105D9000F5E700BF240000202DE9F04F694BDFF844
:105DA000A881D3F80403D8F87010C0B289B040F0CD
:105DB0000040FFF789FD051E2FDAC24600235AF87E
:105DC0007C1F06A8CDE90633FFF732FD5F4B019338
:105DD0000DF118094FF0000B019A12F8013B0192E6
:105DE000DA0803F007031AF8022022FA03F3DA07AD
:105DF0001CD409F10409BBF1000F14D0D8F87010BD
:105E00004FF00040FFF760FDD8F87C1006A8FFF7C0
:105E10000FFD0028DAD125F000450124002D79D1AD
:105E200009B0BDE8F08F4FF0010BD5E7484B5B445C
:105E30000293D9F800100029DBD0029B91FAA1F15E
:105E40001C78B1FA81F141EA44142046FFF7A2FC24
:105E50000830059438F81070C808BB0819F80020FD
:105E6000039301F00701012303FA01F122EA010281
:105E700009F8002005A8FFF77DFC059A039B02F5B1
:105E8000E072C7F3820650F822205B073746C2F360
:105E9000014224D520463946D6B2FFF785FC05A835
:105EA0000594FFF767FC059B03F5E07350F823307A
:105EB000C3F301439E4207D10021204602F06CFC4F
:105EC0003146204602F068FC05A80594FFF752FC15
:105ED000059B012202FA03F3C0F82035A9E7022A44
:105EE0000CD10321204602F057FC06F00503012BDC
:105EF000EAD139462046FFF757FCE5E70221204664
:105F0000039202F049FC032EF3D0039A032ADBD15B
:105F1000022EEDE795FAA5F3B3FA83F304FA03F240
:105F20009B0003F1804303F5C04325EA0205D3F843
:105F30001005D3F81015C0F30520C1F30141FFF798
:105F400033FC6BE700600040240000204496000012
:105F50004496000010B5184C237853BB0278C2F366
:105F60004003920712D54FF08053D3F83021082A0E
:105F70000BD1D3F83431052B07D8104AD35C23B1A9
:105F80004FF080430122C3F8382601234FF08042AE
:105F9000C2F88035037803F00103C2F87835002099
:105FA000FCF75AFD08B9FCF735FD012304482370BE
:105FB00010BD0448FCE700BF2E1A002046960000E2
:105FC0000000AD0B0C00AD0B4FF080434FF460723E
:105FD000C3F80823014B00221A607047F81700200D
:105FE00008B5FFF7F1FF03680BB1014A136008BD64
:105FF000F817002010B54FF08043D3F80443620730
:1060000007D54FF4847002F0FEFB10B11E4B1B68E5
:106010009847A30608D54FF48A7002F0F4FB18B134
:106020001A4B00201B689847600608D54FF48C7007
:1060300002F0E9FB18B1154B01201B6898472106B7
:1060400008D54FF48E7002F0DEFB18B1104B002023
:106050001B689847E20508D54FF4907002F0D3FB17
:1060600018B10B4B01201B689847A3050AD54FF4C4
:10607000927002F0C8FB28B1054BBDE810401B68C8
:106080000220184710BD00BF00180020FC17002098
:10609000F817002038B5EFF31185202383F3128819
:1060A000BFF36F8F064B9C6802F0E6FB85F3118807
:1060B000BFF36F8F2046BDE83840FCF751BC00BFEE
:1060C0000418002038B5094B53F82040013053F82C
:1060D0002050A54200D838BD636823B1204602F0A5
:1060E000CEFB0834F5E723689847FAE73C940000B4
:1060F00070B52B4B2B4C2C4D012286B003201A700F
:10610000FFF7E0FFFCF732F902F0D5FB0420FFF7C0
:10611000D9FF2646AE4204F1300410D300F0E4FD6E
:10612000204C224EAC4226D300F0F2FDFBF75AF988
:106130001F4A137B23F00103137306B070BD54F89C
:106140000C3C059354F8103C049354F8143C03930E
:1061500054F8183C029354F81C3C019354F8203C2A
:10616000009354E90A2354E90C0100F0D3FB54F8DE
:10617000303C5E65CDE7D4E90A23B3F1FF3F08BFA9
:10618000B2F1FF3F05D052EA0301206803D100F0CD
:106190009DFE3034C6E73146183001F02DF8F8E79F
:1061A0002F1A00200093000000930000438D000090
:1061B000F003002008B50348034A0021121A02F038
:1061C00076FB08BDB0020020341A002070B5002311
:1061D00086B00122CDE90423134E144D01930F2202
:1061E000CDE902321249142303FB005506EBC01619
:1061F00004464FF4C07000FB04110E4B00954FF4A1
:10620000A072304600F086FB737B0B4AEE6023F0F1
:10621000040373734FF4046304FB033313442C74BB
:106220006B6006B070BD00BF700300200418002032
:10623000C0260020418A0000801E0020BFB500203B
:10624000FFF740FF2C4B83F308882C4D2C4E6B69D5
:106250002C4F43F400736B610024E02385F8223057
:10626000EC772C766C76AC7685F820406B6A43F43C
:10627000E0236B6285F82340FCF7EEFAFCF77EFC26
:106280004FF0FF33AB62EB62FCF73EFDFCF79AFC8C
:106290001D4BB36040F201129A81C3E919441C6797
:1062A00002F0D6FA0120FFF70DFF0220174DFFF78D
:1062B00009FF00F061FD164B756105930123154937
:1062C0000094CDE903434FF400623B46CDE901441D
:1062D000284600F01FFB6A7B064622F0040228468F
:1062E0006A7302F0F1FC2046FFF770FF3A46314630
:1062F0002846FCF725FC00BFC026002000ED00E08A
:1063000004180020F160000010050020F0030020B8
:106310004C9600004028002038B5064C064DAC4293
:1063200001D3002038BDD4E90112204602F0C4FA9E
:106330001434F4E7340100203401002038B5064C51
:10634000064D0020AC4200D338BD204602F019FBB8
:106350000028F9DB1C34F5E7180100203401002087
:1063600073B50C46EFF31181202585F31288BFF336
:106370006F8FC5685DB125602B68C3608369013389
:106380008361002081F31188BFF36F8F11E052EA1F
:10639000030603D125606FF00B00F3E7CDE900237E
:1063A0000246083000F000FC18B9034B9B685B699B
:1063B000236002B070BD00BF041800202DE9F34136
:1063C000044617461E46EFF31188202383F31288F4
:1063D000BFF36F8FC368334A7BB18068916888428E
:1063E00019D057EA060318D188F31188BFF36F8FCD
:1063F0006FF00F0002B0BDE8F081916891F90E10C6
:1064000021610133E3609368A36088F31188BFF3CF
:106410006F8F0020EEE72169F2E791F90E1090F9F5
:106420000E309942A8BF19466FF07E029142B8BF64
:1064300011468B422DDD02F00EFB0546CDE90076BC
:1064400019482246414600F0AFFB0028E1D0EFF3A7
:106450001186202383F31288BFF36F8FA068D0B119
:10646000236821699C420AD04BB193F90E309942BE
:10647000A8BF19466FF07E039942B8BF194602F0D3
:10648000EAFA40B10848314600F008FC6FF00A0013
:10649000B0E70025D2E7002DF4D186F31188BFF3D1
:1064A0006F8FF3E704180020301A0020F8B58368D6
:1064B0000546002B3FD0234A926893423ED1C368E1
:1064C000012B03D9013BC3600020F8BDEFF3118716
:1064D000202383F31288BFF36F8F0169806802F075
:1064E000BAFA2C68A54207D10023C5E9023387F325
:1064F0001188BFF36F8FE7E7002CF5D0D4E90032A5
:1065000013605A60637B002623F002036373C4E9BF
:106510000066A66004F1180002F087FCAC6094F9F4
:106520000E302B612046E66702F0CEFB0648394666
:1065300000F0B4FBC8E76FF01500C6E74FF0FF307E
:10654000C3E700BF04180020301A002037B51146F9
:10655000EFF31185202282F31288BFF36F8F046856
:106560009CB12368426823F003039442036008BF90
:1065700043600121204602F0F5FA044685F31188B4
:10658000BFF36F8F204603B030BD51EA0302F5D050
:1065900000F10802CDE900131046294600F004FB83
:1065A0000028EFD1014B9B685C69EBE704180020E1
:1065B00070B5EFF31186202383F31288BFF36F8F3A
:1065C0000468A0421AD0CCB1D4E9003213605A60FA
:1065D000637B002523F00203C4E900556373A560C3
:1065E00004F1180002F021FCE567204602F06CFB84
:1065F00031460848BDE8704000F050BBD0E9023297
:106600009A4218BF013383600221103002F0BDFCB2
:10661000EEE700BF301A002013B5EFF311812024FC
:1066200084F31288BFF36F8F846844B1013C8460A7
:1066300081F31188BFF36F8F002002B010BD52EAC2
:10664000030406D181F31188BFF36F8F6FF00F0041
:10665000F3E7CDE900230246014800F0A5FAECE794
:10666000301A00201FB5094A92E8030002AB83E804
:1066700003004FF480620093054906484FF0FF3352
:1066800000F00AF9002005B05DF804FB409300001B
:1066900080300020700400202DE9FF414F4E044659
:1066A0002027EFF3118887F31288BFF36F8FD4F898
:1066B0008050F5B9022104F1980002F084FA002814
:1066C00068D004F1900500220121284602F072FBF7
:1066D0000028F8D1002302934FF0FF324FF0FF3330
:1066E000CDE90023414604F188023D4800F0A2FCB8
:1066F000D7E7D4F884202B68C4F88030954208BFCF
:10670000C4F88430D4F8983043F00203C4F89830C9
:10671000EB6823F0040343F00103EB606B6888F33C
:106720001188BFF36F8F28469847EFF3118887F3DE
:106730001288BFF36F8FEB68D80623F0010236D4BE
:10674000EA60EB689A0716D5306823F00203EB6025
:1067500088B10368002170B14268954235D1036861
:1067600069BB72683360824200D17360002340F8D5
:10677000083BFFF71DFFD4F8983023F00203C4F85C
:10678000983088F31188BFF36F8FDB0589D400F050
:10679000FBFA86E7D4F89830D9069BD5C4F8980060
:1067A00088F31188BFF36F8F04B0BDE8F08123F048
:1067B0001103EB6005F11000FFF7FAFEC1E70B6073
:1067C0007368834208BF7160D0E723B11A6801463D
:1067D00018461346BFE71A46F9E700BF2418002001
:1067E000301A0020F8B5C3689A0704460F46C3F371
:1067F00040062CD45B071AD40B680BB983680B6076
:10680000E368DD0744BFA3683B603D684CBF0226D8
:106810000126002D3AD01F4B9B68AB420AD0D5F819
:106820009830D807C3F3800214D46FF01206002307
:106830003B6025E002F005FAD5F898300028F0D149
:10684000D907C3F3C002F0D552B15B0708D46FF08B
:106850000F06ECE7002AFAD1C3F3C003002BF6D1F0
:1068600000232360D5F8843063B9C5E92044284665
:1068700002F0B4F9E36843F00403E3603B68A3600B
:106880003046F8BD1C60C5F88440F0E76FF015068F
:10689000CDE700BF04180020F0B589B00446002001
:1068A000C4E920000E9D04F18800C4E9220004F12F
:1068B0009000C4E924004DB32879002840F201106B
:1068C00008BF0120C4F8980000204FF0FF364FF0B9
:1068D000FF37CDE90330CDE90100CDE906670C4B68
:1068E0000094204600F062F855B1296811B12046A5
:1068F00002F0ADF96B791BB1237B43F001032373E5
:10690000204609B0BDE8F04000F0E0BA0120D9E728
:10691000996600002DE9F043073285B022F00702A6
:106920000E461F461099017300F158037F32C0E9EB
:1069300016330446002322F03F0204218360417392
:106940003F2A0F98A073C4E90633E37306F14009A8
:10695000A2F1400805D883F31188BFF36F8F084672
:1069600002DFB51829462046FBF7FEFD07300E9BD7
:1069700020F00700E066C4E9199802930D9B01938B
:106980002D1A0C9B00932A463B4631462046FCF7C5
:10699000A5F800236365044B9B6803B11B6F236755
:1069A000284605B0BDE8F08304180020F0B587B094
:1069B00000250595109D04950F9D03950E9D02954C
:1069C000DDE912760D9D01950C9D00950446FFF7BB
:1069D000A1FFB6F1FF3F08BFB7F1FF3F05D056EA70
:1069E000070305D1204600F071FA204607B0F0BD3C
:1069F00003493A46334604F1180000F0FDFBF4E782
:106A0000438D0000094A93686FF00A01D96708496D
:106A100098674B6843F080534B60002383F31188E1
:106A2000BFF36F8F9368D86F704700BF04180020C2
:106A300000ED00E070B590F90D20437B002A39DBB2
:106A4000D90637D18269002A34D11D4C63F07F0307
:106A50002246437352F8183F93422CD1E169C0E9B2
:106A600000210860E06111E09942F8D01B68002B1A
:106A7000F5D090F90E5093F90E60B542F4D0AE42C5
:106A8000F2DD5968C0E9003108605860A569954297
:106A900000D005B9E568A3685A7BD20604D1DA892B
:106AA0007F2A01D9AA6942B1AB4202D0284600F040
:106AB00001FB656170BDE169D9E76361FAE700BF79
:106AC0000418002038B590F90D20437B002A0146B8
:106AD00004DA03F07F03437302F0BCF80D4D2A463D
