:020000040000FA
:2000000000500020851200007D12000065120000811200008112000081120000000000001A
:20002000000000000000000000000000811200008112000000000000811200008112000074
:200040006D80000081120000E5580100811200008D750000817B000081120000811200002B
:200060008112000051590100811200008112000081120000811200008112000081120000D0
:200080008112000081120000811200008112000081120000811200008112000081120000C8
:2000A0008112000081120000811200008112000081120000811200008112000081120000A8
:2000C000811200003D930000294B1B689B0702D44FF000407047F0B5002083B0452106F0C4
:2000E00083FD0DF106010120022214F0CFFC38B901A8022114F0F4FC4FF0004003B0F0BDD7
:200100000DF106010020022214F0C0FC0028EFD0BDF806305BBA9CB2200BADF8043017F096
:2001200053FC16F0F5FF0646C4F30B000F4617F05BFC0DA3D3E9002304460D463046394694
:2001400017F0B8FC02460B462046294617F0B2FC17F092FF074917F0DFFF18F02DF903B013
:20016000F0BD00BFAFF300807B14AE47E17A843F981800200000C84208B5214B1B68032B9B
:200180001ED1431E012B1BD81E4B1B78C3B11E4A1E4B012812881B8815D0184617F014FCEF
:2001A00000221B4B17F086FC00221A4B17F082FC17F062FF184917F0AFFF18F0FDF808BDE2
:2001C0004FF0004008BD104617F0FEFB0022104B17F070FC08A3D3E9002317F06BFC00227B
:2001E0000E4B17F0B3FA17F047FF0B4917F094FF18F0E2F808BD00BF0000000000A064400D
:20020000BC1800209F3B00207C3B00207E3B00200000F03E000059400000C84200004440EB
:200220002DE9F04FDFF85C914FF0000AC8464E4655464D4B81B01F78AC0008EB040B9BF87E
:200240000330B7EB131F2DD018F8250017F0CCFB3FA3D3E9002317F02DFC0022434B17F0EF
:2002600077FA0022424B17F073FA17F0E5FE08F82500707817F0B8FB35A3D3E9002317F07B
:2002800019FC00223B4B17F063FA394B002217F05FFA17F0D1FE70709BF8033067F3071347
:2002A0008BF803309BF80330013503F00F03BB421BD0B07817F098FB27A3D3E9002317F02D
:2002C000F9FB27A3D3E9002317F042FA284B002217F03EFA17F0B0FEB0709BF803304FF090
:2002E000010A67F303038BF80330072D06F10406A2D1BAF1000F13D10137FFB21F2F0CD97B
:20030000194A002313701C481C4A4FF41631002301B0BDE8F04F0DF033B9134B1F70F2E719
:200320000023174988F81C3099F8022009F10409934238BF13468945F6D1124888F81C30D4
:200340000BF0B4FD084B1F78D6E700BFAFF30080CDCCCCCCCCCCEC3F5C8FC2F5285CEF3F21
:2003600052B81E85EB510040B13B0020000032400000E03F00003440982300202102000045
:20038000A43E0020883E00202DE9F0472C4B00291B680CBFCC250025834201D0BDE8F08772
:2003A00028480023C15CDCB28A4203F1010337D0072BF7D1244B00271C462449E2780978FA
:2003C000A67861F30302E2701B7F30469E1B17F00BFB17A3D3E9002317F06CFB8046284643
:2003E000894617F001FB14A3D3E9002317F062FB02460B464046494617F0AAF90022144B58
:2004000017F0A6F917F018FEB6FA86F6A0707609334639462A46BDE8F0470B480BF044BDCB
:20042000094B274603EB8404C7E700BFAFF300809A9999999999E93F9A9999999999C93F98
:20044000F03B00205C3F0020883E0020B13B00200000E03F000000002DE9F041384C24682E
:20046000844201D0BDE8F081364E0024355DE0B2AB4204F1010457D0072CF7D1DFF8D080D3
:200480001546314A98F80330127898F8000062F3071388F803300C4617F0A6FA24A3D3E90B
:2004A000002317F007FB0F46C4EBC4110646480000F0FE0017F098FA1FA3D3E9002317F074
:2004C000F9FA02460B463046394617F041F900221E4B17F03DF917F0AFFD88F8000098F8CF
:2004E000010017F081FA12A3D3E9002317F0E2FA0646680000F0FE000F4617F075FA0EA3E4
:20050000D3E9002317F0D6FA02460B463046394617F01EF900220D4B17F01AF917F08CFD55
:2005200088F80100BDE8F081094B03EB8008A7E79A9999999999E93F9A9999999999C93F6E
:20054000F03B00205C3F0020B13B00200000E03F883E0020000000002DE9F043544983B06B
:200560000B780446002B69D0524B08209B6A01A9984700285AD10B3C4F4DE4B205EB04092E
:2005800099F8140017F030FA41A3D3E9002317F091FADDF804800646C8EBC810400000F0D0
:2005A000FE000F4617F020FA3BA3D3E9002317F081FA02460B463046394617F0C9F8002210
:2005C0003E4B17F0C5F817F037FD18F1550F89F8140015DA083405EB8404606817F016FA0F
:2005E0002FA3D3E9002317F065FA2FA3D3E9002317F0AEF817F040FD606003B0BDE8F083B7
:2006000004F1080305EB8304606817F0FFF924A3D3E9002317F04EFA0022002317F098F8CB
:2006200017F02AFD606003B0BDE8F08302462146234808F0E9FE03B0BDE8F083214A0126AB
:200640000E704FF07E5502F10D0302F14D00B42102F8011F43F8045F8342F9D11A4A6621C0
:20066000117713460D4602F11C00B421C82219705A709D7004338342F9D114484FF47051F2
:20068000134A00230CF07CFF6EE700BFAFF300809A9999999999E93F9A9999999999C93FCF
:2006A0008FC2F5285C8FEE3F0AD7A3703D0AA73FB23B00205CB60100A83E00200000E03F4E
:2006C00060B80100BB3E0020883E00209823002021020000000000002DE9F04F144623F042
:2006E0000047024657EA04000E468FB01D469C46214634D06E4B26F0004A9A459346B1461B
:2007000026DC24D09F4223DC694B9F4200F08F80B9F1000FC0F28F804FF0000879BB644BCB
:200720009F4200F0A580634B9F4267D0BCF1804F00F0E283604B9C4521D1B9F1000F1EDBFC
:20074000104631460FB0BDE8F04F16F061BE62B10AF1404000F5801050EA0B0007D103468B
:20076000544918460FB0BDE8F08F5745CCDD53480FB0BDE8F04F16F049BF4FF0000810466D
:200780003146CDF808C0009216F008FF009ADDF808C0BBF1000F20D04FEAD97909F1FF3917
:2007A00058EA09037AD0464B9F4240F38F8003F104739F4240F31084424B9A4540F3928326
:2007C000BCF1000F40F3928337A1D1E900010B46024617F06FF90346C3E7BAF1000F04D0F9
:2007E000344B29F0404E9E45D6D1BCF1000FC0F2B683B9F1000F08DB0346B2E7BCF1000F68
:20080000C0F2528413463146ABE70AF1404A0AF5801A58EA0A0340F05E8402460B4616F0D0
:2008200095FF0B46024617F06FFA034699E700293FF46EAF8CE7244B9F422CDCA3F15473B3
:200840009F427FF769AF40F213403B15834240F34B84C3F58663033321FA03F000FA03F3B8
:200860008B427FF459AF00F00100C0F1020855E70AF1404303F5801353EA0B0300F0398348
:20088000104B9A4540F36483BCF1000FC0F22E832346294665E74FF002083FE71046314685
:2008A0003346BCE7AFF300809C7500883CE4377E0000F07F0000F03F0000E03FA4BC01006E
:2008C0000000E041FFFFEF3FFFFF3F43BAF5801F4FF0000205DACA4B17F0ECF88A466FF0AE
:2008E00034024FEA2A53C74ECAF3130AA3F2FF334AF07F571344B2450C9347F4401740F394
:20090000D083C14B9A4540F307840026B4460C9BA7F5801701330C933946BC4B4FEACC0C77
:200920006344D3E900AB52465B46CDF834C0CDE9060116F00BFF52465B46CDE90801DDE92C
:20094000060116F005FF02460B460020B04917F0DBF902460B46DDE90801CDE90A2317F0A7
:20096000A9F802460B46CDE90223CDE904237B1043F0005303F50023991900200023064618
:200980000F460293DDE902231046194632463B46CDE9000117F08EF802460B46DDE9080128
:2009A00016F0D4FE5246CDE908015B463046394616F0CCFE02460B46DDE9060116F0C6FE72
:2009C00002460B46DDE9000117F074F802460B46DDE9080116F0BAFEDDE90A2317F06AF8C2
:2009E000DDE90423CDE906011046194617F062F802460B4606460F4617F05CF86EA3D3E9D5
:200A0000002382468B463046394617F053F86CA3D3E9002316F09CFE32463B4617F04AF803
:200A200069A3D3E9002316F093FE32463B4617F041F867A3D3E9002316F08AFE32463B468B
:200A400017F038F864A3D3E9002316F081FE32463B4617F02FF862A3D3E9002316F078FE6D
:200A600002460B465046594617F024F8DDE9042306460F46DDE9000116F06AFEDDE90623D3
:200A800017F018F832463B4616F062FEDDE9006782468B4632463B463046394617F00AF823
:200AA00000225C4BCDE9080116F052FE52465B4616F04EFE02980F460646DDE90001324653
:200AC0003B4616F0F7FF32463B46CDE90001DDE9060116F0EFFF0022CDE906014D4B30463B
:200AE000394616F033FEDDE9082316F02FFE02460B465046594616F029FEDDE9042316F02E
:200B0000D9FF02460B46DDE9060116F021FE82468B46DDE9000152465B4616F019FE32A3E7
:200B2000D3E9002302980F46064616F0C3FF30A3D3E90023CDE904013046394616F0BAFFB2
:200B4000DDE90023CDE906013046394616F0FEFD02460B465046594616F0F8FD26A3D3E9AB
:200B6000002316F0A7FF02460B46DDE9060116F0EFFDDDF834C0284BCDF818C06344D3E912
:200B8000002316F0E5FDCDE900010C9816F02CFF06460F46DDE90401204BDDF818C09C445A
:200BA000DDE90023DCE900AB16F0D2FD52465B4636E000BFAFF30080EF4E454A287ECA3F5C
:200BC00065DBC9934A86CD3F01411DA96074D13F4D268F515555D53FFFAB6FDBB66DDB3F6F
:200BE000033333333333E33F000000E009C7EE3FF5015B14E02F3EBEFD033ADC09C7EE3F71
:200C0000000040438E98030079B60B00C09001000000F03F00000840B0900100A0900100B4
:200C2000CDE906AB16F094FD32463B4616F090FD029832463B4682468B4616F087FDDDE9AE
:200C4000062316F083FDDDE9042316F07FFD02460B46DDE9000116F079FDCDE9020108F1E8
:200C6000FF3858EA09030CBFD54BD64B0022CDE904230023CDE900450093DDE900672046A0
:200C800032463B46294616F061FD52465B4616F011FFDDE90223804689462046294616F0DE
:200CA00009FF02460B464046494616F051FD04460D465246304639465B46CDE9024516F05C
:200CC000F9FE06460F4620463B462946324616F03FFDBD4B824699428946884640F313815D
:200CE00001F13F4303F5E003034340F0E581A0A3D3E90023DDE9020116F02AFD32460446EF
:200D00000D463B465046494616F020FD02460B462046294617F05EF9002840F0CD814C46B3
:200D20002015A0F2FE304FF4801101414144C1F30A50A64CA0F2FF35C1F3130BC0F58260F4
:200D400003302C414BF4801B21EA040300224BFA00FB3946304616F0F9FC06460F46DDE94E
:200D600002018BEAE87B0BEBD87B32463B464FEA0B5A16F0EDFC80A3D3E90023002420463D
:200D80000D4616F097FE3246804689463B462046294616F0DBFC02460B46DDE9020116F0BD
:200DA000D5FC77A3D3E9002316F084FE76A3D3E9002306460F462046294616F07BFE0246AC
:200DC0000B463046394616F0C3FC06460F4632463B464046494616F0BBFC42464B46044639
:200DE0000D4616F0B3FC02460B463046394616F0ADFC2246804689462B462046294616F065
:200E000059FE63A3D3E9002306460F4616F052FE61A3D3E9002316F099FC32463B4616F022
:200E200049FE5FA3D3E9002316F092FC32463B4616F040FE5CA3D3E9002316F087FC3246DA
:200E40003B4616F037FE5AA3D3E9002316F080FC32463B4616F02EFE02460B4620462946DF
:200E600016F074FC06460F4632463B462046294616F020FE0022CDE900014FF08043304618
:200E8000394616F063FC02460B46DDE9000116F03BFF424606460F464B462046294616F039
:200EA00009FE42464B4616F053FC02460B463046394616F04BFC22462B4616F047FC024678
:200EC0000B4600203F4916F041FC8A44BAF5801F0246C0F227815346DDE9040116F0EAFDC7
:200EE00003463EE4BCF1000FFFF66EAC0023194637E40B46334934E433461046314616F0EE
:200F0000D9FD03462DE4324B21F000449C4240F3FA80304B0B4403430CD132463B4616F058
:200F200015FC02460B46DDE9020117F03FF800283FF4F6AE20A3D3E90023DDE9040116F08E
:200F4000B9FD1DA3D3E9002316F0B4FD034608E4BCF1000FCADA234605F1004101E4024623
:200F60000B460020174916F0CFFE42E4AFF30080FE822B654715973C00000000432EE63FB0
:200F8000EF39FAFE422EE63F396CA80C615C20BED0A4BE726937663EF16BD2C541BDBB3ED6
:200FA0002CDE25AF6A56113F93BDBE166CC1663F3E5555555555C53F59F3F8C21F6EA50129
:200FC0000000F0BF0000F03FFFFF8F40FFFF0F00FFCB904000346F3F634B9A4582DD634B43
:200FE0009A453FF7EDAB0022604B16F0AFFB54A3D3E9002306460F4616F05CFD52A3D3E940
:201000000023CDE900013046394616F053FD3246CDE902013B463046394616F04BFD002294
:2010200082468B4630463946514B16F043FD02460B4647A1D1E9000116F088FB32463B4682
:2010400016F038FD02460B4600204A4916F07EFB02460B465046594616F02CFD3EA3D3E9F0
:20106000002316F027FD02460B46DDE9020116F06DFB06460F46DDE9000132463B4616F0EC
:2010800067FBDDE90023002082468B4616F05EFB02460B463046394616F058FBCDE902014D
:2010A000DDE50026B44637E4334600202F4916F02BFE0346FFF755BB29A3D3E90023DDE933
:2010C000040116F0F7FC26A3D3E9002316F0F2FC0346FFF746BBB8F1010F03467FF441ABD5
:2010E00001F10041FFF73DBB00297FF446ABC3F58263033347FA03F000FA03F3BB4217D067
:201100008846FFF710BB1B4B9C423FF709AEDDE90023924693462EE64FF480264FF0010C2C
:20112000FFF7FABB5A4600F027F802460B46D3E600F00100C0F10208FFF7F5BAAFF3008090
:20114000000000604715F73F44DF5DF80BAE543E555555555555D53FFE822B654715F73F26
:201160009C7500883CE4377EFEFFEF3F0000F03F0000D03F0000E03FF8B5C1F30A5604466E
:201180000D460B46174616BB21F00043034332D00022314B16F08EFC304A044697420D46C3
:2011A0000B4637DB40F2FE72C1F30A56363E3E44964215DD24A1D1E9000122462B4616F0F7
:2011C000B9FA21A3D3E9002316F074FCF8BD40F2FF72964224D040F2FE723E449642E9DC5E
:2011E000002E09DD23F0FF4323F4E00343EA065520462946F8BDF8BD16F1350F15DA4CF24D
:2012000050339F42D6DC12A1D1E9000122462B4616F090FA0EA3D3E9002316F04BFCF8BD4F
:2012200002460B4616F094FAF8BD23F0FF4323F4E003363643EA0655204629460022084B3F
:2012400016F038FCF8BD00BF9C7500883CE4377E59F3F8C21F6EA50100005043B03CFFFFBC
:201260000000903C044B1A68B2F5806F03D01B689B0500D4FEE7704728ED00E0FEE700BF3C
:20128000FEE700BF08B511F07FFB104A104B9A420DD2D0430F4918440B4620F003000430A3
:2012A000084453F8041B834242F8041BF9D10A480A494FF000028842B8BF40F8042BFADB2D
:2012C00004F016FAFFF7CEFF08BD00BF000000206411002095CD01006811002004480020A6
:2012E00038B50488054684B14F2C0AD11B480CF081F820B31A4B1B681BBB18480CF066F87C
:2013000017E000230380032038BD4FF4F05004F07BF9144806F0FCF920460BF0B5FB124B78
:201320001B69984700F072F90C484FF4F0510CF043F800F0BDF94F232B80012038BD0120E6
:2013400038BD06F03FF8094B1B68C01A3B28D4D94FF4A0600BF098FBCFE700BF981100209B
:201360006C3F0020E8900100F0BE0100103F002010B506F027F8054B05491860054A06487E
:201380000023BDE810400CF0FBB800BFD0120020004C0E00E9150000BC1100202DE9F04139
:2013A00007460E4615461C46DDF81880FFF7E0FFCDF81880384631462A462346BDE8F0418C
:2013C00003F0A0BF10B50B4C0B4A23780021042B11700A4805D9BDE810404FF4C8510BF062
:2013E000EBBF4FF420710BF0E7FF23780133237010BD00BF903B0020923B00201C1200207A
:20140000F0B5044640F23310238883B083420D4660D040F23F118B4216460ED023B10023C2
:201420002380032003B0F0BD4B4A1370FFF7A0FF4A484FF420710BF0BFFF01200CF0ACFEF3
:2014400000286BD005F17F03DBB2012B5BD9882D05D040F23F130120238003B0F0BD3F480B
:201460000BF0C8FF0028F4D0FFF782FF3C4B1B78002B69D13B4B1B78002BEAD13A4B1B68C1
:20148000002B38D0394806F043F900210B460222374802F0A3FB374F37493548374E03F0C6
:2014A0002DF83221324802F0CDFF0FCF0FC697E8070003C631462E4801F81829182203F026
:2014C000D9F840F233132E48254A00260121068011702380264A2B4B29468DE80C002848A6
:2014E000294A43F2163303F0BBFA012809D91D4B1B78002BADD119484FF420710BF05CFF19
:20150000A7E700208EE7FFF733FF164B1B78002BB4D0822D9DD1012E9BD1AFE70F480BF03D
:2015200069FF002895D0104B184A1968184B1948002914BF1146194607F066FF07484FF414
:2015400020710BF039FF84E704480BF053FF002890D0FFF737FF8DE7903B00201C12002062
:20156000923B0020913B0020482400205C9101002C1200208491010074910100DC11002091
:20158000A8110020991500000C9101001C910100209101002891010010B504460D482189FE
:2015A000627907F031FF63790B4A0021022B117003D0BDE81040FFF705BF084B22891B8905
:2015C0009A42F6D1064806F0A3F8064B01221A7010BD00BFA0910100923B00202C12002082
:2015E000C4910100913B002008B5064B1B88012B06D0054806F08CF8BDE8084005F044BC4D
:2016000008BD00BF7A3B0020D891010008B50A480CF01AFC03F0F0FE084B09489B6898477F
:2016200001F004FF01F02CF801F068F9BDE80840044800210CF052B9D412002004B1010032
:201640009D1300003C04002010B50446044821460CF000FC20696169BDE8104003F0ECBEDB
:20166000D4120020F0B5104B83B002A9002241F8042DDB68984706460C480CF0E9FB04460E
:2016800078B1019F656939462846324617F0F0FB20B9284617F0BEFBB04202D02468002CD9
:2016A000F0D1204603B0F0BD04B10100D412002008B501F001F8084B1B7813B9074806F049
:2016C00027F805F07FFE064B1968BDE80840411A044807F099BE00BF913B0020EC9101009C
:2016E000D0120020109201002DE9F0410388044683B140F24650834207D1882914D040F2C9
:20170000465323800120BDE8F081002323800320BDE8F081124880210BF04EFE40F246534A
:2017200023800120BDE8F0810D4B9A42E7D10D4F0D4DDFF8388003E057F8045F002DE9D023
:20174000AE6930460BF002FD0028F5D02869D8F85C3098473046B1680BF0F0FCECE700BF41
:201760002013002060A701006407002004B101002DE9F04782B00A9E4FF0FF344FF0000AEB
:201780008846174699468DE810040146BDF830501EB3336813B39D424DDC344C6946236A44
:2017A000984700994B1C59D0D4F8E430994250D0D4F890106369404698472D4B1D6828463E
:2017C00017F028FBE36C02462946404698474FF0FF33336002B0BDE8F08701AE234C084636
:2017E000236A6946984700994A1C2AD0D4F8E4309942DDD1E369404698474D4510D82A46D1
:2018000038460B9917F078F94FF0FF337A193360E36C4046D21B3946984702B0BDE8F087A9
:201820004A4638460B9917F067F9336807EB09024B443360ECE70B9AED1A1A44ADB20B92FC
:20184000CCE7D4F8E410E369404698474D45D6D9E6E7E369404655469847D0E7E369404681
:20186000D4F8E41055469847C9E700BF04B101003804002070B584B0089E054D4FF4807425
:20188000009601950294FFF773FF04B070BD00BFC83F002070B584B0089E054D4FF48074CF
:2018A000009601950294FFF763FF04B070BD00BFC84000202DE9F04F89B00DF1200800236F
:2018C000DFF8AC9048F8143D0191D9F80C30414682469847224D0646039F224C03E055F89C
:2018E000043F73B11C46D4F814B0584617F092FAB042F4D159463846324617F0CBF8002820
:20190000EDD10025504642460395D9F858301649A469984708B10F2808DD0198D9F8143007
:20192000D9F87810984709B0BDE8F08F0246039904A8049505950695079517F0DDF804A810
:2019400017F054F8094BA0F11E029A420146E4D8A06020460BF0F2FB09B0BDE8F08F00BF66
:2019600060A7010064070020749201006251010004B101002DE9F04F002489B098468B4602
:2019800091468246059406940794129F05F01AFD08AC44F80C0D07A90DF11B0206A805F0A6
:2019A000DFF98DF81A000CF035F8094B0C261D78ADF81E0000970194594650464A4643462F
:2019C00002968DF81950FFF7D3FE09B0BDE8F08F004800202DE9F04F9DB082468946904666
:2019E0001F460CF04FFE8346002833D004AD2E460AE0034653F8080F1036596803C458461F
:201A00000CF046FE8346B0B133460BF1080151F8080F06F10804496803C358460CF024FE48
:201A20000028E6D1B060606058460CF031FE103683460028E8D1721B92B2269B02928DE8A3
:201A400028005046494642463B46FFF791FE1DB0BDE8F08F024604ADEFE700BF2DE9F04FD7
:201A60001D46273385B023F0070300AFADEB030D0023FB60BB6B4FF0FF348A463A60EB464F
:201A8000BC60002B00F0A680584E07F10801336A9847B9684A1C1AD0D6F8E430994218D0B0
:201AA000D6F89010736950469847514B1C68204617F0B0F9F36C0246214650469847BA6B89
:201AC0004FF0FF3314371360BD46BDE8F08FD6F8E410F36950469847BB6B1B681A46002BE9
:201AE000B8BF03F10F02C2F30714A3EB041808F0FF082B4405EB0802C2F307121B077A60BE
:201B000003D013460133DBB27B60002011F072FF814640B1A4B1484611F06CFF621ED4B25E
:201B200081460028F6D1BC6B4FF0FF3239682260F36C5046002298471437BD46BDE8F08FCD
:201B40007B68D844002B4CD05C1EE4B201340BEB041400E088B3484611F046FF4B464268C2
:201B60000168CBF80420CBF80010B9F800204846ABF8082053F8122F0BF1100B4BF8062C00
:201B80009B882BF8023C11F035FF5C458146E1D14544A54228BF2546A5421FD0BB6BC8EB01
:201BA00005021B68B96B13440B60F36C5046414698471437BD46BDE8F08F45445D4528BFD6
:201BC0005D46AB45EAD1B96B4FF0FF33C8EB05020B60EAE707F10C03BB6355E70028F2D0E1
:201BE000DCE745445D4528BF5D46D7E704B10100380400202DE9F04F99B00DF1240905903F
:201C000006928B46484600213C22079317F04EF8444B1D68002D6DD028460AF039F94B46BE
:201C2000044655F8040F04F11C0869684FF0000A0BAD03C32EE000223B4B3046394615F099
:201C400087FD16F0D1F9C0B22870607815F0CCFE0022354B15F02EFF334B002215F078FD91
:201C600016F0EAF96870A378EE1C012BA3F1020029D915F0B9FE00222B4B15F01BFF002225
:201C8000294B15F065FD16F0D7F904344445A87035461FD0207815F0A7FE0022234B15F079
:201CA00009FF0022002306460F4616F075F90028C1D000221C4B3046394615F047FD16F03C
:201CC00093F9C0B2C0E70434444585F802A005F10305DFD1229BC9EB0505ADB28DE8080278
:201CE000029505985946069A079BFFF741FD19B0BDE8F08F0E4C5846D4F89010636998479F
:201D00000C4B1D68284617F085F8E36C0246294658469847229A4FF0FF33136019B0BDE864
:201D2000F08F00BFF03B00200000E03F0000E0BF04B10100380400202DE9F04F9BB00DF1AC
:201D400024090492834644228A4648460021059316F0ACFF00F0F4FD07900798344DCDF86C
:201D600025000FCD2C46334FCDF829003E68CDF82D1054F8030BCDF83120B988BA79CDF82F
:201D80003530072305F11308CDF83900CDF83D60ADF841108DF843208DF824300DF1430546
:201DA0000CE00022244B3046394615F0D1FC16F01BF94445C0B205F8010F1CD014F8010FB5
:201DC00015F012FE00221D4B15F074FE0022002306460F4616F0E0F80028E2D00022164BCC
:201DE0003046394615F0B2FC16F0FEF84445C0B205F8010FE2D1124B1B6843B1114916AA96
:201E00000968159153F8040F0891596803C218AC249BC9EB0404A4B28DE8080258465146E5
:201E2000049A059B0294FFF7A3FC1BB0BDE8F08FA83E00205C3F00200000E03F0000E0BFCB
:201E4000F03B00200C3F00202DE9F04F97B0229E002735684FF0FF3E814668680991049269
:201E60001D460B970D97CDF830E016F0D3FF209C0390002C00F002828A4F0DAA7B6D484617
:201E800089499847012800F0FB813B6A0DF1300B59464846059398470C9B824A591C19D0A9
:201EA000D2F80421934215D0099ED7F890107B69304698477D4B1D68284616F0ABFFFB6C58
:201EC00002462946304698474FF0FF33236017B0BDE8F08F01230793FB680DA948469847D3
:201EE000039B804683421ED00D9EDFF8C8A1334656469A466E4D30465146424616F0B8FFDE
:201F000028B9304616F086FF404500F0628155F8106F002EEFD109987B69D7F88810984702
:201F200017B0BDE8F08F4FF000096B1CDFF880A160480893CB465FE05B4622684FF0020CE4
:201F4000934208D3A94512D204993C2201F80920226809F101090133934208D3A94506D2AA
:201F6000049A2F2302F80930226809F10109DAF800B0CDF818C05846059216F04BFFDDF837
:201F800018C0059A00EB0C08904553D807D3A94505D2049A3E2302F8093009F10109DAF824
:201FA000043008F1010BD3B1226893450AD3A94508D2049A3B2302F80930DAF8043022689E
:201FC00009F1010918460692059316F023FF08F10208069A00EB080B9345059B41D8A94527
:201FE00005D92368C9EB0B029A4200F219815AF8100F002800F014813368039A596816F032
:2020000037FF0028F3D1079B012B57D0BBF1000F92D022685A4508D84D4506D9049A2C2325
:2020200002F80930226809F101090BF101030BF1030C85E7CCEB0203049A002BACBF5B44D9
:202040000BF1000302EB0900089AC9EB02011A4A07F000FA8144A94515D22368984598D271
:202060009DE7C8EB0208049AB8F1000FA8BF434402EB0900089AC9EB02010F4A07F0EAF959
:202080008144A945B3D9B9F1000F40F07081DAF80030002B00F0BE8023681D44256017B094
:2020A000BDE8F08F04B101005C9A01003804002080A40100809201009C9201000E900F904F
:2020C0001090119012901390149015902368BBF1000F71D1194653B94D4540F22181049A3A
:2020E0007B2302F80930236809F101091946012B9B4640F21881219B06911B68184605937D
:2021000016F088FE069900F1020C8C458046059B00F2E78009D3A94521D2049A222302F86B
:202120000930D4F800B009F1010908F103035B4509D3A94513D2049A3A2302F80930D4F89E
:2021400000B009F1010908F104035B4507D3A94505D2049A7B2302F8093009F1010908F120
:202160000508DAF80C20DAF808301268202100920EA8834A07F06EF90EA816F04BFE23688C
:2021800000EB080B9B457FF62AAFC8EB03030EAA002BA8BFD2181346049A02EB0900089A97
:2021A000C9EB0201774A07F055F98144A945FFF41EAF08F101023AE05B4507D84D4505D9EA
:2021C000049A2C2302F8093009F101090BF10108C7E759464846059B98470C99481C67D03C
:2021E000D7F80431684E994264D0D6F8B430994200F0A480099FD6F8901073693846984726
:20220000624B1D68284616F005FE29460246F36C384698474FF0FF33236017B0BDE8F08FC3
:20222000079BD846012B7FF42EAF0BF101022368434513D84D4511D904997D2301F809307A
:20224000236809F1010993420ED84D4508D9049A7D2302F8093009F1010905E09342F4D9C5
:20226000B9F1000F3FF413AF0499FB6C4A4609989847FB6932210998984708E70BACFBE5DF
:202280000D9816F0B3FB079000287FF4FEAD3B6A0DF1300B59464846059398470C9A531C71
:2022A0003FF41AAED7F8DC309A427FF4FDAD13E6D7F80411099EFB6930469847EA68AB68AD
:2022C0001268049D00924021314A284607F0C2F8284616F09FFDFB6C0246294630469847D3
:2022E00098E7049A023902EB0900089A0029A8BF5B18C9EB0201234ACDF814C007F0AAF895
:202300008144A945DDF814C02DD2D4F800B0DC45BFF403AF08F103035B45BFF40CAF12E75A
:2023200019469B46E7E6A945FAD2049A222302F80930216809F101098B46DCE6099FF3699C
:2023400038469847EB68049D1B684021114A284607F080F8284616F05DFDF36C024629462C
:202360003846984756E703224FF002085FE70499FB6C4A4609989847FB6928217BE700BF2D
:20238000A09201009C92010004B1010038040020AC920100A8A901002DE9F04786B006AC03
:2023A0000026184D44F8046D6F6D89469046164922461D4682460E9EB84701280ED0134C61
:2023C000009604F108065046494642462B4601940296FFF739FD06B0BDE8F087059816F078
:2023E00005FB0028EBD00A4F402400965046494642462B4601970294FFF7BAF906B0BDE857
:20240000F08700BF04B10100B892010024070020743F00202DE9F04786B006AC0026184DA7
:2024200044F8046D6F6D89469046164922461D4682460E9EB84701280ED0134C009604F1E0
:2024400008065046494642462B4601940296FFF7FBFC06B0BDE8F087059816F0C7FA0028D8
:20246000EBD00A4F282400965046494642462B4601970294FFF77CF906B0BDE8F08700BF1E
:2024800004B10100B8920100C8050020704700202DE9F04786B006AC0026184D44F8046D0A
:2024A0006F6D89469046164922461D4682460E9EB84701280ED0134C009604F10806504669
:2024C000494642462B4601940296FFF7BDFC06B0BDE8F087059816F089FA0028EBD00A4F64
:2024E0001C2400965046494642462B4601970294FFF73EF906B0BDE8F08700BF04B1010046
:20250000B892010088070020CC3B00202DE9F04786B006AC0026184D44F8046D6F6D894682
:202520009046164922461D4682460E9EB84701280ED0134C009604F108065046494642467C
:202540002B4601940296FFF77FFC06B0BDE8F087059816F04BFA0028EBD00A4F10240096AC
:202560005046494642462B4601970294FFF700F906B0BDE8F08700BF04B10100B89201008E
:20258000B8040020AC4400202DE9F04786B006AC0026184D44F8046D6F6D89469046164902
:2025A00022461D4682460E9EB84701280ED0134C009604F108065046494642462B4601942B
:2025C0000296FFF741FC06B0BDE8F087059816F00DFA0028EBD00A4F142400965046494685
:2025E00042462B4601970294FFF7C2F806B0BDE8F08700BF04B10100B89201004806002004
:20260000984400202DE9F04786B006AC0026184D44F8046D6F6D89469046164922461D46A6
:2026200082460E9EB84701280ED0134C009604F108065046494642462B4601940296FFF7E7
:2026400003FC06B0BDE8F087059816F0CFF90028EBD00A4F282400965046494642462B4602
:2026600001970294FFF784F806B0BDE8F08700BF04B10100B89201006C07002070440020C1
:2026800070B50A4D0A4C1E26A0691E2186600AF055FD2046FEF7D8FF55F8044F002CF3D1E8
:2026A0002146BDE8704003480BF018B960A70100640700205407002038B52E4805F028F8C1
:2026C0002D4805F025F82D4C04F1600514F8023C227C0BB1012A3ED92034AC42F6D1284841
:2026E00005F016F80CF0A0F90CF056F9044600283BD0244806F088FE201D0DF07FFDA169D2
:20270000214806F081FE0BF0D7FF01461F4806F07BFE0BF0B7FF0446C0B11A4806F074FEB7
:2027200004F108000DF06AFD194806F06DFE20460BF09AFF0DF062FDA169134806F064FE63
:2027400020460BF0A5FF04460028E6D11148BDE8384004F0DDBF0B4806F056FE20460DF045
:202760004DFD0A2004F0CCFFB6E70B4804F0D0FFC9E700BFBC920100D49201002A420020C2
:20278000F4920100F0920100089301002C93010068930100509301002493010008B5034833
:2027A00004F0B6FFBDE8084004F06EBBD89101002DE9F04184B004AD4FF0FF36244C45F8AF
:2027C000046D276A0E46294698461546B84703994B1C19D0D4F80431994217D0D4F8B4309D
:2027E00099422AD0D4F89010636930469847194B1D68284616F00EFB29460246E36C304695
:20280000984704B0BDE8F081D4F80411E369304698470A9AD8F800302846009240210E4A30
:2028200006F018FE284616F0F5FAE36C024629463046984704B0BDE8F081E3693046984763
:2028400028464021054A0A9B06F004FEEAE700BF04B101003804002098A701009C920100AC
:2028600070B504460E461546074804F051FF02F0F7FA064B20469C6931462A46049408334E
:20288000BDE87040FFF794BFA4A701009C07002010B4044B9C69083301945DF8044BFFF709
:2028A00087BF00BFB807002010B4044B9C69083301945DF8044BFFF77BBF00BF140800207D
:2028C00070B50E461546044604F07CFD10210346074A084806F0BEFD074B20469C6931466D
:2028E0002A4604940833BDE87040FFF761BF00BFA8A9010084130020F807002010B50A4B29
:202900000A4C0B48A361FEF79FFE0A48FEF79CFE2046FEF799FE0848FEF796FEBDE81040D7
:202920000648FEF791BE00BF84130020F807002014080020B80700209C0700205408002016
:2029400038B5124B1B6843B904F004FD6423A0FB0301C00940EA416038BD04F087FD0C4A3C
:202960000C4B12681B6822B90B490A68821A002A01DB184638BD0C686422201AA0FB024557
:20298000200C40EA0540181A38BD00BF4824002080230020543F0020FC3B0020836A01214E
:2029A0009B688120184700BF2DE9F0412E4D84B04FF0FF330E461746D5F81C8003932B4CC7
:2029C000F8B103A9236A984703994B1C19D0D4F80431994217D0D4F8B430994232D0D4F82E
:2029E0009010636930469847214B1D68284616F011FA29460246E36C3046984704B0BDE8F2
:202A0000F081D4F80411E36930469847D5F808E0EA680023EB84D8F8083038460192CDF84C
:202A200000E04021134AC5F804E006F013FD384616F0F0F9E36C024639463046984704B0C5
:202A4000BDE8F081E36930469847D5F808E04FF0000C734638464021074AC5F804E0A5F898
:202A600026C006F0F7FCE2E7240A002004B101003804002054A9010070A9010070B5154CC0
:202A800086B006AA00250E4642F8145DA36D1249984708B10F2805DD30466369A16F9847DF
:202AA00006B070BD0246019902A8029503950495059516F021F802A815F098FF102803465F
:202AC000EAD8064A30469384D5846369E16E9847E6E700BF04B1010078A90100240A002052
:202AE00070B51A4C86B006AA00260D4642F8146DA36D1749984708B10F2805DD28466369D6
:202B0000A16F984706B070BD0246019902A8029603960496059615F0EFFF02A815F066FFEA
:202B20000128EBD80B4B0C4AC1015962D684181D39B90AF069FD28466369E16E984706B081
:202B400070BD064A0AF01CFDF5E700BF04B1010074920100A0090020240A0020D133000072
:202B6000034610B490F83440596A074814F0010F064A18BF024611B95DF8044B7047181D5D
:202B80005DF8044B0AF0FCBC9D29000029320000F0B583B00DF1060000F0C8FEBDF8062051
:202BA0000646402A11461ED8134D2B7819443E290FDC12499C1CE4B20B4431468827D6B2BA
:202BC0001F705E70981C15F097FF33192B7003B0F0BD0B4A0B4B1069DB6D98470224BDF8DC
:202BE0000620064BE9E7084806F00EFC40231A461946ADF80630D7E7933B002094130020CE
:202C0000D80C002004B1010080A9010070B54FF0FF3382B00D460193144CD0B101A9236A09
:202C2000984701994B1C14D0D4F8E430994212D0D4F890106369284698470D4B1E6830465A
:202C400016F0E8F831460246E36C2846984702B070BDD4F8E410E36928469847054AE36C5D
:202C6000284612780449984702B070BD04B1010038040020933B0020941300202DE9F04F35
:202C80008BB005460F469146FEF7ECFC0646A54C28462369984726B110F0010809D183074B
:202CA00033D438466369D4F88C1098470BB0BDE8F08FD6F818804FF0FF330693B8F1000F75
:202CC00000F0B280002D00F0848006A92846236A984706994A1C7CD0D4F8043199427AD0B1
:202CE000D4F8B430994200F0A580D4F890106369384698478C4B1D68284616F08BF82946DD
:202D00000246E36C38469847D0E70DF1280949F8148D4A46D4F858A028468449D047002829
:202D200054D00F2840F3BA80C346CDF80C8028467F494A46D047002846D00F2840F39B80D1
:202D40004FF0000828467B494A46D047002839D00F2840F3CE800023029328464A467649F5
:202D6000D04718B10F2840F3B08000200BF03001302951D0202973D0102976D05FFA8BF232
:202D800052B2002A4BDD1BF0040F03D0B269BDF80C3093841BF0400F1CBFB26990611BF07D
:202DA000200F1CBFB269C2F810801BF0100F02D0B369029A5A6138466369E16E98470BB002
:202DC000BDE8F08F0290C8E78046BBE783460390ADE7D4F80411E36938469847D8F80820B4
:202DE0000023B2F1004FC8F80420A8F826304D4C1AD0B3680092D8F80C2048460192402136
:202E00004E4A06F027FB484616F004F8E36C024649463846984749E7029B9845AEDB38463E
:202E20006369A16F984741E738466369D4F89C1098473BE7E36938469847D8F80830002219
:202E4000B3F1004FC8F80430A8F82620ECD0D8F80C20484600924021394A06F0FBFAD2E745
:202E6000B26952699045DADC88E7B269029B12699342D4DB82E700230246059906A8069312
:202E800007930893099315F037FE06A815F0AEFD4BF0200380465FFA83FB53E702460599AE
:202EA00006A8CDF81880CDF81C80CDF82080CDF8248015F021FE06A815F098FDB0F5004F78
:202EC000039029D24FF0040B31E700250246059906A8069507950895099515F00DFE06A815
:202EE00015F084FD00289ADD4BF040035FFA83FB3CE700230246059906A8069307930893B0
:202F0000099315F0F9FD06A815F070FD4BF0100302905FFA83FB20E7CDF80C804FF0800B21
:202F200005E700BF04B101003804002078A90100ACA90100B0A90100B4A9010090A901006A
:202F4000A4A901002DE9F04186B006460F46FEF789FB0546234C3046236998470DB18307A9
:202F600007D438466369D4F88C10984706B0BDE8F08106AA4FF0000842F8148D3046A36DC1
:202F80001949AD69984708B10F2806DD38466369A16F984706B0BDE8F0810246019902A876
:202FA000CDF80880CDF80C80CDF81080CDF8148015F0A2FD02A815F019FD0C4B9842E5D86E
:202FC000C001686248B9281D0AF01EFB38466369E16E984706B0BDE8F0812846FFF7C0FDA8
:202FE000F4E700BF04B101007492010080510100F0B583B002AB4FF0FF321A4C43F8042DE1
:203000000E46226A1946904701994B1C26D0D4F8E430994210D0D4F890106369304698477B
:20302000114B1D68284615F0F5FE29460246E36C3046984703B0F0BD0D460DF1020000F04B
:2030400075FC07462946E369304698473946E36C3046BDF80220984703B0F0BDD4F8E45048
:20306000EBE700BF04B10100380400202DE9F0410C46444B84B0DD6DA8472678002E4DD02F
:20308000E38C002B4DD1404F63683A78002A50D0DFF80081E068D8F80010411A64294CDD91
:2030A00003F50043B3F5803F00F500412CBF05230323B1F5803F2CBF052103210B441344BF
:2030C000402B4FDC314B1A4400F50043B3F5803F0290ADF80C004DD203210E46BDF80C0046
:2030E0000123A2F8010013703D78E0686368354426780A443D70C8F8000003F50041B1F515
:20310000803F0393ADF8063024D2BDF806301670A2F8013003223B7813443B7004B0BDE81A
:20312000F081194F0022A368E2843A786360002AAED1E068DFF85C80B2E703F50041B1F592
:20314000803F34BF03200520104440280ADC0F480244D4E7039846F040061670C2F8010023
:203160000522D8E70A4B1869A8470023074AE0683B70A9E7029841230521C2F8010013704B
:203180000E46B1E704B10100933B002094130020D80C0020D81300202DE9F041046B0646C7
:2031A0002568002D33D0B36A286A5B689847A8602568FFF7C5FBE8602268D38C0133D384FA
:2031C0002368DA699169F1B1888CE0B14B68B3F1004F15D0CD8C854212D088680D69A84203
:2031E00002DB4F69B84204DDAB4202DB4D69AB4206DD8D695F19B84202D85B1B984202D2A9
:203200001069FFF733FF54F8045F002DCBD196F93430002B01DBBDE8F081B36A81209B68C4
:203220000021BDE8F041184710B50446074A616A234604300AF0A4F9A36A81209B68012106
:2032400098472046BDE81040FFF7A6BF293200002DE9F041046B804623687BB105270026F9
:203260004FF00045DA699F84DE845D609361D869FEF7EAF954F8043F002BF3D111484146DA
:203280000AF0E8FDD8F82C30C3F81880D8F824301BB94FF42073C8F82430D8F82C00FEF7FD
:2032A000D3F998F83430DB0704D44046BDE8F041FFF7BABFD8F8283081209B680121BDE836
:2032C000F0411847D413002070B5048882B0054694B140F2FF639C4209D1304B1B788B42BD
:2032E00044D040F2FF6301202B8002B070BD00230380032002B070BD29480AF0A5FD294855
:20330000FEF7A2F92848FFF7A3FF284E2848FFF79FFF2848FFF79CFF3388022B09D026486B
:20332000FEF792F92146254800F032FA3388022BD7D1234B234CDA699361D869FEF784F9C6
:20334000A36A81209B6801219847E36A9C61636A13B94FF420736362E06AFEF775F91A482E
:20336000616A031F194A0AF00BF9BAE70C4801920AF06EFD019A044618B9B2E72468002C0B
:20338000AFD0A36A9342F9D120460192FFF7E8FB2046FFF701FF019AF0E700BFFE4700203E
:2033A000D4130020D80C0020740A00207A3B002068090020780C0020E40B0020912B00008F
:2033C000240A0020A0090020A4090020D1330000124B10B55B6800209847114CA368E28C4B
:2033E0009B000328D4BF184343F003000132E284A060FFF7A5FA0B4BE060596A181D0A4AD3
:203400000AF0BEF8E28CA38C9A4200D010BDE369BDE8104018699969FFF728BE28B5010068
:20342000240A0020A0090020D1330000014800210AF054BAFC0D00200249034A00230B70A0
:2034400013607047933B0020D81300200C2800D0704701480AF062BA640E002008B5064B8F
:2034600004201B685B6B9847012803BF034B1868C0F34000002008BDB801001078200840C6
:203480002DE9F041164B002282B01A7003F0EEFF00F1870403F0EAFF001B0028FADBFFF760
:2034A000DDFF8046A0B10F4C0F4E104D04F132072B680F485B6816F8011F98472B680C4835
:2034C000DB6801A99847019B04F8013BBC42EFD14046034B01221A7002B0BDE8F08100BF86
:2034E0000B200240DC1300200F140020C401001000800040F8B5204D204C2B7855215E1C5F
:20350000AA222E70A3702170627048B11C4E54230027E370F770FFF7B3FF50B90020F8BD8A
:20352000174E52230027E370F770FFF7A9FF0028F4D02B78E7705A1CA3702A70FFF7A0FF94
:203540000028EBD03378AA2BE8D17378552BE5D1F378432BE2D10B4B96F809E0377AF579B6
:20356000B4797179327983F800E05F709D70DC7019715A71F8BD00BF953B00201014002009
:20358000DC130020581400202DE9F04F048883B005468CB140F283139C4207D1822919D0E2
:2035A000882975D0012003B0BDE8F08F00230380032003B0BDE8F08F64484FF4E12109F093
:2035C000FBFE634B1C7040F2831301202B8003B0BDE8F08F5F49604B0A785526571CAA24BC
:2035E00000200F709A701E705C70D870FFF748FF002800F08C80594C667C012EE3D1FFF7BF
:203600009FF9574F524A3B7886461670002B40F08880544B227B997CE07A9142D3D15B7C6F
:203620008342D0D1A14659F81E0FDFF84CC1D9F80410D9F80820D9F80C300CF10408A8E857
:203640000F000DF1080A4AF804EDDAF80000B9F810B094F81DE094F80A9094F8301094F8CE
:203660003120D4F81930A8F800B03E708CF800908CF801E08CF802108CF80320CCF81A3022
:20368000CCF81600384A394B10681B6898479AE72E4809F0AFFE002884D02C4809F0AAFE42
:2036A000002897D02A4E294809F090FE3378002B3ED12F4A13780133DBB20B2B13703ED892
:2036C0002C4804F025F801240123337003F0CEFE00F5004604E003F0C9FE801B00281ADA2A
:2036E0002046FFF707FF0028F5D01D4B1A78002A7FF469AF1D49204C09680120227018704E
:2037000000293FF460AF184B186888475BE71B4803F0FEFF57E71A4803F0FAFF03F0B4FBC9
:2037200051E7184803F0F4FF3B78002BAAD14AE70F4B002414481C7003F0EAFFC4E7134839
:2037400003F0E6FF03F0A0FB3DE700BF48140020973B0020953B002010140020DC1300206F
:20376000943B002088FF01004414002080140020963B002098AF010060140020F4AF010035
:20378000B8AF0100DCAF010050AF01006CAF0100F0B5504A504C514B116020601B680B2003
:2037A000DB6B85B04E4D98474E4A2B68012111705B69042098472B6804205B6B98470128FA
:2037C0000446474BF7D11B6840F20110DB699847454B464A1C6013689B07FCD54449454CB4
:2037E0000B68454E454F20680322082523F00F030B603A600195009606684149414800235B
:20380000B047364B0A221B6800923E482A4609215D6C4FF0FF33A8473B4A136843F002036E
:203820001360FFF71BFE002843D12D4C374804F0C3FB236840F201105B6A9847236840F2F1
:203840000110DB6A9847324800210AF047F854F8083C14209B680021984754F8083C1020D8
:203860009B68202198471D4B2A4A1B68002414601B68294A21460C209847284B0C201C60AB
:20388000274904F0CBFB03F0F1FD00F5004504E003F0ECFD401B002813DA0020FFF72AFE75
:2038A00004460028F4D01F4803F032FF204605B0F0BD236813481B6903A998470028F8D199
:2038C000B3E7194803F024FF03F0DEFA204605B0F0BD00BF4414002080140020B401001094
:2038E000B80100100B200240282008602820084014800040C401001000093D002080004083
:20390000006CDC020080004004800040500E0020640E0020E020024000000520005A444282
:203920004D34000028B0010010B00100054A137813B90380044870471E21002301801370DA
:2039400001487047943B0020601400200C2830B438D80301DBB20C292ED8CCB22343B0F567
:20396000867F137012D96FF4867543191B0A0D385370907002230320B1F5867F11D80C29DC
:2039800002D90D391154013030BC70470C281FD90D38B1F5867F50704FF001034FF002006D
:2039A000EDD96FF486740C19240AD5180D391454A970D81C30BC7047B1F5867F94BF0D2417
:2039C0000E24CBE7B0F5867F94BFD023E023C2E701200023D0E700BF13F07F4F2DE9F8438B
:2039E0004FEA134614BF012700271C4615463B464FEA064906B17B1C34F0FF0819D00133B7
:203A00000133401A2A461946FFF7A0FF17B1230E2B540130B9F1000F01D02E540130B8F125
:203A2000000F09D0230A2B5401302C540130BDE8F883002CE5D0E3E7002CF6D1BDE8F88332
:203A4000F8B50E689DF8187016B902600B60F8BD0C461D46036811469F5523682A4601333B
:203A600023600068184415F0BDF823682B442360F8BD00BF2DE9F047002481461C6010464A
:203A80000E461746984615F0C5F94E4409EB0005AE4282462AD94C4606E0013404EB0A03E5
:203AA0009E4205F101051DD94C4503D014F8013C262BF2D12B783D2BEFD13846214652462B
:203AC00015F0D6F90028E8D10AF1010A5444361B32462046262114F093FF00B1061BC8F8F5
:203AE000004000E000263046BDE8F0872646FAE7F8B5069C401A21461F461646FFF726FFB5
:203B0000054639463018224614F0F6FF2819F8BD2DE9F04F83B09DF83480DDF830A0B8F11D
:203B2000000F37D0934600221E46994684468E46144617460AF1010303E001349C4222467F
:203B400024D8B15CB518414501D05245F5D1C9EB0505CEEB0C000BEB070229460193CDF891
:203B600000C0FFF7F3FE074449460BEB07002A4614F0C2FF0134019BDDF800C006EB04092E
:203B800001349C42E6462F442246DAD9384603B0BDE8F08FCDF830A003B0BDE8F04FFFF7E1
:203BA000A7BF00BF10B504460020014602460CF0A3FB044B0482186005F0B8FA024B1880AF
:203BC00010BD00BF84140020783B0020024B1888013080B218807047783B0020F8B5044665
:203BE0000F4616461D460021A42215F05FF86771A6712581F8BD00BFF0B501230022016019
:203C000003710A7004680579237883B043EA85132370056844792B78240104F030041C432D
:203C20002C700568847A2B7804F00F041C432C70036884795C7004890368240A9C70036807
:203C40000489DC70837913B9042003B0F0BD0368847A1D1D4CB100F10A0414F8017F0132E1
:203C600005F8017B877A9742F7D8C37C0E4603F00202044602F0FF01002A40F0F9801A0768
:203C800000F1EB80DF0600F1DB80980600F1CF805A0600F1C3801B0600F11581237DDF07F7
:203CA00000F1AF80180700F19F80DA0600F193805F0600F18780180600F10E81637D9A0755
:203CC00076D4DF0667D4180600F1E080A37D1A071CD5D4F8803094F884201B010AB143F023
:203CE0000803B4F886000027000900E017467A1C400892B2FAD10AB107F00F0003432A46B6
:203D00001B20FFF769FEA37D05441B21DF0639D4E37D180723D41A0600F1EC80A37EDB067F
:203D200028D42368EB1A3E2B12DCB4F89E2022B1FF2305F8013BB4F89E202846D4F8A010B4
:203D400014F050FFB4F89E00AB1B184403B0F0BD6D4B6E4A002020601A6003B0F0BD226BCD
:203D6000636B232000922A46FFF7C2FEE37D05442321D0E72A463C20D4F89030FFF72CFE5E
:203D80000544CEE72A461C20D4F88C30FFF724FE1C210544BCE7606D2622A36D8DE8050011
:203DA0002A461420FFF7B4FE637D054414218AE72A46B4F868301120FFF70EFE637D0544D8
:203DC00011217EE72A46236A0E20FFF705FE237D05440E216FE72A46A38B0C20FFF7FCFD01
:203DE000237D05440C2163E7E06D2F22236E8DE805002A460B20FFF78BFE237D05440B218B
:203E000053E7A06C2F22E36C8DE805002A460820FFF77EFE237D0544082143E72A46636EBB
:203E20000620FFF7D9FDE37C0544062133E72A4600230520FFF7D0FDE37C0544052127E750
:203E400094F824302A460093042004F12503FFF74FFEE37C0544042117E7226C636C0320B0
:203E600000922A46FFF744FEE37C0544032109E790F86A30002100932A4604F16B03012082
:203E8000FFF736FEE37C05440121F8E6676F94F878303F01A3B9B4F87A200020130900E048
:203EA0001046421C5B0892B2FAD10AB100F00F032A463B431720FFF78FFD1721054405E70B
:203EC00047F00807E7E72A460720B4F85030FFF783FD07210544E1E6D4F894002622D4F8E9
:203EE00098308DE805002A460F20FFF711FE0F210544E3E6A26BE36B272000922A46FFF700
:203F0000F7FD2721054409E7740E002050B001002DE9F843114F05463E6894469E4688465B
:203F200034469DF82090EB6800686968AA68B9F1010F0FC4614672460CBF1023032330469E
:203F4000A6F812800CF0B2F93C6800212046102214F0ACFE00236382BDE8F883841400209F
:203F60002DE9F04F0C46054685B092460021A42214F09CFE2C602678B6092E712378012E6B
:203F8000C3F301136B7194F8008008F00F0885F80A806378AB71A278E37843EA02232B81EF
:203FA00006D0BF4BBF4A80201A6005B0BDE8F08FB8F1080F06D9BA4BBB4A80201A6005B0AD
:203FC000BDE8F08F271D4246394605F10B0014F093FD04EB0A0B07EB08024FF000095A45F6
:203FE00085F8139085F8149085F8159085F8169085F8179085F8189085F8199085F81A90A5
:2040000080F0B88117F8088008F0F003F02B00F0DE8005F15803029305F1540303934FEA0A
:2040200018110D2908F00F0800F08B810E2900F09981571CB8F10D0F00F08781B8F10E0FDF
:2040400000F08881894405EBD901CB7C09F0070206FA02F2134309F1FF32CB743B2A00F27C
:204060006A81DFE812F00F016801460138013301250159014C01680168010201F300680161
:20408000E400D7006801C700680168019F006801680181006801680168016100510068011B
:2040A000680168016801680168013C006801680168013C00680168016801680168016801CA
:2040C000680168016801680168016801680168016801680168016801680168014100704B26
:2040E000724AA5201A6060E7B8F1000F00F05681002207EB080317F8011B9F4241EA022285
:20410000F9D1C5F8902057E0B8F1000F00F04981002207EB080317F8011B9F4241EA022245
:20412000F9D1C5F88C2047E0B8F1000F00F02781002207EB080317F8011B9F4241EA02225B
:20414000F9D102F0070722F00F011020B840B940C2F3C0071209A5F88600C5F8881085F8C6
:204160008470C5F8802027E0B8F1000F00F01C81002207EB080317F8011B9F4241EA022228
:20418000F9D102F0070722F00F011020B840B940C2F3C0071209A5F87A00E96785F87870AF
:2041A0006A6709E0262300930298434603993A46FFF746FC07EB08035B451A4680F0DA802B
:2041C00093F8008008F0F003F02B7FF428AF0132A31A53449BB2402B84BF40210B464FF011
:2041E0000000C5F8A02094BFA5F89E30A5F89E10D054DAE6B8F1000F00F0BE80002207EB5B
:20420000080317F8011B9F4241EA0222F9D1A5F86820D1E72623009305F19800434605F1A8
:2042200094013A46FFF70CFC07EB0803C4E7B8F1000F00F0AD80002207EB080317F8011BA4
:204240009F4241EA0222F9D12A62B5E7B8F1000F00F09880002207EB080317F8011B9F4251
:2042600041EA0222F9D1AA83A6E72F23009305F16000434605F15C013A46FFF7E1FB07EB10
:20428000080399E74246082A28BF082205F16B0085F86A20394614F02FFC07EB08038BE743
:2042A000740E002080B0010098B00100C0B00100B8F1000F6FD0002207EB080317F8011B30
:2042C0009F4241EA0222F9D16A6675E785F89C6007EB080370E74246082A28BF082205F12A
:2042E000250085F82420394614F006FC07EB080362E76F64C5F8408007EB08035CE72F232B
:20430000009305F14C00434605F148013A46FFF797FB07EB08034FE7B8F1000F35D00022E6
:2043200007EB080317F8011B9F4241EA0222F9D1A5F8502040E719F0010F38D107EB080308
:204340003AE75178971C0D3174E617F8013B03F10D0877E67B7817F8028B03F20D1303EBE5
:2043600008286FE69378517803F20D1303EB0121D71C5FE6002018E642463B4647E74246AA
:204380003B46DEE642463B466DE742463B46CFE742463B4658E742463B4695E742463B46E6
:2043A000AFE642463B46BCE642463B46E9E6024B024A82201A60F8E5740E0020E8B0010018
:2043C00010B4044690F91400002803DB00205DF8044B70471346D4F898000A46D4F8941034
:2043E0005DF8044BFFF746BB30B4B0F89E4014B9204630BC70470D46134621462A4630BC73
:20440000D0F8A000FFF736BBFF299ABF8171012000207047082A034628BF082210B5144637
:204420009A720B3014F068FB204610BD037D03F0100303F0FF021BB1838B01200B60704704
:204440001046704701207047437D03F0020303F0FF0223B1B0F8683001200B60704710461E
:20446000704700BF037D5B064CBF036A3C230B6001207047037D016243F0400303750120D9
:20448000704700BF38B50446082A28BF0822154684F82420253014F02FFBE37C284643F08E
:2044A0001003E37438BD00BFC37C03F0020303F0FF022BB100F16B030B6090F86A00704764
:2044C00010467047C07CC0F340107047C37C03F0080303F0FF021BB1436C0B60006C70479F
:2044E00010467047037D03F0080303F0FF021BB1036E0B60C06D7047104670470B7810B55C
:204500002F2B044603D111F8013F2F2BFBD02166084614F07FFC237DE06543F008032375A6
:2045200010BD00BF90F91430002BBDBFD0F898300B60D0F894000020704700BF0B7810B546
:204540003F2B044603D111F8013F3F2BFBD0A165084614F05FFC637D606543F010036375DF
:2045600010BD00BF70B50B780C462F2B064603D114F8013F2F2BFBD020463F2114F0E4FB21
:20458000054660B13046691CFFF7D8FF281BB064F46418B1337D43F00103337570BD20465D
:2045A00014F038FCB064F3E7C37C416643F04003C3740120704700BF10B490F91540002CDD
:2045C00003DB00205DF8044B704709B1446F0C6012B190F87810117013B1B0F87A201A80B5
:2045E000019B33B1C36F019A012013605DF8044B70470120E6E700BF10B4A3F11004B4F5BD
:20460000FE6F12D8B1F5801F0FD2447D003218BF012280F8782064F07F024167A0F87A3061
:2046200042755DF8044B0120704700205DF8044B704700BF837D03F0100303F0FF0223B13F
:20464000D0F88C3001200B6070471046704700BF837DC0F88C1043F010038375012070475D
:20466000D0F8A0301BB10B60B0F89E00704718460B607047402A28BF4022C0F8A010A0F83B
:204680009E201046704700BF014B1860704700BF3415002083790120013B9840C0B2704793
:2046A0002DE9F047038886B00446B3B140F25B1293420CD1AA4B1B788B4219D0882963D0CB
:2046C00040F25B130120238006B0BDE8F08700230380032006B0BDE8F087A248A24900F044
:2046E000ABFE00F033FA43F21630FFF75BFAE7E79E4B9F4D1B78002298072A70E0D59D4B00
:204700009D4FDFF8A0923846D9F800101A88FFF727FC06462870002839D0DFF88C82C22EA0
:20472000D8F8000000F0D78000F03EFA2A78904BC32A00F0CC80BF2A84BFA0221A700225F5
:2047400029463B898C48FFF749FA8C4B8C4F1E68304614F05FFB314602468748FFF78AFF00
:20476000884BD9F800601B7831462833824833F80780FFF741FA414683B2324607F10800EF
:204780000095FFF7C5FB9BE700F08AFA98E7BB79013B032B2ED97B6823F07F4323F0FF03E7
:2047A000D3B9C3232B70388900F066FADFF8F881C8F8000040B1C66AD0F830A000F0F4F935
:2047C00016B150466C49B0472E780023C8F80030002E3FF475AFA2E77B79032BE3D1694B7F
:2047E000694A1B7802F108002833D15A3A8900F009FBD8E7634B644A1B7802F10801283336
:20480000D25A388900F0ACF9DFF89C81C8F80000002800F085807B79402203960496059621
:20482000ADF80A20002B59D15848022145223B89FFF7D4F9BA7A002A5FD104AB00934E483D
:2048400003A900220DF10A03FFF7B6FE40B1BDF80A30049A402B28BF40230592ADF80A302C
:204860004B4BD3F800C0BCF1000F40D0D8F80020DFF804A1454E0DF1140EBDF80A305046A7
:2048800031467432CDF800E0E04790B12A78384B8AB99AF81620110748D596F90620002AAA
:2048A00044DBB27D120741D434493A48A12208601A702B7833B32E78002E7FF430AFD8F849
:2048C000000000283FF4FCAE00F084F9F8E600221A70032534E700F067F9F1E6FFF776F90D
:2048E0000121034645222948FFF778F9A2E7234A2949A12311602B70DDE728492348FFF740
:2049000089FD9AE7D8F80060204806F13601FFF773F980B2B0860028CDD1C1232B70CAE70A
:20492000164A1F49A32311602B70C4E797F91530059A002B3ADB002AE4D0013218BF012273
:20494000002140231148FFF757FEB6F89E20D6F8A0103F2A88BF40220C48FFF78BFEA8E7D1
:2049600002480020A00E002010B2010054440020983B00207C4300208C140020740E002050
:204980008C430020BD3B00208C430020381500203415002024B2010044B2010097140020B2
:2049A00058B201006044002030150020049B9A4217D00132039921D0BDF80A300122DFF8B8
:2049C00084A05046FFF718FEB6F89E30BDF80A2093427FF66EAF5046DAF8A010FFF74AFEF9
:2049E00067E7B6F89E10174E8A4210D38223304615490F22B371FFF73DFE5AE7B6F89E204D
:204A0000BDF80A309A4294BF00220122D7E7BDF80A308A1A9A4294BF00220122039930465C
:204A2000FFF7EAFD0498B6F89E30BDF80A201B1AD6F8A0109A42014428BF1A463046FFF71B
:204A400019FE36E73815002034B201000148002108F044BF780E0020C160406808F05EBFE5
:204A6000F0B50446008883B015461E4610B3B0F5CD7F1AD1822902D0012003B0F0BDE068E8
:204A8000002848D02C4F002300932C4A3946FFF793FD3B6822699A4247D0294A13780133D7
:204AA0001370264B1B78002B3AD100230320238003B0F0BD234B21491F681F4A204B20613C
:204AC000E0606760087010601870FFF77FF8089B29461881324600F043F8A060D8B11A4BB6
:204AE000C362A3681C63216979B9A568089805F13601FFF781F8A886A06800F06BF84FF436
:204B0000CD730120238003B0F0BD089800224023FFF772FDE9E700230220238003B0F0BD8F
:204B2000074B1B78032BC0D8CFE7099BE0689847236901332361B4E7881400209A3B0020B9
:204B4000993B0020EC240020594A0000024A034B12681A60704700BFEC240020E015002045
:204B6000F8B507460E480D46164609F0EDF9044698B10023878003762868A9686F68EA6857
:204B8000C4F81A00C4F822100648C4F81E70C4F826202146668509F05DF92046F8BD00BF3C
:204BA000880E0020DC15002070B110B50446083008F03CFC2146054809F090F92146BDE854
:204BC0001040034809F0DEB9704700BFDC150020880E0020F0B5044690F8365083B0C5F385
:204BE000011500F11A06418D838E04F1360200953046FFF78DF995B9237E032B15D833B30B
:204C0000E3685B00E360194D194B2E681B6804F108002B6008F0E4FB2E6003B0F0BD204615
:204C200003B0BDE8F040FFF7BFBF3046618DE66A276B00F061F82046FFF7B6FF002EECD0EE
:204C400038462946334603B0BDE8F040184704F06DFA084BA3FB0023DB0903EB4303A0EBF5
:204C6000831303F28113E360CDE700BFEC240020E0150020ABAAAAAA10B50446074809F01A
:204C8000E7F848B18388A34203D106E08388A34202D000680028F9D110BD10BDDC150020CB
:204CA00010B50C4809F0D4F8044610B910E0246874B104F1080008F09DFB0028F7D0237E45
:204CC000204601332376FFF785FF2468002CF0D110BD00BFDC15002010B50446044821464F
:204CE00009F050F92146BDE81040024809F0F6B8940E0020C0170020F8B505460E480E46CA
:204D000009F0A6F80446A0B1002704F12C002946102213F0BFFE10B9A38FB34204D0246868
:204D2000002CF2D13846F8BD2046FFF7D5FF0137F5E70746F6E700BFC01700202DE9F843DC
:204D4000054618480E4691461F4609F081F8044630B34FF0000801E02468F4B104F12C00FF
:204D60002946102213F096FE0028F5D1A38FB342F2D194F83E30BB42EED104F13F004946AA
:204D80003A4613F087FE0028E6D12046FFF7A4FF246808F10108002CE0D14046BDE8F8831C
:204DA0008046FAE7C01700202DE9F04106461448174609F04DF8044600B34FF00008102255
:204DC00004F12C00251D1EB1314613F063FE78B9BD4208D0284614F01DF839460246284602
:204DE00013F058FE20B92046FFF776FF08F101082468002CE3D14046BDE8F0818046FAE7FF
:204E0000C01700202DE9F041054614480E46174609F01EF80446F0B14FF0000801E024684E
:204E2000B4B104F12C002946102213F033FE0028F5D1A38FB342F2D1B4F84830BB42EED15F
:204E40002046FFF749FF246808F10108002CE8D14046BDE8F0818046FAE700BFC017002042
:204E600010B5084808F0F4FF044630B12146064809F088F82468002CF8D10248BDE8104019
:204E800008F0E2BFC0170020940E00202DE9F0414468DEB0074620460E4613F0BBFF054630
:204EA000214602A8272214F02DF8262D07DC36B102AB31465819C5F1270214F023F800249B
:204EC00023460CA8012145228DF82F40FEF786FE23460122214635A8FEF780FE02A935A8F4
:204EE000FFF70CFB02A813F095FF05462F4808F0AFFF044660B955E0854206DA3B7A62199D
:204F0000DB0602D513792F2B08D02468002C49D0261D304613F07EFFA842EDD1314602A848
:204F20002A4613F0A5FF06460028EED1FEF74EFEA28F04F12C01FFF713FE4023804600F172
:204F400074020028E1D0818835A8A4F84810B8F80410D7F810C0ADF8381000960CA9E04766
:204F60009DF93630002B09DBE16C0CA84B1CE364FFF71AFBE36C23F07F43E36494F83E2017
:204F800004F13F010CA8FFF745FA08F136010CA8FEF732FEA8F834004046FFF71BFE2468F5
:204FA000002CB5D15EB0BDE8F08100BFC01700200021FFF76BBF00BF0B468979012900D018
:204FC000704792F906100029FADBD97C4906F7D5596E69B10129F3D1304A3149127801F1CC
:204FE00008002832895A03F10B029B7AFFF7A6BE2DE9F04F1446294A2A481278D3F860B003
:205000002832175A81B039465A460830DE6D03F10B0993F80A80FFF7C7FE234808F094FF24
:20502000B246054678B3262EC4BF2726B24659463246043013F060FD4FF0000BAA441B4B9D
:205040008AF804B005F12C060FCB86E80F0042464946AF8785F83E8005F13F0013F04CFD92
:205060002946A5F848B0124808F0F4FEE96C20464B1CEB64FFF798FAEB6C23F07F43EB6474
:2050800001B0BDE8F08F20460A49A3231022A37101B0BDE8F04FFFF7EDBA00BFBD3B00206D
:2050A0008C4300208C430020940E002094430020C01700207CB201002DE9F04F83B0019119
:2050C00000921F46DDF8308000F0D2F908F0C0FE002800F0BC803B46D8F800B000252C46F7
:2050E0005E4607469A46B44208D3554512D24FF03C02009B5A55D8F800600135631CB342EF
:2051000008D3554506D24FF02F02009B5A55D8F800600135D7F804B00234584613F07AFE50
:2051200000EB0409B14553D805D3554503D2009A3E2353550135FE6809F10104BEB13378B7
:20514000ABB1D8F800B05C4508D3554506D2009A3B235355FE68D8F800B00135304613F050
:2051600059FE09F1020900EB09045C450FD8554504D9D8F80030621B9A425AD83F68002F7B
:205180003CD0BCB9D8F80060B442B7D3ADE7009AC9EB0B030AF101015019002BACBFF318E7
:2051A000331C491B2D4A04F055F90544554540D83F681FB3D8F80060A64207D8554505D2A7
:2051C000009A2C235355D8F80060013501348AE7009A331B0AF101015019002BACBF5B44AF
:2051E0000BF10003491B1D4A04F034F90544554504D2D8F80030994599D29CE75346BA46A6
:205200001F46CDB954B9BAF1000F20D0D8F800301F44C8F8007003B0BDE8F08F019C822142
:205220002046FFF7F1F820460D490F22FFF722FAE9E75346BA461F46019C00992A46204650
:20524000FFF718FA20462821FFF7FCF8DBE74FF0FF33C8F8003003B0BDE8F08F9C92010084
:2052600034B2010070B502880546C02A15D0D02A0DD01AB100230380032070BD1F4B8521D6
:20528000186808F0F3FAC0232B80012070BD88291BD0D0232B80012070BD852901D00120A5
:2052A00070BD174808F0D4FD044618B9F1E72468002CEED0E369002BF9D0A1680029F6D0F8
:2052C00004F10C0008F078F8F1E70D4808F0C0FD044618B9DDE72468002CDAD0A368002B0C
:2052E000F9D004F10C06304608F084F80028F2D0E3699847304608F069F8ECE7EC2400200D
:20530000C41700202DE9F04F87B006AD0024384E45F8044D0291F468294692469946804640
:20532000A0470546334808F093FD0446002834D0DDF814B009E006DD217ACB0603D51BF806
:2053400000102F2908D024683CB36768384613F061FD85420246EED13846594613F088FD71
:205360000028F0D1039032694046904710F0010F039B1CD1850728D5656935B3109B52469C
:20538000009340464B460299A847237A5B0612D40123184607B0BDE8F08F73690298D6F854
:2053A000881098470023184607B0BDE8F08F2569002DE3D1DEE7336E20464146029A9847DD
:2053C0000123184607B0BDE8F08F410702D5A569002DD3D1020702D5E569002DCED10298DE
:2053E0007269D6F88C1003939047039BDBE700BF04B10100C817002038B50A4B1C7804B19C
:2054000038BD094D012209481A7008F01DFDAB68074898476B6898472146BDE8384005486D
:2054200008F05CBA9B3B002004B10100C817002005530000C40E002010B504460A48616047
:20544000214608F007FD94F90830002B00DB10BD216ACB69002BFAD08B68002BF7D0BDE813
:205460001040024808F0F6BCC8170020C417002000487047C81700202DE9F041A2B007460A
:2054800007F0BCFE3E4D0DF1440801AE0024204607F090FE55F8043F0134C31A102C48F8AA
:2054A000040F46F8043F2860F1D101F053FF354E354934684D780B780246009501943946F5
:2054C000324803F0A1FF12AC17AD54F8041B304803F09AFFAC42F8D102AC07AD54F8041B4A
:2054E0002B4803F091FFAC42F8D12A4802F010F9294803F089FF294D002455F8241028481B
:20550000013403F081FF202CF7D1224802F000F9244803F079FF002404F1200355F82310E7
:2055200001341F4803F070FF202CF5D1194802F0EFF81D4803F068FF1C4D002455F8241054
:205540001748013403F060FF202CF7D1114802F0DFF8174803F058FF002404F1200355F8FD
:20556000231001340E4803F04FFF202CF5D1094802F0CEF833680133336022B0BDE8F081C7
:20558000D81700201C180020D0470020A4B20100B8B20100A4BC0100C0B20100C8400020B3
:2055A000C8B20100D0B20100D8B20100C83F0020E0B2010010B50388044653B1782B04D192
:2055C0000F4807F017FF50B910BD00230380032010BD92B111680A4807F0EEFE05E00848D5
:2055E00007F0F4FE0748FFF747FF78232380044807F000FF0028E7D0F1E70280022010BD8F
:20560000CC170020A4BC010000B583B002A941F8040D034808F062F903B05DF804FB00BFE5
:20562000D40E0020F0B5002706463C463D4683B0304600F0E5FA0195019B9C4206DD00BF21
:20564000019B01330193019B9C42F8DC304600F0DFFA0195019BC4F5C874A34206DA00BFAE
:20566000019B01330193019BA342F8DB0137B7F5487F06D0B7F5C87FCCBFC7F548743C4679
:20568000D6E703B0F0BD00BF78B110B50446094821460EF00BF908B1002010BD06482146E1
:2056A0000EF004F918B1FF2010BD00207047E07910BD00BF90B80100E8BE0100FF2830B483
:2056C00002460AD0074C0849234625460868496803C32846E27130BC7047044D284630BC3A
:2056E000704700BF20180020D0470020E8BE01002DE9F041834C84B02368834801215B6879
:205700009847236801210A461B687F4898477F4C0DF08AFA02F0E8FC02F05AFC02A8082147
:2057200002F026F802AB03CB206061602046FFF7ABFF774E80B2308020B9A279E37903EBB2
:205740000223338000F0C8FE01F034FB02F07CFC00F04CFA6F49704A0125704B0D602846CD
:2057600015601B68FFF75EFF0DF062FA01F080FE01F0A4FD08F0DEF801F08EFF07F0F8FF4A
:2057800041F2342003F0D8FC02F0C6F908F0B8F9634801F0BDFF4BF201620021614803F0AC
:2057A00033FE614801F0B4FF0DF06EFC00FA05F15E4803F029FE5E4B5E48196803F024FE6F
:2057C0005D4B5E48196803F01FFE5D48002108F085F807F09BFE08F0FBF807F0D3FC594BCA
:2057E0001B682BB901F042FE574A584B10601D700220FFF717FF564803F006FE554B564DCA
:20580000186801F085FF554803F0FEFD544B186801F07EFF534803F0F7FD2968524803F0DB
:20582000F3FDED69A84720B1A84701464F4803F0EBFD0A2001F064FF002302A808214C4DAD
:20584000019301F095FF9DF80F304A4A9DF80E80EF6A43EA0828517C0220B8474146032056
:20586000B84719210120B84708226B6B02A90B209847AB6A01A90120984701993E4803F048
:20588000C3FD3E4803F0C0FD3D4DEF1D15F8011F3C4803F0B9FDBD42F8D1E1793A4803F08B
:2058A000B3FD3188394803F0AFFD0DF0DDFF384B626821685A6019600DF0F2FB354C0021F1
:2058C000354808F00BF80220FFF7ACFE217811B9324808F003F8324807F048FC01F0EAFE30
:2058E0000120FFF79FFE23780BB901F091FA07F05DFF044601F0F6FE14F0FF0FF7D102F0CB
:20590000EFF9F4E7D801001000400340D04700207A3B00200C400940080009402C200940D1
:2059200000B301001CB3010034B3010044B30100102108405CB301000400094074B3010005
:205940000410002080230020C8410020B83F00208CB3010050BF010058C0010094B301005F
:20596000F0BE01009CB301009C920100A4B301005CB6010088FF0100C8B30100DCB30100FA
:20598000CF470020F0B30100F8B3010000B4010084430020FF47002080100020E40E0020BD
:2059A000E09001002DE9F04104880646772C30D07E2C27D024B1002303800320BDE8F0815F
:2059C00007F0CEFE2F4F304B304D3A6818702C60002A45D02346A0462D4C04F80380936857
:2059E0008020002198472B68013357F823202B60002AF2D1DBB2274A137077233380012047
:205A0000BDE8F081204B1B788B4219D00120BDE8F081DFF880801D4D98F800201E4F002304
:205A200093423B602B6007DA194CE156002919DB013393422B60F7DB3B68002BEFD1DCE71A
:205A4000124D134CDFF84C80134F2B683A68E05C511C00F07F0098F80020E0543960E7E7EB
:205A60001346C8E70849074A097852F82320002007F0FCFE0028E8D17E2333800120BDE862
:205A8000F08100BFF40E0020FE47002028180020E83B00209C3B00202C18002010B40F4B33
:205AA0001C7864B10E4A1368984214D0002303E052F8041F88420CD00133A342F8D1094A5E
:205AC0000948135D63F07F0313555DF8044B07F025BF1C46F3E70024F1E700BF9C3B00205B
:205AE000F40E0020E83B0020E40E0020F8B53A4D2C7828704440A10714D500F0020000F0C8
:205B0000FF07002835D0354B1A68002A5CD01B68002B50D0E2072B7807D41846BDE8F8408A
:205B200000F09AB80346E207F7D513F001060CD02A4A1268002AF0D101F098FC284C294AFA
:205B400001212B78A0639173E7E7264CA27B002AE3D001F08BFC2449214B8A6B9F6B2B784C
:205B6000D21B10448863A6731846BDE8F84000F073B81C4E337B7BB9737B1A4E002BC9D024
:205B800001F074FC184A1649536B4F6B0021DB1B184450637173BDE701F068FC124A1049B3
:205BA000136B096B37735B1A184410632B789B07E2D50A4BABE701F059FC0A4B0849012213
:205BC0005A7348632B78AEE701F050FC054E044A012310633373E9E79D3B0020802300206F
:205BE000C8410020B83F0020743F002008B500F017F8024B00221A7008BD00BF9D3B002061
:205C0000024B1B781843FFF771BF00BF9D3B0020024B1B7823EA0000FFF768BF9D3B00206A
:205C20000A4B1A6802B1704710B50122084C1A6023680420DB6B984723680720DB6B9847C2
:205C4000044A136823F09003136010BD30180020B401001080200240084B094A18701368DD
:205C600023F090031360C20702D5064B01221A70830702D5044B01221A7070479E3B002060
:205C8000802002400420024007200240813801289ABF024B18680020704700BF7418002009
:205CA00038B50B4CA37953B101F0E0FB094A0A4993698D6900215B1B18449061A171074BD4
:205CC00003221A600648BDE83840FFF7E7BE00BFB83F0020743F0020C841002074180020A1
:205CE00020B4010030B5044683B07721002000F07BFF6CB1154B1B688BB125238DF807300B
:205D00000DF107010122F4200EF0CEFE03B030BD0F4DAB795BB900238DF80730F0E701F0A1
:205D2000A5FB0C490A4B012288619A71E5E701F09DFB094A074993698969AC715B1A18442E
:205D4000002390618DF80730DAE700BF80230020B83F0020C8410020743F002030B5802890
:205D600085B016D0812810D11D4C206878B151B30120FFF7B7FF1B4803211B4A002307F08D
:205D8000FFFB0220206005B030BD154B186805B030BD134C012500207721256000F024FF6E
:205DA0001249182288200EF071FE04A9B62301F8013D2A46E0200EF077FE0020FFF792FFF2
:205DC000206805B030BD0748019107F01DFC01990846FFF787FF01231846236005B030BD9D
:205DE0007418002054180020A15C00003C180020F8B5534B1B68032B40F09A80431E012B27
:205E000000F296804F4C00237721054623601846A38000F0E9FE2146F72006220EF036FE26
:205E200000287ED0E178484A23796079090341EA0311168841EA1013C6EB131101FB01F192
:205E4000B2F9047076000913B2F90200C6EBD30307FB01F100FB03F0891301EBE02047109C
:205E6000A7F57A4E4FEAAE0606FB06F6B2F90810B2F90A70731301FB0EF103FB07F3B2F9C8
:205E80000E70491007FB0EF701EBE303B2F806C09B14B2F910E003F50043F61279000CFBD5
:205EA00003F30EFB061726786178B2F90CE094F802C036034FEA0E4446EA0111DB13906185
:205EC00004EBA70741EA1C1127D040F635444942A1EB273104FB01F101F1434101F5A001BA
:205EE0000029B3BFB1FBF3F34900B1FBF3F35B00D90801FB01F1B2F91440B2F916609F08A9
:205F0000490B04FB07F401FB06F1B2F91260621302EB2131314403EB2113012D0BD0184671
:205F2000F8BD204606210EF0DBFD4FF00040F8BD4FF00040F8BD00EB800080300012F8BDFF
:205F400074180020341800203C180020014B1868704700BF98180020F0B506461E4C83B015
:205F600000204521256800F03FFE86B11B4B1B68C3B141F2C2020123ADF8062023600DF1E6
:205F80000601022201200EF08FFD03B0F0BD144FFB797BB905F002054FF486532560ADF87E
:205FA0000630ECE701F062FA0E490D4B0122C861DA71DEE701F05AFA0B4A0A49D369C96925
:205FC00005F002055B1A18444FF48653FE71D0612560ADF80630D2E798180020802300208C
:205FE000B83F0020C8410020743F002030B5002083B0452100F0F8FD01200DF106010222C1
:206000000EF044FDBDF90630002B07DB0E4810210E4A002307F0B4FA03B030BD0C4CE3794D
:2060200053B101F023FA0B4A0B49D369CD6900215B1B1844D061E1710848FFF72FFD084BF8
:2060400002221A6003B030BD78180020ED5F0000B83F0020743F0020C841002038B4010006
:2060600098180020802810B50DD0812809D10C4671B90D4807F0C8FA2046FFF76DFF2046CB
:2060800010BD002010BD0020FFF766FF002010BD0120FFF761FF04481021044A002307F082
:2060A0006FFA012010BD00BF78180020ED5F0000813801289ABF024B18680020704700BF30
:2060C000BC18002038B51A4C637953B101F0CEF9184A194953694D6900215B1B1844506107
:2060E0006171164C164A237803211160B3B1154D0020432100F078FD2846042100F0E4FBCB
:2061000020700020014600F06FFD29886A880E480E4D49BA52BA2378298002800C4901228B
:206120000B7022700B48BDE83840FFF7B7BC00BFB83F0020743F0020C8410020A03B0020AC
:20614000BC180020C01800207E3B00207C3B00209F3B002048B4010070B5802884B016D0C5
:20616000812810D1314C206878B100292DD1304D6B79002B44D12F4807F046FA012318466F
:20618000236004B070BD294B186804B070BD2A4B00242A4A2A4D20461C60432114802C80BC
:2061A00000F022FD04A91023022021F8023D02460EF07AFC234B21461870204600F014FDF6
:2061C0001A4B0120186004B070BD1E4D2B7873B11D4B1B680BB34321002000F005FD00206F
:2061E00000F032FB28700020014600F0FDFC11480321164A002307F0C3F902202060C4E79A
:20620000019101F033F9124E124A7669536901999B1B184469715061ADE701F027F90C4947
:20622000034B012248615A71D5E700BFBC180020B83F00209C180020C01800207E3B00204E
:206240007C3B0020A03B002080230020C5600000C8410020743F00208138012801D90020AC
:20626000704708B5034B17201B685B689847C0F3804008BDB401001028B1012806BF054BEC
:20628000D86800207047044B1868C0F3C05080F001007047C4180020C0200240802810B5A2
:2062A00009D0812805D1D1B9174B17201B685B6B9847012010BD144B144A1B684FF40001C9
:2062C00011601B6817200021114A9847114B00221A601720104901F0A1FE012010BD0A4CDC
:2062E0000A4A23684FF4000111601B6817200021074A9847074A2368002111601B6B1720D4
:206300009847012010BD00BFB4010010E0200240004007205C1A44421D630000172800D0F8
:20632000704738B50E4C204607F044FB00B938BD2046042107F02AFB0A4B1D68C5F3C055C7
:206340004DB101F007F8A368C31AE3600648BDE83840FFF7A3BB00F0FDFFE560A06038BD3F
:20636000C4180020C020024068B401008138012801D90020704708B5034B18201B685B68C6
:206380009847C0F3804008BDB4010010802810B509D0812805D1D1B9174B18201B685B6BEF
:2063A0009847012010BD144B144A1B684FF0807111601B6818200021114A9847114B00229B
:2063C0001A601820104901F029FE012010BD0A4C0A4A23684FF0807111601B6818200021FA
:2063E000074A9847074A2368002111601B6B18209847012010BD00BFB4010010E0200240AE
:2064000000600620601A44423D64000068B1012809D110B5074B1C6800F09CFF8034201A25
:20642000C043C00F10BD00207047034B1868C0F300607047D4180020C0200240182800D010
:20644000704708B500F086FF084B1860084807F0B1FA00B908BD06484FF4007107F096FA8F
:20646000BDE808400348FFF719BB00BFD4180020D81800207CB4010010B5064C0420236848
:206480005B699847236804205B6B98470128F9D110BD00BFB8010010FFF7EEBF032801D01E
:2064A00000F0E8B808B5094B00219B6881209847074B00219B6881209847064B81209B68AC
:2064C00000219847BDE8084000F0D4B820B4010038B4010048B40100F8B50CF0A5FB0646FF
:2064E000FFF7CAFF294B4FF4A0601B68DB699847274B0121274A196013689B07FCD5264CA2
:2065000000F08AF82378002B3DD0244801F054FD247814B1002E32D0F8BD214D14202B680D
:206520000127DB6B98471F4A2B681470DB6B132098471D4A2B681470DB6B122098471B4AFC
:206540002B681470DB6B0E209847194A2B681770DB6B0D209847174A2B681470DB6B0F2015
:206560009847154A2B6814703846DB6B9847134A2B6814709B6B18209847002ECCD1BDE822
:20658000F8400CF055BB0EF08BFDBEE7B80100102820086028200840FF470020140F0020DA
:2065A000B40100101420024013200240122002400E2002400D2002400F2002400120024004
:2065C00010B5094B09481B685B68984710F00C0F044605D0064B04221A6002200CF02CFBBC
:2065E000B4FA84F0400910BDAC010010002000400428004008B5064B02201B685B6B984782
:20660000012803BF034B186800F00100002008BDB80100106020084070B5104D02202B6823
:206620005B6998472B6802205B6B9847012804460A4BF7D11B684FF44070DB699847084BE1
:20664000084A1C6013689B07FCD5074B07481B6807491B680122BDE870401847B8010010E7
:206660002820086028200840AC01001000200040006CDC02174B10B5FF221A70FFF7BAFFF2
:2066800020B11549154A00230B601360144B4FF440701B681B6A9847124B0121124A1960DE
:2066A00013689B07FCD5114C052023689B6B984723684FF4804105209B69984723680620B2
:2066C0009B6B9847236806209B694FF48041BDE8104018475E110020042800401004054272
:2066E000B80100102820086028200840B40100102DE9F04706464F4B4F481B784F4A5B007B
:20670000036033780F46136000F0B0FE4C4B1A6854060ED51C464B4D2D1A00F0A7FEC542D2
:2067200002D40020BDE8F08700F0DCFF23685906F3D4434C0323236002200CF07DFA00F00E
:2067400095FE2368DB070AD53E4D2D1A00F08EFEC542E6D500F0C6FF2368DA07F6D4FFF769
:206760002FFF012F034635D90028DAD0334DDFF8D0900136022407F1FF3816F8012B631E94
:2067800043452A6003D3A74226D90134F5E70123C9F8003002200CF04FFA00F067FED9F876
:2067A0000030DB070ED5DFF89CA0C0EB0A0A00F05DFE1AEB000FB4D500F094FFD9F80030A6
:2067C000D807F4D4FFF7FCFEA742034602D90028DBD1A6E7002BA4D0194C052323600220E3
:2067E0000CF02AFA00F042FE00F5CC5519352368D90707D500F03AFE401B002891DA00F098
:2068000071FFF4E7FFF7DCFE044600F02FFE0C4E00F5CC55193533685A0602D42046BDE85C
:20682000F08700F023FE401B0028BFF67AAF00F059FFF0E7A13B002000280040082800407C
:206840000428004067E6FFFF38B51A4B1A4A1B781A495B000B60106000F008FE184B1A68C4
:2068600054060DD51C46174D2D1A00F0FFFDC54201D4002038BD00F035FF23685906F4D41C
:206880000F4C0723236002200CF0D6F900F0EEFD2368DB070AD50B4D2D1A00F0E7FDC54262
:2068A000E7D500F01FFF2368DA07F6D4BDE83840FFF786BEA13B00200828004000280040AD
:2068C0000428004067E6FFFF2DE9F047444B454A1B7806465B0043F0010313600F4600F06D
:2068E000C5FD414B1A6852060ED51C463F4D2D1A00F0BCFDC54202D40020BDE8F08700F0A6
:20690000F1FE23685B06F3D4374B0B221A6002201C460CF091F9DFF8D8A007F1FF390125FD
