:10000000A87B0520991A000065710000851A000080
:10001000851A0000851A0000851A0000851A000064
:10002000000000000000000000000000FD1B0000B8
:10003000851A000000000000951B0000851A0000D2
:10004000811D0000811D0000811D0000811D000038
:10005000811D0000811D0000811D0000811D000028
:10006000811D0000811D0000811D0000811D000018
:10007000811D0000811D0000811D0000811D000008
:10008000811D0000811D0000811D0000811D0000F8
:10009000811D0000811D0000811D0000811D0000E8
:1000A000811D0000811D0000811D0000811D0000D8
:1000B000811D0000811D0000811D0000811D0000C8
:1000C000811D0000811D0000811D0000811D0000B8
:1000D000811D0000811D0000811D0000811D0000A8
:1000E000811D0000811D0000811D0000811D000098
:1000F000811D0000811D0000811D0000811D000088
:10010000811D0000811D0000811D0000811D000077
:10011000811D0000811D0000811D0000811D000067
:10012000811D0000811D0000811D0000811D000057
:10013000811D0000811D0000811D0000811D000047
:10014000811D0000811D0000811D0000811D000037
:04015000811D00000D
:1001540053B94AB9002908BF00281CBF4FF0FF312A
:100164004FF0FF3000F00CB8ADF1080C6DE904CE8F
:1001740000F008F8DDF804E0DDE9022304B070477C
:10018400704700BF2DE9F04786468C460846089E16
:10019400154674461946002B40F0C1808542B2FAD8
:1001A40082F245D94AB1C2F1200300FA02FC95401B
:1001B40094402EFA03F343EA0C0C4FEA154EA8B20E
:1001C400230CBCFBFEF80EFB18CC08FB00F943EA39
:1001D4000C43994528D9EB1808F1FF3704D2994507
:1001E40002D9A8F102072B44A3EB0903A4B2B3FB81
:1001F400FEFC0EFB1C330CFB00F044EA0344A0425B
:1002040014D92C190CF1FF3304D2A04202D9ACF159
:1002140002032C44241A43EA07401EB1D4400023AD
:1002240034607360BDE8F0874746DDE76346F1E775
:1002340092BB431B01214FEA154EAFB2200CB3FB16
:10024400FEFC0EFB1C330CFB07F840EA0343984505
:1002540061D9EB180CF1FF3004D2984502D9ACF106
:1002640002002B44A3EB0803A4B2B3FBFEFC0EFB79
:100274001C330CFB07F744EA0344A7424DD92C195D
:100284000CF1FF3304D2A74202D9ACF102032C448F
:10029400E41B43EA0040C0E7C2F1200395409440C8
:1002A40020FA03F12EFA03F34FEA154E9040AFB251
:1002B4000343B1FBFEFC0EFB1C10190C0CFB07F8EE
:1002C40041EA0041884522D969180CF1FF3004D273
:1002D400884502D9ACF102002944A1EB08019BB284
:1002E400B1FBFEFC0EFB1C110CFB07F743EA0143B8
:1002F4009F420ED9EB180CF1FF3104D29F4202D970
:10030400ACF102012B44DB1B41EA004193E7604658
:10031400E3E76146F7E76046A4E76346B8E783424C
:1003240006D916B9002108467CE7C6E900E0F9E7DA
:10033400B3FA83F78FB9834201D3724508D8BEEB71
:10034400020460EB030301209C461EB9002169E707
:100354003846FAE7C6E9004CF8E7C7F1200CBB4081
:100364000EFA07F522FA0CF42EFA0CF1BA401C43EB
:1003740020FA0CF3B8404FEA144901431FFA84FEF3
:10038400B3FBF9F809FB18300B0C08FB0EFA43EA2F
:1003940000439A4540D9E31808F1FF3004D29A4546
:1003A40002D9A8F102002344A3EB0A0389B2B3FBE8
:1003B400F9F809FB183308FB0EFE41EA03418E45A8
:1003C4002CD9611808F1FF3304D28E4502D9A8F163
:1003D4000203214443EA0040A1EB0E01A0FB029872
:1003E4004145CE46434602D306D14D4504D2013899
:1003F400B9EB020E68EB0403002EA7D0B5EB0E0296
:1004040061EB030101FA0CFC22FA07F3F9404CEA10
:100414000303C6E9003199E74046C5E74346D9E7F7
:10042400F0B5304B304A85B0C2F80036C2F8043615
:10043400C2F80836C2F80C36C2F81036C2F81436C0
:10044400C2F81836C2F81C3602F58052C2F80036DB
:10045400C2F80436C2F80836C2F80C36C2F81036B0
:10046400C2F81436C2F81836C2F81C3600F052F836
:1004740001A800F0A9FE1D4B1B68834200D0FEE7D3
:100484004FF48031002003F0A7F800B1FEE701200B
:1004940003F088F969469DF8080006F068FA0446F6
:1004A40008B106F0CAFE009B039D1D44019B1E89F2
:1004B40003F07AF8AF1900F0B1FE00F093FE01F0FA
:1004C40019FB84F30B8884F30A88AB5983F30888F7
:1004D40084F31488BFF36F8FBFF36F8F7B689847E3
:1004E400FEE700BF3546526E00800150B023002065
:1004F40021B1012906D06FF015007047044B53F861
:1005040030007047024B03EBC0035868704700BFCC
:10051400489400004FF4C051014803F075BE00BF79
:100524005C3101202DE9F04F9B46F7B0814B0390DD
:1005340036A80E46DDE9817914461D6808F0F0F905
:10054400002136A803F098FF3FB1B9F1000F04DD94
:100554004A46394636A808F0ECF94FF000083389CA
:100564007289D6F80CA013449A44C2456DD80CA9DC
:1005740036A808F01DFA36A808F0D6F9839B5BB1BB
:100584000CAF0DF1500C3A4603CA6245186059602D
:10059400174603F10803F6D100232246009331469F
:1005A4004FF6FF7306A806F0EAF9804600285CD1EE
:1005B400214603980B9E06F091FA864255D84FF0D7
:1005C400FF36DFF874A1DFF874910DF1120304AA69
:1005D40005A906A806F021FA002846DB40F0A2800F
:1005E400059906A806F065FA50B94FF6FF71BDF8F3
:1005F4001200534A32F8023B8B4236D09842F9D16A
:10060400BDF81270102F3AD0202F6DD0012FDCD1FD
:10061400BDF81030202B28D82046059936AA06F0BC
:1006240009FD064608BB9DF810B0BBF1200F09D8A0
:10063400D9F80030434F0393039B1CA89E4236DB3A
:1006440008F072F94FF0FF36BFE7809BAAEB080968
:10065400994528BF99465A464B464146204606F0DE
:10066400E9FC28B136A808F05FF9324B1D685CE05C
:100674004A46594636A808F05CF9C84475E7BDF8FF
:100684001070202FF1D13B462046059936AA06F07A
:10069400D1FC0028E9D13A4636A90CA806F017FA8D
:1006A400DAF800308342E0D14FF001088DE708F01A
:1006B40037F900211CA803F0DFFE7A681CA8126831
:1006C40057F8081B08F035F914A91CA808F070F9AC
:1006D4005A4636A914A808F072FC18B91CA808F0E8
:1006E40023F972E70136A7E7731C3FF46EAFD9F81C
:1006F4000030B342A6DDBDF81030B3F5807FB4D12D
:100704002046059936AA06F095FC0028ADD1F6B22C
:100714003946BDF81030009636AA0CA800F0AAF8A5
:1007240005468FE7B8F1000F9FD0284677B0BDE8A3
:10073400F08F00BF08200020B02300205894000050
:10074400A49800005C9400002DE9F04789461946FE
:10075400464BADF5AE6D1E68DDF89035B3F5807F80
:100764007ED1202A7CD15CAA03F03EFE04460028F8
:1007740076D19DF86F32BC2B72D10DF19008DF2732
:10078400454601900AA808F0CBF800210AA803F016
:1007940073FE20220DF24F210AA808F0CAF80422A1
:1007A4000AA80DEB020108F0C4F802A90AA808F08F
:1007B400FFF8202FBA46A8BF4FF0200A9DF8073053
:1007C40040460133524602A9A7EB0A078DF80730C9
:1007D40008F0C6FB002FD044D4DC0AA808F0A4F823
:1007E400AC462946DF225CAB087813F8017B013A5A
:1007F40080EA070001F8010BF6D12B7803F07F03A0
:100804002B701CF8017B5FBB0134BE2CF9D195F829
:10081400BE30012B24D10AA808F082F839460AA870
:1008240003F02AFE082212490AA808F082F8494671
:1008340020220AA808F07DF820220DF24F110AA800
:1008440008F077F802A90AA808F0B2F80AA808F094
:100854006BF820220DF24F2102A806F038F9064663
:1008640030460DF5AE6DBDE8F08700BF08200020CE
:10087400F89800002DE9F04F1F46A3B02F4B804697
:1008840004A89DF8B0501E688946924608F009F8FD
:100894000922012104A803F069FD294B03AA53F896
:1008A400354003EBC5035B6802941B6802A81C4433
:1008B4002146302307F0DCF8002838D1DDE9023284
:1008C40013449C4233D1214606AA02A807F0E4F857
:1008D40068BB0DF1200B5A46214602A807F0DCF84C
:1008E400054620BB06A807F089FC029B05909C42A4
:1008F4001DD12B462A46CDE9005B06A904A807F0C2
:100904008DFFA0B904A803F049FD80B906A807F03B
:1009140075FC059004A807F0C8FF874207D1534629
:100924004A464146009704A8FFF70EFF064604A86E
:1009340007F0BDFF304623B0BDE8F08F082000204B
:100944005C940000034637B54FF40062084693F800
:10095400B84013490192620051F82250A8420ED1C6
:10096400582101FB043201FB0434526A283401A9E2
:1009740006F0D2FB08B9019B236003B030BD0132FD
:1009840051F82220904208D1582101FB043201FB86
:100994000433126D03F15404E9E70120EDE700BFCD
:1009A4006494000070B590F8B850104E6D0056F87D
:1009B40025100446FFF7C6FF98B9013556F82510EF
:1009C4002046FFF7BFFF054668B9582294F8B830AF
:1009D40002FB0343186A06F06FFBC4F8B400284610
:1009E40070BD0125FBE70925F9E700BF6494000009
:1009F4002DE9F04F4FF02C08582508FB01F890F82A
:100A0400B890044605FB098303441E6A0F4687B069
:100A14000EB906F012FC304606F055FB024694F877
:100A2400B80015FB008525446B1E033513F8011F20
:100A3400914240D1AB42F9D13A4B1D6833E03A4B75
:100A44001D683A4B1B68AB4207D0002FF4D000213D
:100A54003046B26806F018FBEEE7582294F8B83036
:100A64005343E218D16C8E421DD1D2F8208000226B
:100A740005922C2202FB07332344198904233046B0
:100A840005AA194406F0D6FA0028D5D194F8B8304E
:100A9400012B0CD03BB9D8E90123134405999142A9
:100AA400D5D39942D3D8284607B0BDE8F08F4FF08C
:100AB40082731F4AF2E74FF0580B2C220BFB09F309
:100AC40002FB0733E5182969CA06B5D4E258194B65
:100AD4009A42B4D1EB682A89D218B0D26B899B1898
:100AE400ADD2B2689342AAD240F60C6A11EA0A0A5D
:100AF400A5D1394602F060FE05460F4B1B689842AB
:100B04009FD14FF4807309FB0B810093324620463A
:100B1400CDE902AA094BCDF804A02144FFF702FD58
:100B240005468EE70420002008200020B023002082
:100B3400008800013DB8F396002000205C490120A4
:100B44002DE9F84F884691469A460026DFF88CB086
:100B5400234D244C0B9B9E4201D300200FE00B9BA2
:100B640040469F1BB7F5806F28BF4FF480671B4A30
:100B74003B4606EB0A0106F05DFA10B10120BDE820
:100B8400F88F0A993B465A464846711806F067FAA8
:100B94000028F3D1144BC5F800463E44C5F804467A
:100BA400C5F80846C5F80C46C5F81046C5F81446FD
:100BB400C5F81846C5F81C46C3F80046C3F80446F1
:100BC400C3F80846C3F80C46C3F81046C3F81446E5
:100BD400C3F81846C3F81C46BCE700BFB423002082
:100BE400008001503546526E009001502DE9F04FBF
:100BF400002504460E46A8465827DFF8049295B00F
:100C0400012D84F8B8501DD900257E4F17F8011B1B
:100C140001290CD12846FFF76BFC0EA9C0B200F0E5
:100C240079FC014618B90E98826806F02DFA002D59
:100C340000F0D880B8F1000F00F04B8100232C277E
:100C44005825D7E0631993F8B910002958D107FB48
:100C5400054209EB8533536203F5004328461365C7
:100C6400FFF746FC94F8B810C0B207FB01412031ED
:100C740000F050FC60B901212846FFF739FC94F8D4
:100C8400B810C0B207FB01414C3100F043FC08B17D
:100C940006F0D3FA2046FFF785FE48BB0021204624
:100CA40005F077FF8246002840F09580204605F045
:100CB400AFFF002800F08F800AA805F093FF05F02D
:100CC4009AFF054608BB94F8B830002BE0D094F89E
:100CD400B020042A04BF012284F8B020012BD7D00D
:100CE40094F8B130042BD3D1012384F8B130CFE789
:100CF400012294F8B8309042234483F8B020CDD137
:100D040094F8B8500135EDB27AE79DF82FB0BBF1F5
:100D1400010F4ED1582294F8B830CDF838A002FB18
:100D24000343394AD96AD86C91422BD1998E042352
:100D34000EAA194406F07EF9F8B14FF0050A94F8AA
:100D4400B830234483F8B0A094F8B8306BB1E218FB
:100D540092F8B020012AD3D0042A0CD094F8B02001
:100D6400042A02D1012284F8B020234493F8B0303D
:100D7400023B022BC4D8A846C2E7022194F8B8303B
:100D8400204AD15494F8B80002F0C2FD831E022B0D
:100D94008246D4D801212046FFF72AFE1B4B1B684C
:100DA4009842CCD01A4B1B689842C6D14FF0010A26
:100DB400C5E701212046FFF71BFE144B1B68984230
:100DC40018BF052294F8B830234414BF83F8B02028
:100DD40083F8B0B0B8E7012294F8B830234483F81C
:100DE400B0208DE7012511E7E21892F8B91089B116
:100DF4000133DBB2012B84F8B830F5D969E000BFC8
:100E0400B42700205C4A01203DB8F396B0230020AB
:100E14000420002092F8B01001F0FB01013918BF42
:100E24000121794305FB03122244D2F82080B8F152
:100E3400000F3FF42DAF03FB05110123424600933D
:100E4400214440230EA805F09AFD00285ED100231A
:100E54000DF1160206A90EA805F0DFFD002838DB07
:100E640051D1BDF816300C2B52D14046069907AA31
:100E740006F0E0F868BB9DF81C30012B29D8E21875
:100E840092F8B0206B43023A022A8CBF002201225E
:100E940007FB02332344197D9DF820209142D6D8C4
:100EA4000AD3597D9DF821209142D0D804D3DA8AFF
:100EB400BDF822309A42CAD294F8B830234493F849
:100EC400B020012A1DD0023A012A02D8012283F857
:100ED400B02000254FF0FF085827012D84F8B850A2
:100EE4001BD90023DFF8D082B44DB54F0E93012BEC
:100EF40084F8B83040F2F7800E9B022B00F03D815D
:100F0400FEE70422E3E794F8B83071E70328E0D160
:100F140040F20113A4F8B030DBE7621992F8B9A0EB
:100F2400BAF1000F40F0D4800AA805F05BFE92F8F5
:100F3400B030042B8DF82F3006D8012B06D800F0E2
:100F4400BF8082F8B080BBE0052BF8E707FB0543C0
:100F540019462846DA6C2C3106F0DAFC0128814661
:100F640040F0BE8001460EAA2046CDF838A005F018
:100F7400B8FD00287FF48CAE94F8B85006A907FB9E
:100F840005431B6A187800F0C5FA00287FF480AE88
:100F94008C4B09EB450513F8250007A900F0BAFAB4
:100FA400054600287FF474AE81464FF0580B94F840
:100FB400B83007FB0343D3F828A0CA451AD094F8E5
:100FC400B83029460BFB03435B6A069803EBC9035D
:100FD4005A68039206F058F800287FF459AE039A31
:100FE4000E9B15449D4278D3D4F8B450B3FBF5F36B
:100FF40005FB0355D4F8B40005F06BFD582394F8B1
:10100400B82003FB0242536A926A1968013A03EB5F
:10101400C2030022D3F804E09C4672449042A3F138
:101024000803F7D8DCF800300698591A06F02CF8B3
:10103400034600287FF42CAEDDE90621CDE9000546
:101044002046FFF77DFD00287FF422AE069802F0CB
:10105400E7FB00287FF41CAE4FF0580994F8B80061
:101064002A4609FB0043196A06F060FC0146002881
:101074007FF40EAE94F8B830079809FB03431B6D58
:101084005A6806F001F800287FF402AE94F8B830EC
:1010940009FB0343D3E91423013B52F8331002EB59
:1010A400C30013684268C91A079805F0EDFF0028C9
:1010B4007FF4EEAD069805F0BCFF079805F0B9FF84
:1010C40094F8B830234493F8B030FF2B3FF4E0ADEC
:1010D40094F8B8500135EDB2FFE609F101096CE767
:1010E4000028EDD0D4E5234493F8B9208DF81C20D2
:1010F4009DF81C2002F0FF013AB10E9B01330E93C0
:1011040094F8B8300133DBB2F1E693F8B030012B38
:101114000FD0204605F03DFD58B1D8F8005000230B
:101124005826012B84F8B83012D9284615B0BDE8EA
:10113400F08F00212046FFF75BFC2B688342ECD143
:10114400D8F800209A42E8D03A689A42D5D1E4E728
:10115400E21892F8B9205AB906FB0343D86C05F09B
:1011640068FF94F8B83006FB0343186A05F061FF82
:1011740094F8B8300133DBB2D3E794F8B9301BB13B
:1011840094F8BA30ABB90123582505FB034284F81F
:10119400B830106A05F0F1FB307194F8B83005FBF3
:1011A40003431B6A5B68B36094F8B83003FB0545DE
:1011B4003560024B1D68B2E708200020B0230020F0
:1011C4000420002064940000054B10B5BC220446A2
:1011D4000021184607F0EBFE2146FFF707FD10BD7E
:1011E400B4270120BFF36F8F72B600234FF0FF3096
:1011F400094A03F120010133102B42F82100F8D1F0
:1012040000234FF0FF30044A03F160010133102B37
:1012140042F82100F8D1704700E100E02DE9F843DD
:101224004FF0FF3501274FF00008204BDFF8809086
:101234005F60C3F84853C3F8085303F580535F60F5
:10124400C3F84853C3F8085359F8044B002644F331
:101254000730C4F8085300F0EFFC80226760C4F83C
:101264004C61D4F84C31C4F81061D4F81031C4F88E
:1012740044613146D4F84431A018C4F8006507F03D
:1012840096FE8022314604F5C07007F090FEB8F156
:10129400000F08D0074BC3F808554FF05023C3F88C
:1012A4000853BDE8F8834FF00108CDE70040015032
:1012B400789400000070015080B505460E4617462C
:1012C400984604F05BFF034607F08AFE0446DFF805
:1012D4001890424649F8003039463046A84754F839
:1012E400090000F03FFC00BF080000002DE9F047B2
:1012F400058B04462807904611D4022905F00705FA
:1013040040F0CC80204605F0BCFD78B10138218B3B
:10131400042811D8DFE800F0C2106D85950001297A
:101324000CBF45F0100545F02005258388F311888E
:10133400BFF36F8FBDE8F08701F0070AAA4500F0FC
:10134400A5800027B9463E46A368002B00F0BC8068
:1013540041F00801218388F31188BFF36F8FA168DE
:10136400002900F0BA800D68002900F0B6803346E9
:1013740052462046D1F80480C047002D76D02B6811
:1013840029461D46F0E701F007035A1F012A1BD81E
:10139400002221F00701062B276889B2C4E9002244
:1013A40009D13B4603E0628B013262831B68002B48
:1013B400F9D141F002012046218305F062FD0028A5
:1013C4007AD041F0200176E0042B0AD121F0070104
:1013D40089B22046218305F054FD10B141F020016B
:1013E4002183218B01F0070AAA454FD00027B94673
:1013F400AAE7236921F0070141F00601062DD3F87D
:10140400009021832DD1B9F1000F3FD041F00801A4
:10141400218388F31188BFF36F8F20463949C84769
:1014240029E021F00701236941F0040189B2042D68
:10143400D3F804902183E6D000274FF0040A3E46F7
:1014440082E721F00701236941F0050189B2052DE6
:10145400D3F808902183D6D000274FF0050A3E46E2
:1014640072E700274FF0060A3E466DE72B4687E7F2
:10147400B9F1000FD1D1EFF31188202383F312883F
:10148400BFF36F8F238B23F008032383258BEA0696
:101494002ED525F01003238305F007056669218BFB
:1014A400002EBFF670AF00232768C4E9003321F093
:1014B400070141F001012183218B4FF0000901F064
:1014C400070AAA457FF440AF002F9CD041F00801E1
:1014D400218388F31188BFF36F8F002FC8D03D6834
:1014E400394633465246204605F0F7FC2F46F4E7CA
:1014F400AB067FF51BAF25F02003238305F007051A
:1015040000E700BF0B6F0000014B03600020704731
:101514008094000070B5104B0D461C68B4B10F4B9D
:10152400196800238B4202DB6FF0010070BD224674
:1015340012F8106B864202D014460133F2E7E068D9
:1015440007F049FB28B100202C60EFE76FF00C0096
:10155400ECE76FF01200E9E70C2000208094000013
:1015640010B5436888B0029383680C46CDE9033212
:1015740000230A68C068CDE90623054901AA05933A
:1015840005F0EBFE079808B9059B236008B010BD71
:10159400D9700000014805F0A7B800BF44950000C9
:1015A40038B5044618B90F4B0F485B689847616813
:1015B400B1F5683F10D0B1F5680F0DD00B4DA942BD
:1015C4000AD011F46861206807D00146084807F082
:1015D4005DFB00232360656038BD142207F0E7FC3F
:1015E400F9E700BF102100200E9A00002C5F5CA9CF
:1015F400702D012008B560B34368B3F5683F0ED081
:10160400B3F5680F18D0144A934220D000684FF005
:10161400FF324FF0FF3304F051FA58B115E00122C4
:101624000368D3E8EF1F002903D1C3E8E02F0028A3
:10163400F7D10AD1002008BD0368084A1B7803F5D6
:10164400807352F82330002BF4D00548F3E70548A3
:10165400F1E76FF4E040EEE72C5F5CA90000035073
:10166400E98FFFFFEA8FFFFF08B520B34368B3F5A6
:10167400683F09D0B3F5680F13D0114A93421DD0C7
:10168400006804F093FA14E000220368D3E8EF1F23
:10169400012903D1C3E8E02F0028F7D109D0094874
:1016A40008BD00210368084A1B7803F5807342F8DB
:1016B40023100020F4E76FF4E040F1E70348EFE77C
:1016C4002C5F5CA9E98FFFFF00000350EA8FFFFF46
:1016D40010B5044618B91D4B1D485B6898476368EC
:1016E400B3F5683F2FD0B3F5680F2CD0194A934255
:1016F40019D1236803BB4FF0FF324FF0FF3321466B
:10170400154804F0ADF908B923681BB90F4B134809
:101714005B68984714220021206807F048FC4FF4C6
:101724006863636008E0B3F5683F0DD83A2B03D0D3
:1017340040F6BA629342DED1206807F0F1FA63689A
:1017440043F03A03636010BD054AF3E7102100201B
:101754000E9A00002C5F5CA9702D0120349A0000C1
:101764003A00003A08B5064940231422054807F018
:101774007FFABDE808400449044805F027B800BFD3
:1017840070280120702D01204C9500006095000008
:1017940030BFFFF7FDBF00BF2DE9F04105460B4EFA
:1017A400DFF82C80324606EB0807CC1B204609499B
:1017B40007F0D6FBA01942460021083C07F0F7FBCE
:1017C4002C6707F10800BDE8F08100BF00000000AD
:1017D400040000000C940000074A936893F90E106B
:1017E400002907DB526993421FBF044A536843F040
:1017F40080535360704700BF602F012000ED00E06C
:10180400154B9A6A12F0007F9A6A14BF1E201D209D
:1018140012F0807F9A6A18BF1F2012F4801F9A6A00
:1018240018BF022012F4002F9A6A18BF212012F464
:10183400802F9A6A18BF222012F4003F9A6A18BFB8
:10184400232012F4803F9A6A18BF24206FEA0242D0
:101854006FEA12429A62704700ED00E010B5184B2F
:101864000246986A9C6A10F4805F14BF1720162001
:1018740014F4006F9C6A18BF1820A40508D5986A50
:10188400000404D51AB19A6A22F400429A6219201B
:101894000B4B9A6A12F4806F9A6A18BF1A20D20509
:1018A4000CD49B6A13F4005F18BF1C20044A936A8B
:1018B40043F47F43936200230B7010BD1B20F5E7B4
:1018C40000ED00E010B51C4B0246986A9C6A10F0CB
:1018D400100F14BF1120102014F0080F9C6A18BFB9
:1018E4001220A40709D5586B986A000604D51AB1CA
:1018F4009A6A22F080029A6213200F4B9A6A12F0BD
:10190400010F9A6A18BF142012F0200F9A6A18BFA8
:101914001520D40658BF9B6A074B9A6A920642BFA9
:101924005A6A22F400525A629A6A42F0FF029A6298
:1019340000230B7010BD00BF00ED00E0F0B5474B75
:1019440004465B6800258BB0C3F3080385F3118854
:10195400BFF36F8F02F07F40B0F17F4F11D102F0DF
:101964000C0008280DD010074CBF0C46012500229E
:10197400033B8DF80720032B05D8DFE803F024622E
:10198400665F2C46F3E700239DF80720CAB902AE30
:1019940004F12007324620686168083403C2BC425F
:1019A4001646F7D1099A002D53D0C2F3080121B984
:1019B4006FEA52226FEA42220992184602A905F000
:1019C400C5FB0BB0F0BD254BDA6A9107DBD4DA6AAC
:1019D400002AD8DBDA6A5200D5D55A69A16942F4E3
:1019E40080725A61BFF34F8FBFF36F8F5A6931F81A
:1019F400021C22F480725A61BFF34F8FBFF36F8FC2
:101A04004DF60272914209D09A6AD2B242B10120D3
:101A14000DF10701FFF756FF0346B5E72368B3E767
:101A24009A6A12F47F4F05D001200DF10701FFF7E8
:101A340015FFF1E79B6AB3F5803FA4D3FFF7E0FEFF
:101A4400EAE700200DF10701E4E700200DF10701AA
:101A5400EDE722F4FF7222F00102ADE700ED00E0B1
:101A6400064B5A6942F010025A615A6942F4806284
:101A74005A615A6922F008025A61704700ED00E089
:101A8400EFF30880EFF3098101B57246FFF756FFC3
:101A940001BD00BF002080F31488BFF36F8F0020C6
:101AA40080F30A8880F30B880F4880F3088802F0DB
:101AB400BDFD00200D490860BFF34F8F00F02CF8E6
:101AC400202080F311880A484FF40061401880F305
:101AD4000988EFF314800221084380F31488BFF3CC
:101AE4006F8F00F0E1F80000A87B052094ED00E082
:101AF400684A0520002318460649D1F89020C2F30D
:101B04000722934200DB7047C1F89830C1F8A00067
:101B14000133F6E700ED00E010B572B6002484F35B
:101B24001388FFF7E7FF23464FF0FF300C4A03F119
:101B340020010133102B42F82100F8D100234FF08B
:101B4400FF30074A03F160010133102B42F82100F2
:101B5400F8D162B6BFF34F8FBFF36F8F10BD00BFD4
:101B640000E100E0084B9B6883420BD1EFF305834F
:101B740043B1064B5A6842F080525A605A6A22F4C2
:101B840000425A6204F000BB602F012000ED00E027
:101B940016498A684FF030001044EFF3098C80E84E
:101BA400F01F202080F31288BFF36F8F104F4FF087
:101BB40000664A698A603E604FF070041419206818
:101BC4000C4C2060506F0023536780F3118802F19E
:101BD400300090E8F01F8CF3098802F1000004B58E
:101BE40005F0C9FABDE8044070470000602F0120E9
:101BF40004ED00E08C2D01201EF0040F0CBFEFF368
:101C04000880EFF30980816911F8021C0229FFD0D2
:101C140001B5724605F0A0FA01BD00BF40B200282C
:101C240007DB01234109034A00F01F00834042F807
:101C34002130704700E100E040B200280CDB0122B3
:101C44000649430900F01F008240203341F8232055
:101C5400BFF34F8FBFF36F8F704700BF00E100E009
:101C6400054B420953F82220012300F01F0003FA18
:101C740000F01040704700BF00E100E040B20028CF
:101C840001F10101ACBF00F16040064B4FEA411184
:101C9400C9B2ABBF00F5614000F00F0080F800133B
:101CA4001954704714ED00E00B4A08B50B4B22F0B1
:101CB4007F029A60BFF34F8FBFF36F8FD3F88820F2
:101CC40022F47002C3F8882003F00AFE04F0DEFA5E
:101CD40000F048F803F044FE0000000000ED00E0CE
:101CE40042F8203C009B0B4942F81C3C019B21F02C
:101CF400010142F8183C029B42F8081C42F8143CCB
:101D04004FF0807342F8043C0023203A0265436795
:101D1400704700BFBD12000000B50B4B154698601C
:101D2400026F0A4B0E461A60036E83F30B882C462F
:101D340086F309880020064B98472046002100229C
:101D44000023044C204700BF602F01208C2D01206C
:101D540083710000BD1200001022014B1A6170470C
:101D640000ED00E0002320210348C2180133452B75
:101D740082F80013F9D1704700E100E008B5EFF3F1
:101D84000583064A103B02EBC30152F8330049684D
:101D94008847BDE80840FFF71FBD00BF2091000041
:101DA4001FB5094C094A23460121094800F0FAF8F5
:101DB40000230393074B0121E41A01A80193029421
:101DC40000F0FAF804B010BD000007200020002045
:101DD400709500000822002010B50C7A0B6804F0FE
:101DE4001F0223F01F031A43CB68640923F01F0367
:101DF400054943EA440343F00103C1F89800C1F8DC
:101E04009C20C1F8A03010BD00ED00E010B5074BD8
:101E1400D3F89030C3F30723013B984202D8FFF76D
:101E2400DBFF10BD6FF01500FBE700BF00ED00E025
:101E34002DE9F04F0F46144606464FF000084D4D6D
:101E440085B0B84580F29280D6F80490B9F1000FBD
:101E540036D0B9F11F0F40F2878019F01F0F40F000
:101E64008380D6F800A01AF01F0F7DD1504605F0EC
:101E7400C2F9834609EB0A00013805F0BCF9834531
:101E840072D11BF1160F6FD05C456DDDC5F898B0AB
:101E9400D5F89C10C5F898B0D5F8A03021F01F01F2
:101EA40043F01F0AD6E900321A44994202F1FF397D
:101EB4001ED1CA4508D131465FFA8BF005F0A4F96A
:101EC40008F101080C36BCE73146C5F898B0D5F8DE
:101ED4009C3022F01F0203F01F031343C5F89C300B
:101EE400E0B205F091F910F1160F3DD0441CE7E77C
:101EF400C5F898B0D5F8A020013B23F01F0302F0E9
:101F04001F021343CA453146E0B2C5F8A030E8D0F9
:101F140005F07AF910F1160F26D0C5F898B0D5F867
:101F24009C209DF808300AF1FF3A62F304038DF80F
:101F34000830D5F8A0309DF808205B0863F34712F9
:101F44008DF80820D6E900321344009323F01F03D0
:101F54005344A3EB0903013023F01F036946C0B2C5
:101F64000393FFF753FFBEE76FF01504204605B057
:101F7400BDE8F08F00ED00E00522044BC3F8942087
:101F8400BFF34F8FBFF36F8F704700BF00ED00E0CA
:101F9400BFF35F8F0022024BC3F89420704700BF49
:101FA40000ED00E010B5034C2278FFF741FF2070EC
:101FB40010BD00BF5E4A01202DE9F74F294D8A4626
:101FC40006464FF00008AB46274FD0451BDAD6F83B
:101FD4000490B9F1000F3FD031680846019105F033
:101FE4000AF90199044609EB0100013805F003F9E7
:101FF40084424FF014021D4B08D002FB08F36FF02B
:1020040015024BF8032003B0BDE8F08F14F1160F4E
:102014002C60F8D01978A142F5DD02FB08B0C7F8AE
:102024009840C7F89840D7F89C4000F10801007B1D
:1020340064F304000871D7F8A0000C79400860F339
:1020440047140C71D7F89C1021F01F016960D7F870
:10205400A01021F01F01296108F1010814350C3684
:10206400B3E700BF902D012000ED00E05E4A01209F
:10207400F0B54149414CD1F890302568C3F30723AA
:102084009D4287B075D80020FFF782FF3C4BC1F812
:10209400C030854216D13B4C01A82570FFF734FAB5
:1020A40000250646384FAE4213D10020237832492A
:1020B400D1F89020C2F30722934254DBFFF75CFF70
:1020C40000202FE0616801EB0011FFF785FE01306D
:1020D400DFE70199280101EB0513DA683A40B2F50C
:1020E400001F21D0B2F5800F2BD0B2F5801F38D15C
:1020F4005A689B680958013B22F01F0003440120E1
:10210400844623F01F0340EA4C10CDE902218DF8E8
:10211400100002A920780593FFF778FE00281DDA45
:102124006FF0150007B0F0BD5A689B680958013B71
:1021340022F01F0003444FF0020C012023F01F0380
:10214400E1E75A689B680958013B22F01F000344E9
:102154004FF0000C022023F01F03D4E7237801334F
:10216400237001359FE7C1F89830C1F8A00001330E
:102174009EE74FF0FF30D5E700ED00E07C950000CE
:10218400AAFF44005E4A01200000F0FF08B506499A
:10219400064821F00701C1F1005202F5E02204F0E3
:1021A40018FE002008BD00BFAF7B0520A42D012030
:1021B40007B50DF1070002F05DFB114B98421CD1ED
:1021C4004FF480620F4B1049C3F8B8254FF40062F6
:1021D400C3F83C259DF8070006F042FC0B499DF826
:1021E400070006F038FC01209DF80730984002F003
:1021F4003BFB002003B05DF804FB6FF00B00F9E734
:102204000000AD0B00A002502CA0025028A10250E7
:10221400054B03EB8000D0F8003223F0E04343F099
:102224004053C0F80032704700258450012208B59D
:102234000A4B0B49C3F8002502230020C1F8D0360D
:10224400FFF7E6FF1046FFF7E3FFC1F80427C1F8E4
:102254000429C1F8002B002008BD00BF0010005065
:1022640000400050052370B5144D154E2C780134F0
:10227400B4FBF3F303EB8303E41A05F016FB114AF2
:10228400137823B156F82430C01A072814D94FF014
:102294005023D3F8141141B10021C3F81411D3F819
:1022A40014312C700CB9012313702C7805F0FDFA4D
:1022B40046F82400012070BD0020FCE7604A01209C
:1022C400B02D01205F4A012048B1054B054A1B6827
:1022D400B3FBF2F35843044B43F001031847704730
:1022E4006820002040420F00409400000149024849
:1022F40004F016BEA4950000C42D01204FF47F0302
:102304002DE9F041D3F830210646072A0D46D3F8CB
:10231400343120D1023B032B02D8124AD35CD3B10F
:102324004FF050244FF0010800270520C4F8188608
:10233400C4F8147606F08DFB4046C4F8148606F003
:1023440088FBC4F81476C4F8187630462B46BDE8EA
:10235400F041002118474FF050230022C3F81426FF
:10236400F3E700BF709A0000084B70B5C31A0D461E
:1023740007499B10044659434022064804F06EFF67
:102384002B4601462046BDE870401847F42D012035
:10239400B76DDBB680900000402373B50B4C0093FF
:1023A400041B0B460D460A49A41061430646094A1C
:1023B400094804F07FFF011E05DA30462B4602B0BF
:1023C400BDE87040184702B070BD00BFF42D012075
:1023D400B76DDBB6237300008090000010B5EFF3F7
:1023E4001184202383F31288BFF36F8F074A136885
:1023F40023F00201DB07116002D4012006F035FB53
:1024040084F31188BFF36F8F10BD00BF942E012099
:102414002DE9F8430022012106460520FFF72EFC92
:10242400114802F0A7FA114B984219D102F0B2FAFE
:1024340000244FF01C090C27DFF83480356941462D
:1024440009FB045004F06CFD002807DB012307FBA3
:1024540004551C44042CAB67F0D10020BDE8F8837C
:102464006FF00400FAE700BF712500000000AD0B17
:10247400B09500001FB500220123CDE902236B466D
:10248400084ACDF800D0CDF804D004F041FF00286C
:1024940005DB4FF480420023684603F00BFC05B0D3
:1024A4005DF804FB597300000C22104B014602FB3B
:1024B4000033002030B4D3E91C521867EFF31180C5
:1024C400202484F31288BFF36F8F9C6F04F0C00440
:1024D40044F002049C6780F31188BFF36F8F1DB131
:1024E4002B4630BC0248184730BC7047F42D0120FD
:1024F4008090000010B4EFF31182202383F312883C
:10250400BFF36F8F1748016841F002040460C807E5
:1025140007D482F31188BFF36F8F012010BC02F03F
:1025240051BA4FF05021D1F80C04D1F80C14C9075A
:10253400EFD5EFF3118083F31288BFF36F8F0A494D
:102544008B6F03F0C00343F002038B6780F31188A1
:10255400BFF36F8F82F31188BFF36F8F002010BC1D
:10256400FFF7A2BF942E0120F42D0120092813D8CF
:10257400DFE800F005101212121212120E0C074BB3
:10258400986F10F0070007D1FFF78EBF0220FBE71A
:102594000320F9E70120F7E7704700BFF42D01207D
:1025A4002DE9F041012207463649D1E8EF3FC1E861
:1025B400E02F0028F9D133B9334934484B60CB605C
:1025C4008A6004F0C0FC7B1E012B2BD8012F07D19D
:1025D4004FF05023D3F81C3403F00303022B21D013
:1025E40006F0B1FB0546F8B9294B1B78E3B14FF06F
:1025F400502302220646C3F808234FF05024DFF884
:102604009480D4F81824D4F81834D20315D503F0E0
:102614000303022B01D0012F0FD16DB386F3118870
:10262400BFF36F8FBDE8F081EFF31186202383F3AE
:102634001288BFF36F8F0125DFE7C5B1304604F080
:10264400BEFDD4F81835DBB2012BDAD1D4F804215D
:10265400002AD6D00022C4F80421D4F8042102228E
:10266400C4F818252022C8F88021A360C9E70021F6
:10267400212006F0FFFBE4E74FF050230222C3F8C9
:102684000423CFE7F02D0120E02D0120102E01209E
:10269400614A052000E100E000F1744000F5A60065
:1026A4000A289ABF024B33F910006FF00F007047ED
:1026B400C2980000024B0B6001231360704700BFF7
:1026C4004096000000487047DC9500000268154BF6
:1026D400FF2A08BF4FF0FF32C3F824254268FF2ABF
:1026E40008BF4FF0FF32C3F828258268FF2A08BFCD
:1026F4004FF0FF32C3F83025C268FF2A08BF4FF0FD
:10270400FF32C3F834250269FF2A08BF4FF0FF32B5
:10271400C3F838254269FF2A08BF4FF0FF32C3F8D7
:102724003C25704700B00250054B994206D14FF04A
:10273400FF324FF0FF33103003F0BCBA704700BFD4
:102744000000AD0B2DE9FF470F4605461E46904697
:102754004168002A77D0002B75D0042B01D9B30728
:1027640071D117F003046ED1002F6CDBCA6ABB1958
:10277400934268D8284604F0A6FE204604F072FE70
:10278400044648B1012004F06DFE284604F07FFEA3
:10279400204604B0BDE8F087032E1CD83A46042135
:1027A400684606F00CFA044601462869FFF7BCFFA8
:1027B400264B9C4234D132464146684606F0D0FB53
:1027C4003A460421684606F0F7F9044601462869AA
:1027D400FFF7AAFF24E008F06043B3F1005F02D1E1
:1027E40018F0030F2BD0DFF864A0102EB14628BFD9
:1027F4004FF0100941464A46684606F0B1FB3A4696
:102804004946684606F0D8F9044601462869FFF7A8
:102814008BFF544504D1B6EB0906C8444F44E4D1B8
:102824002046FFF739FF0446012004F01BFE06464C
:10283400284604F02CFE002C08BF3446A8E73A468C
:1028440031464046BFE76FF01504A1E70000AD0B29
:102854002DE9F04F824688461C46174685B0002A6B
:1028640000F08F80002B00F088800029C0F289805E
:102874004268CB18D26A934200F28380C8F1000503
:1028840005F0030504F01FFEA54228BF25467B4240
:1028940003F0030307F0030658BF5E42764206F0D6
:1028A4000306A64228BF2646631BA41B24F0030488
:1028B40023F00309A145C8BFA14603F0030BC8BF19
:1028C400A3EB040BB9F1000F18D0BB1908EB0502F8
:1028D40049461846019306F072F904460146DAF8AF
:1028E4001000FFF721FF284A94423DD1B54205D09C
:1028F400019B4A461946781906F03FFBC5B1C5F15C
:1029040004060421A8EB060202A806F058F90446BE
:102914000146DAF81000FFF707FF1B4B9C4223D156
:1029240006F108032A4638460DEB030106F018FBAE
:10293400BBF1000F17D0082108EB05024A440DEB48
:10294400010006F03CF904460146DAF81000FFF7EE
:10295400EBFE0D4B9C4207D109EB05005A4602A938
:10296400384406F0FDFA084C504604F090FD204629
:1029740005B0BDE8F04FFFF78FBE184605B0BDE8BF
:10298400F08F6FF01500F9E70000AD0B2DE9F0476B
:10299400C1F30B0307460E461546D0F804C0002ABF
:1029A4006BD0C2F30B0252EA030466D1002964DB44
:1029B400DCF82C204B1993425FD804F084FD2046A8
:1029C400D7F8048004F04EFD044600284FD1DFF808
:1029D400B090D8F82C30AB4221D106F0F3F8AA46D7
:1029E400044621463869FFF79FFE4C452CD15644D6
:1029F400A5EB0A0500214FF4A47006F03BFA04F09D
:102A040016FD041E30DB14F00104F3D1002DE0D1D7
:102A1400012004F027FD002C08BF044627E0B5F58B
:102A2400803F09D3B3B2A3B93146012002F028FE96
:102A34004FF4803A0446D4E7B5F5805F09D21149D2
:102A44003869FFF771FE0F4C2046FFF725FE044658
:102A5400DEE7C6F30B000028F1D1314602F010FE88
:102A64004FF4805A0446BCE7012004F0FBFC3846CE
:102A740004F00DFD2046BDE8F0876FF01504F9E77A
:102A84000000AD0B0400AD0B2DE9F047436890B096
:102A94005D6B0746002128460AAA04F08CFD041E3B
:102AA4007BDB0A9B2A681979186800F0ADFA041ECA
:102AB40073DB002201212B20FFF7E0F800264FF002
:102AC4005023C3F8B865072006F080F8D7F80480CF
:102AD4003A694046564902F02DFDFFF7DDFD041E1C
:102AE40051DB544D0AAC0FCD0FC495E80300AB2362
:102AF4000DF1040984E803000196C9E901668DF823
:102B040004304D4B0AA8D3F8242504ADD2B2049264
:102B1400D3F82825D2B20592D3F83025D2B2069242
:102B2400D3F83425D2B20792D3F83825D2B208921A
:102B3400D3F83C35DBB20993FFF7C8FD012002F05E
:102B440077FD01462846FFF7C1FD3C4B994228D149
:102B54003146484604F03AFC041E14DB232006F0F8
:102B640035F84FF0030A9F2331460AA8CDE90A66D7
:102B7400CDF81090CDF814A08DF828300C9504F001
:102B840025FC041E10DA4FF050230222C3F8B825A6
:102B940002F06CFD08B102F057FD204610B0BDE80C
:102BA400F0876FF00404EEE75246494608F130001E
:102BB40006F005FA0446002834D17A68537F023BB4
:102BC400012B2DD9167F023E022E8CBF0026012632
:102BD40004F02DFC002828DBC2B2C0F3801086422A
:102BE400D1D00023012182F040020AA8ADF80030C0
:102BF4000A938DF80020CDF810D005910C938DF830
:102C040028100B9504F0E2FB04460028BBD104F025
:102C14000EFC041E01DBE307F9D404EAE474B2E712
:102C24000126D5E76FF01204ADE70446ABE700BF19
:102C3400C57300001094000000B002500000AD0BFA
:102C4400024B0B6001231360704700BF982E0120D4
:102C5400004870474896000010B501220648114606
:102C640006F065F805F095FF044C206005F08EFF32
:102C74006060002010BD00BFA02E0120982E01200E
:102C840070B50C46154605F081FF294606462046D8
:102C940004F041FC08B3B4FBF6F306FB1343E3B9B9
:102CA400B5FBF6F306FB1353BBB9AE4201D90020C2
:102CB40070BD4FF0FF324FF0FF33094802F0FAFFC6
:102CC40005F064FF0646204602F062F9AD1B344469
:102CD400F9D1034802F0BAFFE9E76FF01500E7E71E
:102CE400A02E01202DE9F0410D461946284616462E
:102CF4001C4604F010FCC8B314B90020BDE8F081F0
:102D04004FF0FF324FF0FF331A4802F0D3FF15F0B3
:102D140003070CD0C7F10407A74228BF2746314652
:102D240028463A4602F062F93D443E44E41B00273B
:102D340024F00308B84507EB050012D16FF0030235
:102D4400A30802FB03421AB106EB080102F04EF994
:102D5400094AD2F80034DB07FBD5064802F076FFB7
:102D6400CBE7F15902F032F90437E3E76FF01500CD
:102D7400C4E700BFA02E012000900350B1F5802FBE
:102D840010B508D2C1F58020834204D841EA03007B
:102D940010F0030003D06FF0150008E004309842EF
:102DA400FCD30748134401449A4201D1002010BDCA
:102DB400087812F8014B204001F8010BF4E700BF3A
:102DC400614A0120024B0B6001231360704700BF6E
:102DD400509600000048704758960000B1F5802FC7
:102DE400104608B51A4609D2C1F580239A4205D87F
:102DF400044B194406F0B4F8002008BD6FF0150028
:102E0400FBE700BF614A0120B1F5802F38B51DD220
:102E1400C1F580239A4219D841EA0205C5F30B058E
:102E2400A5B90C4B21F47F6121F00F01140B0B4465
:102E3400A54201D1002038BD18464FF48052FF212D
:102E440006F0B5F8013500F58053F1E76FF0150091
:102E5400F1E700BF614A012008B54FF48022FF2149
:102E6400024806F0A4F8002008BD00BF614A012012
:102E74004FF4802301480B60704700BF614A012072
:102E840010B5446823690BB9002010BD10342046E6
:102E940002F05EF801460028F6D1204602F026F83A
:102EA400024B9842F0D06FF00400EEE70000AD0B47
:102EB4007FB540680E46037B01F01F0141EA4311D0
:102EC400D30640F2063348BF032402EA030358BF83
:102ED400C2F34014B3F5837F8DF8034042D00DD87C
:102EE400062B16D005D8A3B1022B3DD06FF01500E8
:102EF40036E0B3F5807FF9D101230AE040F20225E0
:102F0400AB4233D0B3F5407F32D0B3F5007FEDD17F
:102F140002230125B54016032CD54668B560056922
:102F24007DBB01F01F00490929D001294FD12A494D
:102F340001EB800182F48035D1F80002C5F300452D
:102F4400C2F3404242EA450220F4706042EA84023D
:102F540020F00F0042EA03230343C1F800320020AB
:102F640004B070BD0723D4E70423D2E70523D0E7D8
:102F74000323CEE7560344BF4668F560CFE71749FD
:102F8400D6E712F4403F00F1100002D105F0EBFD4A
:102F9400E5E712F4003511D082F48032C2F3004226
:102FA4008DF804308DF80520002301AA8DF8064021
:102FB40001F01AFF0A4B9842D1D097E70DF10303B1
:102FC40001AACDE90255019301F052FEF2E78030E7
:102FD40055F82030FFDE00BF0028845000258450BF
:102FE4000000AD0B036803F01F025B09026004D00C
:102FF400012B034818BF002070470248704700BFE8
:1030040000288450002584502DE9F04F92468346D1
:1030140040F2FF17DFF85081DFF8509185B000EBE4
:103024008101594503D1002005B0BDE8F08FDBF8DC
:103034000030C3F3C322082AC3F3080400F28D80CE
:103044001B0E043BBC4208BF4FF0FF3418F802606B
:103054001E2B00F28580DFE803F010171D838383A5
:1030640083245183838383838383838383838383BD
:10307400838383545A696C6F7200621CCAF80845D2
:1030840060D10BF1040BCCE7631CCAF80C45F8D0F3
:10309400012558E0CAF81045651CF2D0002500222D
:1030A40008E0CAF80845002EF6D1631CE9D00025D3
:1030B40006262A46DBF80030039403F40040002877
:1030C40018BF002203A818BF012501930092FFF73F
:1030D40089FF039C019B00EB8400D0F80042C3F3FA
:1030E400412C009A330243EA8C03134304EA090493
:1030F400234343EA4503C0F80032C2E7CAF80C454B
:10310400D1E7CAF82445601CBBD00125C7E7CAF83B
:103114002845621CB5D0012503A80394FFF762FF7C
:10312400039B2A4605FA03F38360C3E7CAF83045D4
:10313400E9E7CAF83445E6E7CAF83845E3E7CAF8E8
:103144003C45E6E7002503A80394FFF74BFF012263
:10315400039B02FA03F3C360ACE76FF0150063E767
:103164006FF0850060E700BFD99A0000F0F0FCFF23
:1031740038B570B14FF400450021064C0023E0FB44
:103184000541054A2046FCF7E3FFBDE8384005F059
:1031940071BE38BD3F420F0040420F0001238340FF
:1031A40070B5DC430B4AD2E8EF1F01EA0405C2E81C
:1031B400E65F002EF7D14FF4803282400648C0F813
:1031C4000823BFF35F8FBFF36F8F0B4214BF01203F
:1031D400002070BDFC2E01200050015070B40E4937
:1031E40022F07F46D1E90034D01AC31844F1000418
:1031F400C1E90034A6F50013B3F5400F09D2074B1B
:103204001B681A0A1B069C19054B42F10005C3E909
:10321400004570BC03F0FAB818220020002F0120EA
:1032240020220020D9B101230D4A8340D2E8EFCFF8
:103234004CEA030CC2E8E1CF0029F7D14FF4803304
:10324400084A8340C2F80433074BD3E8AF3FC34076
:10325400DB0742BF4FF40012044BC3F80021704750
:10326400FC2E012000500150F82E012000E100E066
:103274000D4B1868010A0006BFF35F8F0B4BD3F8A0
:103284000435181841F10001B3F5801F0AD2084B28
:10329400D3E90023904271EB030303D210F1807051
:1032A40041F10001704700BF002F01200050015080
:1032B400202200202DE9F04F85B016461F46044613
:1032C4009DF840A0FFF76AFF0190FFF7D1FFB042DD
:1032D40071EB070352D23B4B301A67EB0101984262
:1032E40071F100014DD2384B03EB0413D3E90223EF
:1032F4009F4208BF964258D04FF48038334908FAA9
:1033040004F8204626F07F4BC1F8488304F0C1FA44
:103314004FF00309584604F15005AD00ADB205F174
:10332400502504F5A87305F580350293029A20F020
:103334007F4341F82230C1F84483D1F80435244A4C
:10334400C01A033820F07F4090422ED9286868B113
:10335400D1F80435A3EB0B0020F07F40B0F5000F4B
:10336400039322D9204604F094FA039BBAF1000F88
:1033740007D109EB030009F10109D7E7BAF1000FFE
:1033840009D06FF0150520460199FFF74BFF284639
:1033940005B0BDE8F08F01230E4AA340D2E8EF0F39
:1033A4001843C2E8E10F0029F8D107490E98230118
:1033B400C8500F9B01EB04120025C2E90267536059
:1033C400E1E700BF01008000082200200050015006
:1033D400FDFF7F00F82E012030B54FF0FF300024B0
:1033E4004FF0FF31194D1A4B4FF40012C5F8083352
:1033F400C5F84833174BC5F80845C3E902014FF433
:103404008033C5F804330223C5F80433124B85B066
:103414000121C3F8802115202246FEF72FFC152038
:10342400FEF7FCFB01230D4AAB602B6013600C4BD1
:103434000C4A009320460023CDE90144FFF73AFFEC
:103444002046FFF7ADF8204605B030BD00500150CE
:1034540003000F000822002000E100E0FC2E012000
:10346400E1310000FFFF7F002DE9F7432E4BD3F835
:10347400042390070BD5D3F8042142B10022C3F8EA
:1034840004212A4AD3F80431136801331360264A0D
:10349400D2F80433D90326D5254BD3E8EF1F21F006
:1034A4000100C3E8E40F002CF7D1CB0702D4D2F813
:1034B4004031C3B100251C4CC4F84051D4F840310C
:1034C400FFF7D6FEEFF31182202383F31288BFF3B4
:1034D4006F8F184BD3E90267B042B94106D282F329
:1034E4001188BFF36F8F03B0BDE8F0834FF0FF384E
:1034F400D3E900104FF0FF391D60C3E902894FF48E
:103504008033C4F84833C4F84051D4F8403182F3CE
:103514001188BFF36F8F0029E5D0009032463B46F7
:1035240028468847DFE700BF00500150002F0120E4
:10353400F82E01200822002030B5431C124C85B01F
:1035440005D08442A8BF0446012CB8BF0124FFF76C
:103554008FFE0E4B0C4DD3E90013401AB0F5000F4B
:103564000FD22218AA4228BF2A460020521808491E
:10357400CDE90100009143F10003FFF79BFE05B084
:1035840030BD2A46F1E700BFFFFF7F00182200206C
:10359400E131000008B5FFF76BFE024B1B68C01A4F
:1035A40008BD00BF18220020012310B5074C1520C8
:1035B4006360FEF741FB4FF40012054BC4F8083377
:1035C400C4F84833034BC3F8802110BD00500150A8
:1035D40003000F0000E100E040EA0103C3F30D0320
:1035E40030B58BB940F21515094C890BC0F38730FF
:1035F400994201D1002030BDC218D2B202F5C07286
:1036040044F822500133F3E76FF01500F3E700BFED
:10361400003000504FF0005318680D4B984210D002
:1036240003F11C53A3F58B13A3F6CC5398420AD091
:10363400084B984209D0084B98420CBF0420022042
:10364400704700207047032070470120704700BF77
:10365400B6B3B4B55DCE03F1EC49F2B608B5FFF7E5
:10366400D9FF30B1034805F05EFC0022024BC3F8D9
:10367400402408BD80210020003000502DE9F04195
:103684004FF0502315460122C3F81426002858D0C1
:10369400002956D04FF0005302F13642A2F14B12EA
:1036A400A2F59842C3E900204FF408429960DA6019
:1036B400FFF7B0FF4FF47F03D3F830210646072A03
:1036C400D3F834312DD1023B032B02D81E4AD35CEC
:1036D4003BB34FF050244FF0010800270520C4F8F5
:1036E4001886C4F8147605F0B4F94046C4F8148674
:1036F40005F0AFF9C4F81476C4F81876FDB1134C8C
:10370400204605F063FAFFF785FF8642F8D00228C9
:103714000F4B0CD100226FF00D00C3F84024BDE81C
:10372400F0814FF050230022C3F81426E6E74FF04F
:1037340050220121C2F814160022C3F840240020AC
:10374400EDE76FF01500EAE7059B000040420F002B
:103754000030005010220B4B13B5C3F84024002254
:10376400FFF78CFF044650B94FF40042002306488B
:10377400CDE9002302F02EFF044805F027FA204685
:1037840002B010BD003000508021002040420F00E4
:103794001022034BC3F840240122FFF76FBF00BF80
:1037A40000300050034B000240F00400C3F800074F
:1037B400704700BF00300050012803D111B9024BFB
:1037C40018687047014BFBE7B0230020002000205D
:1037D40013B50446104805F0FEF9B0B1002001A964
:1037E400FFF746FB0D4B02689A4211D10389C16869
:1037F40018444368B3F1807F0AD91CB1FFF7C8FFAE
:1038040002B010BDFFF7A6FFFAE76FF01200F7E76A
:103814006FF03C00F4E700BFE49000003DB8F3967D
:10382400F0B585B06E4681680546103921F007046D
:1038340003F049FC32460A4B03F1100C3746186872
:103844005968083303C763453E46F7D11023214620
:10385400284603F004FC003818BF012005B0F0BD71
:10386400D898000030B50D46816887B0102302AAAD
:103874001039044603F0DEFB002802DA012007B009
:1038840030BD1022204602A904F075F800283AD170
:1038940010221E4902A805F092FB00280CBF012348
:1038A40002232B70204604F052F8012301460DF147
:1038B4000702204603F0BEFB0028DFDB9DF807303B
:1038C400204603F00F021B096A702B7101220DF1CF
:1038D400070104F050F810B96B78042B03D90123C5
:1038E4006B7000232B71A2682046183A22F007025D
:1038F400083AA91C04F052F80028BFD12046E91C5C
:1039040004F068F8BBE70323CBE700BFD8980000B6
:103914007FB56946044603F0FDFF012805D1264B17
:10392400694653F8340004F05BF8002836D1224B82
:1039340002A903EBC403586804F052F801282BD100
:1039440003238DF808308DF80B3000249DF80050C7
:103954009DF80860194A2946107803F0FEFF18B351
:103964003146507803F0F9FFF0B19378042B03D07B
:103974009DF80310994217D1D378042B03D09DF8F6
:103984000B10994210D11379042B09D15079831E5D
:10399400022B03D804B070BD0028D6D0FF20F9E76D
:1039A4009DF802109942F1D00134032C02F1060271
:1039B400D1D10120EEE700BFF0960000099B000082
:1039C400044B1B68584043085B4240421843C017ED
:1039D400704700BF042F01208842F0B504D00025B1
:1039E400084F0438AA4200D1F0BD3E6850F8044F95
:1039F4005E4024EA060451F8256001351E40344334
:103A04000460EFE7042F01202DE9F04F8DB01D462F
:103A1400189B8346B3F12A3F8A46179F1A9E059244
:103A240040F08D803946169804F049F8012838BFD3
:103A34000120470900F01F044FF001097B01502BBE
:103A440034BF4B4603230A9309FA03F30B930A9BEF
:103A5400059805FA03F306EB8303069303EB85034A
:103A6400079304F008FA4FEA8508424600210890BB
:103A7400304605F09CFA079BC6F800900393089B18
:103A84003146CDE90153059B3046199A009306EB64
:103A940008092B4604F000FA51464246484605F010
:103AA4005FFA0223494609930B9B099A934248D132
:103AB40042463146584605F053FA4FF00009CA46CB
:103AC400079B5A460393089B5946CDE90153059B2E
:103AD400584600932B4604F0DFF9002C47D11F24ED
:103AE400013F169B0AF1010A53F82730E34003F023
:103AF400010343EA49090A9B534503D0002CDFD153
:103B0400002FDDD1189BB3F12A3F32D1424609FB85
:103B14000861069805F024FA079B59460393089B0D
:103B24005846CDE90153059B069A00932B4604F0B1
:103B3400B3F9002CC1D1BFB90DB0BDE8F08F00249A
:103B44007AE7079B01EB080A0393089B4A46CDE9F1
:103B54000153059B504600932B4604F09DF9099BA5
:103B64005146013309939FE7A146A246A8E7013CC9
:103B7400B7E731464FF0000A0A4B2A4618681B681B
:103B8400584080EA090080EA0A00FFF719FFC3439E
:103B94000698FFF721FF099B0AF1010A53454144A6
:103BA400EAD1B9E7042F0120054B01311B6801322A
:103BB400434022EA030208400243501E00B2704709
:103BC400042F01202DE9F04F834699B00F46184683
:103BD40000211646039304F0D0FB002800F08981ED
:103BE40000240125774B30461493039915ABCDE996
:103BF4000B45CDE90D45CDE90F45CDE911451393AD
:103C040004F044FBA04228DABBF1000F05D1E7B968
:103C14000024204619B0BDE8F08F2146584604F030
:103C2400BDFA04460028F2D00BA804F004FA0DA84B
:103C340004F001FA0FA804F0FEF911A804F0FBF94E
:103C44000C2115A800F014FBE3E73146384604F0D4
:103C540070FA04460028E7D1DAE731460BA804F0ED
:103C640068FA04460028DFD103990DA804F061FA2C
:103C740004460028D8D1F1880FA80231ADF8385095
:103C8400ADF8305004F0E5F904460028CCD10146E3
:103C94000FA804F083FA04460028C5D1F18811A8BE
:103CA400023104F0D6F904460028BDD10DA804F071
:103CB400A1FA00F01F001F2873D0C0F11F0319469A
:103CC4000BA8019304F0BCFA04460028ACD1019976
:103CD4000DA804F0B5FA04460028A5D1BDF8325069
:103CE400BDF83A800DA8A5EB080A4FEA4A194946DF
:103CF40004F0A6FA0446002896D14FEA8A0A0DA9D0
:103D04000BA804F0F2FA00284DDA49460DA804F095
:103D1400B4FA0446002887D108F1FF3305939B00C9
:103D240005F1FF3A069305F1804508F18043023B13
:103D3400013D9B00A5EB08050893AB000293059B8E
:103D44009A4541D8BBF1000F0DD058460FA904F095
:103D5400F0F9002840F0C980039AB388928813FBD5
:103D640002F3ABF80430002F3FF45EAF01990BA8C7
:103D740004F083FA002840F0B880B3880BA93846D1
:103D8400ADF8303004F0D5F90146002840F0AF809A
:103D9400384604F0F2FA00287FF446AF0123BB80D2
:103DA40042E701949AE70F9A0BA952F80A300846A1
:103DB400013342F80A300DAA04F0C4FB044600287B
:103DC4009DD031E7010003000D9B069A0493134430
:103DD400DDF82C900793049B4FEA8A089A5859F807
:103DE4002A10A8F104030F9D0993029B91421D44DC
:103DF40076D2A8F10400002359F80000FCF7A8F9D2
:103E0400002914BF4FF0FF330346BAF1010F2B60B2
:103E14000EBF002309EB080353F8083C1593A8F1DF
:103E2400040359F80330169359F80830DDF810806C
:103E340017932B6801332B60089B98442B6800214F
:103E4400013B2B6011A804F0A9F900284DD1059B72
:103E5400002B48D0D8F80020119B11A91A60079AAA
:103E6400084612685A602A6804F070FB00283CD1A6
:103E740013A911A804F039FA0028DFDC2A680DA977
:103E840011A804F063FB80BB029B11A84FEAC3088E
:103E9400414604F0D5F940BB0BA9084611AA04F029
:103EA40051FB014618BB0BA804F067FA002812DA8C
:103EB4000DA911A804F03DF9B8B9414611A804F0C0
:103EC400BFF990B90BA9084611AA04F038FB60B9F0
:103ED4002B68013B2B60029B0AF1FF3A043B2DE760
:103EE4004FF0FF3391E7059AB6E704469CE60C468B
:103EF4009AE66FF00B048CE6F0B5114C002B14BF5E
:103F04009C468C46246800234440E443059F03F107
:103F1400040E774502D2BB4209D3F0BDD5585CF8F4
:103F24000360054026403543CD507346EFE7D55C2A
:103F34001CF80360054026403543CD540133EAE7BD
:103F4400042F01200928024818BF0020704700BF31
:103F54001B9B000001680E4A0346914215D1C169BA
:103F6400A2F11022A2F1EF1291420ED18268012A2D
:103F74000BD8C26812B101698A4206D0586928B1C7
:103F84009B691B1A5842584170470120704700BF73
:103F940055AA00FF70B50D4B9E68A6B13046FFF7D9
:103FA400D9FF044678B9F3686BB935690DB9204671
:103FB40070BD2846FFF7CEFF28B9EB68B34202D1A3
:103FC4002E462D69F2E70124F1E700BF082F0120F6
:103FD4002DE9F8433F4F3C68D4B1BC68C4B1002814
:103FE4004AD0002948D001FB00F5B5FBF0F0884227
:103FF40042D1281D40D8A9070DD025F00306043668
:10400400FC6803E06368B34238D2A469002CF9D198
:104014002046BDE8F8832E46F2E7FB6041E006F156
:1040240020016318203A5A600022C3E902242A4876
:1040340022691A6160502949D96102B1D360626969
:104044005A61A1699961AAB193619A6902B15361F4
:104054004FF0010923610023C4E90169C4E9053370
:104064003B69DB072ED5FFF795FF58B31C4B484639
:104074001B6826E0FB60E8E70024C9E7A3681BB1DE
:10408400174B01201B689847626804F12008921BB3
:10409400232AC4D80123A360D4E90523002ABCD071
:1040A4009361A3690BB162695A610023C4E90533C2
:1040B4003B69DA0706D5FFF76DFF18B10120084BFD
:1040C4001B6898472A4600214046444604F06FFF87
:1040D4009EE700BF082F012055AA00FF669911EE44
:1040E4005C20002070B50546002800F08880444E0E
:1040F4003368002B00F08380B268002A7FD08342AB
:1041040003D872681344984203D33E4B01201B68C2
:104114009847A5F120042046FFF71CFF18B1394B3E
:1041240001201B68984755F8183C012B03D0354BE8
:1041340001201B689847002345F8183C55F8143CA7
:104144003BB39A682ABB55F81C2C02F120015A682B
:104154000A445A6055E905321A6155F8145C2B6912
:1041640003B1DD6020220021204604F020FF2869ED
:1041740010B18368002B2ED033699B073FD5FFF71E
:1041840009FF00283BD0BDE870401E4B01201B688E
:10419400184755F8100C00282AD0836843BB42689E
:1041A400636813442033636003692361D4E90523FE
:1041B4009AB9CBB9436963618269A261B3B19C6165
:1041C400A36903B15C61236903B1DC60202200218F
:1041D40004F0EDFED0E72C46E1E79361A369002BE0
:1041E400E8D062695A61E5E7F360F7E7F460E7E76E
:1041F400F36845F8083C03B15C61F460BCE770BD4A
:10420400082F01205C20002038B50C461422002120
:104214000546134804F0CBFE1249134800F040F859
:10422400232C1CD915F003031FBF043CE418C3F16D
:104234000403ED1822460021284604F0B8FE084B7A
:104244000A49C3E90054203C9D606C609A6811607F
:104254009A68A1F11021A1F1EF11D161DA6038BDA2
:10426400082F0120E9400000D53F000055AA00FFB7
:1042740010B50A46044619B1024B00211B68984741
:1042840010BD00BF58200020014B1B68184700BF19
:1042940064200020014B1B68184700BF60200020E9
:1042A400024B1860024B0020196070476420002004
:1042B40060200020F8B500F108064768044630463F
:1042C4000D4603F09BFF87424BD16368B3F5806FC3
:1042D40047D80021304604F050F8002841DD002181
:1042E400304603F077FFE0B345B9294604F11000E6
:1042F40004F043F8002834DD0020F8BD04F1200563
:104304000021284604F039F800282ADD0021284637
:1043140003F060FF28B304F128050021284604F0C7
:104324002CF800281DDD0021284603F053FFC0B1FE
:10433400002104F1100004F020F8002811DD002110
:1043440004F1300004F019F800280ADD002104F11A
:10435400380004F012F8002803DD002104F14000C5
:10436400C6E70148C9E700BF80BFFFFF012970B558
:1043740005460E46144601D9074870BD03D00020F7
:10438400C5E91C64F9E7002AF9D01046FFF7DAFD05
:104394000028F4D1F0E700BF00BFFFFF70B5002193
:1043A4000446FFF787FF054610B10E4D284670BD41
:1043B40004F10806304603F01DFF7F28F5D91034B8
:1043C4002946204603F006FF0028EED0204603F0DD
:1043D40011FF0128E9D93146204603F086FF002861
:1043E400E4DBE2E700BEFFFFF0B50C4685B0002138
:1043F40005461646FFF75EFF002839D102A803F0F0
:1044040015FE21466A6802A803F0FEFE044618B1B0
:1044140002A803F010FE0CE005F10804214602A8EE
:1044240003F063FF002807DB02A803F004FE6FF02B
:104434000304A4F5854418E005F1480302A96F6854
:104444000846009305F11002234604F0CFF9044610
:104454000028DDD13A46314602A803F0EBFE0446BB
:1044640002A803F0E8FD002CE3D1204605B0F0BD1E
:10447400004CFAE780BFFFFF03460846C1B9C3E911
:1044840010110D4A0D49DFF838C0C3E912120D4A64
:104494000D49C3E914C20D4AC3E916120C4A1A663F
:1044A40002F17452A2F52302A2F692425A667047B0
:1044B4006FF07300704700BF85AE67BB67E6096A9B
:1044C40072F36E3C3AF54FA57F520E518C68059BF2
:1044D400ABD9831F2DE9F04F0446CFB0039100F10F
:1044E400480346AD00F168062A461868596808333F
:1044F40003C2B3421546F7D1DDE94883DDE94B96A3
:10450400DDE946154FF0000C01933E4BDDF834B164
:104514004A9804AA0293BCF10F0F5BD8039B53F88B
:104524002C301BBA4FEAF02E86EA0907DDF808A002
:104534008EEAB01E07408EEA706E774077445AF8D0
:1045440004EB936077443B4445EA010E4FEA71372C
:10455400CDF808A087EAB1070EEA080E05EA010AB9
:104564004EEA0A0E87EAB15777440CF1010CDDF8E4
:1045740004E05B44BCF1400F9E44B3463B4402F16B
:104584000402CDF804801ED1CDE94C96CDE94AE071
:10459400CDE94858CDE94631CDE9043745A904F1C0
:1045A4004403643453F8042F51F8040FA342024423
:1045B4001A60F7D104A84FF49471FFF759FE002054
:1045C4004FB0BDE8F08FA8464E460D4681461946C9
:1045D4007046A0E7136852F834AC4FEAF34E8EEA03
:1045E400734E52F8387C8EEA932E52F8143C3B44B6
:1045F4004FEABA4787EAFA17734487EADA073B4473
:1046040090E700BF009700004FF47F03D3F83021F8
:10461400D3F83431072A05D1023B032B02D8024ACE
:10462400D05C704700207047269B000008B5FFF758
:10463400EBFF58B1644BD3F8202A3AB90D21C3F8E3
:10464400201A0121C3F81C19C3F81C290022D30025
:1046540003F57F03D3F80013013107D0D3F8001317
:104664000132D3F80433202A0B60F0D1FFF7CCFFDA
:10467400002840F0A080FFF7C7FF40B1534B544AD5
:10468400C3F830254FF050230122C3F858254FF4C6
:104694007F03D3F83021D3F83431072A09D1023B00
:1046A400032B06D84B4AD35C1BB100224A4BC3F8F8
:1046B4004C25FFF7A9FF50B14FF05023D3F8002445
:1046C400D10742BF0022C3F81421C3F818214FF4C4
:1046D4007F03D3F83021D3F83431072A09D14FF0BE
:1046E4005023D3F80024D20744BF6FF00102C3F86B
:1046F4000024FFF789FF18B16522334BC3F80C2758
:104704004FF47F03D3F83021D3F83431072A16D17C
:10471400314BD3F82034002B11DA4FF0502303220D
:10472400C3F8182501229A60D3F80421002AFBD08B
:104734000022C3F804210122DA60C3F818254FF4DB
:104744007F03D3F83021D3F83431072A23D1023B35
:10475400032B02D8214AD35CEBB17E221A4B1B49AE
:10476400C3F80C27C3F83C297F231D4AC2F818312B
:104774000023C1F8043EC1F8083E01F54821C1F800
:104784001031C2F82431C2F82C3102F5FF1202F5BF
:104794008052C2F8A032134AD2F88C3043F44063FA
:1047A400C2F88C30104A114B1168C3F84415D26911
:1047B400C3F84C2508BD2922034BC3F80C27032258
:1047C400C3F83C2757E700BF004000500090035057
:1047D4004400EFBE229B0000002003501E9B0000FB
:1047E4000020005000ED00E00080FF000060005059
:1047F40030B50468ACB1B4FA84F30122C3F11F03E9
:10480400DBB29A4024EA0202D0E8EF5FA54204D169
:10481400C0E8EC2FBCF1000FF6D1EAD102480B70CE
:1048240030BD0248FCE700BF0000AD0B0200AD0B39
:1048340010B50368CB40DB0710D401238B4002681A
:1048440043EA0201D0E8EF4F944204D1C0E8EC1FE0
:10485400BCF1000FF6D1F2D1014810BD0148FCE7CC
:104864000000AD0B0400AD0B014BC3F80405704709
:10487400007001500146014800F044B96C2000204A
:104884000328F7B506462ED84FF05021364B374A49
:1048940033F81000925DC1F8080300250A44012191
:1048A40042F210744FF05027314B116033F8163038
:1048B4008E4203F150231D601B688DF8071008BF5A
:1048C4000DF10705022E32D0032E40D0012E1CD04C
:1048D400D7F8183403F480333DB923B1012004F030
:1048E400B8F8013CF0D103B0F0BDD7F8182402F0B9
:1048F40003022A70002BF6D09DF807000128F2D19C
:1049040004F0A7F8013CDDD1EDE7D7F80C3403F44B
:1049140080333DB9002BE6D0012004F09AF8013C25
:10492400F3D1E0E7D7F80C2402F00102E1E7D7F86D
:104934005C3403F480333DB9002BD4D0012004F05F
:1049440088F8013CF3D1CEE7D7F85C24ECE7D7F83C
:104954005434DB03C7D5002DCED1012004F079F8FF
:10496400013CF4D1BFE700BFF09800002A9B00008F
:10497400E8980000044B1A7922B9012218601A71D0
:1049840002487047024870471C2F01200000AD0BFD
:104994000C00AD0B08B50A4B1B6833B10520FDF7BD
:1049A4005FF910B90520FDF739F94FF050230122C2
:1049B400C3F81825C3F81425C3F8802508BD00BF23
:1049C4001C2F012010B5032845D8DFE800F0180299
:1049D400554F00224FF480730121002003F150232E
:1049E40018601C68012402F150221460284A1268DD
:1049F400002A47D04FF05023C3F804132BE04FF0A4
:104A04005023D3F81814D3F81824C90312D502F08C
:104A14000303022B05D0012B02D00020FFF730FF47
:104A240001234FF050220221C2F8183508224FF416
:104A34008273D2E7D3F81424D207F1D5D3F81C2417
:104A440002F00302013A012AE7D8114A12681AB1A6
:104A54000222C3F8042310BDD3F80421002AFBD09A
:104A64000022C3F80421D3F80431F4E718224FF4E8
:104A740090734FF48071B0E720224FF492734FF497
:104A84000071AAE71A68002AFCD018601B68E2E7E4
:104A94001C2F0120F8B54FF0502301250026D3F830
:104AA4000443174F04B9F8BDB4FA84F0C0F11F00F1
:104AB400830003F580739BB203F1502305FA00F2DF
:104AC400196892B224EA02040029EBD01E601B6824
:104AD4004FF05023022AC3F808230DD1D3F8181439
:104AE400D3F8181401F00301012905D1C3F81825DE
:104AF400C3F804239960D5E73B68C0B29847D1E76F
:104B04001C2F01200079024B03EB0010FFF770BE4D
:104B140074200020036803F01F025B09026004D0C4
:104B2400012B034818BF002070470248704700BF9C
:104B34000028845000258450034A4309D35C00F0C4
:104B44001F001844C0B270472E9B000008B5FFF741
:104B5400F3FF034B083033F81000400B08BD00BFCF
:104B64008420002008B5FFF7E7FF034B083033F833
:104B74001000C0F3400008BD8420002008B5FFF7F2
:104B8400DBFF034B083033F81000C0F3401008BDBE
:104B94008420002010B5FFF7CFFF124A083032F806
:104BA4001030D9051CD5C3F3432123F4F85322F85C
:104BB4001030002002F10E0434F8023F13F4807F19
:104BC40003D0C3F3432399420AD001303028F3D1F0
:104BD400002342F831300448BDE81040FFF728BEF6
:104BE40010BD00BF84200020FC200020F7B506463D
:104BF4000846FFF7A1FF1A4F00F1080537F81530F2
:104C04000C46DB072AD5304603F089FF2046FFF720
:104C1400B5FF58B12046FFF799FF0022316800B272
:104C240001EB8003C3F81025C3F810252046FFF7D5
:104C3400B1FF002301A827F815300194FFF76AFF9C
:104C4400019B00EB8300D0F80022064B134043F095
:104C54000203C0F80032044803B0F0BD0348FBE788
:104C640084200020F0F0FCFF0000AD0B0400AD0B2D
:104C74002DE9F0431646804685B00846FFF75CFFF1
:104C84000D463168044609B32846FFF76BFF18B197
:104C94002846FFF773FF10BB00230DF10F02CDE987
:104CA40000338DF80E308DF80F3028460B460DF189
:104CB4000E0103F0DCFE484A04F1080132F8113019
:104CC40023F0020343F0010322F8113073687BB32D
:104CD40028461F785968FFF745FF10B1E9B13F48EE
:104CE40029E03D4A04F1080032F8103023F0200393
:104CF400DB04DB0C22F8103079B1032FEFD8716894
:104D0400D1F804E0D8F800109EF800C001EB8C0143
:104D1400A7B9C1F81075C1F810752F4A04F108013C
:104D240032F8113023F01C0343EA870322F81130D0
:104D3400B3683BBB2A4805B0BDE8F083D1F810E561
:104D440043EA4C332EF0030EC1F810E5D8F80010F6
:104D540043F0200301EB8C0EDEF8101522F810301E
:104D640021F44F3121F44071CEF810152902DEF8F8
:104D7400108501F47C5141EA074141EA0801CEF86B
:104D84001015CAE72846D3E90067FFF703FF002E92
:104D9400D0D0114DD5E90023964203D19F4201D1D1
:104DA400002209E00F480DF10F01FFF721FD0C4B24
:104DB4009842C0D19DF80F2005EBC20308345F6010
:104DC40035F8143045F8326043EA422343F48073E3
:104DD40025F81430AEE700BF842000200400AD0B9A
:104DE4000000AD0BFC2000202DE9F0430C4680466A
:104DF40085B0204611461D46FFF79EFE064629B3A0
:104E04002046FFF7AFFE18B92046FFF7B7FE18BBE0
:104E1400334F06F1080937F8193013F01C0F02D08C
:104E24004B78012B18D001238DF80F3000234A1C36
:104E3400CDE9001320468B1C0DF10F0103F017FE82
:104E440037F8193043F0030327F81930002D44D004
:104E54002046FFF787FE18B9224805B0BDE8F08365
:104E6400002295F800C0D8F800301D4F03EB8C03E6
:104E7400C3F81025C3F8102506F1080237F81210FC
:104E84004FEA8C0E21F02001C904C90C27F8121036
:104E94006E7816B3D8F80000AD787044D0F81035A9
:104EA400360423F4991323F4F853C0F8103523027D
:104EB40003F47C5306F440362D05D0F810E5334353
:104EC40005F480152B4341EA4C3143EA0E0341F0CB
:104ED4002001C0F8103527F812100348BDE700BFC1
:104EE400842000200400AD0B0000AD0B70B5154DFF
:104EF400064695F880401CBB2146602205F110004F
:104F040004F055F8214630682E6F8E420ED10023EE
:104F1400C0F87C31D0F87C3140F30730FCF77EFEDA
:104F24000123094885F88030AB6770BDCBB29B0084
:104F340003F580727C2B04BF845083580131E4E76D
:104F44000248F2E7842000200000AD0B0C00AD0BFA
:104F5400034B93F88000003818BF0120704700BF4E
:104F6400842000200022034BC3F88425C3F80425C1
:104F7400704700BF00900350044AD2F80034DB07A6
:104F8400FBD50160BFF35F8F704700BF00900350F3
:104F940008B5C0F30B0383B90222094BC3F8842577
:104FA400C3F804254FF0FF320260D3F80024D2077F
:104FB400FBD5FFF7D7FF034808BD0348FCE700BF54
:104FC400009003500000AD0B0A00AD0B012208B5A0
:104FD400054BC3F88425C3F80425FFF7CDFFBDE8CE
:104FE4000840FFF7BFBF00BF009003502DE9F8430E
:104FF400154601221D4B0446C3F88425C3F8042535
:1050040010F003030E4610D0C3F10407AF4228BFCB
:105014002F463A46A0EB030803F0A7FD014640469D
:10502400FFF7AAFFED1B3C443E44374625F0030836
:10503400B044A4EB0609B84511D115F003020AD017
:1050440025F003052C447119204603F08EFD01461A
:105054002046FFF791FFBDE8F843FFF783BF09EB54
:10506400070057F8041BFFF787FFE4E7009003509D
:1050740000220121054B83F83820054BC3F808139F
:105084001961C3F80025C3F800217047242F0120BB
:1050940000B0025070B5104D6C6B9CB14FF47A7334
:1050A4005C430A23B4FBF3F40C4ED6F8003163B925
:1050B40095F839304BB90A2003F0CBFC013CF4D10C
:1050C400074870BD4CF25034EEE795F83930002BA8
:1050D400F6D10448F5E700BF242F012000B00250A8
:1050E4000700AD0B0000AD0B10B500220124084BE6
:1050F400C3F80045C3F800211C6038B1FFF7CAFFAC
:10510400044B984203D1044B83F83840014810BD46
:1051140000B002500000AD0B242F01202DE9F04116
:1051240006461746984603F037FD002863D106F07B
:105134006043B3F1005F60D1B3075ED1314C94F8A2
:105144003030012B05D0434559D194F83830002B29
:1051540055D000232C4AB8F1020F0BBFC2F81075CA
:10516400C2F80475C2F81465C2F808650CBFC2F829
:105174001815C2F80C1584F8393023680CBF0825BB
:105184000425C3B994F838306BB100221E4B05F1E5
:10519400A045C3F80021012305F52C352B60BDE89B
:1051A400F041FFF777BF0120FFF79EFF174B9842AE
:1051B400EBD1BDE8F081A36823B1E6606161E761EA
:1051C4001348F6E7104AA6602161A76184F830808D
:1051D400C2F800310123C2F8043394F8382002F0F5
:1051E400FF0012B9FFF780FFEAE705F1A04505F5D6
:1051F4002C352B60E4E70748DBE70748D9E7074885
:10520400D7E700BF242F012000B002500700AD0BE8
:105214000000AD0B0800AD0B0A00AD0B0B00AD0B8D
:10522400084B9A685A621A699A629A69DA62DA6869
:105234009A6032B15A691A61DA699A610022DA60B5
:1052440070477047242F012000F01F0340090FD03E
:1052540001280FD10A4A02EB8302D2F80002094B5B
:10526400034043EA012343F00203C2F800327047CB
:10527400054AF0E70022803352F82330FFDE00BFF6
:1052840000288450F0F0FCFF0025845010B50E4B2C
:105294000238D3F83C26D3F83836072813D8DFE889
:1052A40000F0110F0D0B0A080604100EC871100C43
:1052B4008871100A48710A711A0ECA701A0C8A7021
:1052C4001A0A4A700B7010BD00B002500238072849
:1052D4001FD8DFE800F02927251123211F04CB79EB
:1052E4001B068A7943EA02434A7943EA02230A798C
:1052F40013430E4AC2F83C36CB781B068A7843EA3D
:1053040002434A7843EA02230A781343074AC2F85D
:10531400383670470023E4E70023E5E70023E6E797
:105324000023EBE70023ECE70023EDE700B0025095
:105334000268154BFF2A08BF4FF0FF32C3F824253B
:105344004268FF2A08BF4FF0FF32C3F8282582685D
:10535400FF2A08BF4FF0FF32C3F83025C268FF2A86
:1053640008BF4FF0FF32C3F834250269FF2A08BF93
:105374004FF0FF32C3F838254269FF2A08BF4FF0C7
:10538400FF32C3F83C25704700B0025030B5194DC8
:105394008DB006AC0FCD0FC495E8030084E803007C
:1053A400154906A8D1F82435DBB20093D1F8283585
:1053B400DBB20193D1F83035DBB20293D1F8343546
:1053C400DBB20393D1F83835DBB20493D1F83C3522
:1053D400DBB20593FFF7ACFF0023C1F800310123D2
:1053E4000B60D1F80031002BFBD06846FFF7A0FF1B
:1053F4000DB030BD2894000000B0025070B590F894
:10540400293004461BB190F82A20002A3CD1606858
:10541400FF2800F08580A168FF2900F08180E26800
:10542400FF2A7DD025690E2D7AD1112878D1122931
:1054340076D10D2A74D16269FF2A01D00F2A6FD167
:10544400A269FF2A01D0102A6AD1BBB90321112015
:10545400FFF7FAFEA068FFF7F7FEE068FFF7F4FE37
:105464002069FFF7F1FE6069FF2801D0FFF7ECFE29
:10547400A069FF2802D00321FFF7E6FE94F82A3042
:1054840013B9201DFFF754FF636A264E264D73633C
:1054940094F8293086F83A300123C5F80833FFF729
:1054A40075FF2368C5F84035A37F617F227F9B0188
:1054B40043EAC1031343E27F43EAC213C5F8443508
:1054C40094F82320D5F844352ABB43F44033C5F877
:1054D40044354FF4C063C5F84036D5F8002694F837
:1054E400203022F07F4222F0FF02134394F821205F
:1054F40043EA026394F8222043EA426394F82320A7
:1055040043EA0273C5F80036336813B12B20FCF765
:1055140085FB064870BD23F4003343F48033D6E79B
:105524000348F7E7242F012000B002500000AD0B20
:105534000400AD0B38B50C4C94F8305095B9C4E95F
:10554400001248B900230122C4E90233074884F851
:10555400302084F8383038BDFFF750FF034B9842B1
:10556400F9D1EFE70248F6E7242F01200000AD0B44
:105574000C00AD0B2DE9F84304468846154603F0AC
:105584000BFB002843D1DFF8909099F830000128F4
:105594003FD199F83830214F6BB30123204EC6F820
:1055A4000833FFF7F3FEB8F1000F2BD14FF00008DA
:1055B40089F83980C6F80081A37862781B0343EA2E
:1055C400022322781343E27843EA4233227943EAFE
:1055D4008233627943EAC233C6F83436FFF75AFDA0
:1055E400B8420CD0C6F800811DB129466078FFF797
:1055F4004DFE0C4804E0FFF777FDB842CDD10748D3
:10560400BDE8F88341466078FFF760FECEE70648C0
:10561400F6E70648F4E700BF242F01200700AD0B8E
:1056240000B002500000AD0B0800AD0B0B00AD0B39
:10563400034B93F838300BB9FFF756BD0148704758
:10564400242F01200C00AD0B08B5054B93F8303026
:10565400012B03D1FFF70CFD024808BD0248FCE70B
:10566400242F01200000AD0B0B00AD0B034B93F86E
:105674003000003818BF0120704700BF242F0120DC
:1056840070B5054603F088FA00283AD111F00306F4
:1056940039D11F4B1A6892B91E4CC4F81C15C4F8B2
:1056A400205583F8392093F838300BB30023C4F81D
:1056B40000310123E360BDE87040FFF7EBBC93F8D1
:1056C4003040012C21D1134AC2F81C150421C2F820
:1056D400205583F8396083F83010C2F80061C2F8AD
:1056E400044393F8383053B9FFF7FEFC0A4805E049
:1056F4000120FFF7F9FC094B9842D7D170BDD46063
:10570400F4E70748FAE70748F8E70748F6E700BF71
:10571400242F012000B002500000AD0B0700AD0B98
:105724000800AD0B0A00AD0B0B00AD0B10B5224BFE
:10573400D3F8002192B10022204CC3F8002194F840
:10574400381094F8302071B90121032A84F83810F4
:1057540005D0042A05D0022A00D1996010BD5960F1
:10576400FCE7D960FAE7032A19D0042A19D0022ADF
:1057740004D1012384F82030FFF752FDA36813B944
:10578400012384F8303094F8393003F0FF0013B962
:10579400D4E900319847002384F82030DEE702235F
:1057A400E8E7032284F82020D3F81C256262D3F8AA
:1057B400203584F82830E1E700B00250242F01207E
:1057C40038B5EFF31185202383F31288BFF36F8F6D
:1057D400064B9C6803F012FA85F31188BFF36F8FB0
:1057E4002046BDE83840FCF7BDB900BF602F01205A
:1057F40038B5094B53F82040013053F82050A542E6
:1058040000D838BD636823B1204603F0FAF90834A0
:10581400F5E723689847FAE700980000012270B57D
:105824002A4B032086B01A70FFF7E2FF03F097FBC0
:1058340003F003FA0420FFF7DBFF254C254D264631
:10584400AE4204F1300410D300F0AEFB204C224EE3
:10585400AC4226D300F0BCFBFAF7E2FD1F4A137BEF
:1058640023F00103137306B070BD54F80C3C059388
:1058740054F8103C049354F8143C039354F8183C23
:10588400029354F81C3C019354F8203C009354E9CF
:105894000A2354E90C0100F033FA54F8303C5E65F5
:1058A400CDE7D4E90A23B3F1FF3F08BFB2F1FF3FCC
:1058B40005D052EA0301206803D100F039FC3034EA
:1058C400C6E73146183000F02BFDF8E7614A0520A1
:1058D4004893000048930000458E0000A822002051
:1058E40008B50348034A0021121A03F0A2F908BDBF
:1058F40008220020644A05200023012270B586B0E6
:10590400CDE904230F220193CDE9023214234FF48D
:10591400A0720E4D0E4E03FB00550E4906EBC01649
:10592400044602FB00110C4B3046009500F0E8F9E8
:10593400737B2C7423F004037373084B013403EB5F
:10594400C423EE606B6006B070BD00BF602F012001
:105954002822002068520520FF8C0000684A052098
:10596400BFB50020FFF744FF2C4B03F5006282F320
:10597400088883F30A880024E023294D294E85F8FA
:105984002230EC772C766C76AC7685F820406B6A06
:10599400254F43F4E0236B6285F82340FCF760F85D
:1059A400FCF7DAF94FF0FF33AB62EB62FCF760FB14
:1059B400FCF7F6F940F201121C4B1D4D9A81B360BD
:1059C400C3E91844DC6603F005F90120FFF710FF72
:1059D4000220FFF70DFF00F02BFB164B75610593BA
:1059E400012315494FF42052CDE9034328463B4691
:1059F400CDE90144009400F083F906466A7B284609
:105A040022F004026A7303F0DEF92046FFF774FF04
:105A14003A4631462846FCF77FF900BF684A05201C
:105A240000ED00E0602F0120215800002823002011
:105A3400A82200203E9B0000A8530520002038B572
:105A4400054C064DAC4200D338BD204603F0F6F8B1
:105A54000028F9DB1C34F5E7B8210020B821002028
:105A640073B50C46EFF31181202585F31288BFF33B
:105A74006F8FC5685DB125602B68C360836901338E
:105A84008361002081F31188BFF36F8F11E052EA24
:105A9400030603D16FF00B002560F3E7CDE9002383
:105AA4000246083000F0EAF918B9034B9B685B69B9
:105AB400236002B070BD00BF602F01202DE9F341C7
:105AC400044617461E46EFF31188202383F31288F9
:105AD400BFF36F8FC368334A7BB180689168884293
