:020000040001F9
:100000003DB8F3960000000000020000FC880500E7
:1000100000000000000300000000000000000000DD
:10002000FFFFFFFFFFFFFFFFFFFFFFFFFFFFFFFFE0
:10003000FFFFFFFFFFFFFFFFFFFFFFFFFFFFFFFFD0
:10004000FFFFFFFFFFFFFFFFFFFFFFFFFFFFFFFFC0
:10005000FFFFFFFFFFFFFFFFFFFFFFFFFFFFFFFFB0
:10006000FFFFFFFFFFFFFFFFFFFFFFFFFFFFFFFFA0
:10007000FFFFFFFFFFFFFFFFFFFFFFFFFFFFFFFF90
:10008000FFFFFFFFFFFFFFFFFFFFFFFFFFFFFFFF80
:10009000FFFFFFFFFFFFFFFFFFFFFFFFFFFFFFFF70
:1000A000FFFFFFFFFFFFFFFFFFFFFFFFFFFFFFFF60
:1000B000FFFFFFFFFFFFFFFFFFFFFFFFFFFFFFFF50
:1000C000FFFFFFFFFFFFFFFFFFFFFFFFFFFFFFFF40
:1000D000FFFFFFFFFFFFFFFFFFFFFFFFFFFFFFFF30
:1000E000FFFFFFFFFFFFFFFFFFFFFFFFFFFFFFFF20
:1000F000FFFFFFFFFFFFFFFFFFFFFFFFFFFFFFFF10
:10010000FFFFFFFFFFFFFFFFFFFFFFFFFFFFFFFFFF
:10011000FFFFFFFFFFFFFFFFFFFFFFFFFFFFFFFFEF
:10012000FFFFFFFFFFFFFFFFFFFFFFFFFFFFFFFFDF
:10013000FFFFFFFFFFFFFFFFFFFFFFFFFFFFFFFFCF
:10014000FFFFFFFFFFFFFFFFFFFFFFFFFFFFFFFFBF
:10015000FFFFFFFFFFFFFFFFFFFFFFFFFFFFFFFFAF
:10016000FFFFFFFFFFFFFFFFFFFFFFFFFFFFFFFF9F
:10017000FFFFFFFFFFFFFFFFFFFFFFFFFFFFFFFF8F
:10018000FFFFFFFFFFFFFFFFFFFFFFFFFFFFFFFF7F
:10019000FFFFFFFFFFFFFFFFFFFFFFFFFFFFFFFF6F
:1001A000FFFFFFFFFFFFFFFFFFFFFFFFFFFFFFFF5F
:1001B000FFFFFFFFFFFFFFFFFFFFFFFFFFFFFFFF4F
:1001C000FFFFFFFFFFFFFFFFFFFFFFFFFFFFFFFF3F
:1001D000FFFFFFFFFFFFFFFFFFFFFFFFFFFFFFFF2F
:1001E000FFFFFFFFFFFFFFFFFFFFFFFFFFFFFFFF1F
:1001F000FFFFFFFFFFFFFFFFFFFFFFFFFFFFFFFF0F
:10020000E04F012045B201005FF3030031B201006D
:1002100031B2010031B2010031B2010031B201004E
:1002200000000000000000000000000005B4010014
:1002300031B20100000000005DB3010031B20100E5
:100240003DB601003DB601003DB601003DB60100DE
:100250003DB601003DB601003DB601003DB60100CE
:100260003DB601003DB601003DB601003DB60100BE
:100270003DB601003DB601003DB601003DB60100AE
:100280003DB601003DB601003DB601003DB601009E
:100290003DB601003DB601003DB601003DB601008E
:1002A0003DB601003DB601003DB601003DB601007E
:1002B0003DB601003DB601003DB601003DB601006E
:1002C0003DB601003DB601003DB601003DB601005E
:1002D0003DB601003DB601003DB601003DB601004E
:1002E0003DB601003DB601003DB601003DB601003E
:1002F0003DB601003DB601003DB601003DB601002E
:100300003DB601003DB601003DB601003DB601001D
:100310003DB601003DB601003DB601003DB601000D
:100320003DB601003DB601003DB601003DB60100FD
:100330003DB601003DB601003DB601003DB60100ED
:100340003DB601003DB601003DB601003DB60100DD
:100350003DB60100FFFFFFFF81F0004102E000BF5A
:1003600083F0004330B54FEA41044FEA430594EA75
:10037000050F08BF90EA020F1FBF54EA000C55EAB0
:10038000020C7FEA645C7FEA655C00F0E2804FEA81
:100390005454D4EB5555B8BF6D420CDD2C4480EA63
:1003A000020281EA030382EA000083EA010180EA93
:1003B000020281EA0303362D88BF30BD11F0004FE1
:1003C0004FEA01314FF4801C4CEA113102D0404217
:1003D00061EB410113F0004F4FEA03334CEA133352
:1003E00002D0524263EB430394EA050F00F0A7806A
:1003F000A4F10104D5F1200E0DDB02FA0EFC22FA65
:1004000005F2801841F1000103FA0EF2801843FA58
:1004100005F359410EE0A5F120050EF1200E012A49
:1004200003FA0EFC28BF4CF0020C43FA05F3C01887
:1004300051EBE37101F0004507D54FF0000EDCF100
:10044000000C7EEB00006EEB0101B1F5801F1BD3A9
:10045000B1F5001F0CD349085FEA30004FEA3C0CAD
:1004600004F101044FEA445212F5800F80F09A80A3
:10047000BCF1004F08BF5FEA500C50F1000041EBA7
:10048000045141EA050130BD5FEA4C0C404141EBAB
:100490000101013C28BFB1F5801FE9D291F0000FA6
:1004A00004BF01460020B1FA81F308BF2033A3F155
:1004B0000B03B3F120020CDA0C3208DD02F1140C4C
:1004C000C2F10C0201FA0CF021FA02F10CE002F187
:1004D0001402D8BFC2F1200C01FA02F120FA0CFC80
:1004E000DCBF41EA0C019040E41AA2BF01EB0451C9
:1004F000294330BD6FEA04041F3C1CDA0C340EDCC7
:1005000004F11404C4F1200220FA04F001FA02F309
:1005100040EA030021FA04F345EA030130BDC4F1C7
:100520000C04C4F1200220FA02F001FA04F340EABC
:100530000300294630BD21FA04F0294630BD94F06D
:10054000000F83F4801306BF81F480110134013D54
:100550004EE77FEA645C18BF7FEA655C29D094EAC5
:10056000050F08BF90EA020F05D054EA000C04BF43
:100570001946104630BD91EA030F1EBF002100202E
:1005800030BD5FEA545C05D14000494128BF41F0CD
:10059000004130BD14F580043CBF01F5801130BD31
:1005A00001F0004545F0FE4141F470014FF00000BC
:1005B00030BD7FEA645C1ABF194610467FEA655C6D
:1005C0001CBF0B46024650EA013406BF52EA03350F
:1005D00091EA030F41F4002130BD00BF90F0000FFD
:1005E00004BF0021704730B54FF4806404F1320439
:1005F0004FF000054FF0000150E700BF90F0000FF2
:1006000004BF0021704730B54FF4806404F1320418
:1006100010F0004548BF40424FF000013EE700BFE8
:1006200042004FEAE2014FEA31014FEA02701FBF78
:1006300012F07F4393F07F4F81F06051704732F0AA
:100640007F4208BF704793F07F4F04BF41F4002101
:10065000704730B54FF4607401F0004521F000415F
:100660001CE700BF50EA010208BF704730B54FF0E9
:1006700000050AE050EA010208BF704730B511F0EA
:10068000004502D5404261EB41014FF4806404F122
:1006900032045FEA915C3FF4D8AE4FF003025FEAA8
:1006A000DC0C18BF03325FEADC0C18BF033202EB2C
:1006B000DC02C2F1200300FA03FC20FA02F001FA86
:1006C00003FE40EA0E0021FA02F11444BDE600BF29
:1006D00070B54FF0FF0C4CF4E06C1CEA11541DBFD8
:1006E0001CEA135594EA0C0F95EA0C0F00F0DEF8A3
:1006F0002C4481EA030621EA4C5123EA4C5350EA88
:10070000013518BF52EA033541F4801143F48013D8
:1007100038D0A0FB02CE4FF00005E1FB02E506F069
:100720000042E0FB03E54FF00006E1FB03569CF0BE
:10073000000F18BF4EF0010EA4F1FF04B6F5007FC4
:1007400064F5407404D25FEA4E0E6D4146EB060636
:1007500042EAC62141EA55514FEAC52040EA5E50BF
:100760004FEACE2EB4F1FD0C88BFBCF5E06F1ED869
:10077000BEF1004F08BF5FEA500E50F1000041EBA0
:10078000045170BD06F0004646EA010140EA02004D
:1007900081EA0301B4EB5C04C2BFD4EB0C0541EA6F
:1007A000045170BD41F480114FF0000E013C00F384
:1007B000AB8014F1360FDEBF002001F0004170BDA8
:1007C000C4F10004203C35DA0C341BDC04F11404C1
:1007D000C4F1200500FA05F320FA04F001FA05F24D
:1007E00040EA020001F0004221F0004110EBD3701A
:1007F00021FA04F642EB06015EEA430E08BF20EA46
:10080000D37070BDC4F10C04C4F1200500FA04F3E8
:1008100020FA05F001FA04F240EA020001F000417A
:1008200010EBD37041F100015EEA430E08BF20EAED
:10083000D37070BDC4F1200500FA05F24EEA020E35
:1008400020FA04F301FA05F243EA020321FA04F064
:1008500001F0004121FA04F220EA020000EBD3701B
:100860005EEA430E08BF20EAD37070BD94F0000F1B
:100870000FD101F00046400041EB010111F4801F4F
:1008800008BF013CF7D041EA060195F0000F18BF00
:10089000704703F00046520043EB030313F4801F3C
:1008A00008BF013DF7D043EA0603704794EA0C0FF6
:1008B0000CEA135518BF95EA0C0F0CD050EA41060C
:1008C00018BF52EA4306D1D181EA030101F0004189
:1008D0004FF0000070BD50EA410606BF10461946B1
:1008E00052EA430619D094EA0C0F02D150EA0136BD
:1008F00013D195EA0C0F05D152EA03361CBF1046FE
:1009000019460AD181EA030101F0004141F0FE419C
:1009100041F470014FF0000070BD41F0FE4141F420
:10092000780170BD70B54FF0FF0C4CF4E06C1CEA20
:1009300011541DBF1CEA135594EA0C0F95EA0C0FD5
:1009400000F0A7F8A4EB050481EA030E52EA033590
:100950004FEA013100F088804FEA03334FF08055B1
:1009600045EA131343EA12634FEA022245EA1115DE
:1009700045EA10654FEA00260EF000419D4208BF8F
:10098000964244F1FD0404F5407402D25B084FEA3C
:100990003202B61A65EB03055B084FEA32024FF4E8
:1009A00080104FF4002CB6EB020E75EB030E22BF45
:1009B000B61A754640EA0C005B084FEA3202B6EB05
:1009C000020E75EB030E22BFB61A754640EA5C00B4
:1009D0005B084FEA3202B6EB020E75EB030E22BF44
:1009E000B61A754640EA9C005B084FEA3202B6EB45
:1009F000020E75EB030E22BFB61A754640EADC0004
:100A000055EA060E18D04FEA051545EA16754FEA65
:100A100006164FEAC30343EA52734FEAC2025FEA83
:100A20001C1CC0D111F4801F0BD141EA00014FF012
:100A300000004FF0004CB6E711F4801F04BF0143E3
:100A40000020B4F1FD0C88BFBCF5E06F3FF6AFAEFF
:100A5000B5EB030C04BFB6EB020C5FEA500C50F18F
:100A6000000041EB045170BD0EF0004E4EEA113112
:100A700014EB5C04C2BFD4EB0C0541EA045170BD19
:100A800041F480114FF0000E013C90E645EA060E5D
:100A90008DE60CEA135594EA0C0F08BF95EA0C0F8B
:100AA0003FF43BAF94EA0C0F0AD150EA01347FF4D3
:100AB00034AF95EA0C0F7FF425AF104619462CE7AA
:100AC00095EA0C0F06D152EA03353FF4FDAE10460D
:100AD000194622E750EA410618BF52EA43067FF45E
:100AE000C5AE50EA41047FF40DAF52EA43057FF4EE
:100AF000EBAE12E74FF0FF3C06E000BF4FF0010CF9
:100B000002E000BF4FF0010C4DF804CD4FEA410C5C
:100B10007FEA6C5C4FEA430C18BF7FEA6C5C1BD029
:100B200001B050EA410C0CBF52EA430C91EA030FAA
:100B300002BF90EA020F0020704710F1000F91EA07
:100B4000030F58BF994208BF90422CBFD8176FEAD5
:100B5000E37040F0010070474FEA410C7FEA6C5CA3
:100B600002D150EA013C07D14FEA430C7FEA6C5CAA
:100B7000D6D152EA033CD3D05DF8040B704700BFD6
:100B80008446104662468C461946634600E000BF24
:100B900001B5FFF7B7FF002848BF10F1000F01BDF6
:100BA0004DF808EDFFF7F4FF0CBF012000205DF8C1
:100BB00008FB00BF4DF808EDFFF7EAFF34BF012046
:100BC00000205DF808FB00BF4DF808EDFFF7E0FFDF
:100BD00094BF012000205DF808FB00BF4DF808ED30
:100BE000FFF7CEFF94BF012000205DF808FB00BF97
:100BF0004DF808EDFFF7C4FF34BF012000205DF879
:100C000008FB00BF4FEA410212F5001215D211D5C0
:100C10006FF47873B3EB625212D94FEAC12343F0F9
:100C2000004343EA505311F0004F23FA02F018BF7B
:100C3000404270474FF00000704750EA013005D144
:100C400011F0004008BF6FF0004070474FF0000007
:100C5000704700BF4A0011D212F5001211D20DD513
:100C60006FF47873B3EB62520ED44FEAC12343F0B2
:100C7000004343EA505323FA02F070474FF000005C
:100C8000704750EA013002D14FF0FF3070474FF00B
:100C9000000070477BB972B90029BEBF00204FF039
:100CA000004106E008BF00281CBF6FF000414FF074
:100CB000FF3000F057B8ADF1080C6DE904CE002903
:100CC00009DB002B1ADB00F074F8DDF804E0DDE945
:100CD000022304B07047404261EB4101002B1BDB53
:100CE00000F067F8DDF804E0DDE9022304B04042DB
:100CF00061EB4101524263EB43037047524263EBA5
:100D0000430300F056F8DDF804E0DDE9022304B007
:100D1000404261EB41017047524263EB430300F0F4
:100D200048F8DDF804E0DDE9022304B0524263EB49
:100D30004303704753B94AB9002908BF00281CBFB4
:100D40004FF0FF314FF0FF3000F00CB8ADF1080C60
:100D50006DE904CE00F02DF8DDF804E0DDE90223B2
:100D600004B07047704700BF10F8012B11F8013B29
:100D7000012A28BF9A42F7D0D01A7047034613F8C9
:100D8000012B002AFBD1181A01387047430803F0E1
:100D90005533C01A00F03333800800F03330184464
:100DA0004FF0013300EB101000F00F305843000EED
:100DB00070472DE9F04786468C460846089E154642
:100DC00074461946002B40F0C1808542B2FA82F287
:100DD00045D94AB1C2F1200300FA02FC9540944083
:100DE0002EFA03F343EA0C0C4FEA154EA8B2230C7B
:100DF000BCFBFEF80EFB18CC08FB00F943EA0C43E1
:100E0000994528D9EB1808F1FF3704D2994502D942
:100E1000A8F102072B44A3EB0903A4B2B3FBFEFC29
:100E20000EFB1C330CFB00F044EA0344A04214D92F
:100E30002C190CF1FF3304D2A04202D9ACF1020309
:100E40002C44241A43EA07401EB1D44000233460E6
:100E50007360BDE8F0874746DDE76346F1E792BB84
:100E6000431B01214FEA154EAFB2200CB3FBFEFC31
:100E70000EFB1C330CFB07F840EA0343984561D98D
:100E8000EB180CF1FF3004D2984502D9ACF1020006
:100E90002B44A3EB0803A4B2B3FBFEFC0EFB1C33F4
:100EA0000CFB07F744EA0344A7424DD92C190CF177
:100EB000FF3304D2A74202D9ACF102032C44E41B55
:100EC00043EA0040C0E7C2F120039540944020FA75
:100ED00003F12EFA03F34FEA154E9040AFB20343ED
:100EE000B1FBFEFC0EFB1C10190C0CFB07F841EAD1
:100EF0000041884522D969180CF1FF3004D2884599
:100F000002D9ACF102002944A1EB08019BB2B1FB6C
:100F1000FEFC0EFB1C110CFB07F743EA01439F424A
:100F20000ED9EB180CF1FF3104D29F4202D9ACF17B
:100F300002012B44DB1B41EA004193E76046E3E7F3
:100F40006146F7E76046A4E76346B8E7834206D9FF
:100F500016B9002108467CE7C6E900E0F9E7B3FAD4
:100F600083F78FB9834201D3724508D8BEEB0204E0
:100F700060EB030301209C461EB9002169E7384657
:100F8000FAE7C6E9004CF8E7C7F1200CBB400EFABF
:100F900007F522FA0CF42EFA0CF1BA401C4320FAA1
:100FA0000CF3B8404FEA144901431FFA84FEB3FB27
:100FB000F9F809FB18300B0C08FB0EFA43EA004362
:100FC0009A4540D9E31808F1FF3004D29A4502D976
:100FD000A8F102002344A3EB0A0389B2B3FBF9F89A
:100FE00009FB183308FB0EFE41EA03418E452CD95C
:100FF000611808F1FF3304D28E4502D9A8F102032B
:10100000214443EA0040A1EB0E01A0FB02984145B8
:10101000CE46434602D306D14D4504D20138B9EB42
:10102000020E68EB0403002EA7D0B5EB0E0261EBB5
:10103000030101FA0CFC22FA07F3F9404CEA03031E
:10104000C6E9003199E74046C5E74346D9E70000C5
:1010500030B58BB009E0484A012148482DF07FFBAC
:101060004FF42030002138F0EDFB454837F030FEDA
:101070000028F0D042488368DB683F219847041E6F
:1010800018DB3F4883681B6901AA0D21984730B9D6
:101090003B4883681B6903AA0E219847B0B12346D9
:1010A000384A012135482DF064FB4EF660202BF0C4
:1010B00049F8DAE72346344A012130482DF059FB3C
:1010C0004FF48040002138F0BDFBCEE700230593AC
:1010D000069307930893099301238DF81430019820
:1010E000FFF78CFA04460D460298FFF787FA20A313
:1010F000D3E90023FFF716FC02460B46204629469B
:10110000FFF730F90022214BFFF7E2FAFFF7A2FDCB
:10111000ADF818000398FFF771FA04460D460498DD
:10112000FFF76CFA12A3D3E90023FFF7FBFB02469B
:101130000B4620462946FFF715F90022134BFFF70F
:10114000C7FAFFF787FD07902BF035F808900022CB
:10115000002305A90E4822F079FA0028A5D00D4AEF
:10116000022106482DF0FBFA9FE700BFAFF3008095
:101170000000000080842E411CBC040074B10400F7
:1011800044AD04007CBC040048BC0400000059408D
:10119000103E002068BC0400D0B5A2B00AE0864B27
:1011A0009A7817E0854B9B7819E0854A012185489C
:1011B0002DF0DFFA4FF0FF324FF0FF33824822F07C
:1011C00087FC0028F6D1814B1C68814B9C42E6D0FD
:1011D000804B9A787E4B9C42E4D07F4B9B7806A94B
:1011E0007E4803F079FA002814BF01230023DCD1E4
:1011F0000023019302930393049305930698FFF74A
:10120000FDF906460F460798FFF7F8F968A3D3E9FA
:101210000023FFF787FB02460B4630463946FFF7AF
:10122000A1F800226E4BFFF753FAFFF7EBFCADF885
:1012300008000898FFF7E2F906460F460998FFF7FD
:10124000DDF95BA3D3E90023FFF76CFB02460B46F5
:1012500030463946FFF786F80022614BFFF738FA2F
:10126000FFF7D0FCADF80A000A98FFF7C7F9064669
:101270000F460B98FFF7C2F94DA3D3E90023FFF700
:1012800051FB02460B4630463946FFF76BF8002209
:10129000534BFFF71DFAFFF7B5FCADF80C000C98A7
:1012A000FFF7ACF906460F460D98FFF7A7F940A3E4
:1012B000D3E90023FFF736FB02460B46304639469A
:1012C000FFF750F80022464BFFF702FAFFF79AFCAF
:1012D000ADF80E000E98FFF791F906460F460F98ED
:1012E000FFF78CF932A3D3E90023FFF71BFB02467B
:1012F0000B4630463946FFF735F80022384BFFF7EA
:10130000E7F9FFF77FFCADF810001098FFF776F9CA
:1013100006460F461198FFF771F925A3D3E900237C
:10132000FFF700FB32463B46FFF71CF800222C4B30
:10133000FFF7CEF9FFF766FCADF812002AF03BFF8D
:101340000590BDF9083007EE103AB8EEC77ADFED28
:10135000257A87EE270ABDF90A3007EE103AB8EE73
:10136000C77AC7EE270ABDF90C3007EE103AB8EE7F
:10137000C77A87EE271A1C4B9C4208D0694600208A
:1013800003F0C8FB12A89DED000A03F0DBFC00226D
:10139000002301A9154822F059F900283FF40AAFAB
:1013A000134A022107482DF0DAF903E7AFF3008072
:1013B0000000000080842E413034002028340020BA
:1013C000CCBE040074B10400403E0020707A0020BE
:1013D0009CC804002C340020243400200078002015
:1013E000000059400000C842B4C80400103E00206C
:1013F000B8BE04000000000070B50546BDF810003E
:10140000A0FB021200FB032311EB010C43EB0306CC
:101410001CEB010443EB0606360246EA146624027E
:10142000641A66EB0306F60146EA5466E401641AA0
:1014300066EB0306B60046EA9476A400641A66EBEF
:101440000306F60046EA5476E4000DA3D3E9002330
:1014500020463146FFF71EFC2860074A002320463D
:101460003146FFF717FC054A0023FFF713FC6A60BB
:1014700070BD00BFAFF300804CFF590040420F0029
:10148000006BC53F5D050000F8B504460068FFF736
:10149000B5F806460F466068FFF7B0F874A3D3E9C5
:1014A0000023FFF73FFA02460B4630463946FEF767
:1014B00059FF04460D460022614BFFF78FFB40B1F8
:1014C0000022604B20462946FFF774FB002840F0BD
:1014D0009E8000225B4B20462946FFF77FFB40B1F0
:1014E0000022594B20462946FFF764FB002840F0B4
:1014F00090800022544B20462946FFF76FFB40B1F5
:101500000022524B20462946FFF754FB002840F0AA
:10151000828000224D4B20462946FFF75FFB38B101
:1015200000224B4B20462946FFF744FB002874D18C
:101530000022474B20462946FFF750FB38B10022D6
:10154000444B20462946FFF735FB002867D100228F
:10155000404B20462946FFF741FB38B100223E4B65
:1015600020462946FFF726FB00285AD100223A4B95
:1015700020462946FFF732FB38B10022374B204680
:101580002946FFF717FB00284DD10022334B204698
:101590002946FFF723FB38B10022314B204629466C
:1015A000FFF708FB002840D100222D4B204629469A
:1015B000FFF714FB30B100222A4B20462946FFF7E3
:1015C000F9FAA0BB0022274B20462946FFF706FB6D
:1015D00030B10022244B20462946FFF7EBFA40BBEE
:1015E0000022214B20462946FFF7F8FA30B10022AD
:1015F0001E4B20462946FFF7DDFAE0B900221B4BBF
:1016000020462946FFF7EAFA10B10C2000E001203D
:10161000F8BD0220FCE70320FAE70420F8E70520E4
:10162000F6E70620F4E70720F2E70820F0E70920B4
:10163000EEE70A20ECE70B20EAE700BFAFF30080FB
:101640000000E93F0000F93F000009400000194098
:101650000000294000003940000049400000594086
:101660000000694000007940000089400000994076
:101670000000000080842E41F8B504460068FEF7A3
:10168000BDFF06460F466068FEF7B8FF4CA3D3E9DE
:101690000023FFF747F902460B4630463946FEF76E
:1016A00061FE04460D4600223D4BFFF797FA38B124
:1016B00000223C4B20462946FFF77CFA00285ED1E9
:1016C0000022384B20462946FFF788FA38B100221D
:1016D000354B20462946FFF76DFA002851D10022EC
:1016E000314B20462946FFF779FA38B100222F4BBB
:1016F00020462946FFF75EFA002844D100222B4BF2
:1017000020462946FFF76AFA30B10022284B2046CE
:101710002946FFF74FFAC0BB0022254B2046294639
:10172000FFF75CFA30B10022224B20462946FFF732
:1017300041FA60BB00221F4B20462946FFF74EFAB4
:1017400030B100221C4B20462946FFF733FA00BB7C
:101750000022194B20462946FFF740FA30B10022FB
:10176000164B20462946FFF725FAA0B90022134B55
:1017700020462946FFF732FA10B10D2000E006207E
:10178000F8BD0720FCE70820FAE70920F8E70A205F
:10179000F6E70B20F4E70C20F2E700BFAFF3008080
:1017A00000003940000049400000594000006940F5
:1017B0000000794000008940000099400000A940E5
:1017C0000000000080842E4130B589B004460C9D95
:1017D0000020C4F8F800C4F8FC0004F58070C4F8D8
:1017E0000001C4F8040104F58470C4F80801C4F8C9
:1017F0000C011DB3287918BB0120C4F810019FED1E
:10180000127B8DED067B00200490039302900190E3
:1018100000940F4B204637F0C9FE55B1296811B12D
:10182000204622F067FB6B791BB1237B43F0010359
:101830002373204622F072FF09B030BD0120DCE79F
:1018400040F20110D9E700BFFFFFFFFFFFFFFFFFDE
:10185000D13C03000000000010B582B00446002314
:1018600004320ED27BB99FED0A7B8DED007B41F0F7
:101870000401204637F06DFA08B140F8044B02B07D
:1018800010BD0123EEE70020F9E700BFAFF30080B1
:10189000000000000000000038B5836805699C69FD
:1018A0007CB112F4000F06D02D6801238B401D423D
:1018B00001D082F0C062044B134002F0B072A04726
:1018C00038BD6FF05700FBE74000000608B5406BDD
:1018D000024B19688368DB68984708BD64340020B0
:1018E000F8B507460C4615461E461049FFF73CFA68
:1018F00008B9012C0DD00E493846FFF735FA78B9F2
:10190000082C10D108220B493046A84700EAE070A5
:10191000F8BD012208493046A84700EAE070F7E721
:101920006FF00100F4E76FF00100F1E7D4BF0400AD
:1019300044C50400E84500209D15012070B5064609
:101940000C4615461049FFF70FFA28B995B10F4B11
:101950001B782370012070BD0D493046FFF704FA53
:1019600058B9072D0CD90B4B1A685B68226063606D
:101970000820F0E76FF00B00EDE76FF00100EAE7F9
:101980006FF00B00E7E700BFD4BF04009D150120F6
:1019900044C50400E845002008B507482AF0AFFB1D
:1019A000064B1B7803B908BD4FF4004200230448DE
:1019B00022F082FAF7E700BF54C804009A1501200C
:1019C000C030002008B5034A032103482CF0C7FEAD
:1019D00008BD00BF48B7040074B1040008B5024850
:1019E00022F036F808BD00BF403E002008B502488E
:1019F00022F022FA08BD00BF607A002008B5064B2D
:101A00001B68064A934203D00C3A934200D008BDAB
:101A1000034822F011FAFAE7707A0020A8C80400FF
:101A2000207A002008B5024822F006FA08BD00BF5F
:101A3000107A002008B5064B1B68064A934203D073
:101A40000C3A934200D008BD034822F0F5F9FAE7BA
:101A5000707A0020A8C80400007A002008B5032886
:101A60001BD004280DD0022804D0124B4FF0FF32B7
:101A70001A6005E0104822F0DFF90E4B02221A60CE
:101A800008BD0E4822F0D8F90A4B04221A60002241
:101A900006210B482AF026FBF2E70A4B1A680A4B8C
:101AA0009A4202D0044822F0C7F9024B03221A607E
:101AB000E6E700BF20340020507A0020407A002062
:101AC000DCAB0400707A0020B4C8040010B500211B
:101AD00013482AF0E7FA003818BF0120114B18709C
:101AE0001B7853B1002206210D482AF0FBFA002290
:101AF00000230D4822F0E0F910BD0B4837F0F4FC4C
:101B0000074C0022072120462AF0ECFA074B1A68FE
:101B1000023A18BF0122062120462AF0E3FAEBE739
:101B2000DCAB04009A150120C030002020340020D6
:101B300010B50446002110302AF025FBB0B11C344A
:101B4000D4E8AF3F012B08D0D4E8AF3F3BB9084BF6
:101B5000186820B12FF031F901E00EF057FB022395
:101B6000D4E8EF2FC4E8E13F0029F9D110BD00BF50
:101B70001C78002010B50446FFF7DAFF0A4837F05A
:101B80009CFF0A4837F099FF094837F0ADFC094837
:101B900037F0AAFC012104F110002AF0F4FA00B990
:101BA00010BD0FF075FAFBE7F8410020C04100209E
:101BB000984200206842002010B50446044A0321E0
:101BC00004482CF0CCFD2046FFF7D4FF10BD00BF29
:101BD00064B7040074B1040010B50446044A03213C
:101BE00004482CF0BCFD2046FFF7C4FF10BD00BF29
:101BF00084B7040074B1040038B50446154B1B7853
:101C0000154A012115482CF0B4FD154B1B78D3B9AA
:101C1000144B1B78D3B9144D0122082128462AF011
:101C200061FA4FF4C030002137F00CFE0022082189
:101C300028462AF057FA2046FFF79CFF0B4837F05A
:101C40003CFF2BF04AFB06F04BFCE1E70DF094FB68
:101C5000E1E700BF9D150120A0B7040074B10400A6
:101C60009B1501209C150120DCAB0400B045002031
:101C700010B504460A4A03210A482CF070FD0121E0
:101C8000094805F0ABFE18B92046FFF773FF10BDF9
:101C90000346064A022103482CF06BFDF4E700BF1F
:101CA000D4B7040074B1040044AD0400F4B70400D8
:101CB00038B550B10649074D074C204602F042FCAA
:101CC0002946204602F066FC38BD0449044DF3E77E
:101CD0003034002028340020007800202C340020EC
:101CE0002434002010B582B00446104A0321104865
:101CF0002CF035FD0DF107010E482CF032FE9DF859
:101D00000730012B04D02046FFF734FF02B010BD8E
:101D10000121084805F062FE03460028F3D0064A78
:101D2000022103482CF025FDEDE700BF10B80400A8
:101D300074B104006CAC040034B80400F0B585B094
:101D400002AF044600F11005002128462AF010FADF
:101D500000283CD06E4688B002AB13F1100261D06F
:101D60000C2152B10846042903DDDFF804C1C3F891
:101D700014C0082801DD374898610B2955DD4FF064
:101D80000C0C3AB10321397000217970B970F970E7
:101D90003868186100216FF300016FF341016FF3A0
:101DA00082016FF3C501042363F38811CCF30A0C9D
:101DB0006CF353216FF31F510023274805F056FAA7
:101DC000B5462046FFF7B4FE32202AF0BBF9234B7C
:101DD000186868B300230093012221492FF01FF8EF
:101DE000034658BB0023BB80BB71391D1B4B1868D1
:101DF0000EF0C2FB034610B110F1780F24D1D5E8E4
:101E0000EF3F43F00103C5E8E23F002AF7D11C345D
:101E10000023D4E8EF2FC4E8E13F0029F9D10C37C3
:101E2000BD46F0BD6FF000419BE76FF01B0CA8E7CB
:101E30000C4A012108482CF092FCF0E70A4A0121E3
:101E400005482CF096FCEAE7084A012102482CF0EC
:101E500090FCE4E790C7040074B104001C780020F3
:101E600048340020A0B80400D4B804000CB9040021
:101E700058B8040010B500210A482AF079F900B9D1
:101E800010BD094BD3E8AF3F012BF9D1074C2046D9
:101E9000FFF74EFE2268064B9A42F1D12046FFF72B
:101EA0004DFFEDE7807A00208C7A0020707A0020C8
:101EB0009CC8040030B583B0044600F11005002131
:101EC00028462AF055F988B90023009301221749C2
:101ED00017480EF01DFB0346A8B110F1780F0CD087
:101EE000144A012114482CF044FC1CE02046FFF762
:101EF0001FFE14202AF026F9E6E7104A02210E48B8
:101F00002CF02DFC0FE0D5E8EF3F43F00103C5E8CE
:101F1000E23F002AF7D11C340123D4E8EF2FC4E8B4
:101F2000E13F0029F9D103B030BD00BF40340020AB
:101F30007CC8040040B9040074B1040078B90400FE
:101F400038B5194B1B68194A934202D00C3A934298
:101F50001BD1174B01221A7003225A7000259D7065
:101F6000114C2046FFF7A6FF294604F110002AF085
:101F7000FFF828B104F11C03D3E8AF3F012B05D0D3
:101F80000C4A01210C482CF0EAFB38BD4FF40052FA
:101F900000230A4821F090FF4FF4A03200230848A4
:101FA00021F08AFFF1E700BF707A0020A8C8040082
:101FB0002078002094B9040074B1040098420020F5
:101FC0006842002008B5104B1A68104B9A4212D094
:101FD00001210F482AF0D7F870B90E4837F06DFD8F
:101FE000094B00221A751A680B4B9A4207D0194602
:101FF000054809F095FD08BD0FF04AF8EDE70248E5
:10200000FFF79CFEF7E700BF707A0020B4C8040019
:10201000807A0020C04100209CC8040008B5024915
:10202000024809F07DFD08BD9CC80400707A0020BC
:1020300008B50249024809F073FD08BDB4C80400A0
:10204000707A0020F0B58BB004460D461646037832
:10205000032B38D8DFE803F002212B311D4B93E826
:1020600003000790ADF82010090C8DF82210637959
:102070002279E178A07867780DF11C0CCDF814C0B6
:1020800004970390029101920093A379124A31467A
:10209000284628F09FFD0BB0F0BD104B93E80300DD
:1020A0000790ADF82010090C8DF82210DFE70C4ADC
:1020B00007AB07CA03C31A80D9E70A4A07AB07CAA6
:1020C00003C31A80D3E7084A0A2107A828F082FD33
:1020D000CDE700BFC8B90400D8B90400D0B90400E6
:1020E000FCB9040008BA0400581F0500B0B58AB056
:1020F00000AF0D461E2207F10801FFF7A3FF6C4653
:1021000000233B7102237B718AB0EC461CF1100264
:102110001AD0122022B1042802DD2B4BCCF8143047
:1021200000233B7002237B70DAB10346082803DDED
:1021300007F10801CCF818100C2B01DDCCF81C506D
:102140000CF1200300210AE06FF00040E2E701F10A
:1021500028053D4415F8285C03F8015B013101298D
:10216000F5D911282DDD12234AB10421397100213E
:102170007971B9710121F9717868CCF810000021EA
:102180006FF300016FF341016FF382016FF3C5013B
:10219000032060F38811C3F30A0363F353216FF341
:1021A0001F510023094805F061F8A546084B1A683D
:1021B000084B9A4202D0084821F03EFE2837BD461F
:1021C000B0BD6FF01B03CFE714BA040074B1040074
:1021D000707A0020B4C80400307A0020F0B585B0D1
:1021E0000446254A032125482CF0B9FA0020FFF7C0
:1021F0005FFD2046FFF79CFC0021214805F0EEFB27
:1022000090BB042103A80AF067FE039A1D4BA3FBB1
:1022100002131B0B43F6982101FB1323590CDB031C
:1022200040F2E73558194FF47A724FF0000341F14C
:102230000001FEF77FFD07460E46A469610C4FEAD8
:10224000C43C1CEB05004FF47A724FF0000341F1DF
:102250000001FEF76FFD009001913A4633460A48AF
:1022600022F0C0FD05B0F0BD0346084A0221034834
:102270002CF07FFAC5E700BF30BA040074B1040047
:1022800044AD040073B2E745F841002054BA04009D
:1022900030B583B004461E4A03211E482CF05FFA75
:1022A0000120FFF705FD002525754EF66023A3618B
:1022B0002046FFF743FD184BD3E8EF2F012A03D147
:1022C000C3E8E15F0029F7D105D12946134805F09D
:1022D00085FB0346B0B9A069410CC00340F2E73367
:1022E000C0184FF47A724FF0000341F10001FEF77D
:1022F00021FD02460B4600900191094822F072FD33
:1023000003B030BD074A022102482CF032FAE2E75E
:1023100074BA040074B10400FC7900206CAC0400B1
:10232000F84100209CBA0400B0B584B002AF01218E
:10233000474829F028FF00283FD16C4688B002ABFF
:1023400013F110023CD00C2142B10846042901DDF2
:10235000404D5D61082801DD3F4898610B2932DD61
:102360004FF00C0C3AB10321397100217971B97128
:10237000F9717868186100216FF300016FF3410172
:102380006FF382016FF3C501042363F38811CCF36B
:102390000A0C6CF353216FF31F5100232F4804F0F4
:1023A00065FFA5462E4B1B682E4A93420ED02E4A3F
:1023B00093421BD00837BD46B0BD0EF069FEBCE7A6
:1023C0006FF00041C0E76FF01B0CCBE7244A137D90
:1023D0000133DBB21375022B04D92349104609F0EF
:1023E0009FFBE7E71E48FFF7A9FCE3E71C4CA36946
:1023F0005B001E4DAB4228BF2B46A3610421781819
:102400000AF06AFD7A681A4BA3FB02135B0B47F2D2
:10241000305101FB1323A0691844A061A84228BFD2
:102420002846A061410CC00340F2E733C0184FF4C6
:102430007A724FF0000341F10001FEF77BFC024687
:102440000B46009001910B4822F0CCFCB2E700BF94
:10245000807A0020C4BA040078C7040074B1040074
:10246000707A00209CC80400A8C80400C0D40100F1
:1024700073B2E745F841002000B583B01348FFF779
:1024800057FB134913480EF0BFFD18B1034610F176
:10249000780F15D1104BD3E8EF1F41F00201C3E8CC
:1024A000E21F002AF7D100220023CDE900234FF4D8
:1024B00000420023094822F095FC03B05DF804FBBC
:1024C000074A012107482CF054F9F6E7707A0020FA
:1024D000ED20010070C80400807A0020C041002077
:1024E000F4BA040074B104002DE9F041C2B01646FC
:1024F0001A4601F1090393426ED807460D460021A2
:10250000304638F062F8574BD3F80080B8F1000F2E
:102510006BD05923ADF8003153490B684A68013339
:1025200042F100020B604A60C2F307218DF80211EC
:102530008DF803211A0C190E8DF804118DF8052160
:10254000C3F307228DF806218DF807313CAB002438
:102550003C943D943E943F9442AA12E9030083E8E0
:102560000300E422214603A838F02FF802943F4AE2
:10257000414603A837F098FE034600283DD11022BB
:102580003CA903A837F095FE034600283DD132460A
:10259000002302F8013B40AB03CBC6F801005160B9
:1025A00002AB0193009506F109032A46394603A8B8
:1025B00037F0A0FE0446002835D1029FBD423BD82B
:1025C000BD4229D000972B46294A012129482CF0E9
:1025D000DBF86FF004041FE00092274A0121254830
:1025E0002CF0D2F86FF00B0419E0244A01212148A5
:1025F0002CF0B5F84FF0FF3411E0214A01211D48BD
:102600002CF0B7F86FF00D0409E01E4A01211948BB
:102610002CF0AFF86FF00D0403A837F031FE204620
:1026200042B0BDE8F0810346174A012111482CF061
:10263000A0F86FF00D04EFE707F1090102ABEA1B08
:10264000314403A837F075FE034610B9029B1F44BE
:10265000B6E70E4A012107482CF08BF86FF00D0405
:10266000DAE700BF907A0020E84500200010C0049F
:10267000ECBB040074B1040014BB040050BB0400A4
:102680006CBB040094BB0400B0BB0400CCBB0400D2
:1026900070B582B000242646022C25D8174B53F87B
:1026A000340036F015FB50B14FF4B011134800EB75
:1026B000C40029F0E0FC054678B90134EBE70F4B84
:1026C00003EBC4031B79009333460D4A01210D48E7
:1026D0002CF05AF86FF012050CE033460A4A01213B
:1026E00008482CF046F805E0084A032105482CF07C
:1026F00036F80025284602B070BD00BF44C804006B
:10270000A4BC040074B10400C4BC0400E0BC040018
:1027100038B50024012C1FD81A4B53F8340036F07A
:10272000D7FA50B14FF48031164800EBC40029F0BD
:10273000A2FC054648B90134ECE7134A01211348CD
:102740002CF00DF86FF0120519E00346104A012134
:102750000E482CF00EF812E04FF0E861094829F01D
:102760005AFC0C490C4B4B6001238B600B4829F041
:10277000D0FC0B4A032105482BF0F1FF0025284629
:1027800038BD00BF34C80400FCBC040074B10400B0
:102790001CBD040010780020CD1A0100DCAB040041
:1027A00050BD040010B5184836F092FAD8B14FF475
:1027B0008031164829F05FFC0446E8B94FF0B86153
:1027C000124829F028FC1249124B4B604FF40003C9
:1027D0008B600D4829F09DFC0F4A03210F482BF018
:1027E000BEFF204610BD17230D4A01210B482BF0D8
:1027F000C0FF6FF01204F4E703460A4A01210748BC
:102800002BF0B7FFEDE700BFF4AB04002CC80400C9
:1028100004780020DD190100D0BD040074B104006B
:1028200074BD04009CBD040010B584B01F4836F090
:102830004FFA10B31E4BEC460FCB8CE80F001B4831
:1028400083689B68614698471A4B186000281CDB18
:10285000164883681B68002198470446F0B9154B59
:10286000196812488368DB689847134A03211348A4
:102870002BF075FF204604B010BD114A01210F480E
:102880002BF06DFF6FF01204F4E703460D4A0121AF
:102890000A482BF06EFF4FF0FF34EBE703460A4A7D
:1028A000012106482BF065FFE4E700BF3CAC0400C3
:1028B000C0B304006434002050BE040074B10400AE
:1028C000F0BD040008BE040038BE040008B5094885
:1028D00036F0FEF930B1084A032108482BF03FFFDB
:1028E000002008BD064A012104482BF038FF6FF094
:1028F0001200F6E744AD04008CBE040074B104007D
:1029000070BE0400F0B587B000AF002206215D481C
:1029100007F01AFB002875D15B4809F00BFD04464F
:1029200000287AD1391D584BD86809F0C3FC3B699F
:10293000564A032156482BF01CFF07F0CBFD0446F6
:10294000002871D1534807F039FC054610B110F149
:10295000020F70D100237B6107F1140016F0BEF95D
:1029600031F068FA7B6913F0100F6CD14A4B1B7879
:10297000002B71D17B6913F0100F03D1464B1B78EC
:10298000002B71D1454B93ED007B434B1E786D4678
:102990008AB06B4613F110026ED014216AB108465A
:1029A000042903DDDFF80CC1C3F814C0082801DDD9
:1029B00083ED067B102800DD1E6213295FDD4FF0DA
:1029C000140C3AB10521397100217971B971F9718D
:1029D0007868186100216FF300016FF341016FF314
:1029E00082016FF3C501032363F38811CCF30A0C52
:1029F0006CF353216FF31F510023254804F036FC7C
:102A0000AD4606E004460346254A012120482BF046
:102A1000B0FE20461C37BD46F0BD0346214A0121C9
:102A20001B482BF0A6FEF4E703461F4A0121184875
:102A30002BF09FFEEDE703461C4A012114482BF0C2
:102A400098FE2C46E5E714490B7801330B70012200
:102A5000174807F077FB8DE70F4900230B70012221
:102A6000134807F06FFB85E70B4900230B70012229
:102A70000F4807F067FB85E76FF000418EE76FF0C6
:102A80001B0C9EE700BF0400E83200201CBF0400BE
:102A900074B104008CBF04009D150120E84500209E
:102AA00004BF040040BF040060BF040098BF0400DE
:102AB000C8BF0400DCBF040030B587B0264829F049
:102AC00094FB002837D02449244801F017FC002843
:102AD00039D0234D03AB05F1100207CA03C31A8096
:102AE0001E4C03AA4FF48051204601F0D3FC012371
:102AF0001A460021204601F075FD1A49204601F0D2
:102B000021FD1949204601F045FD1C3595E80300DB
:102B10000190ADF80810090C8DF80A10012201A9E6
:102B2000204601F09DFE114A032111482BF017FEAB
:102B3000002007B030BD0F4A01210D482BF00FFED9
:102B40006FF01200F5E70C4A012109482BF007FE4F
:102B50006FF01200EDE700BF14C8040000780020F9
:102B6000C0B30400303400202834002064C00400C6
:102B700074B1040020C0040040C0040010B501205E
:102B800001F068FF044630B9064A032106482BF0DD
:102B9000E6FD204610BD0346044A012102482BF001
:102BA000E8FDF6E7B8C0040074B1040088C0040072
:102BB00010B588B023F09EF800282FD1002401948E
:102BC0000294039404940594069407944FF440737C
:102BD0000093684629F0A7FA009B03930294069499
:102BE000164B04934FF41053ADF804308023ADF826
:102BF0000630134B1022134901A837F012FA04468D
:102C0000A0B901A837F0B6FB0D4B1B680E4A032193
:102C10000E482BF0AEFD204608B010BD044603461A
:102C20000B4A012109482BF0A4FDF4E70346094AA9
:102C3000012106482BF09DFDEDE700BF0010C00408
:102C4000907A002058C704001CC1040074B104002D
:102C5000DCC00400FCC0040010B5084A002108488C
:102C60000DF06EFB044608B9204610BD0346054A28
:102C7000012105482BF07DFDF6E700BF1C78002000
:102C8000503400204CC1040074B10400F0B585B08C
:102C900000AF0CF03DFC0024022C00F2C38007F1D1
:102CA00008026349634B53F824000AF03BFA0546D7
:102CB00040B907F108000CF0F5FB0546002859D192
:102CC0000134E9E75B4B53F824106E4600233B7157
:102CD00002237B718AB06C4614F1100215D01220C9
:102CE0001AB1042801DD544B636100233B700223B9
:102CF0007B70BAB10346082800DDA1610C2B00DD12
:102D0000E56104F1200300210AE06FF00040E7E7ED
:102D100001F1100CBC441CF810CC03F801CB0131BC
:102D20000129F5D9112822DD122342B1042139717C
:102D300000217971B9710121F97178682061002150
:102D40006FF300016FF341016FF382016FF3C5016F
:102D5000012060F38811C3F30A0363F353216FF377
:102D60001F510023354804F081FAB5465BE06FF04F
:102D70001B03DAE72F4B53F824106E4600233B71F8
:102D800002237B718AB06C4614F1100215D0122018
:102D90001AB1042801DD2A4B636100233B70022332
:102DA0007B70BAB10346082800DDA1610C2B00DD61
:102DB000E56104F1200300210AE06FF00040E7E73D
:102DC00001F1100CBC441CF810CC03F801CB01310C
:102DD0000129F5D9112822DD122342B104213971CC
:102DE00000217971B9710121F971786820610021A0
:102DF0006FF300016FF341016FF382016FF3C501BF
:102E0000012060F38811C3F30A0363F353216FF3C6
:102E10001F510023094804F029FAB54603E06FF07A
:102E20001B03DAE7002528461437BD46F0BD00BF76
:102E3000D0B90400343400207CC1040074B1040013
:102E400090C1040010B51C4829F0DDF9A8B9002094
:102E50000CF0B4F80446C8B9184B01221A70FFF7F9
:102E6000FBFE0446C8B9FFF711FF0446E0B9144A57
:102E7000032114482BF073FC06E004460346124A73
:102E8000012110482BF075FC204610BD03460F4A67
:102E900001210C482BF06DFCF6E703460C4A01219A
:102EA00008482BF066FCEFE703460A4A0121054873
:102EB0002BF05FFCE8E700BF5CC804009C15012014
:102EC00024C2040074B10400BCC10400D4C10400D5
:102ED0004CC10400F4C1040010B582B0002301937A
:102EE00002214FF60B400AF0CFFFA8B104460221A1
:102EF0000C302CF002FD01AA21464FF60B400BF0DE
:102F00001FFC044680B90198C4682CF0ABFC94F90E
:102F10000140204602B010BD074A012107482BF0AE
:102F20001EFC6FF00B04F4E70346054A0121034839
:102F30002BF01FFCEDE700BF3CC2040074B104009D
:102F400060C2040070B586B001F096FD0446FFF73C
:102F5000C3FF054601211D4829F0A4F8002C2DDBF4
:102F6000C6B21B4B83FB0423E217C2EBE302002330
:102F70000193029303930493059302238DF8043085
:102F80008DF8082029F017F903908DF810508DF86E
:102F900011600022002301A90E4820F057FB38B928
:102FA00023460D4A03210D482BF0E3FB06B070BD0C
:102FB0000B4A022109482BF0D2FBF1E72346094ACC
:102FC000012106482BF0D5FBF0E700BFDCAB040085
:102FD00067666666103E00209CC2040074B104005F
:102FE00088C20400B4C204002DE9F04186B000AFED
:102FF00001F042FD051E66DBFFF76EFF044601216E
:103000003A4829F04FF806465FFA80F8384A82FBC2
:103010000532EB17C3EBE20300227A60BA60FA6074
:103020003A617A6102223A713B7229F0C4F8F86081
:103030003C7487F8118000220023391D2D4820F0B0
:1030400005FB002846D1F6B2E8468AB06B4613F17C
:10305000100245D014217AB10846042903DDDFF8B7
:10306000A4C0C3F814C0082800DD9D610C2800DD51
:10307000DC61102800DD1E62132934DD14243AB10E
:103080000521397000217970B970F97038681861BC
:1030900000216FF300016FF341016FF382016FF3C1
:1030A000C501032363F38811C4F30A0363F35321B7
:1030B0006FF31F510023104804F0D8F8C5461837A5
:1030C000BD46BDE8F0812B460C4A01210A482BF091
:1030D00050FBF4E70A4A022107482BF040FBEEE7D9
:1030E0006FF00041B7E76FF01B04C8E7DCAB0400EA
:1030F00067666666103E002074B10400D8C2040002
:10310000F8C2040024C304002DE9F04385B002AFE7
:103110001E46BB6AE62B3AD90446894690460E2ADB
:103120003DD8B4F9003007EE903AF8EEE77A9FED1B
:103130005E7AC7EE877A17EE900AFDF771FA41ECD6
:10314000100B28F067FE51EC100BFDF75BFD10F142
:103150001D0F2EDB2828A8BF2820C3B21E333370D2
:10316000A38842F23312934226D9A3F50453343B89
:103170009BB273701B0AB370237EF370637E33714E
:10318000A37E737186F806800020072531E0E722D0
:103190000092464A012146482BF0F6FA71E00E25CE
:1031A00000951346434A022141482BF0EDFAA84608
:1031B000B7E76FF01D00D0E70023DAE772190101CD
:1031C00009EB001359F801C05C68996846F805C01E
:1031D0005460916005F10C02DC68B318B454C4F378
:1031E00007225A70220C9A70240EDC7010350130C0
:1031F000C0B24045E2D34446C8F10E08B8F1000F12
:1032000043DCE72D3DD06E468AB002AB13F11002CD
:1032100044D0142192B10846042903DDDFF898C098
:10322000C3F814C0082803DD4FF0E70CC3F818C03A
:103230000C2800DDDD61102800DD1C62132930DD63
:1032400014243AB10521397100217971B971F971EC
:103250007868186100216FF300016FF341016FF38B
:1032600082016FF3C501022363F38811C4F30A04DA
:1032700064F353216FF31F5100230D4803F0F6FF51
:10328000B5460C37BD46BDE8F0834FEA0818424604
:103290000021701937F099F94544B2E76FF0004109
:1032A000B8E76FF01B04CCE70000C84274C3040009
:1032B00074B1040090C30400D4C304002DE9F04F9E
:1032C0009FB002AF00243C647C64BC64FC643C6539
:1032D0007C65BC6528F06FFF786528F06CFFB861ED
:1032E0007C63BC6387F83C407C61A14600F006BC6F
:1032F0009F4B1B780D2B0DD8591C9D4A11709D4C6E
:1033000004EB031407F1700313E90F0084E80F00C6
:1033100000F00CBC984A022198482BF020FA00F0EB
:1033200005BCB7F96030A7F840307B6E7B64BB6E9C
:103330007A6D934240F2FA837B65F7E397F8603049
:1033400087F8583097F9683087F8593097F869301E
:1033500087F85A307B6E7A6D934240F2E7837B6543
:10336000E4E3FB69864A012184482BF002FA4FF41A
:103370000040002136F066FAC0E3B9F1000F53D0E7
:103380006C4688B002AB13F1100200F08E800C2165
:1033900052B10846042903DDDFF82CC2C3F814C07B
:1033A000082801DD774898610B2940F381800C21C2
:1033B0005AB1032087F82400002087F8250087F8F9
:1033C000260087F82700786A18616FF3000A6FF308
:1033D000410A6FF3820A6FF3C50A042363F3881A64
:1033E000C1F30A0161F3532A6FF31F5A00235146B8
:1033F000624803F03BFFA54607F1340008F03EFFAA
:10340000031E58DB07F1340008F0FEFE031E58DBF4
:103410005D4B0122D3E8EF1FC3E8E02F0028F9D16C
:10342000FB697B614FF00009514B1A7832B30E2AC9
:1034300004D0564B1B68EB1A8B2B1FD9531E4D49DA
:1034400001EB0313DB687B65E7240094504B07F125
:103450004000FFF759FEF0234E4A21464C48FFF743
:1034600043F80346002832D04B4A012143482BF051
:1034700080F93F4B00221A70444B1D60BB69EA1A69
:10348000464B9A4240F23A8308224549454806F0A5
:1034900059FE0346002838D0434A012137482BF013
:1034A00068F928F088FEB86128E36FF000416FE703
:1034B0006FF01B017CE73D4A012130482BF059F9A0
:1034C000A0E73B4A01212D482BF053F9A0E700214A
:1034D000384828F04DFE0028CBD0374BD3E8AF3F1B
:1034E000002BC6D1009301223449354800682DF0E5
:1034F00096FC03460028BCD010F1780FB9D0314AB1
:1035000002211E482BF035F9B3E7254B93ED007BE4
:103510006C461C220C2312F0070F26D103F1080180
:103520000D461F3323F00703ADEB030D02AA29B1AB
:1035300002F11003032949D86FF01B056FF3000B4C
:103540006FF3410B6FF3820B6FF3C50B042363F32F
:10355000881B65F3532B6FF31F5B10320023594612
:10356000064803F083FEA5469BE704330432D2E706
:1035700099150120807600201CC4040074B1040059
:103580004CC4040068C70400FC7900207C7600204D
:103590001479002024780020E4C40400E09304009F
:1035A000E845002038C5040078C5040098C404002C
:1035B000C4C40400807A00208C7A002048340020A3
:1035C0001C7800200CC5040074C404003BB104291D
:1035D00001DDB9485061082901DDB84890611C201F
:1035E0000C2510F0070F1AD1284623B18D4202DABC
:1035F0005D1985ED007B0830814213DB0546002B09
:103600009CD0C0F3870087F82400002387F825307A
:1036100087F8263087F82730786A10618EE70435FE
:103620000430DEE76FF01B05E9E7A54B1B7823B1FB
:10363000A34B00221A70A34B186097F85C30002B44
:1036400040F05C82B9F1000F40F09E809E4B1B78E9
:10365000002B40F09E806C46012387F82430032322
:1036600087F825308AB002A911F1100200F0A58078
:103670004FF0120E4AB17346BEF1040F01DD9348BC
:103680004861082B01DD8D4B8B61012387F82030C9
:10369000032387F82130002A40F09280BEF1110FF9
:1036A00040F3A680122362B1042087F82400002092
:1036B00087F8250087F82600012087F82700786A18
:1036C00008616FF300086FF341086FF382086FF32E
:1036D000C508042161F38818C3F30A0363F3532870
:1036E0006FF31F5800234146794803F0BFFDA546FC
:1036F0003222784907F1340008F0F2FC00287ADB26
:103700006C4688B002AB13F1100200F000810C216E
:1037100052B10846042903DDDFF8CCC1C3F814C058
:10372000082801DD654898610B2940F3F3800C21DE
:103730005AB1032087F82400002087F8250087F875
:10374000260087F82700786A18613B696FF3000349
:103750006FF341036FF382036FF3C503184604232D
:1037600063F388100346C1F30A0161F353236FF337
:103770001F5319463B610023554803F077FDA546CA
:10378000FB697B614FF001094F4B1C78002C00F066
:10379000C4804D4B1B78002B00F0B0814E4B1B6852
:1037A000EB1A4E4A934240F2A9814D4A0221484801
:1037B0002AF0D5FF484B1D60A0E16FF0004E59E79D
:1037C000BEF10C0F01DD434BCB6101F12003002062
:1037D0007A6009E000F1500C07F1200294441CF8D3
:1037E00050CC03F801CB01300128F3D97A6855E7B2
:1037F0006FF01B0357E76C46002387F82430022341
:1038000087F825308AB002A911F1100240D04FF09C
:10381000120E22B1BEF1040F01DD324B4B610023C9
:1038200087F82030022387F82130A2BBBEF1110FA8
:103830006ADD122362B1042087F82400002087F893
:10384000250087F82600012087F82700786A08619C
:10385000F9686FF300016FF341016FF382016FF3B9
:10386000C5010846012161F388100146C3F30A032C
:1038700063F353216FF31F51F9600023144803F0E1
:10388000F5FCA5464FF42030002135F0DBFF80E742
:103890006FF0004EBDE77346BEF1080F03DDDFF8A1
:1038A00034C0C1F818C00C2B00DDC86101F1200341
:1038B00000207A6024E000BF50C5040068C70400FF
:1038C000991501207C76002098150120A0C50400E0
:1038D00074B10400C4C5040078760020E0930400AD
:1038E000ACC60400D8C50400F8C5040000F1500CB3
:1038F00007F1200294441CF850CC03F801CB0130AE
:103900000128F3D97A6891E76FF01B0392E76FF013
:103910000041FDE66FF01B010AE7FB6E7B6207F1D9
:10392000280307F1600207CA83E80700102207F1A5
:10393000240107F1340008F085FC051E4FDB0F2D34
:103940006DD97B6901331A467B6143F697239A420E
:1039500040F3D48007F1340008F090FC031E74DBC0
:103960006C4688B002AB13F1100276D00C2142B144
:103970000846042901DD884D5D61082801DD87487E
:1039800098610B296CDD0C215AB1032087F82000C7
:10399000002087F8210087F8220087F82300386A82
:1039A0001861BB686FF300036FF341036FF3820389
:1039B0006FF3C5031846042363F388100346C1F36D
:1039C0000A0161F353236FF31F531946BB600023B1
:1039D000734803F04BFCA546FB697B618EE02B46E8
:1039E000704A01216E482AF0C4FE15F11C0F0DD05B
:1039F00007F1340008F008FC6B4B0122D3E8EF1FFD
:103A0000C3E8E02F0028F9D1A14677E0674A0221F8
:103A100063482AF0A4FE664B01221A70E8E71023DF
:103A200000932B46634A02215D482AF0ADFE07F160
:103A3000340008F0E9FB5C4B0122D3E8EF1FC3E838
:103A4000E02F0028F9D1A14658E05B4A02215448F2
:103A50002AF08FFEFB697B6150E06FF0004186E742
:103A60006FF01B0190E76FF0004176E00B2940F307
:103A700083800C215AB1032087F82400002087F8A6
:103A8000250087F8260087F82700786A18616FF309
:103A900000066FF341066FF382066FF3C506042339
:103AA00063F38816C1F30A0363F353266FF31F56BB
:103AB000002331463A4803F0D9FBA54607F134000C
:103AC00008F0DCFB031E5ADB07F1340008F09CFB16
:103AD000031E5ADB344B0122D3E8EF1FC3E8E02F6B
:103AE0000028F9D1FB697B614FF00009334B1B784B
:103AF00023B1324B00221A70314B1D604FF0FF3260
:103B00004FF0FF3307F15C012E481FF00FFEF86104
:103B100000287FF426AC97F85C30012B3FF401AC11
:103B2000022B3FF40BAC002B3FF4E2AB264B1C689E
:103B300028F041FB0546254B9C423FF41EAC244B2C
:103B40009C423FF472ADB9F1000FCFD06C4688B003
:103B500002AB13F1100286D00C21002A86D0084651
:103B6000042903DDDFF874C0C3F814C008287FF708
:103B70007DAF0A48986179E76FF01B017AE7154A33
:103B8000012107482AF0F5FD9EE7134A0121044868
:103B90002AF0EFFD9EE700BF98C6040068C7040046
:103BA00074B104001CC60400FC7900203CC604006B
:103BB0009815012050C604007CC604009915012008
:103BC0007C760020103E0020707A00209CC8040003
:103BD000A8C8040098C40400C4C40400D8C60400E3
:103BE00030B583B0294D00222949284635F059FFC8
:103BF00000222849284835F054FF00222749284848
:103C000035F04FFF274C00222749204635F049FF69
:103C10002649274835F0ACFB2649274835F0A8FB54
:103C20002649274835F0A4FB2649274835F0A0FB54
:103C30002649274835F09CFB2649274835F098FB54
:103C40002649274835F094FB2649274835F00BFCD8
:103C50002649274835F007FC264B63634FF40042A2
:103C60000023CDE90023204621F0BCF84FF0E1729B
:103C70000023CDE90023284621F0B4F81E4A032191
:103C80001E482AF06CFD03B030BD00BF304200205A
:103C9000ED190100351A0100F8410020251A010034
:103CA000C0410020B0450020CD18010031200100A6
:103CB000507A00201D200100407A0020452F01008D
:103CC000607A0020C51F0100307A002079240100AD
:103CD000207A002029230100107A0020411F0100D2
:103CE000007A0020751E010098420020FD19010095
:103CF000684200203CAC0400F0C6040074B104002B
:103D000008B510480023D0E8EF2FC0E8E13F0029B4
:103D1000F9D100F10C020221D2E8EFCFC2E8EE1F88
:103D2000BEF1000FF8D1103803754EF660238361A1
:103D300005492BF03FFE054A032105482AF00FFDF7
:103D400008BD00BF807A002090C804001CC7040092
:103D500074B10400D0B588B0FFF7D2FFFEF798FC2D
:103D600030B15149514807F0DBFE002008B0D0BD0A
:103D7000FEF7CEFC0028F4D1FEF714FD0028F0D1A8
:103D8000FEF7C0FD0028ECD1494B1B78022B0BD964
:103D90004549464807F0C4FE17F0DAF94FF416001B
:103DA000002135F04FFDF9E7FEF73EFD0028D8D1A0
:103DB000FFF716FFFEF780FE0028D2D1FEF786FD42
:103DC0000028CED1FEF7DAFE0028CAD1FEF7F0FEB9
:103DD0000028C6D1FFF736F80028C2D1FFF704F952
:103DE0003449324807F09CFE334804F0A5FC334BBD
:103DF00001221A7004460028B3D100F071FE00F0D1
:103E00006DFF13E02E4B53F8346003EBC4031F79AE
:103E100001223946304628F065F9FA2028F092F957
:103E200000223946304628F05DF90134022CE9DDE4
:103E30004FF400460027CDE90667002404940523CB
:103E400003930294019400941E4B4FF480621E4928
:103E50001E4835F0ABFB1E4920F04CF8CDE9066753
:103E6000049406230393029401940094194B4FF495
:103E700080621949194835F099FB194920F03AF840
:103E8000CDE90667049407230393029401940094F8
:103E9000144B4FF4C0621449144835F087FB1449A1
:103EA00020F028F878E700BFC0C80400707A00202E
:103EB0009D1501209CC804005D1A01009B1501207E
:103EC00044C8040099110100B81F0120B844002023
:103ED00040C7040051100100B81B0120C04300205E
:103EE00048C70400BD320100B8150120C8420020B7
:103EF00050C7040070B504469DF81000A0FB0221D5
:103F000000FB03111F4BA2FB030203FB0123DD1780
:103F10004FF6ED7606EAE37620F04042810F41EA63
:103F2000830121F040410A4402EB137232441649E6
:103F3000A1FB0261561A01EB5601890BC1EBC1319D
:103F4000521A25F4FF4121F07D010A44801A63EBE7
:103F5000E2730E4A0E4E00FB06F602FB0366A0FB60
:103F6000025216440B4A002328463146FCF792FEC3
:103F70002060084A002328463146FCF78BFE626029
:103F800070BD00BF3AA3950005000200FF7FFFBF90
:103F9000FFDFFFEF40420F0070B50446BDF8101080
:103FA000A1FB020201FB032310EB000C43EB030116
:103FB0001CEB000C43EB0101090241EA1C614FEAD2
:103FC0000C2CBCEB000C61EB0301C90141EA5C6104
:103FD0004FEACC1CBCEB000C61EB0301890041EA09
:103FE0009C714FEA8C0CBCEB000C61EB0301C90027
:103FF0000B4A00234FEACC0041EA5C71FCF74AFE11
:1040000006460D46074A0023FCF744FE2060054A99
:10401000002330462946FCF73DFE626070BD00BFBC
:104020004CFF590040420F0010B588B001F07F01ED
:104030008DF81F100DF11F010391012104910592CC
:10404000069303AB01930223029301A9006828F0B1
:10405000FDF8041E06DB022020F024FB002420468D
:1040600008B010BD2346034A012103482AF081FB12
:10407000F5E700BFD4C8040054B1040010B58CB0FB
:1040800061F07F018DF82F100DF12F0109910121B1
:104090000A9109AC079408910BA90391022104919C
:1040A0000592069303AB0193029101AA07A9006848
:1040B00028F0C1F8041E06DB022020F0F3FA0024E9
:1040C00020460CB010BD2346024A012102482AF0C6
:1040D00050FBF5E7ECC8040054B1040010B582B001
:1040E00001230DF107020021FFF7C8FF044610B9B4
:1040F000204602B010BD0346024A012102482AF0C0
:1041000038FBF5E710C9040054B1040070B584B061
:1041100006460025ADF80C502C4607E0174A012151
:1041200017482AF01CFB04F58074A4B2B4F5005FB4
:1041300020D2C4F343038DF80C30C4F347138DF839
:104140000D304FF47A730093022303AA5B213046AB
:1041500028F086F845B2002DE0D14FF47A73009331
:104160004FF48073074A22445E21304628F078F8E5
:1041700045B2D8E7284604B070BD00BF44C904006A
:1041800054B1040064CD040010B582B0B1F5005FF5
:104190000FD28DF80410C1F304218DF8051002230D
:1041A00001AA4621FFF740FF044650B9204602B05D
:1041B00010BD074A012107482AF0D1FA4FF0FF3419
:1041C000F4E7054A012103482AF0C9FAEEE700BFE7
:1041D00060C9040054B1040098C9040030B583B02C
:1041E00004468B78DB018DF807304A780B789B0109
:1041F00043EAC2138DF8063001230DF10702402176
:10420000FFF712FF58B901230DF1060242212046A3
:10421000FFF70AFF054648B9284603B030BD0546FA
:10422000054A012105482AF09AFAF5E7044A0121D6
:1042300002482AF094FAEFE7C4C9040054B104001C
:10424000E8C9040010B582B043EA42035BB243EA16
:1042500081035BB29DF8102043EAC2038DF807305A
:1042600001230DF107027D21FFF7DEFE044610B9A0
:10427000204602B010BD034A012103482AF06FFA1C
:10428000F6E700BF0CCA040054B1040030B583B097
:10429000044601230DF107027021FFF7EFFE0546EA
:1042A00038B99DF8073013F0100F09D0284603B035
:1042B00030BD03460E4A01210E482AF05AFAF5E7AE
:1042C00043F010038DF8073001230DF10702702130
:1042D0002046FFF7A9FE054618B9322034F0F2FC5B
:1042E000E4E70346044A012102482AF042FADDE7E6
:1042F00028CA040054B1040044CA040010B584B0B4
:1043000004460160FFF7EAFEB0B9204627F0C9FF76
:10431000D0B92046FFF7BAFFE8B901230DF10F022B
:1043200021212046FFF7AAFEE0B99DF80F3013F0D7
:10433000010F1ED0012005E04B4A01214B482AF015
:104340000EFA002004B010BD494A012147482AF066
:1043500006FA0020F6E7474A012144482AF0FFF90F
:104360000020EFE7444A012140482AF0F8F90020F4
:10437000E8E7C82020F096F901230DF10F02002193
:104380002046FFF77BFE28B99DF80F30242B08D07C
:104390000020D7E7394A012134482AF0E0F900200B
:1043A000D0E702238DF80E304FF4E1730093012320
:1043B0000DF10E027C21204627F052FF50BB002356
:1043C0008DF80E3001230DF10E0259212046FFF722
:1043D0002BFE30BB2046FFF799FE48BB01238DF82A
:1043E0000E3047F2305200920DF10E025921204654
:1043F00027F036FF18BB01230DF10F0221212046C3
:10440000FFF73CFE10BB9DF80F3013F0010F24D0D6
:10441000012097E71A4A012114482AF0A0F9002048
:1044200090E7184A012111482AF099F9002089E7FC
:10443000154A01210D482AF092F9002082E7134A1B
:1044400001210A482AF08BF900207BE70A4A012162
:1044500006482AF084F9002074E70D4A0121034838
:104460002AF087F900206DE760CA040054B1040007
:1044700078CA040088CA04009CCA0400BCCA0400AC
:10448000D8CA040004CB040034CB040058CB040089
:1044900078CB040070B584B005461446FFF774FE6F
:1044A00094F90230227843EAC2035BB2E27843EA2D
:1044B00002135BB2627843EAC2138DF80F30142303
:1044C000009301230DF10F024521284627F0C8FE75
:1044D00010BB94F90430627943EA42038DF80C3042
:1044E000A279E3795B0143EA02135BB2227A43EAE1
:1044F00082135BB2627A43EAC2138DF80D30142343
:104500000093022303AA4821284627F0A9FE064665
:1045100050B9304604B070BD06464523064A012115
:1045200006482AF026F9F4E74823054A0121034802
:104530002AF01FF9EDE700BFA0CB040054B104003E
:10454000D0CB040010B584B091F900304A7843EA2A
:1045500002135BB2CA7843EAC2138DF80C308B7831
:104560008DF80D3014230093022303AA402127F075
:1045700077FE044610B9204604B010BD4023034A1C
:10458000012103482AF0F5F8F5E700BF00CC04004C
:1045900054B1040010B584B091F900304A7843EA70
:1045A00002135BB2CA7843EAC2138DF80C308B78E1
:1045B0008DF80D3014230093022303AA422127F023
:1045C0004FFE044610B9204604B010BD4223034AF2
:1045D000012103482AF0CDF8F5E700BF2CCC0400F8
:1045E00054B10400F0B585B006460C461D4617468A
:1045F0000AB133B965B1032C20D8DFE804F02130CB
:1046000049110023009301221146FFF71BFEF1E739
:1046100000220092134601213046FFF713FEEAE71D
:1046200002238DF80F3001230DF10F027C2130465B
:10463000FFF7FAFC23493046FFF7D0FD05B0F0BD87
:1046400002238DF80F3001230DF10F027C2130463B
:10465000FFF7EAFC1C493046FFF7C0FDEEE70623F2
:104660008DF80E3001230DF10E027D213046FFF74B
:10467000DBFC03238DF80F3001230DF10F027C21A9
:104680003046FFF7D1FC11493046FFF7A7FDD5E7CB
:1046900007B92DB10E4A01210E482AF060F8CDE786
:1046A00003238DF80F3001230DF10F027C213046DA
:1046B000FFF7BAFC002100910B460A463046FFF78F
:1046C000C1FDBBE7683400206C340020947A0020E0
:1046D00054CC040054B10400F0B587B005460C4634
:1046E00000218DF80A10032A10D8DFE802F0021129
:1046F0000B0D0226042B00F29C80DFE803F0979458
:10470000919C0B000826F5E71026F3E70026F1E759
:104710000426EFE77D270C230DEB030219462846FC
:10472000FFF7ACFC01230DF10A022F212846FFF709
:104730007BFC01230DF10B023C212846FFF79EFC78
:1047400005469DF80B3013F0400F76D063F07F03E1
:104750008DF80B30002D78D19DF80C309DF80D2090
:1047600043EA022300961AB243F3C0332046FFF710
:10477000C1FB9DF80E309DF80F2043EA02230096FE
:104780001AB243F3C03304F10800FFF7B3FB9DF8FE
:1047900010309DF8112043EA022300961AB243F329
:1047A000C03304F11000FFF7A5FB9DF812209DF81F
:1047B000133042EA032212B29DF90B109DF8163015
:1047C0009DF8170043EA00231BB201FB03F3002B03
:1047D00038DBA2EB63220097D31704F11800FFF730
:1047E000DBFB9DF814309DF8152043EA0223009767
:1047F0001AB243F3C03304F12000FFF7CDFB9DF85C
:1048000016309DF8172043EA022300971AB243F3AB
:10481000C03304F12800FFF7BFFB284607B0F0BD06
:104820004FF4FA7777E74FF47A7774E74FF4FA6743
:1048300071E700276FE7FA276DE703F07F038DF834
:104840000B3087E703F2FF13C3E7034A0121034854
:1048500029F085FFE1E700BF80CC040054B10400DB
:10486000F0B585B006460C461546CB7891F802C0E7
:104870004FEACC0C4CEA031C4FFA8CFC4B784CEA08
:10488000830C4FFA8CFC0B784CEA430C8DF80EC06D
:104890000B798DF80D3001230DF10D025521FFF735
:1048A000C3FB074600BBA37963BB63798DF80F3068
:1048B000012D43D0022D1DD1572401230DF10E02ED
:1048C00054213046FFF7B0FB074600285DD1012395
:1048D0000DF10F0221463046FFF7A6FB07460028E0
:1048E0005AD1384605B0F0BD2F4A01212F4829F092
:1048F00036FFF6E72E4A01212C4829F030FF4FF011
:10490000FF37EEE763798DF80F30012D04D0022DCB
:104910000CD11B018DF80F30012D2BD0022D32D080
:10492000244A0121214829F01AFFDAE7204A01210F
:104930001E4829F014FF4FF0FF37D2E75624012319
:104940000DF10E0253213046FFF76EFB074698B972
:1049500001230DF10F0221463046FFF765FB0746A4
:104960000028BED000942B46134A01210F4829F09D
:104970000BFFB6E75824E2E72B46104A01210B480B
:1049800029F0F7FEADE7582497E72B460B4A0121A3
:10499000064829F0EEFEA4E700942B46064A0121C2
:1049A000024829F0F1FE9CE79CCC040054B10400BD
:1049B000C8CC040040CD040014CD0400E4CC0400B5
:1049C00008B51B4B186834F083F950B3194834F01C
:1049D0007FF948B34FF4B011174827F09CFCF8B9A1
:1049E000134B0022DA601A615A619A61DA6101217F
:1049F000196103F120005861022098610420587762
:104A0000997719185A604A60587144F22802DA807E
:104A100003225A720E221A77186883681B68984717
:104A200008BD6FF00100FBE76FF00100F8E700BF81
:104A300070340020F4AB040070ED040008B5FFF7FB
:104A4000BFFFB0FA80F35B09014A137008BD00BFD5
:104A50009E15012008B5064B1B782BB1024610218C
:104A6000044827F073FC08BD6FF00100FBE700BFAE
:104A70009E150120F4AB0400154B1B782BB310B529
:104A800082B0144C214651F80C0B83685B68984740
:104A90000022A27708B102B010BDB4F92030019312
:104AA0002368986801AB227F2179008927F05BFC9D
:104AB00001984FEAE07C084CA0FB0401074A002360
:104AC00004FB0C11FCF736F9E5E76FF001007047C5
:104AD0009E1501207034002080A2190020BF020022
:104AE00008B5064B064A0321064816F0FFFB064BA5
:104AF000064A0321064816F0F9FB08BDE07A0020BB
:104B0000C4ED0400A47A0020B07A002088ED0400EF
:104B1000987A002030B583B005460C4620EE000A96
:104B200060EEA00A30EE200A21EE011A30EE011AE2
:104B3000B5EEC01AF1EE10FA19DBB1EEC11A8DED27
:104B4000011A012301AA11460A4816F07DFB019BB8
:104B5000009301236A466946074816F075FB0DB1BC
:104B6000019B2B600CB1009B236003B030BD9FED17
:104B7000031AE4E7A47A0020987A002000000000DD
:104B800000B54FF0000C9FED267AF0EE476A0BE07F
:104B900000EB8C0EDEED007A76EEA76A67EEA77A60
:104BA00037EE277A0CF1010C8C45F1D307EE901A01
:104BB000F8EE674A86EEA45AC7EE245A65EE057AE7
:104BC00075EEE75AF1EEE55A4FF0000CDFED146A8E
:104BD000B0EE666A13E000EB8C0EDEED007A77EE45
:104BE000C57A87EEA57A67EE077A27EE277A36EE42
:104BF000076A67EEA77A76EEA76A0CF1010C8C457E
:104C0000E9D3C6EE247AC2ED007AC6EEA47AB0EEFD
:104C1000087A77EEC77AC3ED007A5DF804FB00BF2F
:104C20000000000000EB8103D3ED007AB6EE007ABD
:104C300067EE877A0B4600E0013B53B100EB830C33
:104C40009CED007AB4EEE77AF1EE10FAF4DC00E0C5
:104C5000013102F1FF3C8C4508D900EB810C9CED41
:104C6000007AB4EEE77AF1EE10FAF1DCC91A07EE39
:104C7000901AF8EE677A9FED020A27EE800A7047D5
:104C80000000C83D00B52DED028B83B09FED128A68
:104C90008DED018A00230EE000EB830CDCED007A41
:104CA00003EB020C00EB8C0C9CED007A67EE877A2C
:104CB00038EE278A0133A1EB020C9C45ECD801AAFF
:104CC00016F086FB9DED010A88EE000A03B0BDECEC
:104CD000028B5DF804FB00BF0000000010B50F4B15
:104CE0000024DC609C605C609C615C611C614FF432
:104CF00080610B4817F0B6FB0A4B1C6000230A4A80
:104D000013600A4A14600A4A13600A4A14700A4A75
:104D100014600A4A13600A4A136010BD94340020DC
:104D2000E08D0020DC8D0020D88D0020D48D002067
:104D3000D08D00209F150120CC8D0020C88D002033
:104D4000C48D00202DE9F04F2DED108B95B000AFF4
:104D500087ED050A04466B4D042207F1140128462D
:104D600028F065FDAB682A699B1AB3F5166FC0F091
:104D700083830025B5F5166F1BD2C5F5166207F1C2
:104D80001C01604828F073FD064658B10246F969D7
:104D90005D48284435F0F2FB00215A4828F084FD94
:104DA0003544E7E7594A0121594829F0D8FC002049
:104DB00063E3554D07F14C024FF41671284616F087
:104DC000C7FA07F148024FF41671284616F030FB77
:104DD00097ED129AB1EEC99ADFED4E7AB4EEE79AEA
:104DE000F1EE10FA10D500254FF4C87200214548A5
:104DF00028F078FD04B12570002D00F03B83002CD5
:104E000000F03683012038E3434D4FF416623E49EB
:104E1000284635F0B3FB4FF4D462002105F5166047
:104E200035F0D3FB00233D4A29463D4817F064FA8C
:104E3000002512E06B1C4FEA5508384E06EB830341
:104E400006EB8502D3ED000A92ED000A27F028F860
:104E500006EB880686ED000A0235B5F5806FE9D3CA
:104E600007F1400307F1440240F2FF112D4816F00C
:104E70004BFA3B6C642202FB03F308EE103AB8EEE7
:104E8000488ADFED297A28EE278AF6EE007AB4EE1A
:104E9000E78AF1EE10FA00F1E782F0EE087AB4EE5C
:104EA000E78AF1EE10FA01DD00259DE7DFED1F8AAC
:104EB000C8EE887A144DFCEEE77A17EE902A4FF48C
:104EC00016712846FFF7DEFE87ED040AF6EE007A3B
:104ED00068EE277A88EEA77AFCEEC77A17EE902A5A
:104EE0004FF416712846FFF7CDFEF0EE408AB0EE83
:104EF000C07ADFED0F7AB4EEE77AF1EE10FA19D549
:104F0000002571E794340020F8AD002000EE040085
:104F100064B104000AD7A33DF89D0020F88D00205D
:104F2000E08D0020FC8D00200000803A0000C84287
:104F30009A99193E07F1380307F13C024FF41671B4
:104F40002846FFF71DFEC24E4FF416723146284622
:104F500027F06FFADFF8448340F25722414630468B
:104F600027F067FA07F1340240F25721304616F075
:104F70005FFA07F1300240F25621404616F058FA27
:104F800097ED0DAAB1EECAAAD7ED0C9AF1EEE99A07
:104F90009FEDB0BA28EE0BBA07F1200307F12C02FF
:104FA0004FF41671284616F0EFF907F1200307F1C8
:104FB00028024FF41671284616F0A6F9D7ED0AAA72
:104FC000D7ED0B7A7AEEE7AA07F124024FF41671B7
:104FD000284616F00BFA4FF40072396C9E48FFF722
:104FE00021FEF0EE40CAB7EE007AC7EE087A9B4B7E
:104FF0001B7853B9994B01221A70994B00221A6001
:105000000023984A1360984A136095490B685A1C0C
:105010000A60944991ED007A77EEC76A06EE102A8D
:10502000F8EE465A86EEA56A37EE067A81ED007AEA
:1050300077EEC77A67EEA67A8B49D1ED006A77EEF4
:10504000A67AC1ED007A012A40F2D98006EE903AA4
:10505000B8EE666AC7EE866AF1EEE67ADFED836A3D
:1050600067EEA67AC7EE87BAF5EEC08AF1EE10FABF
:1050700000F1C880F0EE687AB7EE007AF4EEC77AF5
:10508000F1EE10FA01DDF0EE477A9FED797A67EEE6
:10509000877AB5EE000A30EE670ADFED767AB4EE75
:1050A000E70AF1EE10FA01D5B0EE670A102220EE01
:1050B000090A6421704827F069F907EE900AF8EEB2
:1050C000677AB6EE007A67EE87DADFED6C5A78EE33
:1050D000E56ADFED6B7A86EEA77AF7EE007A87FE57
:1050E000677A9FED686A87FE06DADFED676A76EE1B
:1050F000EC6A86EEA57A87FE677A87FE06CA37EEE7
:10510000CD9A37EECC7A29EE079AB1EEC99A37EEEE
:10511000C99A29EE087A77EEC97A67EEAD7A77EE0A
:10512000277A5A4B93ED007A77EE877AC3ED007AAF
:10513000FAFE677AFCEEE77A17EE909A544BC3EDCD
:10514000007A544BD3ED007A78EE277AC3ED007ADB
:10515000F8FE677AFCEEE77A17EE905A4E4BC3EDF5
:10516000007A3869FBF75CFA00220023FBF7FAF8B3
:10517000C7E900011CEE900AFBF752FA0022002357
:10518000FBF7F0F8C7E9020118EE100AFBF748FA3E
:1051900000220023FBF7E6F841EC1F0B1DEE900AFE
:1051A000FBF73EFA00220023FBF7DCF841EC1E0B74
:1051B0001DEE100AFBF734FA00220023FBF7D2F8A9
:1051C00041EC1D0B1CEE100AFBF72AFA002200230B
:1051D000FBF7C8F882468B4619EE100AFBF720FA57
:1051E00000220023FBF7BEF841EC170BE8462C2207
:1051F0001C2312F0070F08D1083308320AE0DFED54
:1052000021BA31E7DFED1F7A36E704330432F0E7E5
:105210000433043212F0070FFAD10833083201E0E8
:105220000433043212F0070FFAD10833083201E0D8
:105230000433043212F0070FFAD10833083201E0C8
:105240000433043212F0070FFAD10833083229E090
:105250006884002000007042F88D00209F15012016
:10526000CC8D0020C88D0020C48D00200000C842D5
:10527000713D8A3ECDCCCC3DC8B500209A99193FEE
:10528000CCCC4C3E00000000CDCC4C3FD08D00205B
:10529000D48D0020D88D0020DC8D0020107B0020D4
:1052A0000433043212F0030FFAD11A1D96461B3351
:1052B00023F00703ADEB030DEC46002A00F09580C8
:1052C0000CF11003032A40F28E80A3B1042A02DD00
:1052D0006D49CCF81410082A03DD97ED006B8CEDB6
:1052E000066B102A03DD97ED026B8CED086B182A14
:1052F00001DDCCF828502C204FF01C0E014610F098
:10530000070F09D1704623B1724502DD9E448EED30
:1053100000FB0830083105E00EF1040E0430EDE723
:10532000043004318E4611F0070FF9D1014623B144
:10533000824202DD181880ED00EB08310EF1080EF4
:1053400002E004310EF1040E70461EF0070FF8D192
:105350008E4623B18A4202DD591881ED00DB0EF141
:10536000080E083002E00EF1040E0430014610F081
:10537000070FF8D1764623B1724502DD9819C0E9CE
:1053800000AB0836083101E004360431084611F05C
:10539000070FF9D1354623B1B24202DD991981EDEB
:1053A000007B083500F1080101E00435043111F0FB
:1053B000030FFAD129461BB1AA4201DD43F805903B
:1053C000043191420CDC8E467BB1C1F38701397701
:1053D00000237B77BB77FB77F869CCF8100004E0FB
:1053E0006FF01B0EF0E76FF01B0E00216FF3000152
:1053F0006FF341016FF382016FF3C501022363F381
:1054000088116EF353216FF31F510CF1100200232A
:105410001E4801F02BFFC54644B30125257084EDDD
:1054200001BA84ED028AC4ED03AA7B6A23617B6C16
:105430006361C4ED06CAD7ED047AF0EEE77AC4EDF5
:10544000077AC4ED088AC4ED09BA114B1B68A36240
:10545000104B1B68E362BB6B6363FB6B236384EDE0
:105460000EAAC4ED0F9ABFE40025BDE40125BBE4FC
:10547000002002E0002000E000205437BD46BDECD3
:10548000108BBDE8F08F00BF20EE040064B1040073
:10549000DC8D0020D48D00204FF0000C944515D2F7
:1054A00010B511F80C3058400309094CE35C83EA4D
:1054B00000135FFA83FEC3F30313E05C80EA0E106F
:1054C000C0B20CF1010C9445EBD310BD704700BF86
:1054D000A0EE04002DE9F04F91B00592029313461F
:1054E00002F004020092C3F3C20310F0030201921F
:1054F00040F02A8280468A460133041D00284ED09F
:10550000B8F1000F05D0A4EB08020432524500F2B6
:105510001E82029A551E019A049206920392002658
:105520004FF0FF3B0427B946B8F1000F01D0029AB3
:1055300022605A1E0792002B40F35C81059B13F0FA
:10554000020228D00120A4EB08018B081AB1B1F5A2
:10555000007F80F0028203990F2900F20182B8F1E6
:10556000000F00F05F81DBB201F140026A4402F8F3
:10557000103C02F820BC002800F0508163F07F034B
:1055800001F140026A4402F8103C049B0133049389
:10559000039B013303930434002140463DE001F0B6
:1055A000070A5444CAF1080AAAE7002634E0002694
:1055B00032E0002630E00827B9462DE0252B2BD11C
:1055C0000BF1010B01260427B94625E0472BEED845
:1055D0002A2B14D32A3BDBB24FF0010C0CFA03F355
:1055E0004FF6DA7C13EA0C0F16D113F0625F40F02D
:1055F000C18013F0010F40F08D8000260CE0252BB8
:1056000003D10BF1FF3B002606E001D9002603E0A1
:10561000202B01D0232BCCD115466A1C6B78002B94
:1056200000F01981002EC9D07A2BBED84C2BCDD3D7
:105630004C3B2E2B62D80FF2080C5CF823F000BF15
:1056400019560100FD560100FD560100FD560100EE
:10565000FD560100FD560100FD560100FD560100FA
:10566000FD560100FD560100FD560100FD560100EA
:105670000D570100FD560100FD560100FD560100C9
:10568000FD560100FD560100FD560100FD560100CA
:10569000FD56010075570100FD5601000D57010030
:1056A0000D5701007557010075570100755701002E
:1056B000195601000D570100B7550100FD560100B4
:1056C00019560100FD560100D15701000D57010088
:1056D000D1570100FD560100FD560100D9570100C8
:1056E000075701000D570100FD560100FD5601004E
:1056F0000D570100FD5601000157010000268BE700
:105700000427B94688E70427B94685E72B786C2B30
:1057100024D000263C44013CB4FBF7F407FB04F41E
:1057200020B1231A4B44534500F21481002958D16B
:10573000B9F1040F00F08780B9F1080F40F0138130
:105740001A9B073323F0070303F108051A9593ED1D
:10575000007B08B184ED007B08345DE712F8023C61
:105760006C2B03D000260427B946D3E70026082770
:10577000B946CFE72B784C2B1AD01A9B073323F06E
:10578000070303F108061A96D3E90067073424F0EB
:10579000070440B1231A0833534513D82B784C2BF8
:1057A00013D0C4E90067083400260827B94633E758
:1057B0001A9B073323F0070303F108061A96D3E96F
:1057C0000067E3E76FF01B00BBE0C4E90067EAE7AE
:1057D00000260427B9469DE7314600260427B9462E
:1057E00098E780461A9B191D1A911B680293079B24
:1057F000154699E6624B029A9A4204D3614B9A424B
:105800000AD3002300E00023002B7FF497AE059B12
:1058100003F00202002096E60123F5E7069B013320
:105820000693B5E610B10AF1010AB1E6009B13B187
:105830000AF1020AACE60298FBF7A0FA0AEB0003B1
:1058400003F1020AA4E61A9B1D1D1A951B6800B1FC
:1058500023600434E0E68046231AB3F5806F80F0BD
:10586000858090B1002202609B080370009B83B189
:10587000069BC370049B88F802301BBB019DDDF8BA
:105880000C90DDF810B0029F3DE05344A3F10800F6
:1058900057E0069B4370EDE701339842EED903F1E0
:1058A00040026A4412F8101C12F9102C002AF3DA94
:1058B00001F07F01A4EB08020132524559D804F8E7
:1058C000011BE9E7019B0398E7E7009B43B305F160
:1058D00040036B4413F8203C04F8013B019EA4EB09
:1058E000080333440133534546D805F140036B4464
:1058F00013F8103C04F8013B32463946204634F098
:105900003DFE34440135A94519D9BBF1000FDCD067
:1059100005F140036B4413F9103C002BD5DAF1E795
:1059200005F140036B4413F8103C58F82370002233
:1059300048F823203846FBF721FA461CCFE7A4EBB2
:10594000080011B0BDE8F08F6FF00D00F9E76FF0BF
:105950001B00F6E76FF01B00F3E76FF01500F0E7B0
:105960006FF01500EDE76FF01500EAE76FF0150036
:10597000E7E76FF01B00E4E76FF01B00E1E700BF13
:105980005CAA0400F47906002DE9F04F97B000AF4F
:105990008346BA61FB60D7F88030C3F3C0033B6233
:1059A000396111B927F0FAF838619BF80260B14605
:1059B00036B1D7F8803013F0010F0DD1002300E08D
:1059C00000239BF803207A6242B1D7F8802012F0BE
:1059D000020F22D1002202E00123F2E7002202B9E5
:1059E000EBB19BF80050AA00BA60DBF804207A61A2
:1059F0000BEB8505BA69F2B1002B40F00481B9F1D7
:105A0000000F00F00F81D7F8803013F0040F40F042
:105A10000D810020F8610646F9E00122DFE7BB694D
:105A20001BB1FA683969584698473C6920465C378B
:105A3000BD46BDE8F08F3C69E3B94D4400233B61AE
:105A400023E00444013501364E451AD22A7800235A
:105A50005BF822201946B86927F0B5F8BAF1000FB3
:105A6000EFD0D7F888309845EBD22AF8180008F123
:105A70000108E6E70026C7F81C80B046D7F884A0E6
:105A8000E2E7C7F81080D7F81C80D7F8803003F021
:105A90000503FB604FF0000AA146C7F81CB09CE06C
:105AA00000253B6A7BB9002D79D0D7F8803013F000
:105AB000010F79D1FB68002B6FD10223A9EB0309F9
:105AC00088E00125EDE75946786927F0C2F80028FB
:105AD000E9D06C46002387F82C30022387F82D305C
