:020000021000EC
:10020000F04F012051B101007BF403003DB101002A
:100210003DB101003DB101003DB101003DB1010022
:1002200000000000000000000000000011B3010009
:100230003DB101000000000069B201003DB10100C4
:1002400049B5010049B5010049B5010049B50100B2
:1002500049B5010049B5010049B5010049B50100A2
:1002600049B5010049B5010049B5010049B5010092
:1002700049B5010049B5010049B5010049B5010082
:1002800049B5010049B5010049B5010049B5010072
:1002900049B5010049B5010049B5010049B5010062
:1002A00049B5010049B5010049B5010049B5010052
:1002B00049B5010049B5010049B5010049B5010042
:1002C00049B5010049B5010049B5010049B5010032
:1002D00049B5010049B5010049B5010049B5010022
:1002E00049B5010049B5010049B5010049B5010012
:1002F00049B5010049B5010049B5010049B5010002
:1003000049B5010049B5010049B5010049B50100F1
:1003100049B5010049B5010049B5010049B50100E1
:1003200049B5010049B5010049B5010049B50100D1
:1003300049B5010049B5010049B5010049B50100C1
:1003400049B5010049B5010049B5010049B50100B1
:0403500049B50100AA
:1003580081F0004102E000BF83F0004330B54FEA6E
:1003680041044FEA430594EA050F08BF90EA020FDB
:100378001FBF54EA000C55EA020C7FEA645C7FEA6E
:10038800655C00F0E2804FEA5454D4EB5555B8BF91
:100398006D420CDD2C4480EA020281EA030382EA02
:1003A800000083EA010180EA020281EA0303362D94
:1003B80088BF30BD11F0004F4FEA01314FF4801C67
:1003C8004CEA113102D0404261EB410113F0004F79
:1003D8004FEA03334CEA133302D0524263EB430330
:1003E80094EA050F00F0A780A4F10104D5F1200ECE
:1003F8000DDB02FA0EFC22FA05F2801841F1000129
:1004080003FA0EF2801843FA05F359410EE0A5F1FC
:1004180020050EF1200E012A03FA0EFC28BF4CF02D
:10042800020C43FA05F3C01851EBE37101F00045E3
:1004380007D54FF0000EDCF1000C7EEB00006EEBF0
:100448000101B1F5801F1BD3B1F5001F0CD349087A
:100458005FEA30004FEA3C0C04F101044FEA4452D1
:1004680012F5800F80F09A80BCF1004F08BF5FEA58
:10047800500C50F1000041EB045141EA050130BD38
:100488005FEA4C0C404141EB0101013C28BFB1F54A
:10049800801FE9D291F0000F04BF01460020B1FA95
:1004A80081F308BF2033A3F10B03B3F120020CDA68
:1004B8000C3208DD02F1140CC2F10C0201FA0CF046
:1004C80021FA02F10CE002F11402D8BFC2F1200CAB
:1004D80001FA02F120FA0CFCDCBF41EA0C01904061
:1004E800E41AA2BF01EB0451294330BD6FEA0404AA
:1004F8001F3C1CDA0C340EDC04F11404C4F1200295
:1005080020FA04F001FA02F340EA030021FA04F3A6
:1005180045EA030130BDC4F10C04C4F1200220FAFD
:1005280002F001FA04F340EA0300294630BD21FA3B
:1005380004F0294630BD94F0000F83F4801306BF01
:1005480081F480110134013D4EE77FEA645C18BFF5
:100558007FEA655C29D094EA050F08BF90EA020F8C
:1005680005D054EA000C04BF1946104630BD91EA84
:10057800030F1EBF0021002030BD5FEA545C05D187
:100588004000494128BF41F0004130BD14F58004C6
:100598003CBF01F5801130BD01F0004545F0FE413A
:1005A80041F470014FF0000030BD7FEA645C1ABF6F
:1005B800194610467FEA655C1CBF0B46024650EAA6
:1005C800013406BF52EA033591EA030F41F40021D2
:1005D80030BD00BF90F0000F04BF0021704730B558
:1005E8004FF4806404F132044FF000054FF000012D
:1005F80050E700BF90F0000F04BF0021704730B5EE
:100608004FF4806404F1320410F0004548BF4042C2
:100618004FF000013EE700BF42004FEAE2014FEA17
:1006280031014FEA02701FBF12F07F4393F07F4FF2
:1006380081F06051704732F07F4208BF704793F0F5
:100648007F4F04BF41F40021704730B54FF4607408
:1006580001F0004521F000411CE700BF50EA01020B
:1006680008BF704730B54FF000050AE050EA0102B4
:1006780008BF704730B511F0004502D5404261EB24
:1006880041014FF4806404F132045FEA915C3FF465
:10069800D8AE4FF003025FEADC0C18BF03325FEA02
:1006A800DC0C18BF033202EBDC02C2F1200300FAB3
:1006B80003FC20FA02F001FA03FE40EA0E0021FAD8
:1006C80002F11444BDE600BF70B54FF0FF0C4CF4C6
:1006D800E06C1CEA11541DBF1CEA135594EA0C0F78
:1006E80095EA0C0F00F0DEF82C4481EA030621EAB3
:1006F8004C5123EA4C5350EA013518BF52EA0335EE
:1007080041F4801143F4801338D0A0FB02CE4FF09F
:100718000005E1FB02E506F00042E0FB03E54FF0CF
:100728000006E1FB03569CF0000F18BF4EF0010EC7
:10073800A4F1FF04B6F5007F64F5407404D25FEAC3
:100748004E0E6D4146EB060642EAC62141EA555176
:100758004FEAC52040EA5E504FEACE2EB4F1FD0CB8
:1007680088BFBCF5E06F1ED8BEF1004F08BF5FEA36
:10077800500E50F1000041EB045170BD06F00046E8
:1007880046EA010140EA020081EA0301B4EB5C0495
:10079800C2BFD4EB0C0541EA045170BD41F480118D
:1007A8004FF0000E013C00F3AB8014F1360FDEBFB2
:1007B800002001F0004170BDC4F10004203C35DA8E
:1007C8000C341BDC04F11404C4F1200500FA05F311
:1007D80020FA04F001FA05F240EA020001F00042B2
:1007E80021F0004110EBD37021FA04F642EB060128
:1007F8005EEA430E08BF20EAD37070BDC4F10C0452
:10080800C4F1200500FA04F320FA05F001FA04F215
:1008180040EA020001F0004110EBD37041F1000101
:100828005EEA430E08BF20EAD37070BDC4F120050C
:1008380000FA05F24EEA020E20FA04F301FA05F274
:1008480043EA020321FA04F001F0004121FA04F21C
:1008580020EA020000EBD3705EEA430E08BF20EAEC
:10086800D37070BD94F0000F0FD101F00046400026
:1008780041EB010111F4801F08BF013CF7D041EAA8
:10088800060195F0000F18BF704703F000465200AC
:1008980043EB030313F4801F08BF013DF7D043EA7D
:1008A8000603704794EA0C0F0CEA135518BF95EA33
:1008B8000C0F0CD050EA410618BF52EA4306D1D1BA
:1008C80081EA030101F000414FF0000070BD50EAD9
:1008D800410606BF1046194652EA430619D094EA63
:1008E8000C0F02D150EA013613D195EA0C0F05D14D
:1008F80052EA03361CBF104619460AD181EA0301A1
:1009080001F0004141F0FE4141F470014FF0000058
:1009180070BD41F0FE4141F4780170BD70B54FF0F3
:10092800FF0C4CF4E06C1CEA11541DBF1CEA135573
:1009380094EA0C0F95EA0C0F00F0A7F8A4EB050455
:1009480081EA030E52EA03354FEA013100F088804C
:100958004FEA03334FF0805545EA131343EA126315
:100968004FEA022245EA111545EA10654FEA0026CA
:100978000EF000419D4208BF964244F1FD0404F583
:10098800407402D25B084FEA3202B61A65EB0305DF
:100998005B084FEA32024FF480104FF4002CB6EB9C
:1009A800020E75EB030E22BFB61A754640EA0C001C
:1009B8005B084FEA3202B6EB020E75EB030E22BF5C
:1009C800B61A754640EA5C005B084FEA3202B6EB9D
:1009D800020E75EB030E22BFB61A754640EA9C005C
:1009E8005B084FEA3202B6EB020E75EB030E22BF2C
:1009F800B61A754640EADC0055EA060E18D04FEAEA
:100A0800051545EA16754FEA06164FEAC30343EA89
:100A180052734FEAC2025FEA1C1CC0D111F4801F56
:100A28000BD141EA00014FF000004FF0004CB6E74F
:100A380011F4801F04BF01430020B4F1FD0C88BFEE
:100A4800BCF5E06F3FF6AFAEB5EB030C04BFB6EBF9
:100A5800020C5FEA500C50F1000041EB045170BDEC
:100A68000EF0004E4EEA113114EB5C04C2BFD4EB19
:100A78000C0541EA045170BD41F480114FF0000E9D
:100A8800013C90E645EA060E8DE60CEA135594EA19
:100A98000C0F08BF95EA0C0F3FF43BAF94EA0C0F1C
:100AA8000AD150EA01347FF434AF95EA0C0F7FF491
:100AB80025AF104619462CE795EA0C0F06D152EAE5
:100AC80003353FF4FDAE1046194622E750EA4106C9
:100AD80018BF52EA43067FF4C5AE50EA41047FF4DA
:100AE8000DAF52EA43057FF4EBAE12E74FF0FF3C3F
:100AF80006E000BF4FF0010C02E000BF4FF0010C10
:100B08004DF804CD4FEA410C7FEA6C5C4FEA430C88
:100B180018BF7FEA6C5C1BD001B050EA410C0CBFD7
:100B280052EA430C91EA030F02BF90EA020F002039
:100B3800704710F1000F91EA030F58BF994208BFA0
:100B480090422CBFD8176FEAE37040F0010070475D
:100B58004FEA410C7FEA6C5C02D150EA013C07D1B4
:100B68004FEA430C7FEA6C5CD6D152EA033CD3D0FF
:100B78005DF8040B704700BF8446104662468C46F9
:100B88001946634600E000BF01B5FFF7B7FF00282C
:100B980048BF10F1000F01BD4DF808EDFFF7F4FF55
:100BA8000CBF012000205DF808FB00BF4DF808EDE0
:100BB800FFF7EAFF34BF012000205DF808FB00BF03
:100BC8004DF808EDFFF7E0FF94BF012000205DF825
:100BD80008FB00BF4DF808EDFFF7CEFF94BF0120DA
:100BE80000205DF808FB00BF4DF808EDFFF7C4FFD3
:100BF80034BF012000205DF808FB00BF4FEA410226
:100C080012F5001215D211D56FF47873B3EB625256
:100C180012D94FEAC12343F0004343EA505311F07D
:100C2800004F23FA02F018BF404270474FF000000F
:100C3800704750EA013005D111F0004008BF6FF04D
:100C4800004070474FF00000704700BF4A0011D2C3
:100C580012F5001211D20DD56FF47873B3EB62520E
:100C68000ED44FEAC12343F0004343EA505323FA1A
:100C780002F070474FF00000704750EA013002D18F
:100C88004FF0FF3070474FF0000070477BB972B9E2
:100C98000029BEBF00204FF0004106E008BF002831
:100CA8001CBF6FF000414FF0FF3000F057B8ADF1B6
:100CB800080C6DE904CE002909DB002B1ADB00F0D3
:100CC80074F8DDF804E0DDE9022304B0704740421F
:100CD80061EB4101002B1BDB00F067F8DDF804E055
:100CE800DDE9022304B0404261EB4101524263EB6B
:100CF80043037047524263EB430300F056F8DDF8B4
:100D080004E0DDE9022304B0404261EB4101704791
:100D1800524263EB430300F048F8DDF804E0DDE9F4
:100D2800022304B0524263EB4303704753B94AB9F4
:100D3800002908BF00281CBF4FF0FF314FF0FF30DB
:100D480000F00CB8ADF1080C6DE904CE00F02DF8F8
:100D5800DDF804E0DDE9022304B07047704700BF06
:100D680010F8012B11F8013B012A28BF9A42F7D04D
:100D7800D01A7047034613F8012B002AFBD1181A22
:100D880001387047430803F05533C01A00F0333375
:100D9800800800F0333018444FF0013300EB101096
:100DA80000F00F305843000E70472DE9F047864693
:100DB8008C460846089E154674461946002B40F096
:100DC800C1808542B2FA82F245D94AB1C2F1200304
:100DD80000FA02FC954094402EFA03F343EA0C0C07
:100DE8004FEA154EA8B2230CBCFBFEF80EFB18CC3C
:100DF80008FB00F943EA0C43994528D9EB1808F198
:100E0800FF3704D2994502D9A8F102072B44A3EB76
:100E18000903A4B2B3FBFEFC0EFB1C330CFB00F071
:100E280044EA0344A04214D92C190CF1FF3304D22C
:100E3800A04202D9ACF102032C44241A43EA074029
:100E48001EB1D440002334607360BDE8F087474684
:100E5800DDE76346F1E792BB431B01214FEA154EDC
:100E6800AFB2200CB3FBFEFC0EFB1C330CFB07F8E7
:100E780040EA0343984561D9EB180CF1FF3004D2DE
:100E8800984502D9ACF102002B44A3EB0803A4B2A5
:100E9800B3FBFEFC0EFB1C330CFB07F744EA0344D0
:100EA800A7424DD92C190CF1FF3304D2A74202D91D
:100EB800ACF102032C44E41B43EA0040C0E7C2F152
:100EC80020039540944020FA03F12EFA03F34FEAE9
:100ED800154E9040AFB20343B1FBFEFC0EFB1C1055
:100EE800190C0CFB07F841EA0041884522D969181A
:100EF8000CF1FF3004D2884502D9ACF10200294434
:100F0800A1EB08019BB2B1FBFEFC0EFB1C110CFB14
:100F180007F743EA01439F420ED9EB180CF1FF3162
:100F280004D29F4202D9ACF102012B44DB1B41EAF7
:100F3800004193E76046E3E76146F7E76046A4E7C8
:100F48006346B8E7834206D916B9002108467CE70C
:100F5800C6E900E0F9E7B3FA83F78FB9834201D312
:100F6800724508D8BEEB020460EB030301209C46DF
:100F78001EB9002169E73846FAE7C6E9004CF8E7E8
:100F8800C7F1200CBB400EFA07F522FA0CF42EFA32
:100F98000CF1BA401C4320FA0CF3B8404FEA14494C
:100FA80001431FFA84FEB3FBF9F809FB18300B0C58
:100FB80008FB0EFA43EA00439A4540D9E31808F1C2
:100FC800FF3004D29A4502D9A8F102002344A3EBCA
:100FD8000A0389B2B3FBF9F809FB183308FB0EFEC4
:100FE80041EA03418E452CD9611808F1FF3304D238
:100FF8008E4502D9A8F10203214443EA0040A1EB3F
:101008000E01A0FB02984145CE46434602D306D1C5
:101018004D4504D20138B9EB020E68EB0403002EEB
:10102800A7D0B5EB0E0261EB030101FA0CFC22FA22
:1010380007F3F9404CEA0303C6E9003199E7404653
:10104800C5E74346D9E7000030B58BB009E0484A08
:10105800012148482DF00DFC4FF42030002138F0D4
:101068007BFC454837F0BEFE0028F0D04248836834
:10107800DB683F219847041E18DB3F4883681B69DB
:1010880001AA0D21984730B93B4883681B6903AA18
:101098000E219847B0B12346384A012135482DF032
:1010A800F2FB4EF660202BF0D7F8DAE72346344AF5
:1010B800012130482DF0E7FB4FF48040002138F043
:1010C8004BFCCEE7002305930693079308930993F7
:1010D80001238DF814300198FFF78CFA04460D4669
:1010E8000298FFF787FA20A3D3E90023FFF716FC3D
:1010F80002460B4620462946FFF730F90022214BCD
:10110800FFF7E2FAFFF7A2FDADF818000398FFF722
:1011180071FA04460D460498FFF76CFA12A3D3E956
:101128000023FFF7FBFB02460B4620462946FFF744
:1011380015F90022134BFFF7C7FAFFF787FD079051
:101148002BF0C3F808900022002305A90E4822F0CE
:1011580007FB0028A5D00D4A022106482DF089FB7F
:101168009FE700BFAFF300800000000080842E419D
:1011780008BD040090B2040060AE040068BD04001D
:1011880034BD040000005940103E002054BD040046
:10119800D0B5A2B00AE0864B9A7817E0854B9B78C9
:1011A80019E0854A012185482DF06DFB4FF0FF328B
:1011B8004FF0FF33824822F015FD0028F6D1814B0D
:1011C8001C68814B9C42E6D0804B9A787E4B9C42AF
:1011D800E4D07F4B9B7806A97E4803F045FA0028A7
:1011E80014BF01230023DCD100230193029303934E
:1011F800049305930698FFF7FDF906460F460798EE
:10120800FFF7F8F968A3D3E90023FFF787FB024645
:101218000B4630463946FFF7A1F800226E4BFFF720
:1012280053FAFFF7EBFCADF808000898FFF7E2F96E
:1012380006460F460998FFF7DDF95BA3D3E90023BB
:10124800FFF76CFB02460B4630463946FFF786F837
:101258000022614BFFF738FAFFF7D0FCADF80A001F
:101268000A98FFF7C7F906460F460B98FFF7C2F929
:101278004DA3D3E90023FFF751FB02460B46304646
:101288003946FFF76BF80022534BFFF71DFAFFF7BB
:10129800B5FCADF80C000C98FFF7ACF906460F4604
:1012A8000D98FFF7A7F940A3D3E90023FFF736FB12
:1012B80002460B4630463946FFF750F80022464BA7
:1012C800FFF702FAFFF79AFCADF80E000E98FFF749
:1012D80091F906460F460F98FFF78CF932A3D3E928
:1012E8000023FFF71BFB02460B4630463946FFF743
:1012F80035F80022384BFFF7E7F9FFF77FFCADF828
:1013080010001098FFF776F906460F461198FFF778
:1013180071F925A3D3E90023FFF700FB32463B46CA
:10132800FFF71CF800222C4BFFF7CEF9FFF766FCFD
:10133800ADF812002AF0C9FF0590BDF9083007EE94
:10134800103AB8EEC77ADFED257A87EE270ABDF99D
:101358000A3007EE103AB8EEC77AC7EE270ABDF989
:101368000C3007EE103AB8EEC77A87EE271A1C4BF6
:101378009C4208D06946002003F094FB12A89DED1A
:10138800000A03F0A7FC0022002301A9154822F057
:10139800E7F900283FF40AAF134A022107482DF065
:1013A80068FA03E7AFF300800000000080842E4154
:1013B8003034002028340020B8BF040090B2040064
:1013C800403E00207C7A002074C904002C340020A0
:1013D8002434002000780020000059400000C84252
:1013E8008CC90400103E0020A4BF040000000000C7
:1013F80070B50546BDF81000A0FB021200FB0323E0
:1014080011EB010C43EB03061CEB010443EB06064E
:10141800360246EA14662402641A66EB0306F601ED
:1014280046EA5466E401641A66EB0306B60046EA27
:101438009476A400641A66EB0306F60046EA54762E
:10144800E4000DA3D3E9002320463146FFF71EFC34
:101458002860074A002320463146FFF717FC054A53
:101468000023FFF713FC6A6070BD00BFAFF3008074
:101478004CFF590040420F00006BC53F5D0500005E
:10148800F8B504460068FFF7B5F806460F466068E9
:10149800FFF7B0F874A3D3E90023FFF73FFA024639
:1014A8000B4630463946FEF759FF04460D460022E2
:1014B800614BFFF78FFB40B10022604B2046294665
:1014C800FFF774FB002840F09E8000225B4B20460B
:1014D8002946FFF77FFB40B10022594B2046294699
:1014E800FFF764FB002840F090800022544B204610
:1014F8002946FFF76FFB40B10022524B2046294690
:10150800FFF754FB002840F0828000224D4B204614
:101518002946FFF75FFB38B100224B4B204629468E
:10152800FFF744FB002874D10022474B2046294688
:10153800FFF750FB38B10022444B20462946FFF7FD
:1015480035FB002867D10022404B20462946FFF78B
:1015580041FB38B100223E4B20462946FFF726FBC7
:1015680000285AD100223A4B20462946FFF732FB81
:1015780038B10022374B20462946FFF717FB0028D1
:101588004DD10022334B20462946FFF723FB38B1C3
:101598000022314B20462946FFF708FB002840D19E
:1015A80000222D4B20462946FFF714FB30B10022BC
:1015B8002A4B20462946FFF7F9FAA0BB0022274B01
:1015C80020462946FFF706FB30B10022244B20466F
:1015D8002946FFF7EBFA40BB0022214B204629465B
:1015E800FFF7F8FA30B100221E4B20462946FFF7D4
:1015F800DDFAE0B900221B4B20462946FFF7EAFA3C
:1016080010B10C2000E00120F8BD0220FCE7032007
:10161800FAE70420F8E70520F6E70620F4E70720B4
:10162800F2E70820F0E70920EEE70A20ECE70B20B4
:10163800EAE700BFAFF300800000E93F0000F93F90
:10164800000009400000194000002940000039400E
:1016580000004940000059400000694000007940FE
:1016680000008940000099400000000080842E415D
:10167800F8B504460068FEF7BDFF06460F466068E9
:10168800FEF7B8FF4CA3D3E90023FFF747F902465A
:101698000B4630463946FEF761FE04460D460022E9
:1016A8003D4BFFF797FA38B100223C4B20462946BC
:1016B800FFF77CFA00285ED10022384B20462946E5
:1016C800FFF788FA38B10022354B20462946FFF744
:1016D8006DFA002851D10022314B20462946FFF7E8
:1016E80079FA38B100222F4B20462946FFF75EFAD7
:1016F800002844D100222B4B20462946FFF76AFADE
:1017080030B10022284B20462946FFF74FFAC0BBCC
:101718000022254B20462946FFF75CFA30B100220B
:10172800224B20462946FFF741FA60BB00221F4B97
:1017380020462946FFF74EFA30B100221C4B2046BE
:101748002946FFF733FA00BB0022194B20462946E9
:10175800FFF740FA30B10022164B20462946FFF722
:1017680025FAA0B90022134B20462946FFF732FA82
:1017780010B10D2000E00620F8BD0720FCE7082086
:10178800FAE70920F8E70A20F6E70B20F4E70C202F
:10179800F2E700BFAFF30080000039400000494085
:1017A800000059400000694000007940000089406D
:1017B800000099400000A9400000000080842E41EC
:1017C80030B589B004460C9D0020C4F8F800C4F870
:1017D800FC0004F58070C4F80001C4F8040104F5A5
:1017E8008470C4F80801C4F80C011DB3287918BB2B
:1017F8000120C4F810019FED127B8DED067B0020BF
:10180800049003930290019000940F4B204637F008
:1018180057FF55B1296811B1204622F0F5FB6B79C5
:101828001BB1237B43F001032373204623F000F808
:1018380009B030BD0120DCE740F20110D9E700BF54
:10184800FFFFFFFFFFFFFFFFED3D0300000000006B
:1018580010B582B00446002304320ED27BB99FED46
:101868000A7B8DED007B41F00401204637F0FBFA3E
:1018780008B140F8044B02B010BD0123EEE7002088
:10188800F9E700BFAFF3008000000000000000008F
:1018980038B5836805699C697CB112F4000F06D0DD
:1018A8002D6801238B401D4201D082F0C062044B99
:1018B800134002F0B072A04738BD6FF05700FBE745
:1018C8004000000608B5406B024B19688368DB6866
:1018D800984708BD64340020F8B507460C461546FD
:1018E8001E461049FFF73CFA08B9012C0DD00E49E5
:1018F8003846FFF735FA78B9082C10D108220B4979
:101908003046A84700EAE070F8BD01220849304691
:10191800A84700EAE070F7E76FF00100F4E76FF01E
:101928000100F1E7C0C0040030C60400E84500200B
:10193800AA15012070B506460C4615461049FFF752
:101948000FFA28B995B10F4B1B782370012070BD91
:101958000D493046FFF704FA58B9072D0CD90B4B3F
:101968001A685B68226063600820F0E76FF00B007C
:10197800EDE76FF00100EAE76FF00B00E7E700BF63
:10198800C0C00400AA15012030C60400E8450020A4
:1019980008B507482AF03DFC064B1B7803B908BD7B
:1019A8004FF400420023044822F010FBF7E700BF81
:1019B8002CC90400A5150120C030002008B5034A31
:1019C800032103482CF055FF08BD00BF68B8040088
:1019D80090B2040008B5024822F0C4F808BD00BF60
:1019E800403E002008B5024822F0B0FA08BD00BF0A
:1019F8006C7A002008B5064B1B68064A934203D050
:101A08000C3A934200D008BD034822F09FFAFAE747
:101A18007C7A002080C904002C7A002008B502488E
:101A280022F094FA08BD00BF1C7A002008B5064BC6
:101A38001B68064A934203D00C3A934200D008BD73
:101A4800034822F083FAFAE77C7A002080C9040070
:101A58000C7A002008B503281BD004280DD00228D2
:101A680004D0124B4FF0FF321A6005E0104822F004
:101A78006DFA0E4B02221A6008BD0E4822F066FA73
:101A88000A4B04221A60002206210B482AF0B4FBF4
:101A9800F2E70A4B1A680A4B9A4202D0044822F02D
:101AA80055FA024B03221A60E6E700BF20340020F3
:101AB8005C7A00204C7A0020F8AC04007C7A002084
:101AC8008CC9040010B5002113482AF075FB0038B2
:101AD80018BF0120114B18701B7853B10022062142
:101AE8000D482AF089FB002200230D4822F06EFAE7
:101AF80010BD0B4837F082FD074C00220721204615
:101B08002AF07AFB074B1A68023A18BF012206210D
:101B180020462AF071FBEBE7F8AC0400A51501207C
:101B2800C03000202034002010B5044600211030B9
:101B38002AF0B3FBB0B11C34D4E8AF3F012B08D076
:101B4800D4E8AF3F3BB9084B186820B12FF0BFF974
:101B580001E00EF0E5FB0223D4E8EF2FC4E8E13FF3
:101B68000029F9D110BD00BF1C78002010B504462B
:101B7800FFF7DAFF0A4838F02AF80A4838F027F859
:101B8800094837F03BFD094837F038FD012104F1D9
:101B980010002AF082FB00B910BD0FF003FBFBE731
:101BA800F8410020C04100209842002068420020EF
:101BB80010B50446044A032104482CF05AFE204676
:101BC800FFF7D4FF10BD00BF84B8040090B2040032
:101BD80010B50446044A032104482CF04AFE204666
:101BE800FFF7C4FF10BD00BFA4B8040090B2040002
:101BF80010B50446044A032104482CF03AFE204656
:101C0800FFF7B4FF10BD00BFC4B8040090B20400D1
:101C180010B50446044A032104482CF02AFE204645
:101C2800FFF7A4FF10BD00BFE8B8040090B204009D
:101C380038B50446154B1B78154A012115482CF078
:101C480022FE154B1B78D3B9144B1B78D3B9144D0E
:101C58000122082128462AF0CFFA4FF4C03000218B
:101C680037F07AFE0022082128462AF0C5FA2046D5
:101C7800FFF77CFF0B4837F0AAFF2BF0B8FB06F004
:101C8800B1FBE1E70DF002FCE1E700BFAA15012076
:101C980004B9040090B20400A8150120A915012078
:101CA800F8AC0400B045002038B550B10649074DDE
:101CB800074C204602F00EFC2946204602F032FC72
:101CC80038BD0449044DF3E730340020283400209F
:101CD800007800202C34002024340020F0B585B092
:101CE80002AF044600F11005002128462AF0CAFA7E
:101CF80000283CD06E4688B002AB13F1100261D0C8
:101D08000C2152B10846042903DDDFF804C1C3F8E9
:101D180014C0082801DD374898610B2955DD4FF0BC
:101D28000C0C3AB10321397000217970B970F9703F
:101D38003868186100216FF300016FF341016FF3F8
:101D480082016FF3C501042363F38811CCF30A0CF5
:101D58006CF353216FF31F510023274805F04EFA07
:101D6800B5462046FFF7E0FE32202AF075FA234BED
:101D7800186868B300230093012221492FF0D9F88D
:101D8800034658BB0023BB80BB71391D1B4B186829
:101D98000EF07CFC034610B110F1780F24D1D5E881
:101DA800EF3F43F00103C5E8E23F002AF7D11C34B6
:101DB8000023D4E8EF2FC4E8E13F0029F9D10C371C
:101DC800BD46F0BD6FF000419BE76FF01B0CA8E724
:101DD8000C4A012108482CF04CFDF0E70A4A012181
:101DE80005482CF050FDEAE7084A012102482CF08A
:101DF8004AFDE4E768C8040090B204001C7800209B
:101E08004834002080B90400B4B90400ECB90400D7
:101E180038B9040010B500210A482AF033FA00B98D
:101E280010BD094BD3E8AF3F012BF9D1074C204631
:101E3800FFF77AFE2268064B9A42F1D12046FFF757
:101E48004DFFEDE78C7A0020987A00207C7A0020FC
:101E580074C9040030B583B0044600F110050021B0
:101E680028462AF00FFA88B900230093012217495F
:101E780017480EF0D7FB0346A8B110F1780F0CD025
:101E8800144A012114482CF0FEFC1CE02046FFF700
:101E98004BFE14202AF0E0F9E6E7104A02210E482A
:101EA8002CF0E7FC0FE0D5E8EF3F43F00103C5E86D
:101EB800E23F002AF7D11C340123D4E8EF2FC4E80D
:101EC800E13F0029F9D103B030BD00BF4034002004
:101ED80054C9040020BA040090B2040058BA04009F
:101EE80038B5194B1B68194A934202D00C3A9342F1
:101EF8001BD1174B01221A7003225A7000259D70BE
:101F0800114C2046FFF7A6FF294604F110002AF0DD
:101F1800B9F928B104F11C03D3E8AF3F012B05D070
:101F28000C4A01210C482CF0A4FC38BD4FF4005297
:101F380000230A4822F04AF84FF4A0320023084848
:101F480022F044F8F1E700BF7C7A002080C9040041
:101F58002078002074BA040090B20400984200204F
:101F68006842002008B5104B1A68104B9A4212D0EC
:101F780001210F482AF091F970B90E4837F027FE71
:101F8800094B00221A751A680B4B9A4207D019465A
:101F9800054809F047FD08BD0FF004F9EDE70248D0
:101FA800FFF79CFEF7E700BF7C7A00208CC904008D
:101FB8008C7A0020C041002074C90400F0B58BB0B1
:101FC80004460D4616460378032B38D8DFE803F09D
:101FD80002212B311D4B93E803000790ADF8201028
:101FE800090C8DF8221063792279E178A078677856
:101FF8000DF11C0CCDF814C00497039002910192C6
:102008000093A379124A3146284628F06DFE0BB09A
:10201800F0BD104B93E803000790ADF82010090CB1
:102028008DF82210DFE70C4A07AB07CA03C31A80F2
:10203800D9E70A4A07AB07CA03C31A80D3E7084A95
:102048000A2107A828F050FECDE700BFA8BA04006F
:10205800B8BA0400B0BA0400DCBA0400E8BA040054
:1020680094200500B0B58AB000AF0D461E2207F1D6
:102078000801FFF7A3FF6C4600233B7102237B7125
:102088008AB0EC461CF110021AD0122022B10428A2
:1020980002DD2B4BCCF8143000233B7002237B70FD
:1020A800DAB10346082803DD07F10801CCF8181057
:1020B8000C2B01DDCCF81C500CF1200300210AE0A8
:1020C8006FF00040E2E701F128053D4415F8285C6F
:1020D80003F8015B01310129F5D911282DDD1223FF
:1020E8004AB10421397100217971B9710121F9715D
:1020F8007868CCF8100000216FF300016FF34101FC
:102108006FF382016FF3C501032060F38811C3F3F5
:102118000A0363F353216FF31F510023094805F0A5
:102128006DF8A546084B1A68084B9A4202D0084831
:1021380021F00CFF2837BD46B0BD6FF01B03CFE779
:10214800F4BA040090B204007C7A00208CC9040020
:102158003C7A002000B5C3B069460F480AF072F80F
:1021680010B99DF8003013B143B05DF804FB419BF2
:102178000A4A03210A482CF086FB07480AF01CF893
:10218800034628B1074A012105482CF07CFBEBE700
:10219800054809F0F5FFE7E710BB040024BB04007D
:1021A80090B2040044BB0400007A002008B504483B
:1021B8000AF0CCF8FFF7CEFF024B00221A7008BDD8
:1021C800E8320020A615012008B5FFF7EFFF024905
:1021D800024809F027FC08BD74C904007C7A002075
:1021E80010B50A4B1B781BB909480AF0B3F910BDA2
:1021F800084C204609F0C4FF204609F087FF002359
:10220800024A1370044A1360EEE700BFA7150120C5
:10221800E8320020007A0020FC79002008B5FFF79A
:10222800DFFF0249024809F0FDFB08BD8CC9040024
:102238007C7A0020F0B585B004461F4A03211F4868
:102248002CF017FB0020FFF72FFD2046FFF76CFC52
:10225800042103A80AF0CAFE039A194BA3FB021330
:102268001B0B43F6982101FB1323590CDB0340F2A7
:10227800E73558194FF47A724FF0000341F1000125
:10228800FEF754FD07460E46A469610C4FEAC43CAC
:102298001CEB05004FF47A724FF0000341F1000186
:1022A800FEF744FD009001913A463346054822F076
:1022B80023FE05B0F0BD00BF64BB040090B204006B
:1022C80073B2E745F841002010B582B00446134ABE
:1022D800032113482CF0CDFA0120FFF7E5FC002379
:1022E80023754EF66023A3612046FFF7F7FCA0692B
:1022F800410CC00340F2E733C0184FF47A724FF034
:10230800000341F10001FEF711FD02460B46009063
:102318000191044822F0F0FD02B010BD88BB040012
:1023280090B20400F8410020B0B584B002AF01219A
:10233800464829F0B2FF00283FD16C4688B002AB6E
:1023480013F110023CD00C2142B10846042901DDEA
:102358003F4D5D61082801DD3E4898610B2932DD5B
:102368004FF00C0C3AB10321397100217971B97120
:10237800F9717868186100216FF300016FF341016A
:102388006FF382016FF3C501042363F38811CCF363
:102398000A0C6CF353216FF31F5100232E4804F0ED
:1023A8002DFFA5462D4B1B682D4A93420ED02D4A72
:1023B80093421AD00837BD46B0BD0EF0F3FEBCE715
:1023C8006FF00041C0E76FF01B0CCBE7234A137D89
:1023D8000133DBB2137523B12249104609F022FB01
:1023E800E8E71E48FFF77AFCE4E71C4CA3695B00AA
:1023F8001D4DAB4228BF2B46A361042178180AF073
:10240800F5FD7A68194BA3FB02135B0B47F23051B9
:1024180001FB1323A0691844A061A84228BF2846DD
:10242800A061410CC00340F2E733C0184FF47A7240
:102438004FF0000341F10001FEF778FC02460B461D
:10244800009001910A4822F057FDB3E78C7A0020EA
:10245800B0BB040050C8040090B204007C7A00208D
:1024680074C9040080C90400C0D4010073B2E745F0
:10247800F841002000B583B01348FFF755FB134916
:1024880013480EF04BFE18B1034610F1780F15D122
:10249800104BD3E8EF1F41F00201C3E8E21F002A06
:1024A800F7D100220023CDE900234FF40042002396
:1024B800094822F021FD03B05DF804FB074A012119
:1024C80007482CF0E0F9F6E77C7A00206D2001003F
:1024D80048C904008C7A0020C0410020E0BB0400F9
:1024E80090B204002DE9F041C2B016461A4601F137
:1024F800090393426ED807460D460021304638F04E
:10250800EEF8574BD3F80080B8F1000F6BD0592381
:10251800ADF8003153490B684A68013342F10002B3
:102528000B604A60C2F307218DF802118DF8032170
:102538001A0C190E8DF804118DF80521C3F3072222
:102548008DF806218DF807313CAB00243C943D946E
:102558003E943F9442AA12E9030083E80300E42270
:10256800214603A838F0BBF802943F4A414603A825
:1025780037F024FF034600283DD110223CA903A8C8
:1025880037F021FF034600283DD13246002302F8E8
:10259800013B40AB03CBC6F80100516002AB01938D
:1025A800009506F109032A46394603A837F02CFF9F
:1025B8000446002835D1029FBD423BD8BD4229D0F0
:1025C80000972B46294A012129482CF067F96FF01A
:1025D80004041FE00092274A012125482CF05EF9E7
:1025E8006FF00B0419E0244A012121482CF041F92D
:1025F8004FF0FF3411E0214A01211D482CF043F926
:102608006FF00D0409E01E4A012119482CF03BF92E
:102618006FF00D0403A837F0BDFE204642B0BDE8B8
:10262800F0810346174A012111482CF02CF96FF06C
:102638000D04EFE707F1090102ABEA1B314403A8D7
:1026480037F001FF034610B9029B1F44B6E70E4A54
:10265800012107482CF017F96FF00D04DAE700BFE5
:102668009C7A0020E84500200010C004D8BC040073
:1026780090B2040000BC04003CBC040058BC040038
:1026880080BC04009CBC0400B8BC040070B582B0D7
:1026980000242646022C25D8174B53F8340036F070
:1026A800A1FB50B14FF4B011134800EBC40029F05E
:1026B8006CFD054678B90134EBE70F4B03EBC40317
:1026C8001B79009333460D4A01210D482CF0E6F89A
:1026D8006FF012050CE033460A4A012108482CF035
:1026E800D2F805E0084A032105482CF0C2F8002575
:1026F800284602B070BD00BF1CC9040090BD04008C
:1027080090B20400B0BD0400CCBD040038B500246C
:10271800012C1FD81A4B53F8340036F063FB50B124
:102728004FF48031164800EBC40029F02EFD054611
:1027380048B90134ECE7134A012113482CF099F801
:102748006FF0120519E00346104A01210E482CF0DB
:102758009AF812E04FF0E861094829F0E6FC0C49C4
:102768000C4B4B6001238B600B4829F05CFD0B4A36
:10277800032105482CF07DF80025284638BD00BF08
:102788000CC90400E8BD040090B2040008BE0400AF
:1027980010780020CD1A0100F8AC04003CBE0400FB
:1027A80010B5184836F01EFBD8B14FF480311648E2
:1027B80029F0EBFC0446E8B94FF0B861124829F05B
:1027C800B4FC1249124B4B604FF400038B600D4868
:1027D80029F029FD0F4A03210F482CF04AF820461A
:1027E80010BD17230D4A01210B482CF04CF86FF04F
:1027F8001204F4E703460A4A012107482CF043F87B
:10280800EDE700BF10AD040004C9040004780020FF
:10281800DD190100BCBE040090B2040060BE0400D3
:1028280088BE040010B584B01F4836F0DBFA10B338
:102838001E4BEC460FCB8CE80F001B4883689B6847
:10284800614698471A4B186000281CDB16488368B5
:102858001B68002198470446F0B9154B19681248BF
:102868008368DB689847134A032113482CF001F862
:10287800204604B010BD114A01210F482BF0F9FF82
:102888006FF01204F4E703460D4A01210A482BF0C1
:10289800FAFF4FF0FF34EBE703460A4A01210648E6
:1028A8002BF0F1FFE4E700BF58AD0400E0B40400EA
:1028B800643400203CBF040090B20400DCBE040075
:1028C800F4BE040024BF040008B5094836F08AFAAB
:1028D80030B1084A032108482BF0CBFF002008BD7F
:1028E800064A012104482BF0C4FF6FF01200F6E7F6
:1028F80060AE040078BF040090B204005CBF04001E
:10290800F0B587B000AF002206215D4807F09EFAB7
:10291800002875D15B4809F019FD044600287AD1D2
:10292800391D584BD86809F0D1FC3B69564A032138
:1029380056482BF0A8FF07F04FFD0446002871D138
:10294800534807F0BDFB054610B110F1020F70D1D6
:1029580000237B6107F1140016F04AFA31F0F4FA0B
:102968007B6913F0100F6CD14A4B1B78002B71D187
:102978007B6913F0100F03D1464B1B78002B71D1E4
:10298800454B93ED007B434B1E786D468AB06B46F2
:1029980013F110026ED014216AB10846042903DD30
:1029A800DFF80CC1C3F814C0082801DD83ED067BED
:1029B800102800DD1E6213295FDD4FF0140C3AB1B8
:1029C8000521397100217971B971F9717868186137
:1029D80000216FF300016FF341016FF382016FF380
:1029E800C501032363F38811CCF30A0C6CF353215C
:1029F8006FF31F510023254804F000FCAD4606E0A4
:102A080004460346254A012120482BF03CFF204676
:102A18001C37BD46F0BD0346214A01211B482BF057
:102A280032FFF4E703461F4A012118482BF02BFF19
:102A3800EDE703461C4A012114482BF024FF2C46DD
:102A4800E5E714490B7801330B700122174807F0AA
:102A5800FBFA8DE70F4900230B700122134807F09A
:102A6800F3FA85E70B4900230B7001220F4807F0A2
:102A7800EBFA85E76FF000418EE76FF01B0C9EE7DD
:102A8800ECBF0400E832002008C0040090B2040043
:102A980078C00400AA150120E8450020F0BF040012
:102AA8002CC004004CC0040084C00400B4C004005E
:102AB800C8C0040030B587B0264829F020FC00289B
:102AC80037D02449244801F0E1FB002839D0234DB0
:102AD80003AB05F1100207CA03C31A801E4C03AAF0
:102AE8004FF48051204601F09DFC01231A46002135
:102AF800204601F03FFD1A49204601F0EBFC194938
:102B0800204601F00FFD1C3595E803000190ADF853
:102B18000810090C8DF80A10012201A9204601F0BD
:102B280067FE114A032111482BF0A3FE002007B0CD
:102B380030BD0F4A01210D482BF09BFE6FF01200AB
:102B4800F5E70C4A012109482BF093FE6FF01200BB
:102B5800EDE700BFECC8040000780020E0B40400F2
:102B6800303400202834002050C1040090B2040002
:102B78000CC104002CC1040010B5012001F032FF83
:102B8800044630B9064A032106482BF072FE204657
:102B980010BD0346044A012102482BF074FEF6E7F3
:102BA800A4C1040090B2040074C1040010B588B038
:102BB80023F02AF900282FD10024019402940394C9
:102BC80004940594069407944FF440730093684660
:102BD80029F033FB009B039302940694164B04934D
:102BE8004FF41053ADF804308023ADF80630134B82
:102BF8001022134901A837F09EFA0446A0B901A88B
:102C080037F042FC0D4B1B680E4A03210E482BF08F
:102C18003AFE204608B010BD044603460B4A01217F
:102C280009482BF030FEF4E70346094A012106481B
:102C38002BF029FEEDE700BF0010C0049C7A0020AD
:102C480030C8040008C2040090B20400C8C10400DF
:102C5800E8C1040010B5084A002108480DF0FAFB45
:102C6800044608B9204610BD0346054A0121054817
:102C78002BF009FEF6E700BF1C7800205034002036
:102C880038C2040090B20400F0B585B000AF0CF073
:102C9800C9FC0024022C00F2C38007F10802634932
:102CA800634B53F824000AF0C7FA054640B907F108
:102CB80008000CF081FC0546002859D10134E9E7E9
:102CC8005B4B53F824106E4600233B7102237B7143
:102CD8008AB06C4614F1100215D012201AB10428DB
:102CE80001DD544B636100233B7002237B70BAB152
:102CF8000346082800DDA1610C2B00DDE56104F125
:102D0800200300210AE06FF00040E7E701F1100C12
:102D1800BC441CF810CC03F801CB01310129F5D9CA
:102D2800112822DD122342B1042139710021797161
:102D3800B9710121F9717868206100216FF30001F0
:102D48006FF341016FF382016FF3C501012060F356
:102D58008811C3F30A0363F353216FF31F51002350
:102D6800354804F04BFAB5465BE06FF01B03DAE731
:102D78002F4B53F824106E4600233B7102237B71BE
:102D88008AB06C4614F1100215D012201AB104282A
:102D980001DD2A4B636100233B7002237B70BAB1CB
:102DA8000346082800DDA1610C2B00DDE56104F174
:102DB800200300210AE06FF00040E7E701F1100C62
:102DC800BC441CF810CC03F801CB01310129F5D91A
:102DD800112822DD122342B10421397100217971B1
:102DE800B9710121F9717868206100216FF3000140
:102DF8006FF341016FF382016FF3C501012060F3A6
:102E08008811C3F30A0363F353216FF31F5100239F
:102E1800094804F0F3F9B54603E06FF01B03DAE75D
:102E2800002528461437BD46F0BD00BFB0BA0400DF
:102E38003434002068C2040090B204007CC204004C
:102E480010B51C4829F069FAA8B900200CF040F91F
:102E58000446C8B9184B01221A70FFF7FBFE044656
:102E6800C8B9FFF711FF0446E0B9144A0321144812
:102E78002BF0FFFC06E004460346124A01211048E5
:102E88002BF001FD204610BD03460F4A01210C48D6
:102E98002BF0F9FCF6E703460C4A012108482BF011
:102EA800F2FCEFE703460A4A012105482BF0EBFC48
:102EB800E8E700BF34C90400A915012010C30400C5
:102EC80090B20400A8C20400C0C2040038C20400C2
:102ED800E0C2040010B582B00023019302214FF62E
:102EE8000B400BF05BF8A8B1044602210C302CF023
:102EF8008EFD01AA21464FF60B400BF0ABFC0446B1
:102F080080B90198C4682CF037FD94F90140204637
:102F180002B010BD074A012107482BF0AAFC6FF048
:102F28000B04F4E70346054A012103482BF0ABFCE8
:102F3800EDE700BF28C3040090B204004CC30400AE
:102F480070B586B001F060FD0446FFF7C3FF054683
:102F580001211D4829F030F9002C2DDBC6B21B4B8E
:102F680083FB0423E217C2EBE302002301930293DD
:102F780003930493059302238DF804308DF80820F9
:102F880029F0A3F903908DF810508DF811600022F4
:102F9800002301A90E4820F0E3FB38B923460D4A67
:102FA80003210D482BF06FFC06B070BD0B4A0221BF
:102FB80009482BF05EFCF1E72346094A012106483F
:102FC8002BF061FCF0E700BFF8AC040067666666AA
:102FD800103E002088C3040090B2040074C30400AB
:102FE800A0C304002DE9F04186B000AF01F00CFD4C
:102FF800051E66DBFFF76EFF044601213A4829F0FB
:10300800DBF806465FFA80F8384A82FB0532EB1790
:10301800C3EBE20300227A60BA60FA603A617A612F
:1030280002223A713B7229F050F9F8603C7487F833
:10303800118000220023391D2D4820F091FB002823
:1030480046D1F6B2E8468AB06B4613F1100245D075
:1030580014217AB10846042903DDDFF8A4C0C3F8B7
:1030680014C0082800DD9D610C2800DDDC611028F3
:1030780000DD1E62132934DD14243AB105213970AC
:1030880000217970B970F9703868186100216FF300
:1030980000016FF341016FF382016FF3C501032350
:1030A80063F38811C4F30A0363F353216FF31F51C9
:1030B8000023104804F0A2F8C5461837BD46BDE8FD
:1030C800F0812B460C4A01210A482BF0DCFBF4E77F
:1030D8000A4A022107482BF0CCFBEEE76FF00041CB
:1030E800B7E76FF01B04C8E7F8AC040067666666CC
:1030F800103E002090B20400C4C30400E4C30400DE
:1031080010C404002DE9F04385B002AF1E46BB6A27
:10311800E62B3AD90446894690460E2A3DD8B4F99A
:10312800003007EE903AF8EEE77A9FED5E7AC7EE48
:10313800877A17EE900AFDF76FFA41EC100B28F02A
:10314800F3FE51EC100BFDF759FD10F11D0F2EDBAE
:103158002828A8BF2820C3B21E333370A38842F2A0
:103168003312934226D9A3F50453343B9BB27370B0
:103178001B0AB370237EF370637E3371A37E737171
:1031880086F806800020072531E0E7220092464AAB
:10319800012146482BF082FB71E00E25009513466D
:1031A800434A022141482BF079FBA846B7E76FF064
:1031B8001D00D0E70023DAE77219010109EB0013BB
:1031C80059F801C05C68996846F805C05460916078
:1031D80005F10C02DC68B318B454C4F307225A7022
:1031E800220C9A70240EDC7010350130C0B24045B4
:1031F800E2D34446C8F10E08B8F1000F43DCE72DCE
:103208003DD06E468AB002AB13F1100244D01421AF
:1032180092B10846042903DDDFF898C0C3F814C04A
:10322800082803DD4FF0E70CC3F818C00C2800DDB0
:10323800DD61102800DD1C62132930DD14243AB149
:103248000521397100217971B971F97178681861AE
:1032580000216FF300016FF341016FF382016FF3F7
:10326800C501022363F38811C4F30A0464F35321EC
:103278006FF31F5100230D4803F0C0FFB5460C370C
:10328800BD46BDE8F0834FEA081842460021701990
:1032980037F025FA4544B2E76FF00041B8E76FF020
:1032A8001B04CCE70000C84260C4040090B20400CC
:1032B8007CC40400C0C404002DE9F04F99B002AFEB
:1032C8000024BC62FC623C637C63BC63FC633C64BA
:1032D80028F0FBFFF86328F0F8FFF860AE4B1C609D
:1032E8005C601C72CFE3AD4B1B780D2B0CD8591CBE
:1032F800AA4A1170AA4C04EB031407F1580313E906
:103308000F0084E80F00D5E3A64A0221A6482BF057
:10331800B0FACFE3B7F948303B85FB6CFB623B6DF5
:10332800FA6B934240F2C683FB63C3E397F84830D5
:1033380087F8403097F9503087F8413097F8513086
:1033480087F84230FB6CFA6B934240F2B383FB631D
:10335800B0E3964A012194482BF095FA4FF40040C7
:10336800002136F0F9FA8EE3914B1B78002B45D0FB
:103378006C4688B002AB13F1100200F083800C2178
:1033880052B10846042903DDDFF870C2C3F814C03F
:10339800082801DD874898610B2976DD0C213AB1B0
:1033A8000320387600207876B876F876B869186100
:1033B8006FF300066FF341066FF382066FF3C506DD
:1033C800042363F38816C1F30A0161F353266FF3EC
:1033D8001F5600233146744803F010FFA5466E4877
:1033E80008F0CEFE031E53DB6B4808F08FFE031E69
:1033F80054DB00236E4A13706F4A1360674B1A78C8
:1034080042B30E2A05D06D4B1B68A9EB03038B2B27
:1034180020D9531E624901EB0313DB68FB63E724E1
:103428000094674B07F12800FFF76CFEF023654A0C
:1034380021466348FFF756F80346002834D0624A0D
:10344800012159482BF01FFA544B00221A705B4B8C
:10345800C3F80090FB68A9EB03025C4B9A4240F268
:10346800128308225A495B4806F0EEFD03460028FD
:1034780038D0594A01214C482BF005FA28F025FF8D
:10348800F86000E36FF000417AE76FF01B0186E710
:10349800524A012144482BF0F6F9A5E7504A012188
:1034A80041482BF0F0F9A4E700214E4828F0EAFE45
:1034B8000028C9D04C4BD3E8AF3F002BC4D10093B0
:1034C80001224A494A4800682DF033FD0346002886
:1034D800BAD010F1780FB7D0464A022132482BF003
:1034E800D2F9B1E73A4B93ED007B6C461C220C23D2
:1034F80012F0070F26D103F108018C461F3323F081
:103508000703ADEB030D02AA29B102F11003032949
:103518001BD86FF01B0C6FF300086FF341086FF3B3
:1035280082086FF3C508042363F388186CF35328E3
:103538006FF31F581032002341461B4803F05EFE0C
:10354800A5469BE704330432D2E73BB1042901DDE9
:1035580029485061082901DD164890611C204FF068
:103568000C0C10F0070F4BD1604623B18C4502DAE2
:103578009C448CED007B0830814245DB8446002B5F
:10358800C9D0C0F38700387600237B76BB76FB76FC
:10359800B8691061BFE700BF007A0020A4150120B8
:1035A8008076002008C5040090B2040038C50400E5
:1035B800A715012040C80400FC7900207C76002073
:1035C8001479002024780020D0C50400E09304007A
:1035D800E845002024C6040064C6040084C504002D
:1035E800B0C504008C7A0020987A00204834002066
:1035F8001C780020F8C504003CC6040060C504001F
:103608000CF1040C0430ACE76FF01B0CB7E7A64BC9
:103618001B7823B1A44B00221A70A44B186097F8AA
:103628004430002B40F02F82A14B1B78002B40F038
:103638008F80A04B1B78002B40F08A806C460123BA
:103648003B7603237B768AB002A911F1100200F0C1
:103658009D804FF0120C4AB16346BCF1040F01DDA6
:1036680095484861082B01DD944B8B6101233B751C
:1036780003237B75002A40F08C80BCF1110F40F3C6
:10368800A080122342B10420387600207876B876DC
:103698000120F876B86908616FF3000B6FF3410BEE
:1036A8006FF3820B6FF3C50B042161F3881BC3F31F
:1036B8000A0363F3532B6FF31F5B002359468048BB
:1036C80003F09CFDA54632227E497F4808F08AFC1B
:1036D800002879DB6C4688B002AB13F1100200F0C9
:1036E800DC800C2152B10846042903DDDFF8F0C163
:1036F800C3F814C0082801DD704898610B2940F30D
:10370800CF800C213AB10320387600207876B8763D
:10371800F876B86918616FF3000A6FF3410A6FF31E
:10372800820A6FF3C50A042363F3881AC1F30A01F6
:1037380061F3532A6FF31F5A00235146604803F080
:103748005DFDA5465A4B01221A70604B00221A6093
:10375800574B1B7823B1574B1B78002B00F0C280C6
:10376800544B1B78002B00F08E81594B1B68A9EB3A
:103778000303584A934240F28681574A022150482F
:103788002BF077F8524BC3F800907CE16FF0004CB7
:1037980061E7BCF10C0F01DD4A4BCB6101F120035D
:1037A80000203A6009E000F1480E07F11002964443
:1037B8001EF844EC03F801EB01300128F3D93A680C
:1037C8005BE76FF01B035DE76C4600233B76022343
:1037D8007B768AB002A911F110023AD04FF0120C90
:1037E80022B1BCF1040F01DD3C4B4B6100233B755A
:1037F80002237B7582BBBCF1110F4BDD122342B152
:103808000420387600207876B8760120F876B869F2
:103818000861B9686FF300016FF341016FF382012A
:103828006FF3C5010846012161F388100146C3F30F
:103838000A0363F353216FF31F51B9600023204833
:1038480003F0DCFCA5464FF42030002136F084F864
:103858007EE76FF0004CC3E76346BCF1080F03DD59
:10386800DFF860E0C1F818E00C2B00DDC86101F159
:10387800200300203A6009E000F1480E07F1100229
:1038880096441EF844EC03F801EB01300128F3D903
:103898003A68B0E76FF01B03B1E76FF0004121E72A
:1038A8006FF01B012EE700BFA41501207C760020D5
:1038B800A7150120A61501208CC6040040C80400E5
:1038C80090B2040010BB0400007A0020FC790020AC
:1038D80078760020E093040084C70400B0C6040092
:1038E800D0C604007B6DBB6107F11C0307F14802D9
:1038F80007CA83E80700102207F11801884808F072
:1039080023FC041E4DDB0F2C64D9864A136801334F
:10391800136041F64B52934240F3B580804808F05B
:103928002FFC031E65DB6C4688B002AB13F1100256
:1039380065D00C2152B10846042903DDDFF828C2FE
:10394800C3F814C0082801DD774898610B2959DDB0
:103958000C213AB10320387500207875B875F875D0
:10396800786918617B686FF300036FF341036FF3A5
:1039780082036FF3C5031846042363F388100346D4
:10398800C1F30A0161F353236FF31F5319467B6098
:103998000023664803F032FCA546624B00221A60F9
:1039A80071E02346624A012160482AF06CFF14F155
:1039B8001C0F06D05A4808F0A9FB5E4B00221A706B
:1039C80061E05D4A022159482AF053FF5B4B01220E
:1039D8001A70EFE7102300932346594A02215348EF
:1039E8002AF05CFF4E4808F091FB524B00221A70F7
:1039F80049E0544A02214D482AF045FFCDE76FF0CF
:103A0800004197E76FF01B01A3E76FF0004169E001
:103A18000B2975DD0C213AB1032038760020787621
:103A2800B876F876B86918616FF300056FF3410549
:103A38006FF382056FF3C505042363F38815C1F39B
:103A48000A0363F353256FF31F55002329463748AC
:103A580003F0D4FBA546324808F092FB031E52DB64
:103A68002F4808F053FB031E53DB0023314A137021
:103A78002C4A1360344B1B782BB1334B00221A703D
:103A8800324BC3F8009041F69A12002307F1440123
:103A98002F481FF0D5FE034600287FF45AAC97F84C
:103AA8004430012B3FF436AC022B3FF43FAC002BE3
:103AB8003FF419AC274B1C6828F007FC8146264BBD
:103AC8009C423FF451AC254B9C423FF4A0AD194BAE
:103AD8001B78002BCED06C4688B002AB13F11002D5
:103AE80093D00C21002A93D00846042903DDDFF87F
:103AF8007CC0C3F814C008288ADD0B48986187E7A2
:103B08006FF01B0187E7164A012108482AF0BBFE1F
:103B1800A6E7144A012105482AF0B5FEA5E700BF2B
:103B2800007A0020FC79002040C8040090B204000C
:103B3800F4C60400A715012014C70400A615012027
:103B480028C7040054C70400A41501207C7600206F
:103B5800103E00207C7A002074C9040080C904004B
:103B680084C50400B0C5040070C70400B0C70400D1
:103B780030B583B0294D00222949284636F01BF874
:103B880000222849284836F016F8002227492848F4
:103B980036F011F8274C00222749204636F00BF85A
:103BA8002649274835F06EFC2649274835F06AFC37
:103BB8002649274835F066FC2649274835F062FC37
:103BC8002649274835F05EFC2649274835F05AFC37
:103BD8002649274835F056FC2649274835F0CDFCBC
:103BE8002649274835F0C9FC264B63634FF4004249
:103BF8000023CDE90023204621F07EF94FF0E17241
:103C08000023CDE90023284621F076F91E4A032136
:103C18001E482AF02EFE03B030BD00BF30420020FF
:103C2800ED190100351A0100F8410020251A01009C
:103C3800C0410020B0450020CD1801002522010018
:103C48005C7A0020D12101004C7A0020492F010024
:103C58006C7A00206D1F01003C7A00207D24010051
:103C68002C7A0020312301001C7A0020E91E010073
:103C78000C7A00201D1E010098420020FD19010049
:103C88006842002058AD0400C8C7040090B2040080
:103C980008B510480023D0E8EF2FC0E8E13F00291D
:103CA800F9D100F10C020221D2E8EFCFC2E8EE1FF1
:103CB800BEF1000FF8D1103803754EF6602383610A
:103CC80005492BF001FF054A032105482AF0D1FDDB
:103CD80008BD00BF8C7A002068C90400F4C704003E
:103CE80090B20400D0B588B0FFF7D2FFFEF7CEFC43
:103CF80030B15149514807F095FE002008B0D0BDB9
:103D0800FEF704FD0028F4D1FEF74AFD0028F0D1A3
:103D1800FEF7F6FD0028ECD1494B1B78022B0BD996
:103D28004549464807F07EFE17F09CFA4FF4160006
:103D3800002135F011FEF9E7FEF774FD0028D8D10F
:103D4800FFF716FFFEF7B6FE0028D2D1FEF7BCFD3E
:103D58000028CED1FEF710FF0028CAD1FEF726FFB3
:103D68000028C6D1FFF76CF80028C2D1FFF73AF94E
:103D78003449324807F056FE334804F05FFC0446E5
:103D88000028B6D1314B01221A7000F071FE00F004
:103D98006DFF13E02E4B53F8346003EBC4031F7917
:103DA80001223946304628F027FAFA2028F054FA3A
:103DB80000223946304628F01FFA0134022CE9DD8A
:103DC8004FF400460027CDE9066700240494052334
:103DD80003930294019400941E4B4FF480621E4991
:103DE8001E4835F06DFC1E4920F00EF9CDE9066736
:103DF800049406230393029401940094194B4FF4FE
:103E080080621949194835F05BFC194920F0FCF823
:103E1800CDE9066704940723039302940194009460
:103E2800144B4FF4C0621449144835F049FC144946
:103E380020F0EAF878E700BF98C904007C7A0020EF
:103E4800AA15012074C904005D1A0100A8150120F3
:103E58001CC9040099110100C81F0120B8440020A2
:103E680018C8040051100100C81B0120C0430020DD
:103E780020C80400C1320100C8150120C842002032
:103E880028C8040070B504469DF81000A0FB022164
:103E980000FB03111F4BA2FB030203FB0123DD17E9
:103EA8004FF6ED7606EAE37620F04042810F41EACC
:103EB800830121F040410A4402EB1372324416494F
:103EC800A1FB0261561A01EB5601890BC1EBC13106
:103ED800521A25F4FF4121F07D010A44801A63EB50
:103EE800E2730E4A0E4E00FB06F602FB0366A0FBC9
:103EF800025216440B4A002328463146FCF7C6FEF8
:103F08002060084A002328463146FCF7BFFE62605D
:103F180070BD00BF3AA3950005000200FF7FFFBFF8
:103F2800FFDFFFEF40420F0070B50446BDF81010E8
:103F3800A1FB020201FB032310EB000C43EB03017E
:103F48001CEB000C43EB0101090241EA1C614FEA3A
:103F58000C2CBCEB000C61EB0301C90141EA5C616C
:103F68004FEACC1CBCEB000C61EB0301890041EA71
:103F78009C714FEA8C0CBCEB000C61EB0301C9008F
:103F88000B4A00234FEACC0041EA5C71FCF77EFE45
:103F980006460D46074A0023FCF778FE2060054ACE
:103FA800002330462946FCF771FE626070BD00BFF1
:103FB8004CFF590040420F0010B588B001F07F0156
:103FC8008DF81F100DF11F01039101210491059235
:103FD800069303AB01930223029301A9006828F01A
:103FE800BFF9041E06DB022020F0E6FB0024204671
:103FF80008B010BD2346034A012103482AF043FCB8
:10400800F5E700BFACC9040070B2040010B58CB06D
:1040180061F07F018DF82F100DF12F010991012119
:104028000A9109AC079408910BA903910221049104
:104038000592069303AB0193029101AA07A90068B0
:1040480028F083F9041E06DB022020F0B5FB0024CB
:1040580020460CB010BD2346024A012102482AF02E
:1040680012FCF5E7C4C9040070B2040010B582B0B0
:1040780001230DF107020021FFF7C8FF044610B91C
:10408800204602B010BD0346024A012102482AF028
:10409800FAFBF5E7E8C9040070B2040070B584B013
:1040A80006460025ADF80C502C4607E0174A0121BA
:1040B80017482AF0DEFB04F58074A4B2B4F5005F5B
:1040C80020D2C4F343038DF80C30C4F347138DF8A2
:1040D8000D304FF47A730093022303AA5B21304614
:1040E80028F048F945B2002DE0D14FF47A730093D7
:1040F8004FF48073074A22445E21304628F03AF98B
:1041080045B2D8E7284604B070BD00BF1CCA0400F9
:1041180070B204003CCE040010B582B0B1F5005F67
:104128000FD28DF80410C1F304218DF80510022375
:1041380001AA4621FFF740FF044650B9204602B0C5
:1041480010BD074A012107482AF093FB4FF0FF34BE
:10415800F4E7054A012103482AF08BFBEEE700BF8C
:1041680038CA040070B2040070CA040030B583B0C5
:1041780004468B78DB018DF807304A780B789B0171
:1041880043EAC2138DF8063001230DF107024021DE
:10419800FFF712FF58B901230DF10602422120460C
:1041A800FFF70AFF054648B9284603B030BD054663
:1041B800054A012105482AF05CFBF5E7044A01217C
:1041C80002482AF056FBEFE79CCA040070B20400CC
:1041D800C0CA040010B582B043EA42035BB243EAA6
:1041E80081035BB29DF8102043EAC2038DF80730C3
:1041F80001230DF107027D21FFF7DEFE044610B909
:10420800204602B010BD034A012103482AF031FBC1
:10421800F6E700BFE4CA040070B2040030B583B00A
:10422800044601230DF107027021FFF7EFFE054652
:1042380038B99DF8073013F0100F09D0284603B09D
:1042480030BD03460E4A01210E482AF01CFBF5E753
:1042580043F010038DF8073001230DF10702702198
:104268002046FFF7A9FE054618B9322034F0B4FD00
:10427800E4E70346044A012102482AF004FBDDE78B
:1042880000CB040070B204001CCB040010B584B04D
:1042980004460160FFF7EAFEB0B9204628F08BF823
:1042A800D0B92046FFF7BAFFE8B901230DF10F0294
:1042B80021212046FFF7AAFEE0B99DF80F3013F040
:1042C800010F1ED0012005E04B4A01214B482AF07E
:1042D800D0FA002004B010BD494A012147482AF00D
:1042E800C8FA0020F6E7474A012144482AF0C1FAF3
:1042F8000020EFE7444A012140482AF0BAFA00209A
:10430800E8E7C82020F058FA01230DF10F02002138
:104318002046FFF77BFE28B99DF80F30242B08D0E4
:104328000020D7E7394A012134482AF0A2FA0020B0
:10433800D0E702238DF80E304FF4E1730093012388
:104348000DF10E027C21204628F014F850BB002302
:104358008DF80E3001230DF10E0259212046FFF78A
:104368002BFE30BB2046FFF799FE48BB01238DF892
:104378000E3047F2305200920DF10E0259212046BC
:1043880027F0F8FF18BB01230DF10F022121204669
:10439800FFF73CFE10BB9DF80F3013F0010F24D03F
:1043A800012097E71A4A012114482AF062FA0020EE
:1043B80090E7184A012111482AF05BFA002089E7A2
:1043C800154A01210D482AF054FA002082E7134AC1
:1043D80001210A482AF04DFA00207BE70A4A012108
:1043E80006482AF046FA002074E70D4A01210348DE
:1043F8002AF049FA00206DE738CB040070B20400B7
:1044080050CB040060CB040074CB040094CB0400B0
:10441800B0CB0400DCCB04000CCC040030CC04008E
:1044280050CC040070B584B005461446FFF774FEFE
:1044380094F90230227843EAC2035BB2E27843EA95
:1044480002135BB2627843EAC2138DF80F3014236B
:10445800009301230DF10F024521284627F08AFF1A
:1044680010BB94F90430627943EA42038DF80C30AA
:10447800A279E3795B0143EA02135BB2227A43EA49
:1044880082135BB2627A43EAC2138DF80D301423AB
:104498000093022303AA4821284627F06BFF06460B
:1044A80050B9304604B070BD06464523064A01217E
:1044B80006482AF0E8F9F4E74823054A01210348A9
:1044C8002AF0E1F9EDE700BF78CC040070B20400EF
:1044D800A8CC040010B584B091F900304A7843EABA
:1044E80002135BB2CA7843EAC2138DF80C308B789A
:1044F8008DF80D3014230093022303AA402127F0DE
:1045080039FF044610B9204604B010BD4023034AC1
:10451800012103482AF0B7F9F5E700BFD8CC040019
:1045280070B2040010B584B091F900304A7843EABB
:1045380002135BB2CA7843EAC2138DF80C308B7849
:104548008DF80D3014230093022303AA422127F08B
:1045580011FF044610B9204604B010BD4223034A97
:10456800012103482AF08FF9F5E700BF04CD0400C4
:1045780070B20400F0B585B006460C461D461746D5
:104588000AB133B965B1032C20D8DFE804F0213033
:1045980049110023009301221146FFF71BFEF1E7A2
:1045A80000220092134601213046FFF713FEEAE786
:1045B80002238DF80F3001230DF10F027C213046C4
:1045C800FFF7FAFC23493046FFF7D0FD05B0F0BDF0
:1045D80002238DF80F3001230DF10F027C213046A4
:1045E800FFF7EAFC1C493046FFF7C0FDEEE706235B
:1045F8008DF80E3001230DF10E027D213046FFF7B4
:10460800DBFC03238DF80F3001230DF10F027C2111
:104618003046FFF7D1FC11493046FFF7A7FDD5E733
:1046280007B92DB10E4A01210E482AF022F9CDE72B
:1046380003238DF80F3001230DF10F027C21304642
:10464800FFF7BAFC002100910B460A463046FFF7F7
:10465800C1FDBBE7683400206C340020A07A00203C
:104668002CCD040070B20400F0B587B005460C46A6
:1046780000218DF80A10032A10D8DFE802F0021191
:104688000B0D0226042B00F29C80DFE803F09794C0
:10469800919C0B000826F5E71026F3E70026F1E7C2
:1046A8000426EFE77D270C230DEB03021946284665
:1046B800FFF7ACFC01230DF10A022F212846FFF772
:1046C8007BFC01230DF10B023C212846FFF79EFCE1
:1046D80005469DF80B3013F0400F76D063F07F034A
:1046E8008DF80B30002D78D19DF80C309DF80D20F9
:1046F80043EA022300961AB243F3C0332046FFF779
:10470800C1FB9DF80E309DF80F2043EA0223009666
:104718001AB243F3C03304F10800FFF7B3FB9DF866
:1047280010309DF8112043EA022300961AB243F391
:10473800C03304F11000FFF7A5FB9DF812209DF887
:10474800133042EA032212B29DF90B109DF816307D
:104758009DF8170043EA00231BB201FB03F3002B6B
:1047680038DBA2EB63220097D31704F11800FFF798
:10477800DBFB9DF814309DF8152043EA02230097CF
:104788001AB243F3C03304F12000FFF7CDFB9DF8C4
:1047980016309DF8172043EA022300971AB243F314
:1047A800C03304F12800FFF7BFFB284607B0F0BD6F
:1047B8004FF4FA7777E74FF47A7774E74FF4FA67AC
:1047C80071E700276FE7FA276DE703F07F038DF89D
:1047D8000B3087E703F2FF13C3E7034A01210348BD
:1047E8002AF047F8E1E700BF58CD040070B2040092
:1047F800F0B585B006460C461546CB7891F802C050
:104808004FEACC0C4CEA031C4FFA8CFC4B784CEA70
:10481800830C4FFA8CFC0B784CEA430C8DF80EC0D5
:104828000B798DF80D3001230DF10D025521FFF79D
:10483800C3FB074600BBA37963BB63798DF80F30D0
:10484800012D43D0022D1DD1572401230DF10E0255
:1048580054213046FFF7B0FB074600285DD10123FD
:104868000DF10F0221463046FFF7A6FB0746002848
:104878005AD1384605B0F0BD2F4A01212F4829F0FA
:10488800F8FFF6E72E4A01212C4829F0F2FF4FF0F5
:10489800FF37EEE763798DF80F30012D04D0022D34
:1048A8000CD11B018DF80F30012D2BD0022D32D0E9
:1048B800244A0121214829F0DCFFDAE7204A0121B6
:1048C8001E4829F0D6FF4FF0FF37D2E756240123C0
:1048D8000DF10E0253213046FFF76EFB074698B9DB
:1048E80001230DF10F0221463046FFF765FB07460D
:1048F8000028BED000942B46134A01210F4829F006
:10490800CDFFB6E75824E2E72B46104A01210B48B1
:1049180029F0B9FFADE7582497E72B460B4A012148
:10492800064829F0B0FFA4E700942B46064A012167
:10493800024829F0B3FF9CE774CD040070B204006C
:10494800A0CD040018CE0400ECCD0400BCCD0400BA
:1049580008B51B4B186834F045FA50B3194834F0C1
:1049680041FA48B34FF4B011174827F05EFDF8B983
:10497800134B0022DA601A615A619A61DA610121E7
:10498800196103F1200058610220986104205877CA
:10499800997719185A604A60587144F22802DA80E7
:1049A80003225A720E221A77186883681B68984780
:1049B80008BD6FF00100FBE76FF00100F8E700BFEA
:1049C8007034002010AD040048EE040008B5FFF76D
:1049D800BFFFB0FA80F35B09014A137008BD00BF3E
:1049E800AB15012008B5064B1B782BB102461021E8
:1049F800044827F035FD08BD6FF00100FBE700BF54
:104A0800AB15012010AD0400154B1B782BB310B566
:104A180082B0144C214651F80C0B83685B689847A8
:104A28000022A27708B102B010BDB4F9203001937A
:104A38002368986801AB227F2179008927F01DFD42
:104A480001984FEAE07C084CA0FB0401074A0023C8
:104A580004FB0C11FCF76AF9E5E76FF001007047F9
:104A6800AB1501207034002080A2190020BF02007D
:104A780008B5064B064A0321064816F0C1FC064B4A
:104A8800064A0321064816F0BBFC08BDEC7A002054
:104A98009CEE0400B07A0020BC7A002060EE04008E
:104AA800A47A002030B583B005460C4620EE000AF3
:104AB80060EEA00A30EE200A21EE011A30EE011A4B
:104AC800B5EEC01AF1EE10FA19DBB1EEC11A8DED90
:104AD800011A012301AA11460A4816F03FFC019B5E
:104AE800009301236A466946074816F037FC0DB162
:104AF800019B2B600CB1009B236003B030BD9FED80
:104B0800031AE4E7B07A0020A47A0020000000002D
:104B180000B54FF0000C9FED267AF0EE476A0BE0E7
:104B280000EB8C0EDEED007A76EEA76A67EEA77AC8
:104B380037EE277A0CF1010C8C45F1D307EE901A69
:104B4800F8EE674A86EEA45AC7EE245A65EE057A4F
:104B580075EEE75AF1EEE55A4FF0000CDFED146AF6
:104B6800B0EE666A13E000EB8C0EDEED007A77EEAD
:104B7800C57A87EEA57A67EE077A27EE277A36EEAA
:104B8800076A67EEA77A76EEA76A0CF1010C8C45E6
:104B9800E9D3C6EE247AC2ED007AC6EEA47AB0EE66
:104BA800087A77EEC77AC3ED007A5DF804FB00BF98
:104BB8000000000000EB8103D3ED007AB6EE007A26
:104BC80067EE877A0B4600E0013B53B100EB830C9C
:104BD8009CED007AB4EEE77AF1EE10FAF4DC00E02E
:104BE800013102F1FF3C8C4508D900EB810C9CEDAA
:104BF800007AB4EEE77AF1EE10FAF1DCC91A07EEA2
:104C0800901AF8EE677A9FED020A27EE800A70473D
:104C18000000C83D00B52DED028B83B09FED128AD0
:104C28008DED018A00230EE000EB830CDCED007AA9
:104C380003EB020C00EB8C0C9CED007A67EE877A94
:104C480038EE278A0133A1EB020C9C45ECD801AA67
:104C580016F048FC9DED010A88EE000A03B0BDEC91
:104C6800028B5DF804FB00BF0000000010B50F4B7D
:104C78000024DC609C605C609C615C611C614FF49A
:104C880080610B4817F078FC0A4B1C6000230A4A25
:104C980013600A4A14600A4A13600A4A14700A4ADE
:104CA80014600A4A13600A4A136010BD9434002045
:104CB800EC8D0020E88D0020E48D0020E08D0020A0
:104CC800DC8D0020AC150120D88D0020D48D00206B
:104CD800D08D00202DE9F04F2DED108B95B000AF51
:104CE80087ED050A04466B4D042207F11401284696
:104CF80028F027FEAB682A699B1AB3F5166FC0F037
:104D080083830025B5F5166F1BD2C5F5166207F12A
:104D18001C01604828F035FE064658B10246F9697C
:104D28005D48284435F0B4FC00215A4828F046FE76
:104D38003544E7E7594A0121594829F09AFD0020EE
:104D480063E3554D07F14C024FF41671284616F0EF
:104D580089FB07F148024FF41671284616F0F2FB5A
:104D680097ED129AB1EEC99ADFED4E7AB4EEE79A52
:104D7800F1EE10FA10D500254FF4C872002145480D
:104D880028F03AFE04B12570002D00F03B83002C7A
:104D980000F03683012038E3434D4FF416623E4954
:104DA800284635F075FC4FF4D462002105F51660ED
:104DB80035F095FC00233D4A29463D4817F026FB6F
:104DC800002512E06B1C4FEA5508384E06EB8303AA
:104DD80006EB8502D3ED000A92ED000A27F0EAF807
:104DE80006EB880686ED000A0235B5F5806FE9D333
:104DF80007F1400307F1440240F2FF112D4816F075
:104E08000DFB3B6C642202FB03F308EE103AB8EE8C
:104E1800488ADFED297A28EE278AF6EE007AB4EE82
:104E2800E78AF1EE10FA00F1E782F0EE087AB4EEC4
:104E3800E78AF1EE10FA01DD00259DE7DFED1F8A14
:104E4800C8EE887A144DFCEEE77A17EE902A4FF4F4
:104E580016712846FFF7DEFE87ED040AF6EE007AA3
:104E680068EE277A88EEA77AFCEEC77A17EE902AC2
:104E78004FF416712846FFF7CDFEF0EE408AB0EEEB
:104E8800C07ADFED0F7AB4EEE77AF1EE10FA19D5B1
:104E9800002571E79434002004AE0020D8EE040009
:104EA80080B204000AD7A33D049E0020048E00208F
:104EB800EC8D0020088E00200000803A0000C842D7
:104EC8009A99193E07F1380307F13C024FF416711D
:104ED8002846FFF71DFEC24E4FF41672314628468B
:104EE80027F031FBDFF8448340F257224146304631
:104EF80027F029FB07F1340240F25721304616F01B
:104F080021FB07F1300240F25621404616F01AFB09
:104F180097ED0DAAB1EECAAAD7ED0C9AF1EEE99A6F
:104F28009FEDB0BA28EE0BBA07F1200307F12C0267
:104F38004FF41671284616F0B1FA07F1200307F16D
:104F480028024FF41671284616F068FAD7ED0AAA17
:104F5800D7ED0B7A7AEEE7AA07F124024FF416711F
:104F6800284616F0CDFA4FF40072396C9E48FFF7C8
:104F780021FEF0EE40CAB7EE007AC7EE087A9B4BE6
:104F88001B7853B9994B01221A70994B00221A6069
:104F98000023984A1360984A136095490B685A1C75
:104FA8000A60944991ED007A77EEC76A06EE102AF6
:104FB800F8EE465A86EEA56A37EE067A81ED007A53
:104FC80077EEC77A67EEA67A8B49D1ED006A77EE5D
:104FD800A67AC1ED007A012A40F2D98006EE903A0D
:104FE800B8EE666AC7EE866AF1EEE67ADFED836AA6
:104FF80067EEA67AC7EE87BAF5EEC08AF1EE10FA28
:1050080000F1C880F0EE687AB7EE007AF4EEC77A5D
:10501800F1EE10FA01DDF0EE477A9FED797A67EE4E
:10502800877AB5EE000A30EE670ADFED767AB4EEDD
:10503800E70AF1EE10FA01D5B0EE670A102220EE69
:10504800090A6421704827F02BFA07EE900AF8EE57
:10505800677AB6EE007A67EE87DADFED6C5A78EE9B
:10506800E56ADFED6B7A86EEA77AF7EE007A87FEBF
:10507800677A9FED686A87FE06DADFED676A76EE83
:10508800EC6A86EEA57A87FE677A87FE06CA37EE4F
:10509800CD9A37EECC7A29EE079AB1EEC99A37EE57
:1050A800C99A29EE087A77EEC97A67EEAD7A77EE73
:1050B800277A5A4B93ED007A77EE877AC3ED007A18
:1050C800FAFE677AFCEEE77A17EE909A544BC3ED36
:1050D800007A544BD3ED007A78EE277AC3ED007A44
:1050E800F8FE677AFCEEE77A17EE905A4E4BC3ED5E
:1050F800007A3869FBF790FA00220023FBF72EF9B3
:10510800C7E900011CEE900AFBF786FA002200238B
:10511800FBF724F9C7E9020118EE100AFBF77CFA3D
:1051280000220023FBF71AF941EC1F0B1DEE900A31
:10513800FBF772FA00220023FBF710F941EC1E0B73
:105148001DEE100AFBF768FA00220023FBF706F9A8
:1051580041EC1D0B1CEE100AFBF75EFA002200233F
:10516800FBF7FCF882468B4619EE100AFBF754FA57
:1051780000220023FBF7F2F841EC170BE8462C223B
:105188001C2312F0070F08D1083308320AE0DFEDBC
:1051980021BA31E7DFED1F7A36E704330432F0E74E
:1051A8000433043212F0070FFAD10833083201E051
:1051B8000433043212F0070FFAD10833083201E041
:1051C8000433043212F0070FFAD10833083201E031
:1051D8000433043212F0070FFAD10833083229E0F9
:1051E8007484002000007042048E0020AC15012059
:1051F800D88D0020D48D0020D08D00200000C8421A
:10520800713D8A3ECDCCCC3DD4B500209A99193F4A
:10521800CCCC4C3E00000000CDCC4C3FDC8D0020B7
:10522800E08D0020E48D0020E88D00201C7B00200C
:105238000433043212F0030FFAD11A1D96461B33B9
:1052480023F00703ADEB030DEC46002A00F0958030
:105258000CF11003032A40F28E80A3B1042A02DD68
:105268006D49CCF81410082A03DD97ED006B8CED1E
:10527800066B102A03DD97ED026B8CED086B182A7C
:1052880001DDCCF828502C204FF01C0E014610F000
:10529800070F09D1704623B1724502DD9E448EED99
:1052A80000FB0830083105E00EF1040E0430EDE78C
:1052B800043004318E4611F0070FF9D1014623B1AD
:1052C800824202DD181880ED00EB08310EF1080E5D
:1052D80002E004310EF1040E70461EF0070FF8D1FB
:1052E8008E4623B18A4202DD591881ED00DB0EF1AA
:1052F800080E083002E00EF1040E0430014610F0EA
:10530800070FF8D1764623B1724502DD9819C0E936
:1053180000AB0836083101E004360431084611F0C4
:10532800070FF9D1354623B1B24202DD991981ED53
:10533800007B083500F1080101E00435043111F063
:10534800030FFAD129461BB1AA4201DD43F80590A3
:10535800043191420CDC8E467BB1C1F38701397769
:1053680000237B77BB77FB77F869CCF8100004E063
:105378006FF01B0EF0E76FF01B0E00216FF30001BA
:105388006FF341016FF382016FF3C501022363F3E9
:1053980088116EF353216FF31F510CF11002002393
:1053A8001E4801F02BFFC54644B30125257084ED46
:1053B80001BA84ED028AC4ED03AA7B6A23617B6C7F
:1053C8006361C4ED06CAD7ED047AF0EEE77AC4ED5E
:1053D800077AC4ED088AC4ED09BA114B1B68A362A9
:1053E800104B1B68E362BB6B6363FB6B236384ED49
:1053F8000EAAC4ED0F9ABFE40025BDE40125BBE465
:10540800002002E0002000E000205437BD46BDEC3B
:10541800108BBDE8F08F00BFF8EE040080B20400E6
:10542800E88D0020E08D00204FF0000C944515D247
:1054380010B511F80C3058400309094CE35C83EAB5
:1054480000135FFA83FEC3F30313E05C80EA0E10D7
:10545800C0B20CF1010C9445EBD310BD704700BFEE
:1054680078EF04002DE9F04F91B0059202931346AE
:1054780002F004020092C3F3C20310F00302019287
:1054880040F02A8280468A460133041D00284ED007
:10549800B8F1000F05D0A4EB08020432524500F21F
:1054A8001E82029A551E019A0492069203920026C1
:1054B8004FF0FF3B0427B946B8F1000F01D0029A1C
:1054C80022605A1E0792002B40F35C81059B13F063
:1054D800020228D00120A4EB08018B081AB1B1F50B
:1054E800007F80F0028203990F2900F20182B8F14F
:1054F800000F00F05F81DBB201F140026A4402F85C
:10550800103C02F820BC002800F0508163F07F03B3
:1055180001F140026A4402F8103C049B01330493F1
:10552800039B013303930434002140463DE001F01E
:10553800070A5444CAF1080AAAE7002634E00026FC
:1055480032E0002630E00827B9462DE0252B2BD184
:105558000BF1010B01260427B94625E0472BEED8AD
:105568002A2B14D32A3BDBB24FF0010C0CFA03F3BD
:105578004FF6DA7C13EA0C0F16D113F0625F40F095
:10558800C18013F0010F40F08D8000260CE0252B20
:1055980003D10BF1FF3B002606E001D9002603E00A
:1055A800202B01D0232BCCD115466A1C6B78002BFD
:1055B80000F01981002EC9D07A2BBED84C2BCDD340
:1055C8004C3B2E2B62D80FF2080C5CF823F000BF7E
:1055D800B1550100955601009556010095560100F8
:1055E8009556010095560100955601009556010003
:1055F80095560100955601009556010095560100F3
:10560800A5560100955601009556010095560100D2
:1056180095560100955601009556010095560100D2
:10562800955601000D57010095560100A556010039
:10563800A55601000D5701000D5701000D57010037
:10564800B1550100A55601004F55010095560100BE
:10565800B15501009556010069570100A556010092
:1056680069570100955601009556010071570100D0
:105678009F560100A5560100955601009556010058
:10568800A5560100955601009956010000268BE7A2
:105698000427B94688E70427B94685E72B786C2B99
:1056A80024D000263C44013CB4FBF7F407FB04F487
:1056B80020B1231A4B44534500F21481002958D1D4
:1056C800B9F1040F00F08780B9F1080F40F0138199
:1056D8001A9B073323F0070303F108051A9593ED86
:1056E800007B08B184ED007B08345DE712F8023CCA
:1056F8006C2B03D000260427B946D3E700260827D9
:10570800B946CFE72B784C2B1AD01A9B073323F0D6
:10571800070303F108061A96D3E90067073424F053
:10572800070440B1231A0833534513D82B784C2B60
:1057380013D0C4E90067083400260827B94633E7C0
:105748001A9B073323F0070303F108061A96D3E9D7
:105758000067E3E76FF01B00BBE0C4E90067EAE716
:1057680000260427B9469DE7314600260427B94696
:1057780098E780461A9B191D1A911B680293079B8C
:10578800154699E6624B029A9A4204D3614B9A42B3
:105798000AD3002300E00023002B7FF497AE059B7B
:1057A80003F00202002096E60123F5E7069B013389
:1057B8000693B5E610B10AF1010AB1E6009B13B1F0
:1057C8000AF1020AACE60298FBF7D4FA0AEB0003E6
:1057D80003F1020AA4E61A9B1D1D1A951B6800B165
:1057E80023600434E0E68046231AB3F5806F80F026
:1057F800858090B1002202609B080370009B83B1F2
:10580800069BC370049B88F802301BBB019DDDF822
:105818000C90DDF810B0029F3DE05344A3F108005E
:1058280057E0069B4370EDE701339842EED903F148
:1058380040026A4412F8101C12F9102C002AF3DAFC
:1058480001F07F01A4EB08020132524559D804F84F
:10585800011BE9E7019B0398E7E7009B43B305F1C8
:1058680040036B4413F8203C04F8013B019EA4EB71
:10587800080333440133534546D805F140036B44CC
:1058880013F8103C04F8013B32463946204634F000
:10589800FFFE34440135A94519D9BBF1000FDCD00E
:1058A80005F140036B4413F9103C002BD5DAF1E7FE
:1058B80005F140036B4413F8103C58F8237000229C
:1058C80048F823203846FBF755FA461CCFE7A4EBE7
:1058D800080011B0BDE8F08F6FF00D00F9E76FF028
:1058E8001B00F6E76FF01B00F3E76FF01500F0E719
:1058F8006FF01500EDE76FF01500EAE76FF015009F
:10590800E7E76FF01B00E4E76FF01B00E1E700BF7B
:1059180078AB0400307B06002DE9F04F97B000AF5C
:105928008346BA61FB60D7F88030C3F3C0033B629B
:10593800396111B927F0BCF938619BF80260B146AA
:1059480036B1D7F8803013F0010F0DD1002300E0F5
:1059580000239BF803207A6242B1D7F8802012F026
:10596800020F22D1002202E00123F2E7002202B94D
:10597800EBB19BF80050AA00BA60DBF804207A610A
:105988000BEB8505BA69F2B1002B40F00481B9F13F
:10599800000F00F00F81D7F8803013F0040F40F0AB
:1059A8000D810020F8610646F9E00122DFE7BB69B6
:1059B8001BB1FA683969584698473C6920465C37F4
:1059C800BD46BDE8F08F3C69E3B94D4400233B6117
:1059D80023E00444013501364E451AD22A780023C3
:1059E8005BF822201946B86927F077F9BAF1000F59
:1059F800EFD0D7F888309845EBD22AF8180008F18C
:105A08000108E6E70026C7F81C80B046D7F884A04E
:105A1800E2E7C7F81080D7F81C80D7F8803003F089
:105A28000503FB604FF0000AA146C7F81CB09CE0D4
:105A380000253B6A7BB9002D79D0D7F8803013F068
:105A4800010F79D1FB68002B6FD10223A9EB030961
:105A580088E00125EDE75946786927F084F90028A0
:105A6800E9D06C46002387F82C30022387F82D30C4
:105A78008AB0694611F1100237D012251AB1042DE7
:105A880001DDB14B4B61002387F82830022387F8EA
:105A980029306ABB112D45DD122362B1042087F835
:105AA8002C00002087F82D0087F82E00012087F8A9
:105AB8002F00F86A08616FF300086FF341086FF36D
:105AC80082086FF3C508022161F38818C3F30A033B
:105AD80063F353286FF31F58002341469B4801F096
:105AE8008DFBA546A9F102093CE06FF00045C5E72A
:105AF8002B46082D01DD786988610C2B01DDC1F882
:105B08001CB001F12003002009E000F1300C07F17E
:105B1800280EF4441CF830CC03F801CB01300128DE
:105B2800F3D9B7E76FF01B03B7E701238EE7D7F880
:105B3800803013F0020F15D0002322461946B869A9
:105B480027F0CBF8D7F8843053B13B69D7F88820D1
:105B5800934205D2D7F8842022F8130001333B6121
:105B6800013881440AF1010A35467B6A9A4510D208
:105B78002E4616F802BB6B78FA6952F82340744B2C
:105B88009C42FFF455AF734B9C42FFF462AF002573
:105B98004FE74C4612E707F144000023FB6118B1B8
:105BA8004A46294634F074FD4D444FF00008C7F8C2
:105BB80004901EE00020F8610646F0E7FE6107F158
:105BC80034000026EBE700253B6A33BB002D3BD0B1
:105BD800D7F8803013F0010F26D0731C06F130027D
:105BE80007F12801561806F8149CDEB208F10108DE
:105BF80025467B6A984549D22C4614F802AB95F89D
:105C080001905BF82930524A9342DCD3514A9342BF
:105C180001D30025D8E70125D6E75146786927F052
:105C2800A2F80028D2D0E1E7D7F8803013F0040FAB
:105C3800DCD0FA69531C303207F128010A4402F813
:105C4800249CDBB2FB61D1E7D7F8803013F0020F58
:105C580009D0731C06F1300207F12801561806F81E
:105C6800149CDEB2C2E7F9694B1C01F1300207F15E
:105C78002800024402F824AC8A1CD2B2FA6107F167
:105C8800580252FA83F303F8249CAFE7D7F804903C
:105C98009BF8003087F854309BF80130334487F87C
:105CA8005530D7F8803013F0020F0ED1FB69C3F3DB
:105CB800470387F85730D7F8803013F0010F06D123
:105CC80013F0040F3AD1002302E00023F1E7002388
